:020000040800F2
:10000000000D0020A1010008374A0008E73C000865
:10001000354A0008990F000845520008000000000A
:100020000000000000000000000000003B4A000843
:100030007110000800000000394A00083D4A00081D
:10004000BB010008BB010008BB010008BB010008A0
:10005000BB010008BB010008BB010008BB01000890
:10006000BB010008BB010008BB010008BB01000880
:10007000BB0100089D0F0008BB010008A90F000884
:10008000BB010008BB010008A50C0008BB0100086B
:10009000BB010008BB010008BB010008BB01000850
:1000A000E54A0008BB010008BB010008BB010008CD
:1000B000BB010008F14A0008BB010008BB010008B1
:1000C000BB010008BB010008BB010008BB01000820
:1000D000BB010008BB010008BB010008BB01000810
:1000E000BB010008BB010008BB010008BB01000800
:1000F000BB010008BB010008BB010008BB010008F0
:10010000BB010008BB010008FD4A0008BB01000854
:10011000E54D0008BB010008BB010008BB01000859
:10012000B50F0008BB010008C10F0008BB010008A3
:10013000BB010008BB010008BB010008BB010008AF
:10014000BB010008BB010008BB010008BB0100089F
:10015000BB010008BB010008BB01000839520008C0
:10016000BB010008BB010008BB010008BB0100087F
:10017000BB010008BB010008BB0100080000000033
:10018000BB010008BB010008DFF810D000F0B4FA92
:1001900000480047BD5E0008AFF30080000D00205E
:1001A0000648804706480047FEE7FEE7FEE7FEE711
:1001B000FEE7FEE7FEE7FEE7FEE7FEE7D54A0008BA
:1001C000890100082DE9F05F0546002092469B4614
:1001D00088460646814640241BE02846414647465D
:1001E000224600F07CF853465A46C01A914110D37B
:1001F00011461846224600F063F82D1A67EB0108F5
:100200004F4622460120002100F05AF817EB000962
:100210004E41201EA4F10104DFDC484631462A4647
:100220004346BDE8F09F40EA01039B0703D009E085
:1002300008C9121F08C0042AFAD203E011F8013BD2
:1002400000F8013B521EF9D27047D2B201E000F82B
:10025000012B491EFBD270470022F6E710B513466A
:100260000A4604461946FFF7F0FF204610BD00F08D
:10027000004230F000400AD0C10D01F56071C0F3BA
:10028000160042EA0151C20840071143704700209E
:100290000146704730B50B4601460020202201245C
:1002A00009E021FA02F59D4205D303FA02F5491B44
:1002B00004FA02F52844151EA2F10102F1DC30BD5A
:1002C000202A04DB203A00FA02F100207047914016
:1002D000C2F1200320FA03F3194390407047202A0B
:1002E00004DB203A21FA02F00021704721FA02F3E0
:1002F000D040C2F120029140084319467047F0B443
:1003000000F0004221F0004120F00040CE0DC30D6E
:10031000C1F3160141F40001C0F316004C4215462A
:1003200040F40000761E09E010EB440002D582F094
:10033000004240428842F7D840005B1EB342F9DADF
:1003400018B1F0BC002100F004BA2846F0BC704798
:100350002DE9FE4F804681EA0300C00F0C46009055
:1003600021F0004123F00045B8EB0200A94105D27D
:100370004046214690461C460B46024623F000406C
:10038000104347D0270DC7F30A00C3F30A51029068
:10039000401A019040286BDAC3F3130040F4801B2D
:1003A0000098924620B10023D2EB030A63EB0B0BBB
:1003B00001985946C0F140025046FFF781FF0646BA
:1003C0000D4650465946019A00F0A8F910EB080076
:1003D0006141002487EA115284EAE7731A4340D04E
:1003E000009A62B3019A012A4FEA075215DC001BFA
:1003F00061EB02014FF0004202EA0752CDE90042F0
:10040000001C41F5801132462B4600F0DFF903B0A5
:10041000BDE8F08F40462146F9E7001B61EB020181
:10042000001C41F5801300185B412018A2F500174D
:1004300047EB030140EAD570B6196D4111E06D0834
:100440004FEA360645EAC0754FEA0752001B61EBDA
:100450000201001C41F5801149084FEA30000019E3
:10046000514132462B4603B0BDE8F04F00F09FB932
:100470000098012240000023D0EB020263EBE073FE
:10048000009821464FEAE074B8EB000061EB0401EC
:10049000E9E783F000435BE781F0004158E72DE98D
:1004A000FE4F81EA030404F0004421F0004100946F
:1004B0004FF0000B23F0004350EA01045ED052EAF3
:1004C00003045BD0C3F30A54C1F30A552C44A4F2CD
:1004D000F3340194A0FB0254C1F3130141F48011E1
:1004E000C3F3130343F4801301FB024400FB034EE8
:1004F000840A970A44EA815447EA8357A4FB0768B1
:1005000002958D0A05FB07854FEA932C04FB0C54DA
:100510002705029D4FEA065847EA1637B5EB08054E
:100520006EEB070C870E920E47EA811742EA8312A0
:10053000A7FB0201B6EB0B0164EB00042B0D43EAB1
:100540000C335E1844EB1C50DA465146E7FB0201BF
:10055000C5F313044FEA0B3343EA14534FEA043252
:10056000019C43EA0603A4F10C040294009CCDE92B
:1005700000B400F02BF903B0BDE8F08F0020014675
:10058000F9E72DE9F04D81EA030404F0004B21F076
:10059000004514464FF0000A23F0004150EA0502DE
:1005A00020D054EA01021DD0C5F30A570246C5F314
:1005B0001303C1F31300C1F30A5640F4801543F44A
:1005C0008013A7EB0608101BD64608F2FD3873EB24
:1005D000050002D308F1010801E092185B41B8F16F
:1005E000000F03DA00200146BDE8F08D00204FF433
:1005F0008011064684460EE0171B73EB050705D3F2
:10060000121B63EB050306434CEA010C49084FEA51
:10061000300092185B4150EA0107EDD152EA030025
:1006200012D082EA040083EA0501084305D0101BBA
:10063000AB4106D20122002306E000224FF0004326
:1006400002E06FF0010253101AEB06004CEB085168
:1006500010EB0A0041EB0B01BDE8F04D00F0A7B82C
:10066000C1F30A52C1F3130140F2FF3341F4801188
:100670009A4202DA00200146704740F233439A4220
:10068000A2F2334202DC5242FFF729BEFFF718BE46
:1006900030B5041E71F1000404DB4FF00044404209
:1006A00064EB0101141E73F1000405DB1C464FF0DE
:1006B0000043524263EB0403994208BF904230BDAD
:1006C000002801DBC0F10040002901DBC1F100413D
:1006D000814202D24FF0004004E04FF0005001D1BF
:1006E0004FF0C0404FEA2062EFF3008162F31F61D8
:1006F00081F3008870470000064C074D06E0E06873
:1007000040F0010394E8070098471034AC42F6D358
:10071000FFF73EFD08A0000828A00008202A06DBFD
:10072000CB17203A41FA02F043EAE07306E041FABF
:1007300002F3D040C2F120029140084319467047AD
:100740000029A8BF7047401C490008BF20F00100E5
:10075000704710B4B0FA80FC00FA0CF050EA0104C3
:1007600004BF10BC704749B1CCF1200421FA04F455
:1007700011FA0CF118BF012121430843A3EB0C012E
:10078000CB1D4FEA00614FEA102042BF002010BC91
:10079000704700EBC35010440029A4BF10BC704741
:1007A000401C490008BF20F0010010BC704710B584
:1007B000141E73F1000408DA401C41F10001921884
:1007C0005B411A4301D120F0010010BD2DE9F04D2D
:1007D00092469B4611B1B1FA81F202E0B0FA80F282
:1007E00020329046FFF76CFD04460F4640EA0A00AF
:1007F00041EA0B0153465A46084313D0114653EAC7
:10080000010019D0C8F140025046FFF768FD0546C7
:100810000E46504659464246FFF752FD084305D062
:10082000012004E020463946BDE8F08D0020054354
:1008300046EAE0762C4337430A986305E40AA0EBC6
:1008400008000022FD0A44EA47540A3002D500207D
:100850000146E9E7010510196941DDE9084500197C
:100860006941BDE8F04DA2E79FED221A9FED222AD3
:1008700020EE010AB5EE001A30EE010ABDEEC01AF4
:1008800011EE100AB5EE400AF1EE10FAB8BF0138C9
:1008900001EE100AB8EEC11A30EE410A20EE020A4B
:1008A000BDEEC01A9FED152A11EE100A002130EEA0
:1008B000021AB1EB502F49F604011CBF0020B0EE24
:1008C000410AC0F6000101EE100A01EB8001B8EE0A
:1008D000411A30EE410A91ED001A91ED012AB7EE6E
:1008E000003A33EE403A23EE011A20EE020A31EECE
:1008F000000A704783F9223E00000044000000C453
:100900009FED201A9FED202A20EE010ABDEEC01AAD
:1009100011EE100AB5EE400AF1EE10FAB8BF013838
:1009200001EE100AB8EEC11A30EE410A20EE020ABA
:10093000BDEEC01A9FED152A11EE100A002130EE0F
:10094000021AB1EB502F49F604011CBF0020B0EE93
:10095000410AC0F6000101EE100A01EB8001B8EE79
:10096000411A30EE410A91ED001A91ED012AB7EEDD
:10097000003A33EE403A23EE011A20EE020A31EE3D
:10098000000A704783F9223E00000044000000C4C2
:100990002DE9F05F23494FF0000846460A684546B6
:1009A00044464FF4FA79C2F834800A68C2F83880B5
:1009B0000968C1F83C801C490A68C2F834800A689A
:1009C000C2F838800968C1F83C80322001F012FD7D
:1009D000DFF858A000270AF1040B00BFBAF8002086
:1009E000BAF802009044BBF800100644BBF80200BD
:1009F0000D440444012001F0FDFC7F1C4F45EDDB5C
:100A00004846B8FBF0F2094914398A81B6FBF0F286
:100A1000CA81B5FBF9F2B4FBF9F00A824882BDE85D
:100A2000F09F0000DC0400206C0500202400002062
:100A300010B50146806B026C12F0500F05D0026CAD
:100A4000D20626D501F0A7F810BD016C41F4007163
:100A5000016401688A6812F0405F17D1027EAAB96A
:100A6000CA6A12F4700F02D08A6852050ED44A681E
:100A700022F020024A60016C21F480710164016C53
:100A8000C90403D4016C41F00101016401F080F854
:100A900010BD806BC26CBDE810400846104710B511
:100AA000806B40210164416C41F00401416401F01C
:100AB00072F810BD10B5806B01F06CF810BD00002D
:100AC00070B557492DED048B00680968DFED558A34
:100AD0009FED559A0125554C88424FD104F11400E1
:100AE0000188A1804088E080A088A189401AE1881F
:100AF000E2898E1A05F0CCF8B0EE408A304605F057
:100B0000C7F8207878B3D4ED070A38EE601AD4ED30
:100B1000070A41EE280AC4ED070AD4ED080A70EE70
:100B2000600A94ED080A00EEA80A84ED080A94ED24
:100B3000070AD4ED090A70EE600A94ED090A00EE86
:100B4000890A84ED090A94ED080AD4ED0A0A70EEC8
:100B5000600A94ED0A0A00EE890A84ED0A0AA5707B
:100B6000BDEC048B70BDFFE784ED078A84ED080AB5
:100B700084ED098A84ED0A0A2570F0E72C4909689A
:100B80008842EDD129481830018821814088608150
:100B90002089218A401A6189628A8E1A05F078F8C4
:100BA000B0EE408A304605F073F8607868B3D4ED53
:100BB0000B0A38EE601AD4ED0B0A41EE280AC4ED98
:100BC0000B0AD4ED0C0A70EE600A94ED0C0A00EEEC
:100BD000A80A84ED0C0A94ED0B0AD4ED0D0A70EE10
:100BE000600A94ED0D0A00EE890A84ED0D0A94ED79
:100BF0000C0AD4ED0E0A70EE600A94ED0E0A00EEB7
:100C0000890A84ED0E0AE570AAE784ED0B8A84ED6B
:100C10000C0A84ED0D8A84ED0E0A6570F3E700007E
:100C2000E40200209A99993E9A99193E10000020FA
:100C30002C0300200548017811B190ED090A704796
:100C400081888089081A05F023B800001000002070
:100C50000548417811B190ED0D0A70470189008A6D
:100C6000081A05F015B800001000002005480178AA
:100C700011B190ED0A0A7047C188C089081A05F0C1
:100C800007B80000100000200548417811B190ED30
:100C90000E0A70474189408A081A04F0F9BF000023
:100CA0001000002010B5054800F076FF044800F061
:100CB00073FFBDE81040034800F06EBF9C020020A7
:100CC000E40200202C030020464910B54A6822F4B3
:100CD00040324A604A6843681A434A6001684A6879
:100CE00022F480724A6001684A68036942EA03227A
:100CF0004A6001684A6822F040724A6001684A68A6
:100D000083681A434A6001688A6822F400628A6034
:100D100001688A68C3681A438A60816A6FF07062EA
:100D2000D14201688A6822F070628A6001688A682C
:100D30000CD0836A1A438A6001688A6822F04052A4
:100D40008A6001688A68C36A1A4301E022F040524F
:100D50008A6001688A6822F002028A6001688A68F3
:100D6000037E42EA43028A6090F82010002901685D
:100D70004A680FD042F400624A6001684A6822F46F
:100D800060424A6001684A68174C436A04EB433387
:100D90001A4301E022F400624A600168CA6A22F440
:100DA0007002CA620168CA6A838B104C04EB035359
:100DB0001A43CA6201688A6822F400728A60016874
:100DC0008A6890F8303042EA43228A6001688A6873
:100DD00022F480628A6001688A68406942EA802061
:100DE000886010BD0023014000E0FFFF0000F0FF1D
:100DF000324810B5016800244C6301688C630168B7
:100E0000CC630068C16A4908016421462B4802F09E
:100E10000FFC0421294802F00BFC0821274802F0AE
:100E200007FC0C21254802F003FC254801684C63AF
:100E300001688C630168CC630068C16A4908016479
:100E400000211F4802F0F4FB04211D4802F0F0FBD2
:100E500008211B4802F0ECFB0C21194802F0E8FBCA
:100E6000184801F0C3F8184801F0C0F8174804808A
:100E70004480001D048044801838047044709FED45
:100E8000140A022280ED080A80ED070A80ED0C0AA0
:100E900080ED0B0A80ED0A0A80ED090A80ED0E0A4A
:100EA00080ED0D0A0949074800F0F4FF07490222C6
:100EB000BDE81040091D044800F0ECBFDC04002030
:100EC0006C050020E40200202C03002024000020F8
:100ED0000000000010B190ED020A70479FED010A7A
:100EE000704700000000000010B190ED030A704749
:100EF0009FED010A704700000000000070B58CB043
:100F000016460D4604001AD0CDB12C216846FFF7D5
:100F1000A3F9009501F082FB06908DF824602C2245
:100F200069462046FFF77FF90748002150F8212045
:100F30003AB1491C0429F9DB01200CB070BD002036
:100F4000FBE740F82140F7E7940700201CB50400B8
:100F500021D001F063FBA17F29B1216A401A142836
:100F600001D90020A077206801F05EFBA17F002955
:100F700011D120280FD10120A07701F04FFB206272
:100F8000022104F11C00CDE900010E2201236C2195
:100F9000206801F011FC1CBDFEE70000014801F0D3
:100FA000B7B80000D4060020014801F0B1B8000035
:100FB00034070020014801F0ABB80000D403002042
:100FC000014801F0A5B8000074030020016818234F
:100FD000CAB2103AB2FBF3F2054B6FF30901032AD0
:100FE0009B5CC36500D9091D8165084670470000F8
:100FF000C062000810B5014600208B698A6A4FF074
:10100000C07453B1B3F5005F15D072B1012A0CD092
:10101000022A0AD0032A09D104E01AB1012A06D013
:10102000022A03D1C96AC90100D5012010BDC96ACD
:10103000A142FAD010BD002AF7D0012AF2D0022A2C
:10104000F3D0032AF3D010BD30B50468256825F429
:1010500080252560046863608368402B036803D0A3
:1010600099600068C26030BD9A600068C16030BDA0
:10107000704772B6FEE7000010B586B0040008D0D5
:10108000142205496846FFF7CEF86946204600F06D
:1010900083FB06B010BD0000DC97000810B586B0D9
:1010A000040008D0142205496846FFF7BCF86946D9
:1010B000204600F071FB06B010BD0000F09700085C
:1010C00010B504002DED068B86B07DD0D4F8D80085
:1010D000002879D0D4F8D00000287CD0D4F8DC00E7
:1010E00008B1804701E0B2EE080A9FED3E8AF0EEBB
:1010F000408A9FED3B0A04A903A868EE809AF0EEAF
:10110000481AB7EE001AF0EE480AB0EE690A00F08D
:1011100019FA02AA01A96846B0EE681ADDED040AC0
:101120009DED030A00F0BAFAD4F8D800D0349DEC53
:10113000030A8047C82001F05DF920688047DFED91
:101140002AAAF0EE400AB0EE60AAB0EE6A0AFFF7F3
:101150008BFBB0EE409AB0EE6A0AFFF7D1FBF0EEDF
:10116000401A04A903A8B0EE491AF0EE480AB0EEFE
:10117000690A00F0E7F902AA01A96846B0EE681A08
:10118000DDED040A9DED030A00F088FAA0689DECED
:10119000030A8047C82001F02DF920688047F0EE4F
:1011A000408AA068B0EE481AF0EE480AB0EE480A4D
:1011B000D03C804738EECA0A00F0D2F9B5EEC00A3A
:1011C000F1EE10FA03DB00E005E0012001E04FF052
:1011D000FF3084F8CE0006B0BDEC068B10BD0000D9
:1011E000CDCC4C3E000000003333B33E70B504005C
:1011F0002DED068B88B07CD0D4F8D800002878D0AC
:10120000D4F8D000002874D0D4F8DC0018B180479E
:10121000F0EE408A01E0F2EE088A9FED560A0025C2
:10122000B3EE04AA68EE809A9FED538A00EE105A3E
:1012300005A904A8B8EEC00AB7EE001A69EE800A44
:1012400080EE8A0AF0EE480AF0EE601A00F07AF9B1
:1012500002AA01A96846B0EE681ADDED050A9DED07
:10126000040A00F01BFAD4F8D8009DEC030A80476A
:101270000F2001F0BFF86D1C142DD7DD00254FF4B1
:101280009676022001F0B6F8D4F8D00000B180477D
:101290006D1CB542F5DBB0EE489A0025D4F8D000BD
:1012A000804730EE099A022001F0A4F86D1C322D1F
:1012B000F4DB94F9CE00DFED310A89EE200A00EE6E
:1012C000900A20789FED2E9AF8EEE00A60EE800AF0
:1012D00000EE100AB8EE400A20EEC00AF0EE490A0D
:1012E00084ED0E0A04F018F884ED0E0AB5EEC00A7B
:1012F00000E03AE0F1EE10FA03D230EE090A84ED94
:101300000E0A142500EE105A05A904A8B8EEC00A6A
:10131000B7EE001A69EE800A80EE8A0AF0EE480AFB
:10132000F0EE601A00F00EF902AA01A96846B0EECC
:10133000681ADDED050A9DED040A00F0AFF9D4F856
:10134000D8009DEC030A8047082001F053F86D1E79
:10135000D8D5B0EE480AD4F8D800B0EE401AF0EE76
:10136000400A8047C82001F045F808B0BDEC068B64
:1013700070BD0000CDCC4C3E000000000000484293
:10138000DB0FC9409FED061A80ED000A20EE010A2E
:101390009FED041A00EE810A81ED000A70470000FB
:1013A0003ACD133F3ACD933F00B5B0EE404A90EDB1
:1013B000120A0146F0EE604AB1EE400A643000F0D5
:1013C00005F981ED140A91ED130AF0EE640A01F1BA
:1013D0007C0034EE400A00F0F9F881ED150A91F82E
:1013E000CD00002824D0087891ED0D1A00EE900A67
:1013F000D1ED141AF8EE600A61EE200A91ED031A9D
:1014000020EEC12A91ED131A42EE011AC1ED141A11
:10141000D1ED021A61EEA00AD1ED121A60EEA10A16
:10142000D1ED011A41EE810A30EE800A81ED150AF4
:1014300000BD000010B190ED120A70479FED010A47
:10144000704700000000000010B190ED130A7047D3
:101450009FED010A704700000000000070B50D46C6
:1014600004005DD0EDB3E421FEF7F6FE2570012007
:1014700084F8CC009FED2B0A84F8CE0084ED010A9D
:101480009FED290AF2EE081A84ED020A84ED030AA0
:1014900084F8CD00C4ED041AB0EE000A84ED050A0C
:1014A00000209FED222A2076DFED212A9FED213AB0
:1014B00084ED072A84ED092A84ED0A2AB0EE421A47
:1014C000F0EE620AB0EE430A04F1640000F062F844
:1014D000D4ED041AB0EE421AF0EE620AB0EE430AFE
:1014E00000E01DE004F17C0000F054F8D4ED051A92
:1014F000B0EE421AF0EE000A9FED0F0A04F19400DC
:1015000000F048F8DFED0D1A9FED0D1AF0EE420ADB
:10151000B3EE040A04F1AC0000F03CF8012070BD09
:10152000002070BD333313409F71613A000000000A
:101530000000A0429A99993FCDCC4C3E0000C84291
:10154000CDCCCC3D20EE012A20EE210A00EEE12A8E
:1015500000EE810A80ED002A81ED000A704700004C
:10156000DFED090A094901E030EE600A10EE100AC9
:101570008842F9DC064900BF10EE100A884202D901
:1015800030EE200AF8E77047DB0FC940DB0F494017
:10159000DB0F49C0002809D0C0ED051A80EC030A12
:1015A0009FED030A80ED040A80ED030A70470000F6
:1015B00000000000002805D09FED030A80ED040A1A
:1015C00080ED030A704700000000000020B1F5EE36
:1015D000C00AF1EE10FA02D89FED270A704790ED8D
:1015E000042A90ED001ADFED251A00EE202A61EEA4
:1015F000002A80ED042A90ED013A90ED051A73EE71
:10160000213AC1EE231AB4EEE12AF1EE10FA01DD1F
:10161000C0ED041A90ED042AF1EE611AB4EEE12A4D
:10162000F1EE10FA02D3F0EE421A01E0C0ED041A16
:1016300063EE211A90ED033A90ED022A80ED030A41
:1016400030EE433A32EEA10A22EE033A83EE202A2C
:1016500030EE020AB4EEC01AF1EE10FA01D2B0EE8A
:10166000410AF1EE410AF4EEC00AF1EE10FAB5DDDE
:10167000B0EE600A7047000000000000BD378635FC
:1016800020EE012A00EEA12A60EE810A40EE610AF6
:1016900080ED002AC1ED000A7047000070B5F0EE41
:1016A000601A2DED068BBEEE00AAB0EE408A60EE09
:1016B0000A0A9FED310A15460C46B0EE609A41EEDB
:1016C000800A01EEC09A0646F0EE419AB0EE480A52
:1016D000F0EE608A03F0D8FDF0EE490A03F0D4FD85
:1016E000F0EE40AAF0EE680AB0EE480A03F0F0FD12
:1016F000F0EE490A03F0ECFDF0EE400A3AEEA00AE3
:10170000DFED1E0A60EE0A1A38EE210A29EEA08AE1
:1017100086ED000A38EEA10A84ED000A39EE210AAE
:1017200085ED000AF0EEC00A94ED000AB0EEC00AA2
:1017300003F0AAFDD6ED008AF0EE400AB0EEE80A0A
:1017400003F0A2FDB4EEC80AF1EE10FA11DDC8EE06
:10175000000A28EEA00A86ED000A94ED000A20EEA9
:10176000200A84ED000A95ED000A20EE200A85ED9E
:10177000000ABDEC068B70BDD7B35D3FEFC9133FC8
:10178000002808D0B5EEC00AF1EE10FA03D980EDBA
:10179000050A80ED2A0A7047002805D0002903D0E9
:1017A0001422D030FEF73FBD7047002800D00176EC
:1017B0007047002801D080ED070A704700280AD042
:1017C000B5EEC00AF1EE10FA05D980ED040A80EDFD
:1017D0001E0A80ED240A7047F0B504002DED048B3D
:1017E00087B0F0EE408A7DD094F8CC00002879D004
:1017F00004F16007207E3E1F351F9FED8D9A9FEDFF
:101800008D8A03287DD0D4F8D00050B1804794F958
:10181000CE0000EE900AF8EEE00A20EE200A84EDF9
:101820000B0AD4F8D43023B104F14402111F081F6D
:101830009847207894ED0E0A00EE900A94ED0B1A6A
:10184000F8EE600A01EE200AF0EE490A03F064FDAA
:10185000B5EEC00A84ED0C0AF1EE10FA03D230EEB8
:10186000090A84ED0C0A04F13C0201A992EC030A76
:101870006846FFF787FD94ED0C0AFEF7F5FFF0EEE2
:10188000409A94ED0C0AFFF73BF8B0EE409A04F151
:101890004C019DEC020A081FF0EE491AB0EE691ADD
:1018A000FFF7EEFE207EE0B394ED080A94ED051AF2
:1018B000B4EEC01AF1EE10FA01D2B0EE410AF1EE28
:1018C000410AF4EEC00AF1EE10FA01DDB0EE600A52
:1018D000F0EE680A2046FFF767FDD4ED150A94ED97
:1018E000140A01E058E00CE003A902A8F0EE491A3E
:1018F000B0EE691AFFF726FED4F8DC00B0B38047DB
:1019000053E094ED0A0AD4ED070A4B4900EEA80A09
:1019100010EE100A84ED0A0A884205DB30EE490A0F
:1019200000E03DE084ED0A0AB5EEC00AF1EE10FADF
:1019300003D230EE090A84ED0A0AFEF795FFF0EEB5
:10194000408A94ED0A0AFEF7DBFFF0EE401AD4ED70
:10195000090A05A904A8B0EE681AB0EE480AFFF714
:10196000F1FDD4F8DC0010B1804702E01BE0B2EEDC
:10197000080A3A46B0EE401A31462846DDED050A1F
:101980009DED040AFFF78AFED4F8D800002803D0A2
:10199000583494EC030A804707B0BDEC048BF0BDCB
:1019A00094ED070A82E7B2EE080A3A46B0EE401A12
:1019B00031462846DDED030A9DED020AFFF76EFE73
:1019C000D4F8D80020B104F1580191EC030A804703
:1019D00094ED120AD4ED130A20EE000A00EEA00ADC
:1019E000B5EEC00AF1EE10FA02DBF1EEC00A01E03A
:1019F000F0EE480A94ED050A9FED101A20EE010A58
:101A0000B4EEE00AF1EE10FAC6D2D4F8D80030B144
:101A1000B0EE480AB0EE401AF0EE400A804704F1FA
:101A20006400FFF7C7FD04F17C00FFF7C3FDB3E7D7
:101A3000DB0FC94000000000DB0FC9409A99993FB5
:101A40007047000078B50024009490F83C20012AEB
:101A500019D0012280F83C200A6807230568092A6A
:101A600013D9EE680A3A02EB420293409E43EE60BD
:101A70000B788A680A3B03EB43039A400368DD68EE
:101A80002A43DA6010E0022078BD2E6902EB4202A0
:101A900093409E432E610B788A6803EB43039A4080
:101AA00003681D692A431A614A681F23072A13D253
:101AB00005686E6B521E02EB820293409E436E637A
:101AC0000B790A885B1E92B203EB83039A4003688A
:101AD0005D6B2A435A6327E005680D2A12D22E6BEC
:101AE000D21F02EB820293409E432E630B790A8839
:101AF000DB1F92B203EB83039A4003681D6B2A43FA
:101B00001A6311E0EE6A0D3A02EB820293409E43A3
:101B1000EE620B790A880D3B92B203EB83039A4085
:101B20000368DD6A2A43DA62164B0568144A9D424F
:101B300006D10D68122D03D1556845F48005556016
:101B400005689D4218D10B68102B01D0112B13D1C1
:101B5000536843F400035360096810290CD10A4903
:101B60000A4A0968B1FBF2F101EB8101490000E08A
:101B7000491E00910029FBD180F83C40002078BD2F
:101B800000230140002001400C00002040420F00D3
:101B9000FEF796BF7047704770B504460068066848
:101BA000456816F0020F05F020012AD049B3216CD8
:101BB000C90603D4216C41F400712164816811F0DD
:101BC000405F17D1217EA9B9C16A11F4700F02D00C
:101BD000816849050ED4416821F020014160206CE4
:101BE00020F480702064206CC00403D4206C40F08A
:101BF000010020642046FFF7CBFF21686FF0120040
:101C0000086016F0040F05F0800132D089B3206C13
:101C1000C00603D4206C40F4005020642068816822
:101C200011F4401F1ED1816B11F4401F02D0816856
:101C3000490517D44168490514D4816811F0405F03
:101C400010D1217E71B9416821F080014160206C82
:101C500020F480502064206CC00503D4206C40F038
:101C6000010020642046FFF7EBFE21686FF00C00B6
:101C7000086016F0010F05F040010FD071B1206827
:101C80000068C0070AD0206C40F4803020642046F1
:101C900000F043F821686FF00100086016F0200F93
:101CA00005F080610ED000290CD0606C40F002007D
:101CB000606420686FF0200505602046FFF76BFF29
:101CC0002068056070BD70B504004FF0000503D0BA
:101CD000206C002610B107E0012070BD204600F006
:101CE0001DF8666484F83C60206CC00610D4206C3B
:101CF00020F4885040F0020020642046FEF7E4FF04
:101D00006664206C20F0020040F00100206400E0D6
:101D1000012584F83C60284670BD70472DE9F04FDE
:101D200087B0064614216846FEF796FA5149504F8F
:101D3000336800254F48143903244F4ABB4217D15A
:101D4000036843F480730360006800F480700590BA
:101D5000086840F0010008600868694600F001006A
:101D6000059010208DE83100104600F055FB44E04E
:101D7000DFF808C14FF480674FF400684FF4005952
:101D80004FF4807A4FF4403B634541D1036843F4FC
:101D900000730360006800F400700590086840F06C
:101DA00001000860086800F001000590086840F034
:101DB000020008600868694600F0020005902020D3
:101DC0008DE83100104600F027FB01208DE831003E
:101DD00069462B4800F020FB2B4C2A4804F10C03E9
:101DE0002060F803C4E9010583E8A00F204665627E
:101DF00036E000BFFFF73DF936E000220121122056
:101E000000F024FE122000F013FE07B0BDE8F08FB2
:101E10001E4A9342F9D1026842F48062026000686F
:101E200000F480600590086840F0040008600868CD
:101E3000694600F00400059009208DE8310014483F
:101E400000F0EAFA104C0F4860343038206080050A
:101E5000C4E9010504F10C02204682E8A00F656286
:101E600000F026FA0028C5D1B463A663C5E70000D8
:101E7000002001404438024000000240002101409F
:101E8000000402404064024074030020002201402C
:101E900000080240F8B50E4600210446009190F873
:101EA0003C0013460A46012807D0012084F83C0074
:101EB00020688568ED0702D011E00220F8BD856832
:101EC00045F0010585604048404D0068B0FBF5F0E5
:101ED00000EB400000E0401E00900028FBD120688D
:101EE0008568ED0503D5856825F4807585602068D3
:101EF0008568ED075DD0226C40F20165AA4342F48B
:101F0000807222644068400505D5206C20F40050A2
:101F100040F480502064206CC00404D5606C20F034
:101F20000600606400E0616484F83C10A16B2948FD
:101F3000274DC863A16B28480864A16B2748C86473
:101F400021686FF0220008602068416841F08061DC
:101F500041602068816841F4807181602168324667
:101F60004C31A06B00F00EFA024668681C49C006AE
:101F7000206806D0884224D1816811F0405F13D0D8
:101F80001FE08842F8D0174B984203D1D1F80433B0
:101F9000DB06F1D0144B984213D1D1F8041301F0B1
:101FA0001F011029E8D30CE0816841F08041816075
:101FB00007E0206C40F010002064606C40F00100ED
:101FC00060641046F8BD00000C00002040420F0085
:101FD00000230140310A0008B50A00089F0A0008E2
:101FE00000200140002101400022014010B50446BC
:101FF000002094F83C1001290CD0012184F83C10F9
:1020000021688A6822F001028A6021688A68D20702
:1020100002D01DE0022010BD8A6822F480728A601E
:10202000A16B91F83520022A07D1084600F014F878
:1020300018B1216C41F04001216421684A6822F006
:1020400080624A60216C21F4885141F001012164D1
:10205000002184F83C1010BD2DE9F0410446876D45
:1020600000F0DCFA064694F835000025022806D078
:102070008020606584F834500120BDE8F08120683C
:10208000016821F0160101602068416921F080019A
:102090004161206C08B9A06C20B12068016821F072
:1020A000080101602068016821F0010101600CE075
:1020B00000F0B4FA801B052807D9202060650320B2
:1020C00084F8350084F83450D7E720680068C007EA
:1020D000EED194F85C103F208840B860012084F86D
:1020E000350084F834500020C7E790F835100229F5
:1020F00003D08021416501207047052180F835100B
:102100000068016821F001010160002070470000B3
:102110002DE9F84304464FF00009CDF800906348DC
:102120004FF41651A56D0068B0FBF1F72E6894F8D6
:102130005C10082000FA01F131420FD021680A68D2
:1021400052070BD50A6822F004020A6094F85C106A
:102150008840A860606D40F00100606594F85C10F4
:102160004FF0010808FA01F0304208D021684969AF
:10217000090604D5A860606D40F00200606594F81F
:102180005C1004208840304208D021680968890723
:1021900004D5A860606D40F00400606594F85C10A0
:1021A00010208840304218D021680968090714D5EA
:1021B000A86020680168490304D50068000308D5B9
:1021C000A16C07E00168C90503D4016821F008018A
:1021D0000160216C09B12046884794F85C102020EA
:1021E0008840304231D021680968C9062DD5A860E1
:1021F00094F8350005282068016806D0490347D5C2
:10220000006800031DD4616C1CE021F01601016020
:102210002068416921F080014161206C08B9A06CFF
:1022200020B12068016821F00801016094F85C1079
:102230003F208840A86084F8358084F83490216D70
:102240001FE0E16B09B120468847606D00282BD064
:10225000606DC00714D0052084F83500206801683F
:1022600021F0010101600098401C0090B84203D8A1
:1022700020680068C007F6D184F8358084F834906F
:10228000E16C002910D001B02046BDE8F0430847BA
:102290000168C905D5D4016821F01001016084F8F6
:1022A000358084F83490CCE7BDE8F8830C0000203A
:1022B0002DE9F041044600F0B1F906465CB1022078
:1022C00084F83500002584F834502068016821F036
:1022D000010101600DE00120BDE8F08100F09EF9F0
:1022E000801B052805D920206065032084F835006F
:1022F000F2E720680068C007F0D122681168204822
:102300000140D4E901031843D4E9033633431843A9
:1023100063691843A3691843E3691843236A1843A0
:102320000843616A042903D1D4E90B131943084314
:10233000106020684069666A20F0070130460E434D
:10234000012704280CD1A06A0643E06A40B1204668
:10235000FEF750FE20B14020606584F83570BAE782
:10236000206846612046FEF731FE94F85C203F214C
:1023700091408160656584F835700020ACE700000D
:102380003F8010F02DE9F0410446866D90F834004E
:10239000002501280DD0012084F8340094F8357010
:1023A0000020012F07D084F8340002252846BDE81C
:1023B000F0810220FBE7022784F835706065204633
:1023C000FEF742FE94F85C103F208840B060206821
:1023D000016841F016010160206C20B1206801689D
:1023E00041F0080101602068016841F001010160CD
:1023F000DCE7000070B5044600F010F90546601CEB
:1024000002D004480078044400F008F9401BA042C0
:10241000FAD370BD000000202DE9F84FDFF8BCA111
:102420000022012503264FF00F090AF1040BAAF13F
:10243000040E00BF0B6805FA02F42340A34270D1DA
:102440000F7907F00307012F01D0022F16D18768FB
:102450004FEA420806FA08FC27EA0C07D1F80CC03C
:102460000CFA08FC4CEA070CC0F808C04768A74300
:102470000C79C4F3001494403C4344600C79E44369
:10248000A4070AD0C4684FEA420C06FA0CF7BC4312
:102490008F6807FA0CF72743C7600C7904F0030430
:1024A000022C12D1D40800EB840CDCF82040570732
:1024B000FF0E09FA07F824EA0804D1F8108008FA98
:1024C00007F848EA0408CCF8208004684FEA420C78
:1024D00006FA0CF7BC430F7907F0030707FA0CF76D
:1024E000274307604C6814F4403F70D03C4C276889
:1024F00047F480472760246822F0030704F48044EF
:102500000094384C07EB040CDCF8084897074FEAB6
:10251000177809FA08F7BC43334FB84202D10027B5
:1025200024E054E0314FB84201D101271EE0304F82
:10253000B84201D1022719E02E4FB84201D103273A
:1025400014E02D4FB84201D104270FE02B4FB842C1
:1025500001D105270AE02A4FB84201D1062705E03C
:10256000284FB84201D1072700E0082707FA08F7EB
:102570002743CCF80878DAF800405746D1F804C071
:102580009C435FEACC2C00D51C433C60DBF8004048
:102590005F46D1F804C09C435FEA8C2C00D51C43F5
:1025A0003C60DEF800407746D1F804C09C435FEA07
:1025B0008C3C00D51C433C60084F083F3C68D1F878
:1025C00004C09C435FEACC3C00D51C433C60521CD9
:1025D000102AFFF42FAFBDE8F88F0000083C01403F
:1025E0004438024000300140000002400004024034
:1025F00000080240000C024000100240001402409B
:1026000000180240001C02400069084000D0012070
:1026100070470AB1816170470904FBE7014880688F
:10262000704700000000002090F83D007047000057
:1026300070B5040025D094F83D00002520B984F839
:102640003C50204600F026F9242084F83D00206804
:10265000016821F0010101602068016841F4004136
:1026600001602068016821F40041016000F0BAFABD
:102670004D4A6168914201D84C4900E04C4988427A
:1026800001D2012070BD4B492368B0FBF1F15E68B7
:1026900026F03F060E435E606368934206D94FF40E
:1026A000967359434FF47A73B1FBF3F12368491CD5
:1026B0001E6A26F03F06314319626168914210D8C4
:1026C0004900401EB0FBF1F2521CC2F30B02042A77
:1026D00001D2042022E0B0FBF1F0401CC0F30B005B
:1026E0001CE0A268F2B301EBC10303EB0116431E29
:1026F000B3FBF6F35B1C43F480431B0549D092B354
:1027000001EBC10202EB0111401EB0FBF1F0401CD5
:10271000C0F30B0040F4804040F400402168CA69D7
:102720004CF6FF739A431043C861D4E90710014384
:102730002068026822F0C00211430160D4E903015D
:1027400001432068826848F2FF339A431143816055
:10275000D4E9050108432168CA6822F0FF0210434A
:10276000C86001E00EE016E02068016841F0010158
:1027700001602564202084F83D00256384F83E50E4
:10278000002070BD01EB4106431EB3FBF6F35B1C5A
:10279000B3E70120C2E701EB4101401EB0FBF1F0BD
:1027A000401CC0F30B00B7E7A086010080841E0028
:1027B00000093D0040420F00F8B50024DDE906762F
:1027C000009490F83D50202D5ED1304D46F2A81C6B
:1027D0002D68B5FBFCF505EBC50C0CEB051500955C
:1027E0006D1E009506D00568AD69ED43AD070BD4AD
:1027F000009DF5E740F8304F202141738473016953
:1028000041F0200101613FE090F83C50012D3BD0A8
:10281000012580F83C500568D5F800C05FEACC7C03
:1028200005D1D5F800C04CF0010CC5F800C0056812
:10283000D5F800C02CF4006CC5F800C0222580F843
:102840003D50402580F83E50046447624685458DE2
:1028500005850F4DC56241648264C36404650168E7
:102860000A6842F480620A6001680A6842F4807271
:102870000A6080F83C40018D21B10068416841F454
:10288000E06141600020F8BD0220F8BD0C0000208E
:102890000000FFFF2DE9F04186B004461421684690
:1028A000FDF7DAFC2F4A2168DFF8BC8000242E48AF
:1028B00012250326042708F1100891421CD1016853
:1028C00041F002010160006802AA00F002000590D8
:1028D000C020CDE9000582E8D00069462348FFF713
:1028E0009BFDD8F8001041F40011C8F80010D8F88A
:1028F000000000F4001031E01D4A91422FD1016820
:1029000041F004010160016801F0040105910168D2
:1029100041F0010101600068694600F00100059086
:102920005015CDE9000502AA124882E8D000FFF751
:1029300073FD4FF48070CDE9000502AA694682E874
:10294000D0000D48FFF768FDD8F8001041F40001F1
:10295000C8F80010D8F8000000F40000059006B098
:10296000BDE8F081005400403038024000040240CD
:10297000005C0040000802400000024002488168FC
:102980000278114481607047000000200B4810B5A8
:10299000016841F400710160016841F480610160E7
:1029A000016841F480710160032000F06FF80F208E
:1029B00000F006F800F024F8002010BD003C0240B2
:1029C00070B50D4D04464FF47A712878B1FBF0F0E4
:1029D0000A490968B1FBF0F000F00AFB48B9102C75
:1029E00007D200222146501E00F030F800206C6013
:1029F00070BD012070BD0000000000200C00002010
:102A00000A4808B5016841F480410160006800F49B
:102A1000804000900548001F016841F0805101602E
:102A2000006800F08050009008BD0000443802406B
:102A3000002809DB00F01F020121914040098000BD
:102A400000F1E020C0F8001170470000F0B40E4B18
:102A50001B680C46C3F30223C3F10705042D00D9FC
:102A60000425191D072901D2002300E0DB1E0126E1
:102A700006FA05F1491E214099409E40761E1640F7
:102A80003143F0BC02F0F0BB0CED00E0064900F071
:102A9000070208684FF6FF03184040EA0220034A85
:102AA00010430860704700000CED00E00000FA05DC
:102AB0002DE9F0470E46050065D0DFF81481D8F8FF
:102AC0000000F7B200F00700B04207D288F80070AB
:102AD000D8F8000000F00700B04254D128683D4CFF
:102AE000810712D5400703D5206840F4E0502060EC
:102AF0002878000703D5206840F4604020602068F3
:102B0000A96820F0F000084320602878C0072DD085
:102B1000304968680839012812D0022813D00328E8
:102B200011D00968890700292DDA216821F00301F5
:102B300001432160FFF772FD814641F2883A0EE0C1
:102B400009688903EFE709688901ECE7FFF766FD8B
:102B5000A0EB0901514502D90320BDE8F0872068A8
:102B6000696800F00C00B0EB810FEFD1D8F80010CD
:102B7000404601F00701B14207D90770006800F034
:102B80000700B04201D00120E7E72878400705D5CB
:102B90002068E96820F4E0500843206028780007A6
:102BA00006D52068296920F4604040EAC100206011
:102BB00000F038F82168084AC1F30311515CC8409D
:102BC0000649086006480068FFF7FAFE0020C4E7DF
:102BD000003C024008380240C86200080C00002097
:102BE000040000200448054900680968044AC1F34C
:102BF0008221515CC84070470C0000200838024018
:102C0000D86200080448054900680968044AC1F30D
:102C10004231515CC84070470C0000200838024027
:102C2000D8620008154810B5006810F00C0214486E
:102C300013D04110042A0FD0082A0ED10F4C241FA4
:102C40002268236802F03F025B0207D52068C0F3C8
:102C50008810A0FB010106E0084610BD2168C1F301
:102C60008811A1FB00010023FDF7ACFA2168C1F334
:102C70000141491C4900B0FBF1F010BD0838024089
:102C80000024F4002DE9F84F04006ED02078DFF81E
:102C90004C93C007A9F104054AD009F1040001686A
:102CA000C1F38101012908D00068C0F38100022826
:102CB0000AD1D9F80000400206D52868800337D52C
:102CC00060680028E1D033E06068B0F5803F10D044
:102CD000B0F5A02F286810D020F480302860286834
:102CE00020F4802028606068A8B1FFF797FC0646B2
:102CF0000DE0286840F48030F4E740F4802028603C
:102D0000F7E700BFFFF78AFC801B642873D82868A8
:102D10008003F7D50CE0FFF781FC064605E000BF15
:102D2000FFF77CFC801B6428F0D828688003F7D468
:102D30002078DFF8AC8280074FF0000A3ED5A74824
:102D4000001D016811F00C0F08D00068C0F381006D
:102D500002280BD1D9F80000400207D42868800768
:102D600016D5E068012800D112E033E1E068B8B17F
:102D70000120C8F80000FFF751FC064605E000BF3F
:102D8000FFF74CFC801B0228C0D828688007F7D5C5
:102D90002868216920F0F80040EAC10028600DE0B1
:102DA000C8F800A0FFF73AFC064604E0FFF736FC3F
:102DB000801B02281FD828688007F7D420780007D6
:102DC00022D5864F87486169703771B10121016052
:102DD000FFF724FC064604E0FFF720FC801B0228D6
:102DE00009D838688007F7D50EE0C0F800A0FFF7D3
:102DF00015FC064605E082E0FFF710FC801B022868
:102E00007DD838688007F7D42078400768D5DFF888
:102E1000CCB100270BF13C0BDBF80000C0000BD459
:102E2000DBF8001041F08051CBF80010DBF8000017
:102E3000012700F0805000906B4E3068C00510D420
:102E4000306840F480703060FFF7E8FB009005E0E8
:102E5000FFF7E4FB0099401A022850D83068C005FB
:102E6000F6D55E4EA0686C3601280FD00528306874
:102E700010D020F001003060306820F00400306095
:102E8000A068B8B1FFF7CAFB00900FE0306840F0CF
:102E90000100F4E740F004003060F7E7FFF7BEFB05
:102EA0000099411A41F28830814266D83068800723
:102EB000F4D50EE0FFF7B2FB009007E0FFF7AEFBA2
:102EC0000099411A41F28830814256D83068800713
:102ED000F4D42FB1DBF8001021F08051CBF80010B2
:102EE000A069C8B33D49091D0968C1F381010229E0
:102EF0004AD00228504607D0C8F8600000E03CE005
:102F0000FFF78CFB04463BE04746C8F86000FFF73C
:102F100085FB064605E000BFFFF780FB801B02280B
:102F20002BD828688001F7D4D4E907010843A16AA7
:102F30002E4A490802EB0141626A41EA82110843C4
:102F400094F82C1040EA0161C9F80010012038669D
:102F5000FFF764FB044606E03EE000BFFFF75EFBC0
:102F6000001B022809D828688001F7D534E000BF8B
:102F7000FFF754FB001B022802D90320BDE8F88F9D
:102F800028688001F4D427E00128F7D0D9F80000A0
:102F9000E26900F4800191421CD1226A00F03F01F5
:102FA000914217D147F6C071626A0140B1EB821FAE
:102FB00010D1A26A4FF0FF3300F4403103EB52020C
:102FC000B1EB024F06D194F82C1000F07060B0EB1A
:102FD000016F01D00120D1E70020CFE70438024083
:102FE00000004742800E4742007000400000FFFF93
:102FF00010B5401EB0F1807F01D3012010BD4FF00D
:10300000E02460610F21601702F02EF90020A0611A
:1030100007202061002010BD7047704770B590F800
:103020003C20012A32D0012480F83C40022280F862
:103030003D2003685A689D6822F070060A68324392
:103040005A60134B02689A4214D0B2F1804F11D0EB
:10305000104B9A420ED0104B9A420BD00F4B9A4213
:1030600008D00F4B9A4205D00E4B9A4202D00E4B1D
:103070009A4204D1496825F080031943916080F891
:103080003D40002180F83C10084670BD022070BD14
:10309000000001400004004000080040000C004017
:1030A00000040140004001400018004010B5040039
:1030B00003D094F83D0010B107E0012010BD0020BE
:1030C00084F83C00204600F01FF8022084F83D0000
:1030D000211D206801F018FD012084F8460084F8C5
:1030E0003E0084F83F0084F8400084F8410084F8F2
:1030F000420084F8430084F8440084F8450084F8D2
:103100003D00002010BD000008B51F4A01681F489F
:1031100091420ED1016841F0020101600068002275
:1031200000F00200009011461D20FFF78FFC1D20CB
:1031300024E0174A91420ED1016841F00801016074
:103140000068002200F00800009003213220FFF701
:103150007DFC322012E00F48814213D10B48001D44
:10316000016841F4803101600068002200F4803081
:10317000009002211820FFF769FC1820BDE80840E4
:10318000FFF756BC08BD0000000400404038024074
:10319000000C00400040014090F83D10012901D092
:1031A00001207047022180F83D100168CA6842F092
:1031B0000102CA6000681149884214D0B0F1804F02
:1031C00011D00F4988420ED00E4988420BD00E49CB
:1031D000884208D00D49884205D00D49884202D066
:1031E0000C49884204D1816801F00701062903D007
:1031F000016841F0010101600020704700000140BA
:103200000004004000080040000C004000040140A1
:10321000004001400018004070B5044690F83C00A2
:103220000025012817D0012684F83C60022084F88C
:103230003D002068826822F0770222F47F4282609B
:103240000868502838D00DDC20284FD005DC90B31A
:10325000102811D14AE0022070BD302846D0402805
:103260000AD13BE060282FD070280DD0B0F5805FE8
:1032700003D0B0F5005F12D0012584F83D60002036
:1032800084F83C00284670BDCB68D1E90121206854
:1032900001F0AFFC2068816841F0770109E0CB685C
:1032A000D1E90121206801F0A4FC2068816841F483
:1032B00080418160E1E719E0CA684968206801F04F
:1032C0006DFD5021206806E0CA684968206801F059
:1032D00076FD6021206801F096FCCEE7CA68496857
:1032E000206801F05BFD40212068F4E72268014678
:1032F0001046F0E770472DE9F04104460068C668C3
:1033000005694FF00007A90713D5B10711D5F91EBC
:10331000016101202077206880698007204602D063
:10332000FFF7E8FF04E000F0CFF8204600F07EF958
:103330002777680716D5700714D521686FF0040049
:103340000861022020772068806910F4407F2046C1
:1033500002D0FFF7CFFF04E000F0B6F8204600F0FF
:1033600065F92777280715D5300713D521686FF041
:1033700008000861042020772068C0698007204683
:1033800002D0FFF7B7FF04E000F09EF8204600F0FF
:103390004DF92777E80616D5F00614D521686FF0A9
:1033A00010000861082020772068C06910F4407F71
:1033B000204602D0FFF79EFF04E000F085F820468B
:1033C00000F034F92777E80708D0F00706D0216825
:1033D0006FF001000861204600F08EF9280608D53C
:1033E000300606D521686FF0800008612046FFF79F
:1033F00013FE680608D5700606D521686FF04000F8
:103400000861204600F0C2F9A8060AD5B00608D522
:1034100021686FF0200008612046BDE8F041FFF709
:10342000FCBDBDE8F0810000F0B587B00446142172
:103430006846FCF711FF216800251E480326022478
:10344000B1F1804F16D01C4A914211D1016841F070
:10345000080101600068694600F0080005904FF41B
:10346000E0408DE871001548CDF81040FEF7D4FF1C
:1034700007B0F0BD016841F001010160016801F091
:1034800001010591016841F0020101600068CDE988
:10349000006400F002000127CDE90470CDE9025676
:1034A00069460748FEF7B8FFB8028DE8F1006946A3
:1034B0000448DBE73038024000080040000C0240BE
:1034C0000000024000040240704770B5044690F8C6
:1034D0003C0000260D4601280FD0012084F83C0056
:1034E0006AB1042A1DD0082A2FD00C2A3FD0012609
:1034F000002084F83C00304670BD022070BD20687A
:1035000001F08AFB2068816941F00801816120682F
:10351000816921F004018161206881692A69114370
:1035200011E0206801F0A8FB2068816941F4006186
:1035300081612068816921F48061816120688169ED
:103540002A6941EA02218161D2E7206801F0CAFBC1
:103550002068C16941F00801C1612068C16921F09A
:103560000401C1612068C1692A69114311E0206822
:1035700001F0ECFB2068C16941F40061C161206881
:10358000C16921F48061C1612068C1692A6941EA89
:103590000221C161ACE710B5040003D094F83D00EE
:1035A00010B107E0012010BD002084F83C00204647
:1035B00000F01EF8022084F83D00211D206801F073
:1035C000A3FA012084F8460084F83E0084F83F0006
:1035D00084F8400084F8410084F8420084F84300F5
:1035E00084F8440084F8450084F83D00002010BDB4
:1035F00008B501680B48B1F1804F0BD00A4A9142DF
:1036000007D1016841F004010160006800F0040086
:10361000009008BD016841F001010160006800F000
:103620000100F5E740380240000800407047000004
:1036300010B50446022249B104290ED0082913D03E
:1036400094F84100012816D0012010BD94F83E00E6
:103650000128F9D184F83E200FE094F83F000128BA
:10366000F2D184F83F2008E094F840000128EBD123
:1036700084F8402001E084F841200122206801F014
:10368000ABFA16492068164A884201D0904203D10D
:10369000436C43F4004343642068884213D0B0F184
:1036A000804F10D00F4988420DD00F4988420AD070
:1036B0000E49884207D0904205D00D49884202D079
:1036C0000C49884204D1816801F00701062903D022
:1036D000016841F001010160002010BD00000140BF
:1036E000000401400004004000080040000C0040BD
:1036F000004001400018004010B51A492DED028B22
:1037000088420FD119489FED188AB0EE480AFEF79B
:1037100063F8B0EE480ABDEC028B1548BDE81040D6
:10372000FEF75AB81349884215D01349884212D17E
:10373000124C207890B11248FDF708FC207878B13F
:103740000020207000F0D0FA0E4C84ED000A00F04A
:10375000D1FA84ED010ABDEC028B10BD0A48EBE7FB
:103760000120EEE7FC05002017B7D1387C000020CF
:1037700060010020B4050020240500207000002016
:1037800070020020D808002044020020704738B59D
:10379000044690F84200202801D0022038BD51B1E3
:1037A0004AB10120206300206063204601F0BAFC8A
:1037B000216B012901D0012038BD21680A684968C0
:1037C000009121680C3151E8002F42F0100241E8CD
:1037D0000023002BF5D138BD2DE9F0410D4EB0424C
:1037E00016D10D4F0D46002404E0385D00F0A2FA1A
:1037F000641CA4B2AC42F8D34FF480720649054869
:10380000FFF7C5FFF06B0068016821F00801016057
:10381000BDE8F08144060020A407002070470000A6
:10382000F8B5016804460868CA684B6910F00F0FC4
:103830004FF0000559D003F0010602F490773743AA
:1038400065D0C10705D0D10503D5616C41F00101F8
:103850006164410705D5D90703D0616C41F00201CD
:103860006164810705D5D90703D0616C41F004017B
:103870006164010707D502F02001314303D0616C78
:1038800041F008016164616C00293AD0800604D5DA
:10389000900602D5204601F05EFB20684069616C0D
:1038A000C0F38010090700D460B3204601F01EFB6E
:1038B00020684069400621D52068143050E8001F78
:1038C00021F0400140E80012002AF5D1E06BA8B1D8
:1038D00072490165E06BFEF708FC002811D0E06B2F
:1038E000016D01B0BDE8F040084783060FD593068F
:1038F0000DD52046BDE8F84001F02DBB2046FFF76E
:103900008DFFF8BD2046FFF789FF6564F8BD266B83
:103910002023012E7ED1C6067CD5D6067AD508682E
:103920004868009048694FF0020640064DD5E26BAA
:10393000106840684FF480770004000C3AD0A18DE5
:10394000814237D9E085D069B8422DD020680C304B
:1039500050E8001F21F4807140E80012002AF5D1E0
:103960002068143050E8001F21F0010140E80012E7
:10397000002AF5D12068143050E8001F21F04001E2
:1039800040E80012002AF5D184F84230256320680F
:103990000C3050E8001F21F0100140E80012002A0E
:1039A000F5D1E06BFEF758FB6663A08DE18D401A00
:1039B00081B206E0A18D8142A8D1D069B842A5D1DB
:1039C00066632046FFF708FFF8BDA08DE18D401A21
:1039D00081B2E08D0028F7D00029F5D020680C30A6
:1039E00050E8002F22F4907240E80027002FF5D114
:1039F0002068143050E8002F22F0010240E8002730
:103A0000002FF5D184F84230256320680C3050E84F
:103A1000002F00E006E022F0100240E80023002B17
:103A2000F3D1CDE705062BD5150629D594F841002D
:103A30002128C9D1A068B0F5805F01D12069B0B15B
:103A4000206A411C2162216800784860E08C401E99
:103A50000004000CE084B7D12068C16821F0800127
:103A6000C1602068C16841F04001C160F8BD206AB2
:103A70000088C0F308004860206A801C2062E5E7E7
:103A80004006F3D55006F1D5CA68204622F0400220
:103A9000CA6084F8413000F025F9F8BDF14D000806
:103AA00070B5040004D094F84100002510B106E080
:103AB000012070BD84F84050204600F023F82420F7
:103AC00084F841002068C16821F40051C16020469B
:103AD00001F0A2FA2068016921F490410161206897
:103AE000416921F02A0141612068C16841F4005117
:103AF000C1606564202084F8410084F84200656359
:103B0000002070BD2DE9F04387B0064614216846B9
:103B1000FCF7A2FBDFF810C13168444802220323FE
:103B20000827434D0024614554D140491031D1F854
:103B300000C04CF4002CC1F800C0096801F4002159
:103B40000591016841F0040101600068694600F0D8
:103B50000400059098028DE81500CDE9033728464A
:103B6000FEF75AFC344D33484FF48068470528600F
:103B7000C5E90174C5E903486C614FF44039AC6193
:103B8000C5E9074928466C62FEF792FB08B1FDF7CC
:103B900070FAF563AE63284D264860353030E5E8AD
:103BA00002074020A5E81101234845F81449603078
:103BB000AC61C5E907496C62FEF77AFB08B1FDF715
:103BC00058FAB563002204213420AE63FEF73EFFAD
:103BD000342023E0194EB14222D1144914310E6829
:103BE00046F020060E60096801F020010591016889
:103BF00041F0040101600068694600F0040005908E
:103C0000C0208DE81500CDE903372846FEF704FCF7
:103C1000002204214720FEF719FF4720FEF708FF86
:103C200007B0BDE8F0830000004C0040303802408F
:103C30000008024040600240D40600200014014009
:103C4000704770472DE9F843044690F841009846C4
:103C500016460D46202802D00220BDE8F88385B123
:103C60007EB100206064212084F84100FEF7D6FC7C
:103C7000A6848146E684A0682027B0F5805F02D044
:103C800003E00120E9E7206910B12E4600250EE08F
:103C900000260CE08021204601F094FAA8B9C6B1B4
:103CA00016F8010B21684860E08C401EE084E08C2F
:103CB0004B464FF00002CDF800800028EAD14FF0CB
:103CC0004001204601F07EFA40B184F841700320A3
:103CD000C3E735F8020BC0F30800E3E784F841704E
:103CE0000020BAE77047FEE7014890ED000A7047F0
:103CF000A4080020014890ED010A7047A4080020A4
:103D000010B528210848FCF7A7FA4FF4807207493C
:103D10000748FFF73CFD0648C06B0068016821F0CA
:103D20000801016010BD0000A4080020A4070020C5
:103D3000440600202DE9F0435C4A13780BB955285E
:103D40007ED15B49C8545B1CD8B210700B2877D366
:103D5000002318460C5C401C2344C0B2DBB20A2886
:103D6000F8D3887A4FF00009984244D150484B78F4
:103D70002838512B04D0522B3ED0532B3BD167E037
:103D800091F8028091F803C00F7948EA0C2C0FFAE1
:103D90008CFC00EE10CA4E798D79F8EEC00A92EDD7
:103DA000010ACC790B7A60EE800A497A47EA062646
:103DB00036B2C0ED000A00EE906A45EA042424B24F
:103DC000F8EEE00A43EA012109B260EE800AC0ED94
:103DD000010A00EE904AF8EEE00A20EE800ADFEDDC
:103DE000350A80ED020A00EE101AB8EEC00A80EE25
:103DF000201A80ED091A54E08C78CB780F7944EAC8
:103E000003231BB200EE103A4E798D79F8EEC00A0A
:103E10009FED290AC97947EA062460EE800A24B298
:103E200045EA0121C0ED030A00EE904A09B2F8EE1E
:103E3000E00A60EE800AC0ED040A00EE901A00E08D
:103E400031E0F8EEE00A20EE800A80ED050A28E075
:103E50008C78CB780F7944EA03231BB200EE103A3A
:103E60004E798D79F8EEC00A9FED140AC97947EAB8
:103E7000062460EE800A24B245EA0121C0ED060A5C
:103E800000EE904A09B2F8EEE00A60EE800AC0ED5A
:103E9000070A00EE901AF8EEE00A20EE800A80EDA4
:103EA000080A82F80090BDE8F08300004C00002072
:103EB000CC0800200000C84200007A3D0000B43B5E
:103EC0002DE9F04114311433164607468DB29CB2E9
:103ED000F02800D3EF27F02E00D3EF264FF4967191
:103EE000481E8D4200D305468C4200D304462A204A
:103EF00000F088FA380A00F082FAF8B200F07FFA8F
:103F0000300A00F07CFAF0B200F079FA2B2000F0D1
:103F100079FA280A00F073FAE8B200F070FA200A81
:103F200000F06DFAE0B200F06AFABDE8F0412C2032
:103F300000F068BA10B51446F0280BD2B1F58C7FAA
:103F400008D20B460246FFF7BBFF2046BDE81040F3
:103F500000F04BBA10BD2DE9F0471E46DDF8208079
:103F600017460D460446F02800D3EF24F02F00D367
:103F7000EF274FF48C71481E8D4200D305468E42C8
:103F800000D30646BC4202D920463C460746B5420D
:103F900002D928463546064633463A462946204643
:103FA000FFF78EFF4FEA182A08F0FF09A8460CE039
:103FB000254606E0504600F022FA484600F01FFA77
:103FC0006D1CBD42F6D908F10108B045F0D9BDE835
:103FD000F087000030B587B014216846FCF73CF943
:103FE00019480024016841F004010160016801F0F2
:103FF00004010591016841F0080101600068134D5A
:1040000000F0080005900122BB212846FEF701FBC5
:10401000BB2000900120CDE90104032003906946F4
:104020002846FEF7F9F9012210212846FEF7F1FA99
:10403000012220212846FEF7ECFA012280212846A1
:10404000FEF7E7FA07B030BD30380240000C0240FE
:1040500010B5FFF7BFFF854C012210212046FEF767
:10406000D8FA012211462046FEF7D3FA0022022197
:104070002046FEF7CEFA002208212046FEF7C9FAB4
:104080006420FEF7B7F9012208212046FEF7C1FAA5
:104090006420FEF7AFF9112000F0B4F97820FEF7A4
:1040A000A9F9362000F0AEF9082000F0BFF93A2057
:1040B00000F0A8F9052000F0B9F9B62000F0A2F947
:1040C0000A2000F0B3F9822000F0B0F9B22000F02D
:1040D00099F90C2000F0AAF90C2000F0A7F90020B3
:1040E00000F0A4F9332000F0A1F9332000F09EF98C
:1040F000B72000F087F9352000F098F9BB2000F0D8
:1041000081F9282000F092F9C02000F07BF90C2002
:1041100000F08CF9C22000F075F9012000F086F95A
:10412000C32000F06FF9102000F080F9C42000F0E7
:1041300069F9202000F07AF9C62000F063F90F2019
:1041400000F074F9D02000F05DF9A42000F06EF9C1
:10415000A12000F06BF9E02000F054F9D02000F02D
:1041600065F9002000F062F9022000F05FF90720F5
:1041700000F05CF90A2000F059F9282000F056F907
:10418000322000F053F9442000F050F9422000F0B2
:104190004DF9062000F04AF90E2000F047F91220F0
:1041A00000F044F9142000F041F9172000F03EF926
:1041B000E12000F027F9D02000F038F9002000F0CD
:1041C00035F9022000F032F9072000F02FF90A201B
:1041D00000F02CF9282000F029F9312000F026F910
:1041E000542000F023F9472000F020F90E2000F0C1
:1041F0001DF91C2000F01AF9172000F017F91B20F8
:1042000000F014F91E2000F011F92A2000F0FAF84D
:10421000002000F00BF9002000F008F9002000F069
:1042200005F9EF2000F002F92B2000F0EBF8002058
:1042300000F0FCF8142000F0F9F8012000F0F6F886
:104240002B2000F0F3F8212000F0DCF8292000F00A
:10425000D9F82C2000F0D6F8012202212046FEF7E2
:10426000D8F9BDE810400A20FEF7C4B8000C02409F
:104270002DE9FF5F0546DDE90F4683466708DDF857
:104280003880780700D0012000EBD70000FB04FA4B
:10429000203AD0B20290019801992044401E83B286
:1042A000E819401E82B22846FFF70AFE0EB1002030
:1042B00071E000252CE00C2C0FD0102C14D0182C01
:1042C00015D0202C26D13648029900EB811000270A
:1042D000465DF00712D0039811E0029800EB400110
:1042E000304800EB8100F2E72F48029903E0029882
:1042F00000EB40012D4800EB0110E8E7404600F0DC
:1043000074F87F1C7608FFB2082FE2D36D1CADB2A3
:104310005545D0D3BDE8FF9F0C2C20D0102C25D0C4
:10432000182C26D0202CF5D11D48029900EB8111C4
:104330004FF0000911F80860F00704D02846039AEE
:104340000199FFF7F7FD6D1CADB2A5EB0B00B8426C
:1043500016D101985D46401C80B2019018E0029889
:1043600000EB40010F4800EB8101E1E70E480299A4
:1043700003E0029800EB40010C4800EB0111D7E785
:1043800009F10100760800F0FF09B9F1080FD3D355
:1043900008F1010080B280465045BDD3BAE7000065
:1043A000147F0008E062000854670008446D0008AC
:1043B0002DE9FE4F9946DDE90D6714468A4605460C
:1043C000DDF830800CE0CDF800804B4651462846A1
:1043D000CDE90167FFF74CFF05EB560085B2641C81
:1043E0002278002AEFD1BDE8FE8F10B50446000AFE
:1043F00000F01CF8E0B2BDE8104000F017B800F083
:1044000015B8000070B5084C054600220121204671
:10441000FEF7FFF8284600F009F82046BDE8704096
:1044200001221146FEF7F5B8000C024070B5144E9B
:104430000546002210213046FEF7EBF8002400224A
:1044400020213046FEF7E5F8280601D5012200E0DC
:10445000002280213046FEF7DCF801222021304680
:10446000FEF7D7F86806641C050EE4B2082CE6D304
:104470003046BDE8704001221021FEF7CAB80000A6
:10448000000C02407FB5002415480094019402946A
:104490001249039401604FF48031C0E901140461B2
:1044A000047680F820400F49C0E90A140125C5614F
:1044B000C46080F830404561FDF705FC08B1FCF7A9
:1044C000D8FD0420CDE90005694602940448FDF7B3
:1044D000B9FA002801D0FCF7CCFD7FBD00200140D7
:1044E0009C0200200100000F7FB500211C480091B4
:1044F00001910291194A0391026001244FF4803224
:104500000461C0E90121017680F820101203C26223
:1045100002254FF0A062C5618262C16080F8304020
:104520004461FDF7D0FB08B1FCF7A3FD052604208C
:104530000096CDE9014069460948FDF783FA08B1C4
:10454000FCF797FD08208DE8610069460448FDF7F7
:1045500079FA002801D0FCF78CFD7FBD00210140D5
:10456000E40200207FB500211D48009101910291D5
:104570001A4A0391026001244FF480320461C0E9B9
:104580000121017680F820101203C26202254FF04B
:104590001062C5618262C16080F830404461FDF7FD
:1045A00092FB08B1FCF765FD0A20CDE90004042068
:1045B000029069460A48FDF745FA08B1FCF759FD33
:1045C0000D20CDE900050520029069460448FDF75D
:1045D00039FA002801D0FCF74CFD7FBD00220140D4
:1045E0002C030020194808B5016841F480010160DE
:1045F000016801F480010091016841F4001101603B
:104600000068002200F40010009004210D20FEF745
:104610001DFA0D20FEF70CFA002204210F20FEF7F0
:1046200015FA0F20FEF704FA002201213820FEF7C8
:104630000DFA3820FEF7FCF9002201213A20FEF79E
:1046400005FABDE808403A20FEF7F2B930380240DA
:1046500000B587B014216846FBF7FEFD1A4800211B
:10466000026842F080020260026802F08002059255
:10467000026842F004020260026802F0040205923D
:10468000026842F001020260026802F00102059233
:10469000026842F002020260026802F00202059221
:1046A000026842F0080202600068029100F008000F
:1046B00005904FF44050CDE9000169460348FDF7ED
:1046C000ABFE07B000BD00003038024000040240DD
:1046D0000D4810B50B4901600C49416000214FF4B1
:1046E00080428160C0E9031241618161C161016260
:1046F000FDF79EFF002803D0BDE81040FCF7B9BCD1
:1047000010BD00000054004034040020A0860100C9
:104710000D4810B50B4901600C49416000214FF470
:1047200080428160C0E9031241618161C16101621F
:10473000FDF77EFF002803D0BDE81040FCF799BCD0
:1047400010BD0000005C004088040020A08601002D
:1047500010B58AB0002407941C2168460894FBF722
:104760007BFD25484FF08041C0E900142021816085
:1047700040F21941C0E9031480218161FEF70BFF6B
:1047800008B1FCF776FC7020CDE9070407A91A48A8
:10479000FEF744FC08B1FCF76CFC6020009040F28E
:1047A0000D20CDE901040022694613480494FEF768
:1047B0008CFE08B1FCF75DFC042269460E48FEF74A
:1047C00084FE08B1FCF755FC082269460A48FEF74A
:1047D0007CFE08B1FCF74DFC042004900C226946D5
:1047E0000548FEF772FE08B1FCF743FC0248FEF7ED
:1047F0001BFE0AB010BD0000DC04002010B586B01E
:1048000000241748009401940294039404941349DB
:10481000059401605321C0E9011440F2CF71C0E951
:1048200003148461FEF742FC08B1FCF722FC4FF44C
:104830008050009069460A48FEF7EEFC08B1FCF78C
:1048400018FC049404A906480594FEF7E7FB002829
:1048500001D0FCF70EFC06B010BD000000040040C3
:104860002405002010B58AB0002407941C21684656
:104870000894FBF7F1FC25482349C0E900142021E6
:10488000816040F21941C0E9031480218161FEF783
:1048900082FE08B1FCF7EDFB7020CDE9070407A903
:1048A0001A48FEF7BBFB08B1FCF7E3FB6020009061
:1048B00040F20D20CDE9010400226946134804941A
:1048C000FEF703FE08B1FCF7D4FB042269460F484B
:1048D000FEF7FBFD08B1FCF7CCFB082269460B484C
:1048E000FEF7F3FD08B1FCF7C4FB042004900C2292
:1048F00069460648FEF7E9FD08B1FCF7BAFB034834
:10490000FEF792FD0AB010BD000800406C050020C3
:1049100010B586B0002417480094019402940394C3
:1049200004941349059401605321C0E9011440F235
:10493000CF71C0E903148461FEF7B8FB08B1FCF73E
:1049400098FB4FF48050009069460A48FEF764FCDB
:1049500008B1FCF78EFB2020CDE9040404A905482A
:10496000FEF75CFB002801D0FCF783FB06B010BD0E
:10497000000C0040B40500201FB500211048009134
:10498000019102910D4A03910260A722C0E9012121
:104990006322C0E903218161FEF788FB08B1FCF7BF
:1049A00068FB4FF48050009069460548FEF734FCE0
:1049B000002801D0FCF75DFB1FBD00000040014056
:1049C000FC0500200C4810B50A4901604FF416514F
:1049D0004160002181600C22C160C0E90412816144
:1049E000C161FFF75DF8002803D0BDE81040FCF777
:1049F00040BB10BD004C0040440600200C4810B5E0
:104A00000A4901604FF4E1314160002181600C22CC
:104A1000C160C0E904128161C161FFF741F800285B
:104A200003D0BDE81040FCF724BB10BD00140140CA
:104A30008C060020FEE7FEE770477047FDF79EBF3B
:104A400030B593B030216846FBF706FC14210CA862
:104A5000FBF702FC1D480025016841F08051016010
:104A6000006800F0805011901948016841F48041BD
:104A700001600068022400F4804011900120009041
:104A8000000401908001CDE9064008AA0420A82175
:104A900082E813000B906846FEF7F4F808B172B68E
:104AA000FEE70CA90F2081E831004FF4A0500F90D1
:104AB0004FF48050109005210CA8FDF7F9FF002855
:104AC00001D072B6FEE713B030BD0000403802409E
:104AD000007000400248016841F4700101607047B5
:104AE00088ED00E00148FEF706BC0000FC05002050
:104AF0000148FEF700BC0000240500200148FEF735
:104B0000FABB0000B4050020F0B50268274B284D21
:104B1000284E294F294C4FF0804C984209D06045CF
:104B200007D0A84205D0B04203D0B84201D0A0427D
:104B300004D122F0700E4A6842EA0E0298421BD05D
:104B4000604519D0A84217D0B04215D0B84213D052
:104B5000A04211D01A4DA8420ED01A4DA8420BD037
:104B6000194DA84208D0194DA84205D0184DA842A9
:104B700002D0184DA84203D122F44075CA682A43D6
:104B80004D6922F080022A438D68C5620D688562F6
:104B9000984201D0A04201D109690163016841F046
:104BA00004010160012141610260F0BD000001408B
:104BB0000004004000080040000C004000040140D8
:104BC00000400140004401400048014000180040FE
:104BD000001C00400020004010B501F01F0301211F
:104BE000046A99408C430462016A9A40114301624D
:104BF00010BD10B5846842EA032224F47F440A43BE
:104C00002243826010BD826822F070020A4342F0A3
:104C10000701816070470000F0B5036A026A22F064
:104C20000102026242688469124E24F073050C6826
:104C30002C4323F002058B682B430D4DA84201D075
:104C4000B04205D123F00807CB683B4323F00403AF
:104C5000A84201D0B04205D14D6922F440721543FB
:104C60008A692A4342608461496841630362F0BDF6
:104C70000000014000040140F0B5026A036A23F01D
:104C800010030362436884690D6824F4E64444EA2F
:104C900005248D6822F0200242EA05120F4D104EC5
:104CA000A84201D0B04206D1CF6822F0800242EA89
:104CB000071222F04002A84201D0B04207D14D694C
:104CC00023F4406343EA85038D6943EA8503436027
:104CD0008461496881630262F0BD00000000014008
:104CE00000040140F0B5026A036A23F48073036292
:104CF0004368C46922F4007224F073050C68124EF4
:104D00002C438D6842EA05220E4DA84201D0B042E4
:104D100006D1CF6822F4006242EA072222F48062C0
:104D2000A84201D0B04207D14D6923F4405343EA71
:104D300005138D6943EA05134360C4614968C16383
:104D40000262F0BD000001400004014030B5046A79
:104D5000026A22F4805202624268C3690D6823F439
:104D6000E64343EA05238D6824F4005444EA0534FD
:104D7000084DA84202D0084DA84204D14D6922F442
:104D8000804242EA85124260C3614968016404625C
:104D900030BD0000000001400004014010B5036A6E
:104DA000046A24F001040462846924F0F00444EAF3
:104DB000021423F00A020A438461026210BD10B596
:104DC000036A046A24F010040462846923F0A003D7
:104DD00024F4704444EA023243EA01118261016220
:104DE00010BD00000148FEF71BBD00004406002076
:104DF00010B5806B0021C185FEF710FD10BD70B5A8
:104E0000846B2068406994F84110C0F3C0100025FD
:104E1000212904D118B1E584204600F08EF82068DD
:104E2000406994F84210C0F38010222904D118B1CF
:104E3000E585204600F05AF8606C40F01000606490
:104E40002046FEF7EBFC70BD10B50146806B09688B
:104E500009684FF00002C9052ED4C28501680C31E3
:104E600051E8003F23F4807341E80034002CF5D171
:104E70000168143151E8003F23F0010341E8003498
:104E8000002CF5D10168143151E8003F23F04003B4
:104E900041E80034002CF5D1202180F84210016B4C
:104EA000012909D101680C3151E8003F23F01003BA
:104EB00041E80034002CF5D14263016B012902D096
:104EC000FEF7BEFE10BD818DFEF786FC10BD10B54D
:104ED000806B01214163016B012902D0FEF7B1FE15
:104EE00010BD818D4908FEF777FC10BD01680C31BB
:104EF00051E8002F22F4907241E80023002BF5D1F5
:104F00000168143151E8002F22F0010241E800232A
:104F1000002BF5D1016B012909D101680C3151E851
:104F2000002F22F0100241E80023002BF5D12021B0
:104F300080F8421000210163704701680C3151E88C
:104F4000002F22F0C00241E80023002BF5D12021E0
:104F500080F84110704708B590F84210222901D01E
:104F6000022008BD82684FF480539A4201D1016942
:104F700021B1816A9A421BD04AB10AE00268816A73
:104F80005268C2F308020A80816A891C08E002693B
:104F900072B10268526802F07F020A70816A491C8D
:104FA0008162C18D491E0904090CC18503D01BE033
:104FB00002685268F1E70168CA6822F02002CA60FC
:104FC0000168CA6822F48072CA6001684A6922F0E6
:104FD00001024A61202180F8421000214163026BE6
:104FE000012A03D0FEF72CFE002008BD01630168F2
:104FF0000C3151E8002F22F0100241E80023002B71
:10500000F5D101680A68D20602D50A68496800919C
:10501000818DFEF7E1FBE7E770B5044600680169A2
:10502000E26821F44051114301612169A068E269FD
:1050300008436169114308432168CA6849F20C6357
:105040009A430243CA6020684169A26921F4407111
:105050001143416131492068884202D03049884279
:1050600002D1FDF7CFFD01E0FDF7BCFDE2690023B1
:10507000192164253226B2F5004F626828D0A0FBC2
:105080000101930F9200FBF79DF80146B0FBF5F08C
:105090006FF01802504301EB800006EB0010B0FBEC
:1050A000F5F000F0F002B1FBF5F002EB0012B1FBFD
:1050B000F5F06FF01803584301EB800006EB001089
:1050C000B0FBF5F000F00F0021681044886070BD5F
:1050D000A0FB010192185B41FBF774F80146B0FB9D
:1050E000F5F00201B1FBF5F06FF01803584301EB46
:1050F000800006EBC000B0FBF5F000F0F80002EB1A
:105100004002B1FBF5F0584301EB800006EBC00014
:10511000B0FBF5F000F00700D6E7000000100140FA
:105120000014014038B58162044682850020134690
:105130006064222284F84220E56B1F4AEA63E56B33
:105140001E4A2A64E56B1E4AEA64E26B10650A4651
:105150002168E06B091DFDF715F930B1102060647E
:10516000202084F84200012038BD20680168406892
:105170000090206948B120680C3050E8001F41F4CD
:10518000807140E80012002AF5D12068143050E800
:10519000001F41F0010140E80012002AF5D120680B
:1051A000143050E8001F41F0400140E80012002A8E
:1051B000F5D1002038BD0000494E0008CF4E000850
:1051C000FF4D00082DE9F843984617460D46044662
:1051D000089E24E0701C22D0FDF720FAA0EB080006
:1051E000B0421AD8CEB12068C168490717D5802DC2
:1051F00015D0402D13D00168C94309070FD40168A9
:105200000025406800902046FFF770FE082060648B
:1052100084F840500120BDE8F8830320FBE72068B4
:10522000006835EA000004D00020B842D2D0002047
:10523000F1E70120F9E700000148FEF7F1BA0000AC
:105240008C060020FEE700000FB4054B10B503A943
:10525000044A029800F098F910BC5DF814FB0000B5
:10526000DD5D0008740000200907090E002804DB3A
:1052700000F1E02080F80014704700F00F0000F10A
:10528000E02080F8141D704710B52DED028BB0EEB4
:10529000608AF0EE408A18EE101A18EE900AFBF7BA
:1052A0000FFA00F07040B0F1005F0CD018EE100A59
:1052B00020F00040C0F1FF40C00F02BFB0EE480A2E
:1052C000BDEC028B10BDB0EE680ABDEC028B10BDC8
:1052D00010B52DED028BB0EE608AF0EE408A18EE2C
:1052E000101A18EE900AFBF7EBF900F07040B0F1DD
:1052F000004F0CD018EE100A20F00040C0F1FF4023
:10530000C00F02BFB0EE480ABDEC028B10BDB0EE7C
:10531000680ABDEC028B10BD10B52DED028BF0EECE
:10532000408A18EE900AB0EE608A20F00040C0F18A
:10533000FF40C00F07D118EE100A20F00040C0F166
:10534000FF40C00F2BD018EE101A18EE900AFAF793
:10535000D6FF00EE100A10EE100A6FEAD05010F0DF
:10536000FF0F04BFBDEC028B10BD18EE900A00F0D9
:10537000004110EE100A00F00040814204BFBDEC75
:10538000028B10BD18EE101A10EE100ABDEC028B45
:1053900061F31E0000EE900A30EE600A10BD18EEB8
:1053A000900A4FF07F41B1EB400F1CBF18EE100A7E
:1053B0005FEA4000C7D1012000F01EF8BDEC028B6F
:1053C000BDE81040AFF30080DFED020A80EEA00AD6
:1053D000704700000000000002E008C8121F08C16A
:1053E000002AFAD170477047002001E001C1121F66
:1053F000002AFBD170470000014908607047000097
:10540000780000202DE9FF5F82B00021DDE9043043
:10541000020DDDF840B0034318D044F61050A2F25C
:10542000FF3242431514119801281FD0A5EB0B0041
:10543000401C5FEA000A4FF000064E4FDFF838913B
:10544000B046504615D5CAF1000413E01198012466
:105450004AA3012801D16FEA0B010298119AC0E911
:105460000031C0E9024206B0BDE8F09FCBF1000078
:10547000DFE704460021404A491842EB0450CDE9D9
:10548000001012E0E00707D032463B46404649464E
:10549000FBF705F88046894632463B4610461946DA
:1054A000FAF7FDFF06460F466410002CEAD1DDE94D
:1054B0000401DDE90023BAF1000F06DAFAF7EFFF85
:1054C00042464B46FAF7EBFF05E0FBF75AF8424637
:1054D0004B46FBF756F804460E460022284BFBF7D6
:1054E000D7F803D84FF0FF30014607E00022254BE4
:1054F00020463146FAF72CFFFBF7B2F8102409E0FA
:10550000002C0ADB0A220023FAF75CFE039B3032F0
:105510001A55641E50EA0102F2D1641C039AC4F1C8
:1055200011031444119A012A03D0012208430DD11A
:105530000AE0084304D000204FF0110B119072E7ED
:10554000A3EB0B056D1E0DE05B4504DD4FF0000283
:1055500005F1010504E003DA4FF00002A5F10105B1
:10556000002AECD002981199C0E90231C0E9004547
:1055700079E70000000014400000F03F3000000018
:105580000000F0430000E03F2DE9FF4F95B09A4640
:10559000884606460025EEE1252877D100242746D7
:1055A000F94A0121039400E0044316F8013F203B2F
:1055B00001FA03F01042F7D130782A2811D06FF0A9
:1055C0002F033078A0F13002092A16D8039A44F04C
:1055D000020402EB820203EB42021044761C0390A9
:1055E000EFE758F8042B0392002A03DA504244F400
:1055F0000054039044F00204761C30782E2816D113
:1056000016F8010F44F004042A280DD06FF02F0281
:105610003078A0F13003092B09D807EB870302EBA0
:105620004303C718761CF3E758F8047B761C3078E0
:105630006C280FD006DC4C2817D068280DD06A28BB
:1056400014D104E0742810D07A280FD10DE044F46E
:1056500000140AE044F4801401E044F44014727829
:10566000824202D104F58014761C761C30786628BC
:105670000BD013DC582877D009DC002875D04528DA
:10568000F6D04628F4D047281AD193E118E06328D1
:1056900035D0642879D0652812D18BE1702873D079
:1056A00008DC6728F1D069286FD06E280DD06F28EC
:1056B00006D1ACE073282CD0752874D0782853D04C
:1056C0005246179990476D1C54E1C4F302500228CA
:1056D00009D003280DD0D8F8001004280DD00D6093
:1056E00008F1040846E1D8F80010EA17C1E90052B1
:1056F000F6E7D8F800100D80F2E70D70F0E718F823
:10570000041B8DF8001000208DF80100EB460120ED
:1057100003E058F804BB4FF0FF3061074FF0000181
:1057200002D40DE009F101018946B9420FDA814541
:10573000F8DB1BF809100029F4D108E009F1010198
:1057400089468142FADB1BF809100029F6D103983B
:105750005346A0EB090721463846179A00F080FA15
:10576000284400EB090507E044E008E10DE01BF8E0
:10577000010B524617999047B9F10109F7D25346E8
:1057800021463846179AF2E039E00A21C4F3025262
:105790004FF0000B0091022A06D058F8040BC117F5
:1057A000032A09D00AE023E008F1070020F00702ED
:1057B000F2E80201904605E000B2C117042A01D1C7
:1057C00040B2C117002906DA0A460021404261EBC7
:1057D00002012D2202E0220504D52B228DF804209F
:1057E000012203E0E20701D02022F7E7914657E0CB
:1057F0000A2100E010214FF0000B00910BE0102176
:105800004FF0000B44F004040827009103E0082047
:105810004FF0000B0090C4F30252022A05D058F852
:10582000040B0021032A08D008E008F1070020F04B
:105830000702F2E80201904603E080B2042A00D198
:10584000C0B24FF0000922072AD53278702A07D05B
:10585000DDF800C08CF0100C5CEA0B0C05D00EE0FB
:1058600040228DF80420012208E050EA010306D00E
:1058700030238DF804308DF8052002229146009BDC
:1058800083F0080353EA0B030AD150EA010201D165
:10589000620705D530228DF804204FF001097F1EE4
:1058A0003278582A04D039A20C920CAA02920BE04A
:1058B0003BA2F9E75B46009AFAF784FC0C9B9B5CE1
:1058C000029A521E0292137050EA0102F2D102981B
:1058D00004A9081A00F1200B600702D524F48034D3
:1058E00000E001275F4502DDA7EB0B0000E0002090
:1058F00000EB0B01009003984944401A0390E00329
:1059000006D453462146179A039800F0A9F9054496
:10591000002706E001A85246C05D179990476D1C0C
:105920007F1C4F45F6DBE0030CD553462146179A02
:10593000039800F095F9054404E030205246179989
:1059400090476D1C0099481E00900029F5DC08E086
:105950000298029952460078491C02911799904783
:105960006D1CBBF10001ABF1010BF1DC5BE100F060
:1059700065F90544761C307800287FF40DAE19B027
:105980002846BDE8F08F000009280100303132338D
:10599000343536373839616263646566000000006B
:1059A0003031323334353637383941424344454655
:1059B00000000000600700D4062708F1070020F06F
:1059C0000700F0E80223804603F0004C5FEA0C0079
:1059D00001D097A009E0200501D596A005E0E007D9
:1059E00001D095A001E0AFF24C001390307823F085
:1059F000004365280CD006DC452809D046281DD078
:105A000047287FD13BE0662818D067287AD136E056
:105A10000021112F01DB112000E0781CCDE90001ED
:105A200004A90CA8FFF7EEFCDDE90D010C9A4FF07C
:105A3000000B07F10109109200914EE04FF0004079
:105A40000097CDE9011004A90CA8FFF7DBFCDDE904
:105A50000D020C9B0F994FF0000B91461093009292
:105A600011B9791C00EB0109B7EB090003D4C0F1AF
:105A7000FF3B07F10109A9EB0700019042E0012F6C
:105A800000DA01270021112F01DD112000E0384646
:105A9000CDE9000104A90CA8FFF7B4FCDDE90D0174
:105AA0000C9A00914FF0000BB946109221070FD4C9
:105AB000009A4A4503DA914601E0A9F10109B9F1DA
:105AC000010F05DD109AA9F10101515C3029F4D0D4
:105AD000B84202DA10F1040F03DA0121CDE9011016
