:020000040800F2
:10000000780C0020A10100081B4F0008CB38000825
:10001000194F0008A1090008A956000800000000B7
:100020000000000000000000000000001F4F00085A
:10003000790A0008000000001D4F0008214F000849
:10004000BB010008BB010008BB010008BB010008A0
:10005000BB010008BB010008BB010008BB01000890
:10006000BB010008BB010008BB010008BB01000880
:10007000BB010008A5090008BB010008B109000880
:10008000BB010008BB010008B5060008BB01000861
:10009000BB010008BB010008BB010008BB01000850
:1000A000BB010008BB010008BB010008BB01000840
:1000B000BB010008C94F0008BB010008D93800087F
:1000C000CD380008BB010008BB010008BB010008D7
:1000D000BB010008BB010008BB010008BB01000810
:1000E000BB010008BB010008BB010008BB01000800
:1000F000BB010008BB010008BB010008BB010008F0
:10010000BB010008BB010008D54F0008BB01000877
:10011000BD520008BB010008BB010008BB0100087C
:10012000BD090008BB010008C9090008BB0100089F
:10013000BB010008BB010008BB010008BB010008AF
:10014000BB010008BB010008BB010008BB0100089F
:10015000BB010008BB010008BB0100089D56000858
:10016000F1380008E5380008BB010008BB010008B1
:10017000BB010008BB010008BB0100080000000033
:10018000BB010008BB010008DFF810D000F0C0F888
:1001900000480047095F0008AFF30080780C00209A
:1001A0000648804706480047FEE7FEE7FEE7FEE711
:1001B000FEE7FEE7FEE7FEE7FEE7FEE7B94F0008D1
:1001C000890100082DE9F05F0546002092469B4614
:1001D00088460646814640241BE02846414647465D
:1001E000224600F041F853465A46C01A914110D3B6
:1001F00011461846224600F028F82D1A67EB010830
:100200004F4622460120002100F01FF817EB00099D
:100210004E41201EA4F10104DFDC484631462A4647
:100220004346BDE8F09FD2B201E000F8012B491E21
:10023000FBD270470022F6E710B513460A46044683
:100240001946FFF7F0FF204610BD202A04DB203AB4
:1002500000FA02F1002070479140C2F1200320FA19
:1002600003F3194390407047202A04DB203A21FA17
:1002700002F00021704721FA02F3D040C2F12002BF
:100280009140084319467047F0B400F0004221F055
:10029000004120F00040CE0DC30DC1F3160141F422
:1002A0000001C0F316004C42154640F40000761ED3
:1002B00009E010EB440002D582F00042404288423F
:1002C000F7D840005B1EB342F9DA18B1F0BC002148
:1002D00000F039B82846F0BC7047002801DBC0F1B7
:1002E0000040002901DBC1F10041814202D24FF000
:1002F000004004E04FF0005001D14FF0C0404FEA01
:100300002062EFF3008162F31F6181F30088704780
:10031000064C074D06E0E06840F0010394E8070052
:1003200098471034AC42F6D3FFF732FF989A000892
:10033000B89A00080029A8BF7047401C490008BFB0
:1003400020F00100704710B4B0FA80FC00FA0CF005
:1003500050EA010404BF10BC704749B1CCF120043D
:1003600021FA04F411FA0CF118BF012121430843CA
:10037000A3EB0C01CB1D4FEA00614FEA102042BFF6
:10038000002010BC704700EBC35010440029A4BFEC
:1003900010BC7047401C490008BF20F0010010BC91
:1003A000704700002DE9F05F22494FF000084646F3
:1003B0000B68454644464FF47A72C3F834800B68A4
:1003C000C3F838800968C1F83C801B490B68C3F842
:1003D00034800B68C3F838800968C1F83C80DFF8C6
:1003E0005CA0002791460AF1040B00BFBAF8020096
:1003F000BAF800200644BBF80200BBF80010044421
:1004000090440D440A2001F071FC7F1C4F45EDDB48
:100410004846B8FBF0F2094918398A81B6FBF0F278
:10042000CA81B5FBF9F2B4FBF9F00A824882BDE853
:10043000F09F0000D003002060040020280000206E
:1004400010B50146806B026C12F0500F05D0026CA3
:10045000D20626D501F019F810BD016C41F40071E7
:10046000016401688A6812F0405F17D1027EAAB960
:10047000CA6A12F4700F02D08A6852050ED44A6814
:1004800022F020024A60016C21F480710164016C49
:10049000C90403D4016C41F00101016400F0F2FFD2
:1004A00010BD806BC26CBDE810400846104710B507
:1004B000806B40210164416C41F00401416400F013
:1004C000E4FF10BD10B5806B00F0DEFF10BD000032
:1004D00070B564492DED048B00680968DFED628A10
:1004E0009FED628A0125624C88425AD104F11800BE
:1004F0000188A1804088E080A088A189401AE18815
:10050000E2898E1A05F0F4FBB0EE409A304605F011
:10051000EFFB5849A08A574A01EB800194ED0C1A71
:10052000D1ED000A403202EB800231EE601AD2EDCA
:10053000000AD4ED0D1A81ED009A31EE091A71EE20
:10054000E00A82ED000A84ED0C1A401C70EE800A6D
:1005500000F00F0021EE280AC4ED0D0AA08260EE23
:10056000A80A2078B8B194ED081A30EE411A94ED3B
:10057000080A01EE080A84ED080A94ED090A70EEF3
:10058000C00A94ED090A00EE880A84ED090AA570F4
:10059000BDEC048B70BD84ED080AC4ED090A25701A
:1005A000F5E7354909688842F2D131481C300188A5
:1005B0002181408860812089218A401A6189628A6C
:1005C0008E1A05F095FBB0EE409A304605F090FB90
:1005D0002849E08A803101EB8001F0EE400A91ED7C
:1005E000000A94ED0E1A234AC03271EE401A02EB53
:1005F000800294ED0F1A92ED000A81ED009AC2ED8F
:10060000000A31EE401A31EE890A401C00F00F005A
:1006100031EE201A84ED0E0A60EE280A84ED0F1ADE
:10062000E08221EE280A6078A8B194ED0A1A30EE33
:10063000C11AD4ED0A0A41EE080AC4ED0A0AD4ED43
:100640000B0A70EE600A94ED0B0A00EE880A84ED46
:100650000B0AE5709CE7C4ED0A0A84ED0B0A65708D
:10066000F7E70000D80100200000803D295C0F3E24
:1006700010000020400600202002002005480178DC
:1006800011B190ED080A704781888089081A05F039
:100690002FBB0000100000200548017811B190ED3B
:1006A000090A7047C188C089081A05F021BB0000FB
:1006B0001000002010B5054800F0E8FE044800F0E6
:1006C000E5FEBDE81040034800F0E0BE90010020C8
:1006D000D801002020020020464910B54A6822F4C3
:1006E00040324A604A6843681A434A6001684A686F
:1006F00022F480724A6001684A68036942EA032270
:100700004A6001684A6822F040724A6001684A689B
:1007100083681A434A6001688A6822F400628A602A
:1007200001688A68C3681A438A60816A6FF07062E0
:10073000D14201688A6822F070628A6001688A6822
:100740000CD0836A1A438A6001688A6822F040529A
:100750008A6001688A68C36A1A4301E022F0405245
:100760008A6001688A6822F002028A6001688A68E9
:10077000037E42EA43028A6090F820100029016853
:100780004A680FD042F400624A6001684A6822F465
:1007900060424A6001684A68174C436A04EB43337D
:1007A0001A4301E022F400624A600168CA6A22F436
:1007B0007002CA620168CA6A838B104C04EB03534F
:1007C0001A43CA6201688A6822F400728A6001686A
:1007D0008A6890F8303042EA43228A6001688A6869
:1007E00022F480628A6001688A68406942EA802057
:1007F000886010BD0023014000E0FFFF0000F0FF13
:1008000070B5234801F06CF8224801F069F82248DD
:10081000002101804180001D018041801C38017051
:1008200041709FED1E0A80ED0D0A80ED0C0A80EDEF
:100830000F0A80ED0E0AC182818219490020A1F1C0
:10084000400201F1800301F1400400BF01EB80058B
:1008500085ED000A02EB800585ED000A03EB8005BB
:1008600085ED000A04EB8005401C80B285ED000A8E
:100870001028EBD302220849054800F085FFBDE8A7
:10088000704005490222091D024800F07DBF0000AA
:10089000D8010020200200202800002000000000D5
:1008A000800600200068064A0649904201D1086887
:1008B0007047054A904201D1486870470020704750
:1008C0000054004050000020005C004010B190ED4A
:1008D000030A70479FED010A704700000000000006
:1008E00010B190ED040A70479FED010A70470000B7
:1008F0000000000070B5040007D031B1124D0B6844
:100900001248AB4203D1046005E0002070BD104DD9
:10091000AB4200D1446021609FED0E0AA27784EDC6
:10092000080A0025E580258184ED030A84ED040A88
:1009300084ED050A01F0EEFAA0612577657720467F
:1009400000F01BF8012070BD005400405000002052
:10095000005C00400000000010B504000CD0207FB7
:10096000002809D1206801F05DFC202804D1204630
:10097000BDE8104000F001B810BD1CB500280ED035
:10098000017F00290BD1012101770223011DCDE94F
:1009900000130E22006801236C2101F06FFD1CBDC5
:1009A000FEE70000014801F02FB80000800500209C
:1009B000014801F029B80000E0050020014801F0DD
:1009C00023B80000C8020020014801F01DB8000053
:1009D0006802002001681823CAB2103AB2FBF3F291
:1009E000054B6FF30901032A9B5CC36500D9091D00
:1009F00081650846704700002C61000810B501466B
:100A000000208B698A6A4FF0C07453B1B3F5005F60
:100A100015D072B1012A0CD0022A0AD0032A09D1BA
:100A200004E01AB1012A06D0022A03D1C96AC90119
:100A300000D5012010BDC96AA142FAD010BD002A1C
:100A4000F7D0012AF2D0022AF3D0032AF3D010BD46
:100A500030B50468256825F4802525600468636046
:100A60008368402B036803D099600068C26030BD82
:100A70009A600068C16030BD704772B6FEE7000042
:100A80001FB5002806D0044C1ECC8DE81E00694618
:100A900000F064FB1FBD0000689A000810B5040058
:100AA0002DED068B86B07DD0D4F8CC00002879D00F
:100AB000D4F8C40000287CD0D4F8D00008B1804716
:100AC00001E0B2EE080A9FED3E8AF0EE408A9FED0B
:100AD0003B0A04A903A868EE809AF0EE481AB7EE24
:100AE000001AF0EE480AB0EE690A00F0D7F902AA3F
:100AF00001A96846B0EE681ADDED040A9DED030A0F
:100B000000F0AEFAD4F8CC00C4349DEC030A804760
:100B1000C82001F0EBF820688047DFED2AAAF0EE4C
:100B2000400AB0EE60AAB0EE6A0A04F0E1FDB0EE51
:100B3000409AB0EE6A0A04F023FFF0EE401A04A9CE
:100B400003A8B0EE491AF0EE480AB0EE690A00F0C8
:100B5000A5F902AA01A96846B0EE681ADDED040AFB
:100B60009DED030A00F07CFAA0689DEC030A804723
:100B7000C82001F0BBF820688047F0EE408AA068EA
:100B8000B0EE481AF0EE480AB0EE480AC43C80477E
:100B900038EECA0A00F090F9B5EEC00AF1EE10FA8C
:100BA00003DB00E005E0012001E04FF0FF3084F8B6
:100BB000C20006B0BDEC068B10BD0000CDCC4C3E93
:100BC000000000003333B33E70B504002DED028BFE
:100BD00086B074D0D4F8CC00002870D0D4F8C4000B
:100BE00000286CD0D4F8D00008B1804701E0B2EE04
:100BF000080A9FED368AF0EE402A9FED330AF0EEA8
:100C0000480A01A922EE800A6846F0EE601AB7EEA3
:100C1000001A00F043F99DEC020A04AA03A902A8F5
:100C2000B0EE621A00F01CFA02A9D4F8CC0091ECE4
:100C3000030A804700254FF49676022001F056F80B
:100C4000D4F8C40000B180476D1CB542F5DBD4F880
:100C5000C400804794F9C20000EE900A2078F8EEB4
:100C6000E00A60EE800A00EE100AB8EE400A20EEBC
:100C7000C00A84ED0B0A9FED160AD4ED0B0A03E0BF
:100C800070EE800AC4ED0B0AF5EEC00AF1EE10FA20
:100C9000F6D3104910EE900A884204DB70EEC00AC9
:100CA000C4ED0B0AF6E7B0EE480AD4F8CC00B0EE7B
:100CB000401AF0EE400A8047C82001F017F806B04D
:100CC000BDEC028B70BD0000CDCC4C3E000000009E
:100CD000DB0FC940DB0FC94080ED000A30EEC10ACE
:100CE000DFED030A20EE200A81ED000A70470000C4
:100CF0003ACD133F002804D0021D82EC030A80F88D
:100D0000C110704700B5B0EE404A90ED0F0A0146A1
:100D1000F0EE440AB1EE400A583000F039F981EDA6
:100D2000110A9FED270A087E20B1012805D002286C
:100D30000FD102E091ED070A0BE091ED250A91ED4C
:100D4000221AD1ED231A20EE010A91ED261A01EEA6
:100D5000210A91ED101AF0EE440A01F1700030EE14
:100D6000410A00F015F981ED120A91F8C10000283E
:100D700024D0087891ED0A1A00EE900AD1ED111AEC
:100D8000F8EE600A61EE200A91ED031A20EEC12A06
:100D900091ED101A42EE011AC1ED111AD1ED021AAD
:100DA00061EEA00AD1ED0F1A60EEA10AD1ED011A91
:100DB00041EE810A30EE800A81ED120A00BD00008A
:100DC0000000000070B50D46040057D0EDB3D421EB
:100DD000FFF730FA2570012084F8C0009FED280A43
:100DE00084F8C20084ED010A9FED260A002084EDFC
:100DF000020A84ED030A84F8C100F2EE081AC4ED79
:100E0000041AB0EE000A84ED050A9FED1F2ADFEDFB
:100E10001F2A207684ED072AB0EE421AF3EE040A68
:100E2000B0EE620A04F1580000F096F8D4ED041A0E
:100E3000B0EE421AF3EE040AB0EE620A04F170005A
:100E400000F08AF8D4ED051A00E017E0B0EE421A7F
:100E5000F0EE000A9FED0E0A04F1880000F07CF825
:100E6000DFED0C1A9FED0C1AF0EE420AB3EE040A05
:100E700004F1A00000F070F8012070BD002070BDEA
:100E8000333313409F71613A00000000CDCCCC3F5A
:100E9000CDCC4C3E00004842CDCCCC3D20EE012ACA
:100EA00020EE210A00EEE12A00EE810A80ED002A00
:100EB00081ED000A70470000DFED090A094901E0F1
:100EC00030EE600A10EE100A8842F9DC064900BFD5
:100ED00010EE100A884202D930EE200AF8E7704777
:100EE000DB0FC940DB0F4940DB0F49C010B5017E65
:100EF000B0EE404A024639B302F1880003460129A8
:100F000002D0022920D108E092ED070A92ED0A1AD8
:100F1000F0EE440A30EE410A14E092ED070A92ED39
:100F2000081A30EE410AFFF7C7FFF0EE440A02F15B
:100F3000A00000F02DF892ED0A1AF0EE440A1846CF
:100F400030EE410A00F024F8BDE81040B0EE440A4B
:100F50001046FFF7D7BE0000002809D0C0ED051AE3
:100F600080EC030A9FED030A80ED040A80ED030A7A
:100F70007047000000000000002805D09FED030A24
:100F800080ED040A80ED030A7047000000000000B5
:100F900020B1F5EEC00AF1EE10FA02D89FED270A53
:100FA000704790ED042A90ED001ADFED251A00EE4F
:100FB000202A61EE002A80ED042A90ED013A90ED9E
:100FC000051A73EE213AC1EE231AB4EEE12AF1EECE
:100FD00010FA01DDC0ED041A90ED042AF1EE611A59
:100FE000B4EEE12AF1EE10FA02D3F0EE421A01E07B
:100FF000C0ED041A63EE211A90ED033A90ED022A37
:1010000080ED030A30EE433A32EEA10A22EE033AB3
:1010100083EE202A30EE020AB4EEC01AF1EE10FA86
:1010200001D2B0EE410AF1EE410AF4EEC00AF1EE4F
:1010300010FAB5DDB0EE600A704700000000000055
:10104000BD37863520EE012A00EEA12A60EE810A26
:1010500040EE610A80ED002AC1ED000A70470000F1
:1010600070B5F0EE601A2DED068BBEEE00AAB0EE64
:10107000408A60EE0A0A9FED310A15460C46B0EE32
:10108000609A41EE800A01EEC09A0646F0EE419A5F
:10109000B0EE480AF0EE608A04F0D2FBF0EE490AA6
:1010A00004F0CEFBF0EE40AAF0EE680AB0EE480A7B
:1010B00004F0EAFBF0EE490A04F0E6FBF0EE400A29
:1010C0003AEEA00ADFED1E0A60EE0A1A38EE210A97
:1010D00029EEA08A86ED000A38EEA10A84ED000A06
:1010E00039EE210A85ED000AF0EEC00A94ED000AFF
:1010F000B0EEC00A04F0A4FBD6ED008AF0EE400A80
:10110000B0EEE80A04F09CFBB4EEC80AF1EE10FA67
:1011100011DDC8EE000A28EEA00A86ED000A94ED63
:10112000000A20EE200A84ED000A95ED000A20EE68
:10113000200A85ED000ABDEC068B70BDD7B35D3F7C
:10114000EFC9133F002808D0B5EEC00AF1EE10FA3F
:1011500003D980ED050A80ED270A704710B50028F5
:1011600005D0002903D01EC9C43080E81E0010BD80
:10117000002800D001767047002801D080ED070AD2
:10118000704700280AD0B5EEC00AF1EE10FA05D972
:1011900080ED040A80ED1B0A80ED210A70470000F3
:1011A00010B504002DED048B84B073D094F8C0000A
:1011B00000286FD09FED5A9AD4F8C40050B18047F0
:1011C00094F9C20000EE900AF8EEE00A20EE200A40
:1011D00084ED080AD4F8C83023B104F13802111F95
:1011E000081F98474F48FFF77BFB84ED0A0AD4EDB0
:1011F000080AC4ED2E0A207894ED0B0A01EE100ABD
:10120000B8EE411A00EE810A9FED478AF0EE480AD7
:1012100004F05EFBB5EEC00A84ED090AF1EE10FAA7
:1012200003D230EE080A84ED090A04F1300201A964
:1012300092EC030A6846FFF74FFD94ED090A04F0AB
:1012400057FAF0EE408A94ED090A04F099FBB0EEEB
:10125000408A04F140019DEC020A081FF0EE481A92
:10126000B0EE681AFFF7EEFEB0EE490A2046FFF72F
:101270003DFED4ED120A94ED110A03A902A8F0EE86
:10128000481AB0EE681AFFF709FED4F8D00010B182
:10129000804702E040E0B2EE080A04F15402111F58
:1012A000B0EE401A081FDDED030A9DED020AFFF7BC
:1012B000D7FED4F8CC0020B104F14C0191EC030A24
:1012C000804794ED0F0AD4ED100A20EE000A00EEDC
:1012D000A00A04F01DFCD4ED050A9FED141A60EE7F
:1012E000810AF4EEC00AF1EE10FA15D2D4F8CC005F
:1012F00030B19FED0F0AB0EE401AF0EE400A804781
:1013000004F15800FFF738FE04F17000FFF734FED7
:1013100004F18800FFF730FE04B0BDEC048B10BD73
:1013200017B7513840010020DB0FC9409A99993F07
:10133000000000007047000078B50024009490F889
:101340003C20012A19D0012280F83C200A6807239A
:101350000568092A13D9EE680A3A02EB4202934063
:101360009E43EE600B788A680A3B03EB43039A4086
:101370000368DD682A43DA6010E0022078BD2E6938
:1013800002EB420293409E432E610B788A6803EB86
:1013900043039A4003681D692A431A614A681F2360
:1013A000072A13D205686E6B521E02EB820293402D
:1013B0009E436E630B790A885B1E92B203EB830334
:1013C0009A4003685D6B2A435A6327E005680D2A3B
:1013D00012D22E6BD21F02EB820293409E432E63E9
:1013E0000B790A88DB1F92B203EB83039A400368F0
:1013F0001D6B2A431A6311E0EE6A0D3A02EB82027A
:1014000093409E43EE620B790A880D3B92B203EB48
:1014100083039A400368DD6A2A43DA62164B056843
:10142000144A9D4206D10D68122D03D1556845F42A
:101430008005556005689D4218D10B68102B01D0BE
:10144000112B13D1536843F400035360096810292A
:101450000CD10A490A4A0968B1FBF2F101EB81019A
:10146000490000E0491E00910029FBD180F83C4072
:10147000002078BD00230140002001400C00002026
:1014800040420F00FFF724B87047704770B504461C
:1014900000680668456816F0020F05F020012AD0A2
:1014A00049B3216CC90603D4216C41F40071216455
:1014B000816811F0405F17D1217EA9B9C16A11F48A
:1014C000700F02D0816849050ED4416821F02001D7
:1014D0004160206C20F480702064206CC00403D430
:1014E000206C40F0010020642046FFF7CBFF21680C
:1014F0006FF01200086016F0040F05F0800132D082
:1015000089B3206CC00603D4206C40F400502064E2
:101510002068816811F4401F1ED1816B11F4401FB7
:1015200002D08168490517D44168490514D48168FF
:1015300011F0405F10D1217E71B9416821F0800126
:101540004160206C20F480502064206CC00503D4DE
:10155000206C40F0010020642046FFF7EBFE21687C
:101560006FF00C00086016F0010F05F040010FD07D
:1015700071B120680068C0070AD0206C40F4803048
:101580002064204600F043F821686FF001000860F5
:1015900016F0200F05F080610ED000290CD0606C91
:1015A00040F00200606420686FF02005056020466E
:1015B000FFF76BFF2068056070BD70B504004FF049
:1015C000000503D0206C002610B107E0012070BD9B
:1015D000204600F01DF8666484F83C60206CC0066C
:1015E00010D4206C20F4885040F002002064204683
:1015F000FFF772F86664206C20F0020040F00100F2
:10160000206400E0012584F83C60284670BD7047E6
:101610002DE9F04F87B0064614216846FEF70AFE12
:101620005149504F336800254F48143903244F4A1D
:10163000BB4217D1036843F480730360006800F471
:1016400080700590086840F00100086008686946ED
:1016500000F00100059010208DE83100104600F0E8
:1016600057FB44E0DFF808C14FF480674FF400688F
:101670004FF400594FF4807A4FF4403B634541D119
:10168000036843F400730360006800F40070059081
:10169000086840F001000860086800F0010005904B
:1016A000086840F0020008600868694600F002001F
:1016B000059020208DE83100104600F029FB012024
:1016C0008DE8310069462B4800F022FB2B4C2A485C
:1016D00004F10C032060F803C4E9010583E8A00FBE
:1016E0002046656236E000BFFFF7C7F936E000220A
:1016F0000221122001F02EF8122001F01DF807B08F
:10170000BDE8F08F1E4A9342F9D1026842F480622C
:101710000260006800F480600590086840F00400F2
:1017200008600868694600F00400059009208DE80B
:101730003100144800F0ECFA104C0F486034303897
:1017400020608005C4E9010504F10C02204682E80E
:10175000A00F656200F028FA0028C5D1B463A66323
:10176000C5E700000020014044380240000002406C
:101770000021014000040240406402406802002051
:101780000022014000080240F8B50E460021044640
:10179000009190F83C0013460A46012807D001202A
:1017A00084F83C0020688568ED0702D011E0022033
:1017B000F8BD856845F0010585604048404D0068EA
:1017C000B0FBF5F000EB400000E0401E0090002868
:1017D000FBD120688568ED0503D5856825F4807503
:1017E000856020688568ED075DD0226C40F2016558
:1017F000AA4342F4807222644068400505D5206CFB
:1018000020F4005040F480502064206CC00404D5C3
:10181000606C20F00600606400E0616484F83C10B5
:10182000A16B2948274DC863A16B28480864A16BA8
:101830002748C86421686FF022000860206841686A
:1018400041F0806141602068816841F4807181606D
:10185000216832464C31A06B00F010FA02466868ED
:101860001C49C006206806D0884224D1816811F046
:10187000405F13D01FE08842F8D0174B984203D145
:10188000D1F80433DB06F1D0144B984213D1D1F8D0
:10189000041301F01F011029E8D30CE0816841F026
:1018A0008041816007E0206C40F010002064606C93
:1018B00040F0010060641046F8BD00000C000020FC
:1018C00040420F000023014041040008C504000805
:1018D000AF04000800200140002101400022014027
:1018E00010B50446002094F83C1001290CD00121C9
:1018F00084F83C1021688A6822F001028A6021681D
:101900008A68D20702D01DE0022010BD8A6822F446
:1019100080728A60A16B91F83520022A07D10846AF
:1019200000F014F818B1216C41F0400121642168E5
:101930004A6822F080624A60216C21F4885141F0AB
:1019400001012164002184F83C1010BD2DE9F04113
:101950000446876D00F0DEFA064694F8350000254F
:10196000022806D08020606584F834500120BDE84C
:10197000F0812068016821F016010160206841694A
:1019800021F080014161206C08B9A06C20B1206871
:10199000016821F0080101602068016821F001015F
:1019A00001600CE000F0B6FA801B052807D9202062
:1019B0006065032084F8350084F83450D7E7206848
:1019C0000068C007EED194F85C103F208840B860F2
:1019D000012084F8350084F834500020C7E790F8DF
:1019E0003510022903D0802141650120704705216F
:1019F00080F835100068016821F0010101600020C5
:101A0000704790F8350070472DE9F84304464FF0D1
:101A10000009CDF8009063484FF41651A56D006899
:101A2000B0FBF1F72E6894F85C10082000FA01F181
:101A300031420FD021680A6852070BD50A6822F09C
:101A400004020A6094F85C108840A860606D40F061
:101A50000100606594F85C104FF0010808FA01F08D
:101A6000304208D021684969090604D5A860606D34
:101A700040F00200606594F85C1004208840304219
:101A800008D021680968890704D5A860606D40F016
:101A90000400606594F85C1010208840304218D033
:101AA00021680968090714D5A860206801684903FE
:101AB00004D50068000308D5A16C07E00168C905DA
:101AC00003D4016821F008010160216C09B12046AE
:101AD000884794F85C1020208840304231D021683B
:101AE0000968C9062DD5A86094F835000528206836
:101AF000016806D0490347D5006800031DD4616C16
:101B00001CE021F0160101602068416921F080018C
:101B10004161206C08B9A06C20B12068016821F0F7
:101B20000801016094F85C103F208840A86084F8A8
:101B3000358084F83490216D1FE0E16B09B12046B7
:101B40008847606D00282BD0606DC00714D0052039
:101B500084F835002068016821F0010101600098D7
:101B6000401C0090B84203D820680068C007F6D136
:101B700084F8358084F83490E16C002910D001B0ED
:101B80002046BDE8F04308470168C905D5D401687F
:101B900021F01001016084F8358084F83490CCE79E
:101BA000BDE8F8830C0000202DE9F041044600F068
:101BB000B1F906465CB1022084F83500002584F8AE
:101BC00034502068016821F0010101600DE001201E
:101BD000BDE8F08100F09EF9801B052805D9202082
:101BE0006065032084F83500F2E720680068C007CC
:101BF000F0D12268116820480140D4E9010318435C
:101C0000D4E903363343184363691843A36918437F
:101C1000E3691843236A18430843616A042903D11E
:101C2000D4E90B1319430843106020684069666AC1
:101C300020F0070130460E43012704280CD1A06A8A
:101C40000643E06A40B12046FEF7D8FE20B14020AE
:101C5000606584F83570BAE7206846612046FEF773
:101C6000B9FE94F85C203F2191408160656584F85D
:101C700035700020ACE700003F8010F02DE9F04106
:101C80000446866D90F83400002501280DD001200F
:101C900084F8340094F835700020012F07D084F8C0
:101CA000340002252846BDE8F0810220FBE7022728
:101CB00084F8357060652046FEF7CAFE94F85C1023
:101CC0003F208840B0602068016841F01601016043
:101CD000206C20B12068016841F008010160206893
:101CE000016841F001010160DCE7000070B50446C5
:101CF00000F010F90546601C02D004480078044446
:101D000000F008F9401BA042FAD370BD000000208B
:101D10002DE9F84FDFF8BCA10022012503264FF082
:101D20000F090AF1040BAAF1040E00BF0B6805FAB3
:101D300002F42340A34270D10F7907F00307012F6B
:101D400001D0022F16D187684FEA420806FA08FC34
:101D500027EA0C07D1F80CC00CFA08FC4CEA070C77
:101D6000C0F808C04768A7430C79C4F30014944036
:101D70003C4344600C79E443A4070AD0C4684FEAAA
:101D8000420C06FA0CF7BC438F6807FA0CF727439E
:101D9000C7600C7904F00304022C12D1D40800EBC4
:101DA000840CDCF820405707FF0E09FA07F824EAF4
:101DB0000804D1F8108008FA07F848EA0408CCF8BB
:101DC000208004684FEA420C06FA0CF7BC430F79F6
:101DD00007F0030707FA0CF7274307604C6814F471
:101DE000403F70D03C4C276847F480472760246808
:101DF00022F0030704F480440094384C07EB040CF1
:101E0000DCF8084897074FEA177809FA08F7BC4347
:101E1000334FB84202D1002724E054E0314FB8429A
:101E200001D101271EE0304FB84201D1022719E04D
:101E30002E4FB84201D1032714E02D4FB84201D1F3
:101E400004270FE02B4FB84201D105270AE02A4FA3
:101E5000B84201D1062705E0284FB84201D1072733
:101E600000E0082707FA08F72743CCF80878DAF8E3
:101E700000405746D1F804C09C435FEACC2C00D503
:101E80001C433C60DBF800405F46D1F804C09C4333
:101E90005FEA8C2C00D51C433C60DEF8004077469E
:101EA000D1F804C09C435FEA8C3C00D51C433C60E5
:101EB000084F083F3C68D1F804C09C435FEACC3C23
:101EC00000D51C433C60521C102AFFF42FAFBDE824
:101ED000F88F0000083C01404438024000300140C7
:101EE000000002400004024000080240000C0240D2
:101EF000001002400014024000180240001C024082
:101F00000069084000D0012070470AB18161704724
:101F10000904FBE7014880687047000000000020CA
:101F2000704770472DE9F041016804464A694E68E0
:101F300090F83E000025D743FA0506D4F243D205B7
:101F400003D46FF4807201254A61B90508D4F143C6
:101F5000C90505D422686FF4007145F0020551618E
:101F6000790525D4F143C90522D4638D94F83D1039
:101F7000226B202808D13BB9212910D029290ED065
:101F8000282901D1212A0AD022686FF48061516189
:101F900045F00405102806D0402804D008E020466B
:101FA00002F08EF804E02068016841F400710160DD
:101FB000380508D4F043C00505D421686FF40060EB
:101FC00045F008054861002D07D0206C28432064A7
:101FD0002046BDE8F04101F0F7BCBDE8F0812DE9F5
:101FE000F047026800215368C66A90F83E4090F8B6
:101FF0003D50102C12D0402C10D0046C002C7DD001
:102000005469E443A6077AD4DE43B60577D4036C5B
:1020100003B19169BDE8F04702F02EB897695169A4
:102020004FF42A0CC9435FEAC1784FF02A4904D023
:1020300066452AD04E4528D010E0DE43B6050DD4C3
:10204000C16A614501D1012103E0C16A494501D15D
:102050000821C162BDE8F04701F074BF0E0716D435
:10206000DE43B60513D4416CC9B21161416B09B1AD
:10207000C96B29B9816B002907D0C96B002904D02D
:102080000068416841F400614160BDE8F0878E0757
:1020900006D4DE43B60503D4BDE8F04701F0C6BE62
:1020A000FE43526876074FEA02521DD4002AECDB49
:1020B0000A0608D4DA43520505D4490705D5BDE818
:1020C000F04701F057BE4907DFD4D9438905DCD476
:1020D000212D05D0402CD8D1BDE8F04701F078BFC4
:1020E000BDE8F04701F004BE002ACEDB4A060BD45F
:1020F000DA43520508D4490708D501E00DE00EE0A7
:10210000BDE8F04701F07ABD4907BED4D94389053F
:10211000BBD4BDE8F04701F003BD916970E7E1066B
:1021200006D4D943890503D4BDE8F04702F010B8BE
:102130002821212D27D0292D25D0650655D4DD4312
:102140006D0552D4640752D590F83D30448D002C73
:102150009BD01269446A2270426A521C4262428DCC
:10216000521E4285428D002A8FD12A2B8DD10268C2
:10217000536823F4806353602222026380F83D1089
:1021800000F07EFA81E7250623D4DD436D0520D4D7
:10219000640720D590F83D30448D002CF2D0446A7D
:1021A00024781461426A521C4262428D521E42855A
:1021B000428D002AE6D1292BE4D10268536823F42A
:1021C000806353602122026380F83D1000F059FAC9
:1021D0005BE76107D6D4D9438905D3D4418D002963
:1021E000D0D0416A097811610AE06107CAD4D943A5
:1021F0008905C7D4418D0029C4D01169426A117084
:10220000416A491C4162418D491E41853DE710B537
:10221000FEF748FB002804D000210177417F491CCC
:10222000417710BD90F83D007047000070B5040084
:1022300025D094F83D00002520B984F83C50204674
:1022400000F08AF9242084F83D002068016821F01C
:10225000010101602068016841F4004101602068CB
:10226000016821F40041016000F040FB4D4A6168C3
:10227000914201D84C4900E04C49884201D20120EA
:1022800070BD4B492368B0FBF1F15E6826F03F0654
:102290000E435E606368934206D94FF496735943C8
:1022A0004FF47A73B1FBF3F12368491C1E6A26F0E0
:1022B0003F06314319626168914210D84900401EBF
:1022C000B0FBF1F2521CC2F30B02042A01D204202B
:1022D00022E0B0FBF1F0401CC0F30B001CE0A26850
:1022E000F2B301EBC10303EB0116431EB3FBF6F39C
:1022F0005B1C43F480431B0549D092B301EBC10240
:1023000002EB0111401EB0FBF1F0401CC0F30B00CA
:1023100040F4804040F400402168CA694CF6FF73E5
:102320009A431043C861D4E907100143206802684A
:1023300022F0C00211430160D4E903010143206887
:10234000826848F2FF339A4311438160D4E9050162
:1023500008432168CA6822F0FF021043C86001E008
:102360000EE016E02068016841F00101016025647B
:10237000202084F83D00256384F83E50002070BD85
:1023800001EB4106431EB3FBF6F35B1CB3E70120F0
:10239000C2E701EB4101401EB0FBF1F0401CC0F36D
:1023A0000B00B7E7A086010080841E0000093D00F5
:1023B00040420F00704770477047000010B5044658
:1023C000FEF770FA002846D00168A14243D10021EF
:1023D00001778188DFED200A49BAC1F30B0100EED5
:1023E000101AC2880281B8EE400AC1801C4ADFED93
:1023F0001B1A60EE200A9FED1B1AC0ED030A90ED38
:10240000090A30EEC00A10EE101A914202DD30EED9
:10241000410A06E010EE101A134A914201D930EE3B
:10242000010A9FED122A80EE211ADFED111A21EE2A
:10243000020A90ED041A01EE210AB3EE0E1A80EDA5
:10244000040A20EE010A9FED0B1AC0EE011AC0ED3E
:10245000051AC0ED090A10BDDB0FC93A6F12033A25
:10246000DB0F4940DB0FC940DB0F49C0CDCC4C3EF0
:10247000CDCC4C3FDB0F494070470000F8B500243D
:10248000DDE90676009490F83D50202D5ED1304D68
:1024900046F2A81C2D68B5FBFCF505EBC50C0CEB52
:1024A000051500956D1E009506D00568AD69ED43D4
:1024B000AD070BD4009DF5E740F8304F2021417364
:1024C0008473016941F0200101613FE090F83C50C4
:1024D000012D3BD0012580F83C500568D5F800C09F
:1024E0005FEACC7C05D1D5F800C04CF0010CC5F8F2
:1024F00000C00568D5F800C02CF4006CC5F800C019
:10250000222580F83D50402580F83E500464476203
:102510004685458D05850F4DC56241648264C3645F
:10252000046501680A6842F480620A6001680A680A
:1025300042F480720A6080F83C40018D21B100684D
:10254000416841F4E06141600020F8BD0220F8BD1F
:102550000C0000200000FFFF2DE9F04186B004468A
:1025600014216846FDF766FE3F4A2168DFF8FC80CB
:1025700000243E4812250326042708F11008914242
:102580002BD1016841F002010160006802AA00F04D
:1025900002000590C020CDE9000582E8D000694620
:1025A0003348FFF7B5FBD8F8001041F40011C8F824
:1025B0000010D8F80000002200F400100590114629
:1025C0001F2000F0C7F81F2000F0B6F800221146C7
:1025D000202000F0BFF8202040E0264A91423FD161
:1025E000016841F004010160016801F004010591F6
:1025F000016841F0010101600068694600F00100D6
:1026000005905015CDE9000502AA1B4882E8D000CC
:10261000FFF77EFB4FF48070CDE9000502AA694602
:1026200082E8D0001548FFF773FBD8F8001041F49A
:102630000001C8F80010D8F80000002200F40000E3
:1026400005901146482000F085F8482000F074F805
:1026500000221146492000F07DF8492000F06CF876
:1026600006B0BDE8F0810000005400403038024060
:1026700000040240005C00400008024000000240EC
:102680007047704702488168027811448160704742
:10269000000000200B4810B5016841F40071016092
:1026A000016841F480610160016841F4807101605A
:1026B000032000F06FF80F2000F006F800F024F877
:1026C000002010BD003C024070B50D4D04464FF493
:1026D0007A712878B1FBF0F00A490968B1FBF0F093
:1026E00000F00AFB48B9102C07D200222146501EE8
:1026F00000F030F800206C6070BD012070BD00005B
:10270000000000200C0000200A4808B5016841F4D0
:1027100080410160006800F4804000900548001F7F
:10272000016841F080510160006800F08050009025
:1027300008BD000044380240002809DB00F01F02F9
:10274000012191404009800000F1E020C0F8001113
:1027500070470000F0B40E4B1B680C46C3F3022315
:10276000C3F10705042D00D90425191D072901D23D
:10277000002300E0DB1E012606FA05F1491E214078
:1027800099409E40761E16403143F0BC02F0A0BF37
:102790000CED00E0064900F0070208684FF6FF0361
:1027A000184040EA0220034A1043086070470000C6
:1027B0000CED00E00000FA052DE9F0470E4605009B
:1027C00065D0DFF81481D8F80000F7B200F00700F8
:1027D000B04207D288F80070D8F8000000F0070077
:1027E000B04254D128683D4C810712D5400703D52B
:1027F000206840F4E05020602878000703D5206866
:1028000040F4604020602068A96820F0F000084390
:1028100020602878C0072DD0304968680839012821
:1028200012D0022813D0032811D009688907002983
:102830002DDA216821F0030101432160FFF76AFBD3
:10284000814641F2883A0EE009688903EFE709689A
:102850008901ECE7FFF75EFBA0EB0901514502D9C6
:102860000320BDE8F0872068696800F00C00B0EB39
:10287000810FEFD1D8F80010404601F00701B142B6
:1028800007D90770006800F00700B04201D00120AE
:10289000E7E72878400705D52068E96820F4E0508C
:1028A000084320602878000706D52068296920F4AD
:1028B000604040EAC100206000F038F82168084A12
:1028C000C1F30311515CC84006490860064800681E
:1028D000FFF7FAFE0020C4E7003C0240083802403F
:1028E000346100080C000020040000200448054961
:1028F00000680968044AC1F38221515CC8407047EE
:102900000C000020083802404461000804480549D2
:1029100000680968044AC1F34231515CC8407047FD
:102920000C0000200838024044610008154810B52A
:10293000006810F00C02144813D04110042A0FD084
:10294000082A0ED10F4C241F2268236802F03F0290
:102950005B0207D52068C0F38810A0FB010106E0E8
:10296000084610BD2168C1F38811A1FB00010023B6
:10297000FDF728FC2168C1F30141491C4900B0FB67
:10298000F1F010BD083802400024F4002DE9F84FA2
:1029900004006ED02078DFF84C93C007A9F104053D
:1029A0004AD009F104000168C1F38101012908D06E
:1029B0000068C0F3810002280AD1D9F80000400263
:1029C00006D52868800337D560680028E1D033E059
:1029D0006068B0F5803F10D0B0F5A02F286810D007
:1029E00020F480302860286820F480202860606807
:1029F000A8B1FFF78FFA06460DE0286840F4803052
:102A0000F4E740F480202860F7E700BFFFF782FA80
:102A1000801B642873D828688003F7D50CE0FFF783
:102A200079FA064605E000BFFFF774FA801B6428B8
:102A3000F0D828688003F7D42078DFF8AC828007CC
:102A40004FF0000A3ED5A748001D016811F00C0F99
:102A500008D00068C0F3810002280BD1D9F800002B
:102A6000400207D42868800716D5E068012800D105
:102A700012E033E1E068B8B10120C8F80000FFF7C8
:102A800049FA064605E000BFFFF744FA801B02281A
:102A9000C0D828688007F7D52868216920F0F80099
:102AA00040EAC10028600DE0C8F800A0FFF732FA44
:102AB000064604E0FFF72EFA801B02281FD828687C
:102AC0008007F7D42078000722D5864F87486169B0
:102AD000703771B101210160FFF71CFA064604E06E
:102AE000FFF718FA801B022809D838688007F7D545
:102AF0000EE0C0F800A0FFF70DFA064605E082E000
:102B0000FFF708FA801B02287DD838688007F7D4C1
:102B10002078400768D5DFF8CCB100270BF13C0BDB
:102B2000DBF80000C0000BD4DBF8001041F080514E
:102B3000CBF80010DBF80000012700F08050009077
:102B40006B4E3068C00510D4306840F4807030603F
:102B5000FFF7E0F9009005E0FFF7DCF90099401A73
:102B6000022850D83068C005F6D55E4EA0686C3695
:102B700001280FD00528306810D020F00100306007
:102B8000306820F004003060A068B8B1FFF7C2F9E7
:102B900000900FE0306840F00100F4E740F00400DE
:102BA0003060F7E7FFF7B6F90099411A41F2883033
:102BB000814266D830688007F4D50EE0FFF7AAF9A5
:102BC000009007E0FFF7A6F90099411A41F288301A
:102BD000814256D830688007F4D42FB1DBF800105A
:102BE00021F08051CBF80010A069C8B33D49091D00
:102BF0000968C1F3810102294AD00228504607D052
:102C0000C8F8600000E03CE0FFF784F904463BE0D0
:102C10004746C8F86000FFF77DF9064605E000BFAB
:102C2000FFF778F9801B02282BD828688001F7D499
:102C3000D4E907010843A16A2E4A490802EB014181
:102C4000626A41EA8211084394F82C1040EA01615B
:102C5000C9F8001001203866FFF75CF9044606E069
:102C60003EE000BFFFF756F9001B022809D828688C
:102C70008001F7D534E000BFFFF74CF9001B0228B4
:102C800002D90320BDE8F88F28688001F4D427E03A
:102C90000128F7D0D9F80000E26900F480019142E0
:102CA0001CD1226A00F03F01914217D147F6C07152
:102CB000626A0140B1EB821F10D1A26A4FF0FF336C
:102CC00000F4403103EB5202B1EB024F06D194F80D
:102CD0002C1000F07060B0EB016F01D00120D1E743
:102CE0000020CFE70438024000004742800E4742F0
:102CF000007000400000FFFF10B5401EB0F1807F63
:102D000001D3012010BD4FF0E02460610F21601756
:102D100002F0DEFC0020A06107202061002010BD31
:102D20007047704770B590F83C20012A32D00124DA
:102D300080F83C40022280F83D2003685A689D6874
:102D400022F070060A6832435A60134B02689A42B6
:102D500014D0B2F1804F11D0104B9A420ED0104BCC
:102D60009A420BD00F4B9A4208D00F4B9A4205D093
:102D70000E4B9A4202D00E4B9A4204D1496825F07C
:102D800080031943916080F83D40002180F83C1099
:102D9000084670BD022070BD0000014000040040E4
:102DA00000080040000C00400004014000400140C9
:102DB0000018004010B5040003D094F83D0010B195
:102DC00007E0012010BD002084F83C00204600F000
:102DD0001FF8022084F83D00211D206802F000F950
:102DE000012084F8460084F83E0084F83F0084F80F
:102DF000400084F8410084F8420084F8430084F8DD
:102E0000440084F8450084F83D00002010BD000017
:102E100008B5154A0168154891420ED1016841F084
:102E2000020101600068002200F002000090012110
:102E30001D20FFF78FFC1D2010E00D4A914211D19B
:102E4000016841F0080101600068002200F00800FC
:102E5000009001213220FFF77DFC3220BDE80840C0
:102E6000FFF76ABC08BD0000000400404038024083
:102E7000000C004090F83D10012901D0012070475E
:102E8000022180F83D100168CA6842F00102CA6060
:102E900000681149884214D0B0F1804F11D00F4919
:102EA00088420ED00E4988420BD00E49884208D085
:102EB0000D49884205D00D49884202D00C4988420C
:102EC00004D1816801F00701062903D0016841F0AF
:102ED0000101016000207047000001400004004033
:102EE00000080040000C0040000401400040014088
:102EF0000018004070B5044690F83C0000250128F9
:102F000017D0012684F83C60022084F83D00206838
:102F1000826822F0770222F47F428260086850289B
:102F200038D00DDC20284FD005DC90B3102811D10B
:102F30004AE0022070BD302846D040280AD13BE04C
:102F400060282FD070280DD0B0F5805F03D0B0F589
:102F5000005F12D0012584F83D60002084F83C0019
:102F6000284670BDCB68D1E90121206802F0ADF898
:102F70002068816841F0770109E0CB68D1E901213F
:102F8000206802F0A2F82068816841F480418160E5
:102F9000E1E719E0CA684968206802F06BF950213E
:102FA000206806E0CA684968206802F074F9602168
:102FB000206802F094F8CEE7CA684968206802F0F9
:102FC00059F940212068F4E7226801461046F0E7ED
:102FD00070472DE9F04104460068C66805694FF066
:102FE0000007A90713D5B10711D5F91E016101200A
:102FF0002077206880698007204602D0FFF7E8FF2D
:1030000004E000F0D3F8204600F082F92777680743
:1030100016D5700714D521686FF0040008610220EE
:1030200020772068806910F4407F204602D0FFF7A7
:10303000CFFF04E000F0BAF8204600F069F92777E6
:10304000280715D5300713D521686FF008000861EF
:10305000042020772068C0698007204602D0FFF74F
:10306000B7FF04E000F0A2F8204600F051F92777FE
:10307000E80616D5F00614D521686FF01000086137
:10308000082020772068C06910F4407F204602D0D5
:10309000FFF79EFF04E000F089F8204600F038F9C1
:1030A0002777E80708D0F00706D021686FF0010005
:1030B0000861204600F092F9280608D5300606D5AA
:1030C00021686FF0800008612046FFF729FE68063E
:1030D00008D5700606D521686FF0400008612046CB
:1030E00000F098F9A8060AD5B00608D521686FF057
:1030F000200008612046BDE8F041FFF712BEBDE8A0
:10310000F0810000F0B587B0044614216846FDF751
:1031100091F82168002420480225B1F1804F17D092
:103120001E4A914212D1016841F008010160006815
:10313000694600F0080005904FF4E0400090CDE9AA
:1031400001541748CDE90345FEF7E2FD07B0F0BD95
:10315000016841F001010160016801F00101059180
:10316000016841F00201016000680326CDE90065B5
:1031700000F002000127CDE90470CDE9024669465E
:103180000848FEF7C5FDB802CDE9000502AA694668
:1031900082E8D0000448D7E73038024000080040F9
:1031A000000C02400000024000040240704770B56D
:1031B000044690F83C0000260D4601280FD001205F
:1031C00084F83C006AB1042A1DD0082A2FD00C2AAA
:1031D0003FD00126002084F83C00304670BD02201C
:1031E00070BD206801F084FF2068816941F008010A
:1031F00081612068816921F0040181612068816911
:103200002A69114311E0206801F0A2FF206881695A
:1032100041F4006181612068816921F480618161EC
:10322000206881692A6941EA02218161D2E7206828
:1032300001F0C4FF2068C16941F00801C161206844
:10324000C16921F00401C1612068C1692A69114383
:1032500011E0206801F0E6FF2068C16941F40061D7
:10326000C1612068C16921F48061C1612068C169C0
:103270002A6941EA0221C161ACE710B5040003D01C
:1032800094F83D0010B107E0012010BD002084F843
:103290003C00204600F01EF8022084F83D00211D6D
:1032A000206801F09DFE012084F8460084F83E006D
:1032B00084F83F0084F8400084F8410084F842001C
:1032C00084F8430084F8440084F8450084F83D0005
:1032D000002010BD08B501680B48B1F1804F0BD03C
:1032E0000A4A914207D1016841F004010160006877
:1032F00000F00400009008BD016841F00101016088
:10330000006800F00100F5E7403802400008004086
:103310007047000010B50446022249B104290ED0BE
:10332000082913D094F84100012816D0012010BDBF
:1033300094F83E000128F9D184F83E200FE094F87B
:103340003F000128F2D184F83F2008E094F84000C3
:103350000128EBD184F8402001E084F841200122CB
:10336000206801F0A5FE16492068164A884201D05F
:10337000904203D1436C43F4004343642068884285
:1033800013D0B0F1804F10D00F4988420DD00F49B3
:1033900088420AD00E49884207D0904205D00D4994
:1033A000884202D00C49884204D1816801F00701AB
:1033B000062903D0016841F001010160002010BD21
:1033C00000000140000401400004004000080040EB
:1033D000000C0040004001400018004010B50446B9
:1033E0000948844202D10948FDF7DAFE08488442C0
:1033F00009D10648D430FDF7AFFA0448BDE81040C3
:10340000FC30FDF7A9BA10BDA80400206C00002014
:1034100018040020704738B5044690F84200202870
:1034200001D0022038BD51B14AB1012020630020F3
:103430006063204602F0E2F8216B012901D00120EF
:1034400038BD21680A684968009121680C3151E84B
:10345000002F42F0100241E80023002BF5D138BDC7
:103460002DE9F0410D4EB04216D10D4F0D4600240E
:1034700004E0385D00F01AFF641CA4B2AC42F8D33B
:103480004FF4807206490548FFF7C5FFF06B0068EE
:10349000016821F008010160BDE8F081F00400201E
:1034A0004007002070470000F8B50168044608682E
:1034B000CA684B6910F00F0F4FF0000559D003F0A8
:1034C000010602F49077374365D0C10705D0D105D6
:1034D00003D5616C41F001016164410705D5D9074D
:1034E00003D0616C41F002016164810705D5D90701
:1034F00003D0616C41F004016164010707D502F05B
:103500002001314303D0616C41F008016164616CBA
:1035100000293AD0800604D5900602D5204601F055
:1035200086FF20684069616CC0F38010090700D4F1
:1035300060B3204601F046FF20684069400621D56F
:103540002068143050E8001F21F0400140E80012CC
:10355000002AF5D1E06BA8B172490165E06BFEF776
:103560003EFA002811D0E06B016D01B0BDE8F040DB
:10357000084783060FD593060DD52046BDE8F840D1
:1035800001F055BF2046FFF78DFFF8BD2046FFF73D
:1035900089FF6564F8BD266B2023012E7ED1C60607
:1035A0007CD5D6067AD508684868009048694FF0FF
:1035B000020640064DD5E26B106840684FF48077F4
:1035C0000004000C3AD0A18D814237D9E085D06942
:1035D000B8422DD020680C3050E8001F21F48071D3
:1035E00040E80012002AF5D12068143050E8001F8E
:1035F00021F0010140E80012002AF5D120681430C2
:1036000050E8001F21F0400140E80012002AF5D1E7
:1036100084F84230256320680C3050E8001F21F008
:10362000100140E80012002AF5D1E06BFEF78EF998
:103630006663A08DE18D401A81B206E0A18D8142C2
:10364000A8D1D069B842A5D166632046FFF708FF2C
:10365000F8BDA08DE18D401A81B2E08D0028F7D031
:103660000029F5D020680C3050E8002F22F4907229
:1036700040E80027002FF5D12068143050E8002FD3
:1036800022F0010240E80027002FF5D184F84230F3
:10369000256320680C3050E8002F00E006E022F09F
:1036A000100240E80023002BF3D1CDE705062BD50F
:1036B000150629D594F841002128C9D1A068B0F594
:1036C000805F01D12069B0B1206A411C216221686C
:1036D00000784860E08C401E0004000CE084B7D104
:1036E0002068C16821F08001C1602068C16841F094
:1036F0004001C160F8BD206A0088C0F3080048603E
:10370000206A801C2062E5E74006F3D55006F1D51B
:10371000CA68204622F04002CA6084F8413000F0B6
:10372000D3F8F8BDC952000870B5040004D094F86D
:103730004100002510B106E0012070BD84F8405022
:10374000204600F023F8242084F841002068C16856
:1037500021F40051C160204601F0CAFE20680169D1
:1037600021F4904101612068416921F02A01416101
:103770002068C16841F40051C1606564202084F86C
:10378000410084F842006563002070BD2DE9F041DE
:1037900086B0064614216846FCF74CFDDFF80CC1E4
:1037A00031684348022203230827424D0024614523
:1037B00052D13F491031D1F800C04CF4002CC1F86F
:1037C00000C0096801F400210591016841F004017D
:1037D00001600068694600F00400059098028DE8D9
:1037E0001500CDE903372846FEF792FA334D3248EB
:1037F0004FF4806847052860C5E90174C5E90348AE
:103800006C61AC61EC612C6228466C62FEF7CCF90D
:1038100008B1FDF732F9F563AE63284D26486035EF
:103820003030E5E802074020A5E81101234845F8BB
:1038300014496030AC61EC612C626C62FEF7B4F943
:1038400008B1FDF71AF9B563002203213420AE63F5
:10385000FEF780FF342023E0194EB14222D11449F3
:1038600014310E6846F020060E60096801F0200150
:103870000591016841F0040101600068694600F0AB
:1038800004000590C0208DE81500CDE903372846D7
:10389000FEF73EFA002203214720FEF75BFF472098
:1038A000FEF74AFF06B0BDE8F0810000004C004082
:1038B000303802400008024040600240800500208D
:1038C00000140140704770477047FEE70148FEF75B
:1038D00029BB0000280300200148FEF780BB000040
:1038E000280300200148FEF71DBB00007C030020D8
:1038F0000148FEF774BB00007C03002038B5806BE4
:10390000002190F83D202B4B46F2A8141B68B3FB16
:10391000F4F3C3EBC30303EB830300933BB15B1EE0
:10392000009303681B689B0505D5009BF6E7036CB5
:1039300043F020030364436B03B1D963836B03B18A
:10394000D96303681C6824F480641C604185436B60
:1039500003B11965836B03B1196503681C6824F012
:1039600001041C6090F83D402023602C0BD02824DB
:1039700034EA02020FD080F83D3080F83E1000BFDC
:10398000FEF745FC38BD80F83D3080F83E100164FC
:10399000FEF7C6FA38BD0268136843F001031360EE
:1039A0000268136843F480631360016380F83D404C
:1039B000E6E700000C00002000684169C9430906E1
:1039C00001D400210161704770B5044690F83D00B4
:1039D00094F83E10102901D0402906D1222804D1A4
:1039E00021680A6822F400620A60282131EA000294
:1039F0004FF000054FF0200626D0216849680905E0
:103A000005D4602803D084F83D6084F83E502563D7
:103A100020684168090537D5416821F4006141609B
:103A2000606B90F835203C49012A11D00165606B2C
:103A3000FDF7D5FF38B32068016821F0010101606E
:103A400084F83D60606B1CE0256384F83D10DFE77F
:103A5000A06B0165A06BFDF7C2FFA0B120684169B2
:103A6000C943490605D40069616A0870606A401C50
:103A700060622068016821F00101016084F83D6006
:103A8000A06B016D884710E094F83D10602910D0BC
:103A90004169C943490605D40069616A0870606AD2
:103AA000401C60622046FEF7B2FB206CC1071CD1AF
:103AB00015E084F83D6025644169C943490605D491
:103AC0000069616A0870606A401C60622068016871
:103AD00021F0010101602046FEF722FAE5E78107A7
:103AE00003D4410701D4000704D52068416821F4BC
:103AF000E061416094F83D00216C49070BD528280E
:103B000009D10648E062256384F83D6084F83E50A0
:103B10002046FEF74FFC70BDFD3800080000FFFF97
:103B200010B5C26A438D0168042B06D0438D032B68
:103B300008D0438D022B1DD012E04A6822F4806227
:103B40004A600CE04B6823F480634B60042A06D083
:103B5000022A04D001680A6822F480620A600168BF
:103B60000969426A1170416A491C4162418D491ECE
:103B7000418510BD012A34D0102A32D0042A34D015
:103B8000022A32D00B6843F400730B6001680969A4
:103B9000436A1970416A491C4162438D5B1E43852B
:103BA00003681B690B70416A491C4162418D491EC3
:103BB000418501684B6823F440734B60202180F8F5
:103BC0003D1090F83E300021402B80F83E1010D080
:103BD000082A02D0202A00D012210163FEF7EBFB55
:103BE00010BD0B6823F48063CFE70B6843F4806358
:103BF000CBE70163FEF7E2FB10BD000038B590F89B
:103C00003D10222910D1C36A418D03290DD90168C5
:103C10000969426A1170416A491C4162418D491E1D
:103C20004185418D032906D038BDC26A022A02D0DF
:103C3000012906D029B10068416821F48061416002
:103C400038BD2A4A46F2A81400211268B2FBF4F2E9
:103C500002EB8202009202682024009D6D1E0095F6
:103C600026D01568AD05F8D4156825F48065156073
:103C70000268556825F4E065556002681269456A76
:103C80002A70426A521C4262428D521E428580F85E
:103C90003D4090F83E2080F83E10402A21D0082B6D
:103CA00002D0202B00D012210163FEF784FB38BD27
:103CB000036C43F020030364536823F4E063536010
:103CC00002681269436A1A70426A521C4262428D4B
:103CD000521E428580F83D4080F83E10FEF797FA6C
:103CE00038BD0163FEF76AFB38BD00000C00002000
:103CF00010B5C26A90F83D1021290BD1418D51B108
:103D0000416A026809781161416A491C4162418D2A
:103D1000491E418510BD20230021082A13D0202AE6
:103D200011D012F5803F0ED00268546824F4E0648C
:103D300054601122026380F83E1080F83D3000BFCD
:103D4000FEF73AFB10BD0268546824F4E064546046
:103D50000268146844F400741460016380F83D3014
:103D600090F83E2080F83E10402AE9D1FEF784FB0F
:103D700010BD000010B590F83D1090F83E30C26ABA
:103D8000048DB4B1212903D0402B11D122290FD1A8
:103D9000418DE1B390F83E10402942D0416A02685B
:103DA00009781161416A491C4162418D491E418572
:103DB00010BD2129E8D120230021082A13D0202A70
:103DC00011D012F5803F0ED00268546824F4E064EC
:103DD00054601122026380F83E1080F83D3000BF2D
:103DE000FEF7EAFA10BD0268546824F4E0645460F7
:103DF0000268146844F400741460016380F83D3074
:103E000090F83E2080F83E10402AE9D100E002E020
:103E1000FEF732FB10BD0068416821F4806141600B
:103E200010BDBDE8104000F0D3B8000078B590F8A0
:103E30003E50C26A036B90F83D6000240168222E58
:103E40007AD1066D0EB9402D76D0056D1DB9056984
:103E5000B5F5404F09D0458D05B3468D384D012E3F
:103E60000ED0438D022B3AD05DE04A698A690092F8
:103E70000A6842F480720A60016D491C016578BDD0
:103E8000AA4213D10A6822F480620A6001684A6873
:103E9000120503D50A6822F4806216E04A698A692D
:103EA00000920A6842F400720A6039E0082A10D0D1
:103EB000202A0ED0122B0AD0042A03D0022A01D0C5
:103EC000102AE7D10A6842F480620A6024E0012ADD
:103ED000E0D00A6822F480620A600168DEE7042A02
:103EE00021D0022A1FD0102A1DD00B6823F4806332
:103EF0000B6001680B6843F400630B6001684B685A
:103F00001B0509D5AA4212D0012A10D0082A0ED0CA
:103F1000102A0CD0202A0AD001684A6989690091C8
:103F2000046578BD08E00B6843F48063E5E74A6800
:103F300042F480524A60EFE7486988690090F0E7F0
:103F40000000FFFF90F83E10402910D00169B1F544
:103F5000804F19D0016DA9B3016D012910D1416CB9
:103F60005FF0F10201F4407142EAD11106E0016D07
:103F70000029416C05D0C9B241F00101006801611E
:103F8000704701F0FE01F9E790F83D102129416CDE
:103F900009D0C9B241F0010102681161416B29B138
:103FA000C96B49B902E001F0FE01F5E7816B002918
:103FB000E6D0C96B0029E3D00068416841F4006194
:103FC00041607047FFE7416CF02201F44071CBE79C
:103FD00010B590F83D10026D4AB1026D012A14D05F
:103FE000026D022A16D0BDE81040FFF7E5BCC16C97
:103FF0000129816C02D0C1F3072108E00268C9B22F
:104000001161016D891C016510BD816CC9B2026826
:10401000116123E022291CD0428D0AB1212920D030
:10402000428D002AF0D12129EED101684A6822F49C
:10403000E0624A6001680A6842F400720A60002186
:104040000163202280F83D2080F83E10FEF714FA2C
:1040500010BD01680A6842F480720A60016D491C53
:10406000D1E7416A026809781161416A491C4162DD
:10407000418D491E418510BD38B50C4690F83D2054
:1040800000212825954302680B4605D051699169A6
:10409000009180F83C3038BD556825F48065556046
:1040A000E243540700D50121120601D5828900E0C0
:1040B000028B80F83C3092B2FDF733FF38BD000030
:1040C0002DE9F04190F83D300446C26A00212026D7
:1040D0001E4F00686FF48065082A01D0202A01D1A4
:1040E000282B04D0212B17D04561BDE8F081E76271
:1040F000426822F4E06242602068456120680268FC
:1041000022F480620260216384F83D6084F83E10EE
:104110002046FEF74FF9E8E7E7622122226384F8A0
:104120003D6084F83E10416821F4E0614160206800
:1041300045612068016821F4806101602046FFF735
:104140003BFC2046FEF79DFACFE700000000FFFF92
:10415000F8B590F83D6004460068416821F4E061DC
:1041600041602068002541690091016841F001012A
:1041700001602068016821F4806101602068416865
:10418000090520D5474F222E48D02A2E46D0616BF4
:10419000096849686185618D19B1216C41F004019C
:1041A0002164416821F400614160606BFDF729FCE6
:1041B000012808D0606B0765606BFDF710FC10B13B
:1041C000606B016D8847608D08B320684169C94301
:1041D000490708D40069616A0870606A401C60621F
:1041E000608D401E608520684169C943490608D436
:1041F0000069616A0870606A401C6062608D401EE0
:104200006085608D18B1206C40F004002064206C43
:1042100000B32046BDE8F840FFF7D6BBA16B0968A4
:1042200049686185618D19B1216C41F004012164F7
:10423000416821F400614160A06BFDF7E2FB0128B9
:10424000C1D0A06B0765A06BFDF7C9FB0028BAD0F1
:10425000A06BB6E72A2E06D12563282084F83D00FE
:104260002046FEF70DFA94F83D10202028290DD0A5
:10427000216B222901D0222E07D1256384F83D002D
:1042800084F83E502046FEF7FBF9F8BD0649E1628E
:10429000256384F83D0084F83E502046FEF78AF8F6
:1042A000F8BD0000FD3800080000FFFF2DE9F047D1
:1042B0004A4D2DED028B2A780AB955287ED14849FE
:1042C0008854521CD0B228700B2877D30022104695
:1042D0000B5C401C1A44C0B2D2B20A28F8D3887AC8
:1042E0004FF00009904273D13D4C4878283C51284A
:1042F00004D0522831D053286AD14BE0B1F90200E2
:10430000B1F90480B1F90660B1F90870B3EE000AA2
:1043100001F08EFD9FED338A404620EE080A84EDC1
:10432000000AB3EE000A01F083FD20EE080A3046D1
:1043300084ED010AB3EE000A01F07AFD20EE080ACE
:10434000DFED290A84ED020A00EE107AB8EEC00A09
:1043500080EE201A84ED091A3AE09FED248AB1F923
:104360000200B1F90460B1F90670B0EE480A01F03C
:104370005FFD84ED030AB0EE480A304601F058FDB7
:1043800084ED040AB0EE480A384601F051FD84ED90
:10439000050A1DE09FED168AB1F90200B1F904602B
:1043A000B1F90670B0EE480A01F042FD84ED060A4C
:1043B000B0EE480A304601F03BFD00E00AE084ED33
:1043C000070AB0EE480A384601F032FD84ED080ACB
:1043D00085F80090BDEC028BBDE8F0875800002006
:1043E000680800200AE81C410000C8420000FA44A6
:1043F000000034432DE9F0411431143316460746CA
:104400008DB29CB2F02800D3EF27F02E00D3EF2618
:104410004FF49671481E8D4200D305468C4200D35E
:1044200004462A2000F088FA380A00F082FAF8B22E
:1044300000F07FFA300A00F07CFAF0B200F079FA6E
:104440002B2000F079FA280A00F073FAE8B200F0A5
:1044500070FA200A00F06DFAE0B200F06AFABDE8E6
:10446000F0412C2000F068BA10B51446F0280BD2A9
:10447000B1F58C7F08D20B460246FFF7BBFF204602
:10448000BDE8104000F04BBA10BD2DE9F0471E46C4
:10449000DDF8208017460D460446F02800D3EF24AF
:1044A000F02F00D3EF274FF48C71481E8D4200D3BC
:1044B00005468E4200D30646BC4202D920463C4601
:1044C0000746B54202D928463546064633463A469F
:1044D00029462046FFF78EFF4FEA182A08F0FF0909
:1044E000A8460CE0254606E0504600F022FA484671
:1044F00000F01FFA6D1CBD42F6D908F10108B04565
:10450000F0D9BDE8F087000030B587B014216846C7
:10451000FBF790FE19480024016841F00401016096
:10452000016801F004010591016841F00801016092
:104530000068134D00F0080005900122BB212846B9
:10454000FDF7E3FCBB2000900120CDE9010403202E
:10455000039069462846FDF7DBFB0122102128461F
:10456000FDF7D3FC012220212846FDF7CEFC0122D5
:1045700080212846FDF7C9FC07B030BD3038024025
:10458000000C024010B5FFF7BFFF854C012210213F
:104590002046FDF7BAFC012211462046FDF7B5FC86
:1045A000002202212046FDF7B0FC0022082120460F
:1045B000FDF7ABFC6420FDF799FB012208212046A2
:1045C000FDF7A3FC6420FDF791FB112000F0B4F986
:1045D0007820FDF78BFB362000F0AEF9082000F0C4
:1045E000BFF93A2000F0A8F9052000F0B9F9B6208B
:1045F00000F0A2F90A2000F0B3F9822000F0B0F92F
:10460000B22000F099F90C2000F0AAF90C2000F07B
:10461000A7F9002000F0A4F9332000F0A1F933201D
:1046200000F09EF9B72000F087F9352000F098F9E6
:10463000BB2000F081F9282000F092F9C02000F0A2
:104640007BF90C2000F08CF9C22000F075F90120F4
:1046500000F086F9C32000F06FF9102000F080F917
:10466000C42000F069F9202000F07AF9C62000F09B
:1046700063F90F2000F074F9D02000F05DF9A42058
:1046800000F06EF9A12000F06BF9E02000F054F981
:10469000D02000F065F9002000F062F9022000F05F
:1046A0005FF9072000F05CF90A2000F059F9282092
:1046B00000F056F9322000F053F9442000F050F990
:1046C000422000F04DF9062000F04AF90E2000F0DB
:1046D00047F9122000F044F9142000F041F91720A6
:1046E00000F03EF9E12000F027F9D02000F038F981
:1046F000002000F035F9022000F032F9072000F028
:104700002FF90A2000F02CF9282000F029F9312097
:1047100000F026F9542000F023F9472000F020F99A
:104720000E2000F01DF91C2000F01AF9172000F0EF
:1047300017F91B2000F014F91E2000F011F92A20AF
:1047400000F0FAF8002000F00BF9002000F008F962
:10475000002000F005F9EF2000F002F92B2000F016
:10476000EBF8002000F0FCF8142000F0F9F801202C
:1047700000F0F6F82B2000F0F3F8212000F0DCF830
:10478000292000F0D9F82C2000F0D6F801220221CF
:104790002046FDF7BAFBBDE810400A20FDF7A6BA97
:1047A000000C02402DE9FF5F0546DDE90F46834618
:1047B0006708DDF83880780700D0012000EBD700CB
:1047C00000FB04FA203AD0B20290019801992044EB
:1047D000401E83B2E819401E82B22846FFF70AFE47
:1047E0000EB1002071E000252CE00C2C0FD0102C15
:1047F00014D0182C15D0202C26D13648029900EB65
:1048000081100027465DF00712D0039811E002984E
:1048100000EB4001304800EB8100F2E72F4802999D
:1048200003E0029800EB40012D4800EB0110E8E79F
:10483000404600F074F87F1C7608FFB2082FE2D3E0
:104840006D1CADB25545D0D3BDE8FF9F0C2C20D0D8
:10485000102C25D0182C26D0202CF5D11D480299DB
:1048600000EB81114FF0000911F80860F00704D047
:104870002846039A0199FFF7F7FD6D1CADB2A5EB31
:104880000B00B84216D101985D46401C80B20190E1
:1048900018E0029800EB40010F4800EB8101E1E7CE
:1048A0000E48029903E0029800EB40010C4800EB2F
:1048B0000111D7E709F10100760800F0FF09B9F10D
:1048C000080FD3D308F1010080B280465045BDD314
:1048D000BAE70000807D00084C610008C065000850
:1048E000B06B00082DE9FE4F9946DDE90D671446CF
:1048F0008A460546DDF830800CE0CDF800804B4656
:1049000051462846CDE90167FFF74CFF05EB5600FD
:1049100085B2641C2278002AEFD1BDE8FE8F10B565
:104920000446000A00F01CF8E0B2BDE8104000F0B8
:1049300017B800F015B8000070B5084C0546002205
:1049400001212046FDF7E1FA284600F009F820464B
:10495000BDE8704001221146FDF7D7BA000C0240B5
:1049600070B5144E0546002210213046FDF7CDFAF1
:104970000024002220213046FDF7C7FA280601D581
:10498000012200E0002280213046FDF7BEFA01221C
:1049900020213046FDF7B9FA6806641C050EE4B222
:1049A000082CE6D33046BDE8704001221021FDF707
:1049B000ACBA0000000C02407FB5002415480094FA
:1049C000019402941249039401604FF48031C0E9CC
:1049D00001140461047680F820400F49C0E90A14EC
:1049E0000125C561C46080F830404561FCF7E5FDF4
:1049F00008B1FCF742F80420CDE9000569460294AD
:104A00000448FCF799FC002801D0FCF736F87FBD7C
:104A100000200140900100200100000F7FB500211F
:104A20001C48009101910291194A039102600124EE
:104A30004FF480320461C0E90121017680F8201032
:104A40001203C26202254FF0A062C5618262C1609A
:104A500080F830404461FCF7B0FD08B1FCF70DF878
:104A60000520CDE900040420029069460948FCF7BE
:104A700063FC08B1FCF701F80820CDE900056946A0
:104A80000448FCF759FC002801D0FBF7F6FF7FBD76
:104A900000210140D80100207FB500211C48009171
:104AA00001910291194A0391026001244FF480326E
:104AB0000461C0E90121017680F820101203C2626E
:104AC00002254FF01062C5618262C16080F83040FB
:104AD0004461FCF772FD08B1FBF7CFFF0A20CDE976
:104AE00000040420029069460948FCF725FC08B13F
:104AF000FBF7C3FF0D20CDE9000569460448FCF72C
:104B00001BFC002801D0FBF7B8FF7FBD002201404D
:104B100020020020194808B5016841F40011016025
:104B2000016801F400110091016841F48001016005
:104B30000068002200F48000009004210D20FDF7A1
:104B400009FE0D20FDF7F8FD002204210F20FDF7DE
:104B500001FE0F20FDF7F0FD002202213820FDF7B5
:104B6000F9FD3820FDF7E8FD002202213A20FDF78B
:104B7000F1FDBDE808403A20FDF7DEBD30380240C7
:104B800000B587B014216846FBF754FB1A48002192
:104B9000026842F080020260026802F08002059220
:104BA000026842F004020260026802F00402059208
:104BB000026842F001020260026802F001020592FE
:104BC000026842F002020260026802F002020592EC
:104BD000026842F0080202600068029100F00800DA
:104BE00005904FF44050CDE9000169460348FDF7B8
:104BF0008FF807B000BD00003038024000040240CA
:104C00000D4810B50B4901600C49416000214FF47B
:104C100080428160C0E9031241618161C16101622A
:104C2000FDF704FB002803D0BDE81040FBF725BFCB
:104C300010BD00000054004028030020801A060028
:104C40000D4810B50B4901600C49416000214FF43B
:104C500080428160C0E9031241618161C1610162EA
:104C6000FDF7E4FA002803D0BDE81040FBF705BFCC
:104C700010BD0000005C00407C030020801A06008C
:104C800010B58AB0002407941C2168460894FBF7ED
:104C9000D1FA25484FF08041C0E9001420218160FD
:104CA00040F21941C0E9031480218161FEF7E5FA61
:104CB00008B1FBF7E2FE7020CDE9070407A91A4806
:104CC000FEF730F808B1FBF7D8FE6020009040F204
:104CD0000D20CDE901040022694613480494FEF733
:104CE00066FA08B1FBF7C9FE042269460E48FEF7D2
:104CF0005EFA08B1FBF7C1FE082269460A48FEF7D2
:104D000056FA08B1FBF7B9FE042004900C2269465C
:104D10000548FEF74CFA08B1FBF7AFFE0248FEF774
:104D2000F1F90AB010BD0000D003002010B586B024
:104D300000241748009401940294039404941349A6
:104D4000059401605321C0E9011440F2F311C0E958
:104D500003148461FEF72EF808B1FBF78EFE4FF4C2
:104D60008050009069460A48FEF7C4F808B1FBF786
:104D700084FE049404A906480594FDF7D3FF002897
:104D800001D0FBF77AFE06B010BD00000004004021
:104D90001804002010B58AB0002407941C2168462E
:104DA0000894FBF747FA25482349C0E9001420215D
:104DB000816040F21941C0E9031480218161FEF74E
:104DC0005CFA08B1FBF759FE7020CDE9070407A98A
:104DD0001A48FDF7A7FF08B1FBF74FFE60200090CF
:104DE00040F20D20CDE901040022694613480494E5
:104DF000FEF7DDF908B1FBF740FE042269460F48D3
:104E0000FEF7D5F908B1FBF738FE082269460B48D2
:104E1000FEF7CDF908B1FBF730FE042004900C2218
:104E200069460648FEF7C3F908B1FBF726FE0348BA
:104E3000FEF768F90AB010BD0008004060040020C9
:104E400010B586B00024174800940194029403948E
:104E500004941349059401605321C0E901143121E0
:104E6000C0E903148461FDF7A5FF08B1FBF705FE57
:104E70004FF48050009069460A48FEF73BF808B1AD
:104E8000FBF7FBFD2020CDE9040404A90548FDF74C
:104E900049FF002801D0FBF7F0FD06B010BD00006F
:104EA000000C0040A80400200C4810B50A4901601D
:104EB0004FF416514160002181600C22C160C0E9AD
:104EC00004128161C161FEF72FFC002803D0BDE808
:104ED0001040FBF7D2BD10BD004C0040F004002094
:104EE0000C4810B50A4901604FF4E13141600021DE
:104EF00081600C22C160C0E904128161C161FEF7CA
:104F000013FC002803D0BDE81040FBF7B6BD10BD70
:104F10000014014038050020FEE7FEE770477047A7
:104F2000FDF7B0BB30B593B030216846FBF782F98E
:104F300014210CA8FBF77EF91D480025016841F0FB
:104F400080510160006800F080501190194801689C
:104F500041F4804101600068022400F48040119017
:104F600001200090000401908001CDE9064008AACC
:104F70000420A82182E813000B906846FDF706FD87
:104F800008B172B6FEE70CA90F2081E831004FF49A
:104F9000A0500F904FF48050109005210CA8FDF701
:104FA0000BFC002801D072B6FEE713B030BD000044
:104FB00040380240007000400248016841F470012E
:104FC0000160704788ED00E00148FEF702B800007C
:104FD000180400200148FDF7FCBF0000A8040020D1
:104FE000F0B50268274B284D284E294F294C4FF029
:104FF000804C984209D0604507D0A84205D0B04205
:1050000003D0B84201D0A04204D122F0700E4A6809
:1050100042EA0E0298421BD0604519D0A84217D030
:10502000B04215D0B84213D0A04211D01A4DA842B8
:105030000ED01A4DA8420BD0194DA84208D0194DD8
:10504000A84205D0184DA84202D0184DA84203D15D
:1050500022F44075CA682A434D6922F080022A432F
:105060008D68C5620D688562984201D0A04201D169
:1050700009690163016841F0040101600121416196
:105080000260F0BD00000140000400400008004044
:10509000000C004000040140004001400044014079
:1050A0000048014000180040001C00400020004063
:1050B00010B501F01F030121046A99408C4304627A
:1050C000016A9A401143016210BD10B5846842EA3A
:1050D000032224F47F440A432243826010BD826885
:1050E00022F070020A4342F007018160704700001D
:1050F000F0B5036A026A22F0010202624268846922
:10510000124E24F073050C682C4323F002058B68C3
:105110002B430D4DA84201D0B04205D123F0080722
:10512000CB683B4323F00403A84201D0B04205D131
:105130004D6922F4407215438A692A4342608461B2
:10514000496841630362F0BD000001400004014072
:10515000F0B5026A036A23F01003036243688469AE
:105160000D6824F4E64444EA05248D6822F0200208
:1051700042EA05120F4D104EA84201D0B04206D1AE
:10518000CF6822F0800242EA071222F04002A842D1
:1051900001D0B04207D14D6923F4406343EA85034F
:1051A0008D6943EA850343608461496881630262D3
:1051B000F0BD00000000014000040140F0B5026AAB
:1051C000036A23F4807303624368C46922F40072A3
:1051D00024F073050C68124E2C438D6842EA0522B8
:1051E0000E4DA84201D0B04206D1CF6822F4006231
:1051F00042EA072222F48062A84201D0B04207D1DD
:105200004D6923F4405343EA05138D6943EA0513BE
:105210004360C4614968C1630262F0BD000001409F
:105220000004014030B5046A026A22F4805202622E
:105230004268C3690D6823F4E64343EA05238D6899
:1052400024F4005444EA0534084DA84202D0084D25
:10525000A84204D14D6922F4804242EA851242609C
:10526000C36149680164046230BD00000000014070
:105270000004014010B5036A046A24F001040462CA
:10528000846924F0F00444EA021423F00A020A4379
:105290008461026210BD10B5036A046A24F0100430
:1052A0000462846923F0A00324F4704444EA0232C7
:1052B00043EA01118261016210BD00000148FEF75E
:1052C000F3B80000F004002010B5806B0021C18508
:1052D000FEF7E8F810BD70B5846B2068406994F85B
:1052E0004110C0F3C0100025212904D118B1E58474
:1052F000204600F08EF82068406994F84210C0F310
:105300008010222904D118B1E585204600F05AF812
:10531000606C40F0100060642046FEF7C3F870BD7A
:1053200010B50146806B096809684FF00002C90595
:105330002ED4C28501680C3151E8003F23F48073FC
:1053400041E80034002CF5D10168143151E8003FE8
:1053500023F0010341E80034002CF5D10168143139
:1053600051E8003F23F0400341E80034002CF5D120
:10537000202180F84210016B012909D101680C310C
:1053800051E8003F23F0100341E80034002CF5D130
:105390004263016B012902D0FEF794FA10BD818DA2
:1053A000FEF75EF810BD10B5806B01214163016B03
:1053B000012902D0FEF787FA10BD818D4908FEF75A
:1053C0004FF810BD01680C3151E8002F22F49072A3
:1053D00041E80023002BF5D10168143151E8002F7A
:1053E00022F0010241E80023002BF5D1016B0129D5
:1053F00009D101680C3151E8002F22F0100241E878
:105400000023002BF5D1202180F8421000210163F8
:10541000704701680C3151E8002F22F0C00241E8CA
:105420000023002BF5D1202180F84110704708B5EA
:1054300090F84210222901D0022008BD82684FF462
:1054400080539A4201D1016921B1816A9A421BD0ED
:105450004AB10AE00268816A5268C2F308020A800F
:10546000816A891C08E0026972B10268526802F020
:105470007F020A70816A491C8162C18D491E09043C
:10548000090CC18503D01BE002685268F1E701688E
:10549000CA6822F02002CA600168CA6822F48072D9
:1054A000CA6001684A6922F001024A61202180F83D
:1054B000421000214163026B012A03D0FEF702FA79
:1054C000002008BD016301680C3151E8002F22F073
:1054D000100241E80023002BF5D101680A68D206CA
:1054E00002D50A6849680091818DFDF7B9FFE7E7A9
:1054F00070B5044600680169E26821F44051114327
:1055000001612169A068E2690843616911430843A8
:105510002168CA6849F20C639A430243CA60206852
:105520004169A26921F44071114341613149206808
:10553000884202D03049884202D1FDF7E7F901E004
:10554000FDF7D4F9E2690023192164253226B2F56A
:10555000004F626828D0A0FB0101930F9200FAF778
:1055600031FE0146B0FBF5F06FF01802504301EB3D
:10557000800006EB0010B0FBF5F000F0F002B1FB8C
:10558000F5F002EB0012B1FBF5F06FF01803584391
:1055900001EB800006EB0010B0FBF5F000F00F000F
:1055A00021681044886070BDA0FB010192185B4126
:1055B000FAF708FE0146B0FBF5F00201B1FBF5F089
:1055C0006FF01803584301EB800006EBC000B0FBFE
:1055D000F5F000F0F80002EB4002B1FBF5F05843A3
:1055E00001EB800006EBC000B0FBF5F000F0070017
:1055F000D6E70000001001400014014038B5816278
:1056000004468285002013466064222284F84220EA
:10561000E56B1F4AEA63E56B1E4A2A64E56B1E4A86
:10562000EA64E26B10650A462168E06B091DFCF72D
:1056300025FB30B110206064202084F84200012056
:1056400038BD2068016840680090206948B1206832
:105650000C3050E8001F41F4807140E80012002A2D
:10566000F5D12068143050E8001F41F0010140E8F6
:105670000012002AF5D12068143050E8001F41F0D4
:10568000400140E80012002AF5D1002038BD00009A
:1056900021530008A7530008D75200080148FDF71E
:1056A00003BF000038050020FEE74100080218BFD4
:1056B00004200A0E18BF40F001004FF07F4232EA8A
:1056C000010108BF40F00200012808BF0520704713
:1056D0000907090E002804DB00F1E02080F800141F
:1056E000704700F00F0000F1E02080F8141D7047B3
:1056F00010EE101A08B5444A6846B2EB410F28D99B
:105700004FF0E640B0EB410F94BF00204FF0FF3068
:1057100000900098002861DB60EE000A10F0010F95
:1057200045D010F0020FDFED391A9FED391A00EE67
:10573000E11ADFED381A40EE811A21EEA01AF0EEE0
:10574000400A40EE010A08BFF1EE600AB0EE600ABE
:1057500008BD314B21F0004293423CD911F0004F7B
:10576000DFED2E0A20EE201ADFED2D0A19BF31EEF3
:10577000601A71EE200A31EE201A71EE600ABDEE59
:10578000E01A11EE100A9FED271A00F0030000EE58
:10579000C10A9FED251A009000EEC10A9FED231A61
:1057A00000EEC10A9FED221A00EEC10AB1E79FED9B
:1057B000211A9FED210A10F0020F00EE810A9FEDE1
:1057C0001F1A00EE801AB7EE000A00EE810A18BF19
:1057D000B1EE400A08BD00F0CBF99AE710EE100ACE
:1057E0004000B0F17F4F3CBFB7EE000A08BD07D1C3
:1057F0004FF0010000F076FABDE8084000F0A8B9CB
:10580000BDE8084000F0A1B9B61F927E336D4C3957
:10581000DA82083CA0AA2ABE490E494683F9223FF3
:105820000000004B0000C93F00A0FD390020A2335A
:105830001A61342CB93AB2BACA9F2A3DDDFFFFBEC5
:1058400010B52DED028BB0EE608AF0EE408A18EEB6
:10585000101A18EE900AFAF740FD00F07040B0F10F
:10586000005F0CD018EE100A20F00040C0F1FF409D
:10587000C00F02BFB0EE480ABDEC028B10BDB0EE07
:10588000680ABDEC028B10BD10B52DED028BB0EE99
:10589000608AF0EE408A18EE101A18EE900AFAF7B5
:1058A0001CFD00F07040B0F1004F0CD018EE100A53
:1058B00020F00040C0F1FF40C00F02BFB0EE480A28
:1058C000BDEC028B10BDB0EE680ABDEC028B10BDC2
:1058D00010B52DED028BF0EE408A18EE900AB0EE76
:1058E000608A20F00040C0F1FF40C00F07D118EEE1
:1058F000100A20F00040C0F1FF40C00F2BD018EE7E
:10590000101A18EE900AFAF7BFFC00EE100A10EE1B
:10591000100A6FEAD05010F0FF0F04BFBDEC028BED
:1059200010BD18EE900A00F0004110EE100A00F0D1
:105930000040814204BFBDEC028B10BD18EE101A6E
:1059400010EE100ABDEC028B61F31E0000EE900A0F
:1059500030EE600A10BD18EE900A4FF07F41B1EBB7
:10596000400F1CBF18EE100A5FEA4000C7D10120AB
:1059700000F0B8F9BDEC028BBDE8104000F0E8B8CB
:1059800000B510EE101A2DED028B81B0524A684618
:10599000B2EB410F2ED94FF0E640B0EB410F94BF70
:1059A00000204FF0FF3000900098B0EE408A0028B1
:1059B0006ADB10F0010F4BD068EE080A9FED471A22
:1059C0009FED470A00EE810A9FED461A10F0020F84
:1059D00000EE801AB7EE000A00EE810A02BF01B0A5
:1059E000BDEC028B00BD00BF01B0B1EE400ABDECC2
:1059F000028B00BD3C4B21F00042934241D911F093
:105A0000004FDFED3A0A20EE201ADFED390A19BF08
:105A100031EE601A71EE200A31EE201A71EE600A42
:105A2000BDEEE01A11EE100A9FED321A00F00300ED
:105A300000EEC10A9FED301A009000EEC10A9FED02
:105A40002F1A00EEC10A9FED2E1A00EEC10AABE735
:105A500028EE080A9FED2B1ADFED2B0A10F0020F3B
:105A600040EE410A9FED291A00EE201A61EE000A6D
:105A7000B0EE480A08EE200AB6D101B0BDEC028BA8
:105A800000BD00F075F88FE718EE100A4000B0F185
:105A90007F4F0DD218EE100AFFF707FE042808BF4B
:105AA00000F05EF8B0EE480A01B0BDEC028B00BD1C
:105AB00009D1012000F016F901B0BDEC028B5DF8B0
:105AC00004EB00F045B801B0B0EE480ABDEC028B23
:105AD0005DF804EB00F039B8B61F927EB93AB2BA5D
