:020000040800F2
:10000000781700209D01000821670008115300089F
:100010001D670008610B0008BD6B000800000000B0
:100020000000000000000000000000002967000838
:10003000950B000800000000256700082D670008E8
:10004000B7010008B7010008B7010008B7010008B0
:10005000B7010008B7010008B7010008B7010008A0
:10006000B7010008B7010008B7010008B701000890
:10007000B7010008650B0008B7010008710B000804
:100080007D0B0008890B000875090008B7010008FE
:10009000B7010008B7010008B7010008B701000860
:1000A000B7010008B7010008B7010008B701000850
:1000B000B7010008ED670008B701000821530008E8
:1000C00015530008B7010008B7010008B701000880
:1000D000B7010008B7010008B7010008B701000820
:1000E000B7010008B7010008B7010008B701000810
:1000F000B7010008B7010008B7010008B701000800
:10010000B7010008B7010008F9670008B701000847
:10011000B1690008B7010008B7010008B70100087D
:10012000B7010008B7010008B7010008B7010008CF
:10013000B7010008B7010008B7010008B7010008BF
:10014000B7010008B7010008B7010008B7010008AF
:10015000B7010008B7010008B7010008B16B00083B
:10016000395300082D530008B7010008B7010008F3
:10017000B7010008B7010008B7010008000000003F
:10018000B7010008B7010008DFF80CD000F084FACE
:1001900000480047D16D00087817002006488047C6
:1001A00006480047FEE7FEE7FEE7FEE7FEE7FEE75C
:1001B000FEE7FEE7FEE7FEE7D967000889010008D1
:1001C0002DE9F05F0546002092469B46884606468C
:1001D000814640241BE0284641464746224600F01F
:1001E0006AF853465A46C01A914110D31146184630
:1001F000224600F051F82D1A67EB01084F462246BF
:100200000120002100F048F817EB00094E41201EA4
:10021000A4F10104DFDC484631462A464346BDE8E6
:10022000F09FD2B201E000F8012B491EFBD27047CB
:100230000022F6E710B513460A4604461946FFF7B2
:10024000F0FF204610BD00F0004230F000400AD020
:10025000C10D01F56071C0F3160042EA0151C208F8
:1002600040071143704700200146704730B50B46E8
:10027000014600202022012409E021FA02F59D42D6
:1002800005D303FA02F5491B04FA02F52844151EAA
:10029000A2F10102F1DC30BD202A04DB203A00FA91
:1002A00002F1002070479140C2F1200320FA03F3CD
:1002B000194390407047202A04DB203A21FA02F0CB
:1002C0000021704721FA02F3D040C2F12002914090
:1002D000084319467047F0B400F0004221F0004195
:1002E00020F00040CE0DC30DC1F3160141F4000112
:1002F000C0F316004C42154640F40000761E09E09B
:1003000010EB440002D582F0004240428842F7D808
:1003100040005B1EB342F9DA18B1F0BC002100F0D6
:10032000EEB92846F0BC70472DE9FE4F804681EAC1
:100330000300C00F0C46009021F0004123F000455F
:10034000B8EB0200A94105D24046214690461C4622
:100350000B46024623F00040104347D0270DC7F359
:100360000A00C3F30A510290401A019040286BDA48
:10037000C3F3130040F4801B0098924620B1002381
:10038000D2EB030A63EB0B0B01985946C0F1400214
:100390005046FFF781FF06460D4650465946019AE2
:1003A00000F092F910EB08006141002487EA115235
:1003B00084EAE7731A4340D0009A62B3019A012A93
:1003C0004FEA075215DC001B61EB02014FF00042BF
:1003D00002EA0752CDE90042001C41F58011324685
:1003E0002B4600F0C9F903B0BDE8F08F4046214626
:1003F000F9E7001B61EB0201001C41F580130018B6
:100400005B412018A2F5001747EB030140EAD570C5
:10041000B6196D4111E06D084FEA360645EAC07520
:100420004FEA0752001B61EB0201001C41F58011ED
:1004300049084FEA30000019514132462B4603B0BB
:10044000BDE8F04F00F089B9009801224000002378
:10045000D0EB020263EBE073009821464FEAE074B0
:10046000B8EB000061EB0401E9E783F000435BE7D0
:1004700081F0004158E72DE9FE4F81EA030404F0C2
:10048000004421F0004100944FF0000B23F00043A2
:1004900050EA01045ED052EA03045BD0C3F30A546D
:1004A000C1F30A552C44A4F2F3340194A0FB025486
:1004B000C1F3130141F48011C3F3130343F4801318
:1004C00001FB024400FB034E840A970A44EA81546C
:1004D00047EA8357A4FB076802958D0A05FB078549
:1004E0004FEA932C04FB0C542705029D4FEA065853
:1004F00047EA1637B5EB08056EEB070C870E920E30
:1005000047EA811742EA8312A7FB0201B6EB0B010F
:1005100064EB00042B0D43EA0C335E1844EB1C50D3
:10052000DA465146E7FB0201C5F313044FEA0B33E9
:1005300043EA14534FEA0432019C43EA0603A4F150
:100540000C040294009CCDE900B400F015F903B04E
:10055000BDE8F08F00200146F9E72DE9F04D81EA72
:10056000030404F0004B21F0004514464FF0000A4C
:1005700023F0004150EA050220D054EA01021DD0C8
:10058000C5F30A570246C5F31303C1F31300C1F3C1
:100590000A5640F4801543F48013A7EB0608101B9D
:1005A000D64608F2FD3873EB050002D308F10108C6
:1005B00001E092185B41B8F1000F03DA0020014618
:1005C000BDE8F08D00204FF48011064684460EE011
:1005D000171B73EB050705D3121B63EB05030643DB
:1005E0004CEA010C49084FEA300092185B4150EA8E
:1005F0000107EDD152EA030012D082EA040083EA37
:100600000501084305D0101BAB4106D2012200238F
:1006100006E000224FF0004302E06FF001025310A9
:100620001AEB06004CEB085110EB0A0041EB0B01F2
:10063000BDE8F04D00F091B8C1F30A52C1F31301C7
:1006400040F2FF3341F480119A4202DA0020014661
:10065000704740F233439A42A2F2334202DC5242E4
:10066000FFF729BEFFF718BE30B5041E71F1000474
:1006700004DB4FF00044404264EB0101141E73F1AF
:10068000000405DB1C464FF00043524263EB0403B9
:10069000994208BF904230BD1CB5094800900948F6
:1006A00001900546009C06E0E06840F0010394E8F4
:1006B000070098471034AC42F6D3FFF769FD0000FD
:1006C0006482000884820008202A06DBCB17203AC7
:1006D00041FA02F043EAE07306E041FA02F3D04047
:1006E000C2F1200291400843194670470029A8BF73
:1006F0007047401C490008BF20F00100704710B44B
:10070000B0FA80FC00FA0CF050EA010404BF10BCFF
:10071000704749B1CCF1200421FA04F411FA0CF12C
:1007200018BF012121430843A3EB0C01CB1D4FEA65
:1007300000614FEA102042BF002010BC704700EB60
:10074000C35010440029A4BF10BC7047401C49008E
:1007500008BF20F0010010BC704710B5141E73F1E3
:10076000000408DA401C41F1000192185B411A4371
:1007700001D120F0010010BD2DE9F04D92469B46BD
:1007800011B1B1FA81F202E0B0FA80F22032904663
:10079000FFF782FD04460F4640EA0A0041EA0B01DA
:1007A00053465A46084313D0114653EA010019D064
:1007B000C8F140025046FFF77EFD05460E46504602
:1007C00059464246FFF768FD084305D0012004E082
:1007D00020463946BDE8F08D0020054346EAE07624
:1007E0002C4337430A986305E40AA0EB0800002273
:1007F000FD0A44EA47540A3002D500200146E9E7E1
:10080000010510196941DDE9084500196941BDE894
:10081000F04DA2E770B52DED088B40F20040C2F21A
:1008200000000068002141638163C16340F2904091
:10083000C2F20000006841638163C163642001F07B
:10084000F9FD9FED2C8A40F2481440F290154FF4C8
:10085000FA66C2F20004C2F20005B0EE489AB0EEA9
:1008600048AAB0EE48BA00BF2046012100F0DCFFE4
:1008700000EE100AB8EE400A204602213BEE00BA14
:1008800000F0D2FF00EE100AB8EE400A284601211F
:100890003AEE00AA00F0C8FF00EE100AB8EE400AD7
:1008A0002846022139EE009A00F0BEFF00EE100A41
:1008B000B8EE400A012038EE008A01F0BBFD013E8F
:1008C000D2D19FED0D0A40F270008BEE001A8AEE35
:1008D000002A89EE003A88EE000AC2F2000080ED9C
:1008E000011A80ED022A80ED033A80ED040ABDEC86
:1008F000088B70BD000000000000FA4440F2700058
:10090000C2F2000090ED050AB1EE400A7047000007
:1009100040F27000C2F2000090ED060AB1EE400A0B
:100920007047000040F27000C2F2000090ED070A2C
:10093000B1EE400A7047000040F27000C2F20000C1
:1009400090ED080AB1EE400A7047000040F27000D6
:10095000C2F2000090ED090AB1EE400A70470000B3
:1009600040F27000C2F2000090ED0A0AB1EE400AB7
:100970007047000080B540F24810C2F2000001F05C
:100980004DF940F29010C2F20000BDE8804001F045
:1009900045B9000070B540F20044C2F2000420687E
:1009A000002646638663C6632046002103F068FE86
:1009B0002046042103F064FE2046082103F060FE77
:1009C00040F29045C2F20005286800214663866324
:1009D000C663284603F054FE2846042103F050FE67
:1009E0002846082103F04CFE206840F21A410164B9
:1009F0002868016420460C2103F042FE28460C21A1
:100A000003F03EFE204603F06DFA284603F06AFA32
:100A100040F24810C2F2000000F018FF40F29010BF
:100A2000C2F20000BDE8704000F010BFB0B540F267
:100A30004814C2F20004204601F022F840F290155A
:100A4000C2F20005284601F01BF8204600F088FF9E
:100A50002846BDE8B04000F083BF0000002814BF66
:100A600090ED020A9FED010A704700BF00000000F0
:100A7000002814BF90ED090A9FED010A704700BFDE
:100A800000000000002814BF90ED030A9FED010A4A
:100A9000704700BF00000000002818BF002901D1E6
:100AA000704700BF016040F23811C2F200010B68CC
:100AB000427700228280C0E90822C0E90222C0E910
:100AC0000422826102774FF0010280F828207BB176
:100AD0000A4652F8043F63B10A4652F8083F43B150
:100AE00051F80C2F002A0A4608BF1060704700BF5B
:100AF0000A46106070470000002808BF704770B5B4
:100B000082B0044601F080FD217F40F234150129B6
:100B1000C2F2000510D12A68821A0B2A0CD3216870
:100B20000022064608466C21227702F0F9F9217F5F
:100B30003046C90701D00FE071B928602068A61DB2
:100B400002256C210E220123CDE9006502F0DCFABA
:100B5000B0FA80F04009207702B0BDE870407047DD
:100B6000FEE7000040F29820C2F2000001F07CBADB
:100B700040F2F820C2F2000001F076BA40F2D8103C
:100B8000C2F2000001F070BA40F23820C2F2000058
:100B900001F06ABA7047000072B600BFFEE70000BD
:100BA000002808BF704710B546F61D7146F6297239
:100BB00046F6597346F6097C46F6117E46F64D74A4
:100BC000C0F60001C0F60002C0F60003C0F6000C3B
:100BD000C0F6000EC0F60004C0F8C810C0F8CC2063
:100BE000C0F8D030C0F8D4C0C0F8D8E0C0F8DC40BD
:100BF000BDE8104070470000002808BF704710B5DE
:100C000046F6717146F67D7246F6AD7346F65D7C2A
:100C100046F6657E46F6A174C0F60001C0F60002F5
:100C2000C0F60003C0F6000CC0F6000EC0F60004CB
:100C3000C0F8C810C0F8CC20C0F8D030C0F8D4C07C
:100C4000C0F8D8E0C0F8DC40BDE8104070470000B4
:100C5000002808BF7047B0B52DED108B0446D0F8C2
:100C6000C800002800F00081D4F8D010002900F05E
:100C7000FB808047D4F8D400B0EE408A20B1804792
:100C8000B0EE409A02E000BFB2EE089A01F0BCFC60
:100C9000054601F0B9FC401BC0087C2800F2B0807A
:100CA0009FED74CA9FED74DA9FED74EA9FED74FABC
:100CB000DFED74AAF8EE088AF0EE089AFEEE00BAAC
:100CC000F6EE00CAF7EE00DAB0EE4CAA3AEE0D0AE4
:100CD00030EE0EAAB4EE4F0AF1EE10FAB8BFB0EE45
:100CE00040AAB0EE4A0A05F06BFFB0EE40BAB0EE93
:100CF0004A0A05F0B1FF20EE280A2BEE291A21EE50
:100D00002A1A20EE2B2A32EE013A32EE411AB4EEC4
:100D1000403AB0EE402AF1EE10FAC8BFB0EE432AD6
:100D2000B4EE421AF1EE10FAB4EE403AB0EE404A98
:100D3000C8BFB0EE412AF1EE10FAB8BFB0EE434A98
:100D4000B4EE441AF1EE10FAB8BFB0EE414A32EEFA
:100D5000042A22EE2B2A30EE020A80EE090A33EE34
:100D6000023A83EE093A31EE021A81EE091AF0EEE8
:100D70004C0A20EE2C0A30EE2C2AB4EE6D2AF1EE4D
:100D800010FAC8BFB0EE6D2AB5EE402AB0EE4C0A9C
:100D9000F1EE10FAC8BFB0EE420A23EE2C2A32EE72
:100DA0002C2AB4EE6D2AF1EE10FAC8BFB0EE6D2A0F
:100DB000B5EE402A21EE2C1AF1EE10FAC8BFF0EE83
:100DC000420A31EE2C2AB4EE6D2AF1EE10FAC8BFB9
:100DD000B0EE6D2AD4F8D000B5EE402AB0EE4C1A31
:100DE000F1EE10FAC8BFB0EE421A8047012001F0C0
:100DF00021FB01F009FC401BB0F57A7FFFF466AFE0
:100E0000D4F8C8008047B0EE409A9FED1A0AD4F893
:100E1000D000F0EE400AB0EE401A80479FED171A5E
:100E20009FED192A39EE480A30EE011AB4EE420A53
:100E30009FED162AF1EE10FAC8BFB0EE410A9FED01
:100E4000101AB4EE420A30EE011AF1EE10FAB8BFF1
:100E5000B0EE410A4FF0FF30B5EE400AF1EE10FA65
:100E6000C8BF012084F8C500BDEC108BBDE8B040C0
:100E7000704700BF000000002FE3CD3BDB0FC9C06F
:100E8000DB0FC940D7B35D3FDB0F4940DB0F49C0E3
:100E9000B0B52DED0E8B0446D0F8D40020B18047BC
:100EA000B0EE408A02E000BFB2EE088A9FED9ABA27
:100EB0009FED9A9A0025B0EE08AABEEE00CAB6EEE3
:100EC00000DAB7EE00EA00BF00EE105AB8EE400AB2
:100ED00020EE0A0A80EE0B0AF0EE490A20EE0C1A08
:100EE000B4EE401AB0EE402AF1EE10FAC8BFB0EEF0
:100EF000412AB0EE403AB8BFB0EE413A32EE032A92
:100F000022EE0C2A30EE020A80EE080A31EE021AB6
:100F100081EE081A20EE0D0A30EE0D2AB4EE4E2AAC
:100F200021EE0D1AF1EE10FAC8BFB0EE4E2AB5EE62
:100F3000402A31EE0D1AF1EE10FAB0EE490AB4EE85
:100F40004E1AC8BFB0EE420AF1EE10FAC8BFB0EEBA
:100F50004E1AB5EE401AD4F8D000F1EE10FAC8BF20
:100F6000F0EE410AB0EE601A8047052001F062FA07
:100F70000135652DA8D1B0EE020A80EE080AB8EE60
:100F8000021A81EE081AF0EE490A20EE0D0A30EE40
:100F90000D2AB4EE4E2A21EE0D1AF1EE10FAC8BF5A
:100FA000B0EE4E2AB5EE402A31EE0D1AF1EE10FAEF
:100FB000B0EE490AB4EE4E1AC8BFB0EE420AF1EEE6
:100FC00010FAC8BFB0EE4E1AB5EE401AD4F8D000F1
:100FD000F1EE10FAC8BFF0EE410AB0EE601A804799
:100FE0004FF47A7001F026FA642500BFD4F8C800E7
:100FF0008047022039EE009A01F01CFA013DF5D13C
:101000009FED470A94F9C50089EE000A01EE100A27
:101010002078B8EEC11A9FED439AF0EE490A20EE0F
:10102000010A01EE100AB8EE411A20EE010A06F09C
:1010300037F830EE091A9FED399AB5EE400A64256B
:10104000F1EE10FAB8BFB0EE410A84ED0C0A00BF11
:1010500000EE105AB8EE400A20EE0A0A80EE0B0AA3
:10106000F0EE490A20EE0C1AB4EE401AB0EE402A17
:10107000F1EE10FAC8BFB0EE412AB0EE403AB8BF68
:10108000B0EE413A32EE032A22EE0C2A30EE020A8A
:1010900080EE080A31EE021A81EE081A20EE0D0ADF
:1010A00030EE0D2AB4EE4E2A21EE0D1AF1EE10FAB2
:1010B000C8BFB0EE4E2AB5EE402A31EE0D1AF1EE61
:1010C00010FAB0EE490AB4EE4E1AC8BFB0EE420AAA
:1010D000F1EE10FAC8BFB0EE4E1AB5EE401AD4F8D1
:1010E000D000F1EE10FAC8BFF0EE410AB0EE601A7F
:1010F0008047052001F09EF9013D681CA8D19FEDB5
:10110000070AD4F8D000F0EE400AB0EE401ABDEC69
:101110000E8BBDE8B04000470000C8420000000050
:101120000000C8C2DB0FC94060B3B0B50C46E02177
:101130000546FFF77DF800212846C4F240114FF024
:10114000804241F26F23C0E905124FF07E52C3F690
:1011500083232C70C5E90123EB60002200230025C6
:10116000C4F2A002C4F24823C0E91B51C0E92151D6
:1011700040F20111C0E91723C0E91D23A0F8C410F3
:10118000BDE8B040002818BF01207047002818BFF4
:1011900080ED060A70470000002818BF01777047ED
:1011A000002818BF80ED080A7047000000281EBF05
:1011B00080ED050A80ED1C0A80ED220A70470000D0
:1011C00010B52DED068B0446D0F8DC00002800F0A9
:1011D00099818047D4F8CC3084ED0A0A43B104F1F8
:1011E000340004F1380104F13C02984794ED0A0AF6
:1011F00094ED0D9A94ED0E1A9FEDDF2A9FEDDF3AE4
:1012000021EE021A29EE032A32EE01AA05F0D8FCDB
:1012100094ED0A1AB0EE408AB0EE410A05F01CFDCA
:101220002AEE001A29EE082A32EE011A2AEE082ABE
:1012300029EE003A32EE432A94ED063A94ED084A3C
:10124000D4ED180ADFEDCF1AD4ED1C2AB1EE435AC3
:10125000B4EE434A30EEA16AF1EE10FAB4EE454A1C
:1012600082EE866AC8BFB0EE434AF1EE10FAB8BF0C
:10127000B0EE454AD4ED1B3AB1EE413AD4ED194AED
:101280009FEDBF7A73EE633A64EEA33AC3EE873AFA
:1012900094ED1A5A61EE074A35EE645AF1EE464A69
:1012A000B4EE465AF1EE10FAB4EE645AC8BFB0EE8E
:1012B000465AD4ED175A34EE426AF1EE10FAB8BF2E
:1012C000B0EE645A20EE854A61EE250A34EE604A9B
:1012D00033EE844AD4ED1E3AD4ED224AF1EE620A8E
:1012E000B4EE624A73EEA11AC4EEA11AF1EE10FA3E
:1012F000B4EE604AC8BFB0EE624AF1EE10FAB8BF71
:10130000B0EE604AD4ED210AD4ED1F2A76EE600AD1
:1013100062EEA00AC0EE870AD4ED202A26EE077AF4
:1013200077EE222AB1EE617AF4EE612AF1EE10FA3C
:10133000F4EE472AC8BFF0EE612AD4ED1D1AF1EE93
:1013400010FAB8BFF0EE472A26EE217A63EEA21A11
:1013500037EE217A30EE877AF1EE640AB4EE647AE1
:10136000F1EE10FAB4EE607AC8BFB0EE647AF1EE36
:1013700010FAB8BFB0EE607A67EE070A64EE041A9E
:1013800071EEA00AF1EEE00A84ED101A94ED051A50
:1013900084ED112A84ED1A5A84ED1B3A84ED124A29
:1013A000C4ED202A84ED216A84ED137AF4EE410A1B
:1013B000F1EE10FA09DD81EE201A24EE014A27EE43
:1013C000017A84ED124A84ED137AD4F8D40027EE22
:1013D000001A24EE082A32EE419A28EE071A24EE6B
:1013E000000A002830EE018A0CBFB2EE080A8047DE
:1013F0009FED651ABEEE002A28EE011A29EE023A88
:1014000033EE014A33EE411AB4EE494AB0EE493A9E
:10141000F1EE10FAC8BFB0EE443AB4EE431AF1EE62
:1014200010FAB4EE494AB0EE495AC8BFB0EE413A9C
:10143000F1EE10FAB8BFB0EE445AB4EE451AF1EE30
:1014400010FAB8BFB0EE415A33EE053A23EE022A45
:1014500039EE023A83EE003A34EE024A31EE021AD5
:1014600084EE004A81EE000AB6EE001AB7EE005A8A
:1014700023EE012A32EE012AB4EE452A24EE013A87
:1014800020EE010A33EE013A30EE014A9FED3F1A99
:10149000F1EE10FAC8BFB0EE452AB5EE402AF1EEE3
:1014A00010FAB0EE410AB4EE453AC8BFB0EE420AB7
:1014B00084ED140AF1EE10FAC8BFB0EE453AB5EE6D
:1014C000403AF1EE10FAF0EE410AB4EE454AC8BFD8
:1014D000F0EE430AC4ED150AF1EE10FAC8BFB0EE03
:1014E000454AB5EE404AD4F8D000F1EE10FAC8BF34
:1014F000B0EE441A84ED161A60B1BDEC068BBDE85F
:1015000010400047D4F8C80040B1804784ED090A74
:1015100006E000BFBDEC068B10BD00BF94ED090ACC
:1015200094F9C50094ED0C2A01EE100A2078B8EE6B
:10153000C11A20EE010A01EE100AB8EE411A9FED21
:101540000D8A20EE010A30EE020AF0EE480A05F09C
:10155000A7FDB5EE400A30EE081AF1EE10FAB8BF5A
:10156000B0EE410AD4F8CC3084ED0A0A002B7FF4A7
:1015700036AE3DE6DB0FC9403ACD933F3ACD133F3F
:1015800017B7D138BD378635D7B35D3F00000000AF
:1015900090F83C20012A04BF02207047F0B5D1F832
:1015A00000E001221FFA8EF77B0080F83C200EEB52
:1015B0004E0413FA8EF31022BEF1090F88BFA3F177
:1015C0001E0488BF0C2203684FF0070C9E580CFACB
:1015D00004F526EA05069E508E689D5806FA04F624
:1015E00046EA05069E509A6B98BF774622F4401251
:1015F0009A63D1F804C00A6900258C69CFF6F075AA
:101600009E6B05EB0255ACEB0202354303329D6342
:10161000D5B2AD0055FA82F21F259E6B954026EAA1
:1016200005059D639D6B07FA02F22A439A639A6847
:10163000012522F470229A609A68C0F20F05AC422C
:1016400002D122F4401208E022439A609A6822F400
:1016500040129A60CA699C6822439A600A7D4C7D58
:101660005D68002C25F4806518BF05F580655D6018
:101670005C68002A24F48054ACF101024FF020068B
:1016800018BF04F580545C601427032A38BF07EBA9
:1016900082069A5940F6FF77BA439A51CA689F5911
:1016A00042F20431C4F201013A43A1F54177BB4251
:1016B0009A5105D0002180F83C100020F0BD00BFF9
:1016C000BEF1120F02D14FF4800205E02EF00102AC
:1016D000102AEFD14FF400020B681A430A60002170
:1016E00080F83C100020F0BD2DE9F0472DED028B75
:1016F000006842F20021C4F20101884222D042F285
:101700000011C4F20101884227D140F27000C2F2F8
:101710000000064616F8081B07460131CAB2022A25
:1017200007F8041B19D340F2B05840F2481500F1F5
:101730001C0900F1180A00F11404C2F20008C2F2F8
:10174000000521E040F27000C2F2000010F8011F15
:101750000131CAB2022A017004D2BDEC028BBDE88D
:10176000F08700BF40F2906840F2901500F1270921
:1017700000F1230A00F11F0400F10F0600F10B072E
:10178000C2F20008C2F200050021017028460121C2
:1017900000F04AF800EE100A97ED001AB8EE400A81
:1017A0002846022130EE418A00F03EF800EE100A91
:1017B00096ED001AB8EE400A9FED1A2A30EE410A63
:1017C00028EE021A20EE020A94ED002A31EE011AE8
:1017D00030EE000A31EE003A31EE421AB6EE004A1F
:1017E00021EE041A31EE021A9AED002A84ED001A55
:1017F00030EE420A20EE040A99ED001A30EE020A99
:101800008AED000A33EE010A20EE040A31EE400AA6
:10181000404689ED000ABDEC028BBDE8F047FFF7BA
:10182000CFBC00BF6740533A81B0002200920068ED
:1018300001396FF004020329026003D800EB810034
:10184000C06B0090009801B07047000010B581B0E7
:101850000021009190F83C10012903D1022001B031
:1018600010BD00BF0468012180F83C10214651F8EA
:10187000083FDB0729D10B684DF6836243F0010373
:101880000B6040F21003C2F200031B68C4F21B326B
:10189000A3FB02239A0C02EB42020092009AA2B12F
:1018A000009A013A0092009A7AB1009A013A0092A5
:1018B000009A52B1009A013A0092009A2AB1009A15
:1018C000013A0092009A002AEAD10A68036CD20712
:1018D0000CD143F01001016400F1440101200A68B9
:1018E00010430860002001B010BD00BF43F20102A8
:1018F00023EA020202F580520264026C42F2000CFA
:10190000D2055CBF00224264002280F83C206FF0C8
:101910000400C4F2010C2060DCF80403A368D4F8CE
:1019200004E0C0060CD064454FF0000005D113F46C
:10193000401108BF1EF480610CD001B010BD00BF83
:101940000EF4806003F440128018CBD14FF4800075
:10195000C5E700BF0CF108014FF48000BFE70000AD
:1019600010B581B00021009190F83C10012903D1FD
:10197000022001B010BD00BF0468012180F83C10B6
:10198000214651F8083FDB072BD10B6843F00103D8
:101990000B6040F21003C2F20003D3F800C04DF612
:1019A0008363C4F21B33ACFB0332920C02EB4202A2
:1019B0000092009AAAB100BF009A013A0092009AE0
:1019C0007AB1009A013A0092009A52B1009A013A13
:1019D0000092009A2AB1009A013A0092009A002AD5
:1019E000EAD10A68036CD2070CD143F010010164FC
:1019F00000F1440101200A6810430860002001B092
:101A000010BD00BF43F2010223EA020202F5805238
:101A10000264026C42F2000CD2055CBF00224264F8
:101A2000002280F83C206FF0040020606068C4F25F
:101A3000010C40F080006060DCF80403A368D4F877
:101A400004E0C0060CD064454FF0000005D113F44B
:101A5000401108BF1EF480610CD001B010BD00BF62
:101A60000EF4806003F440128018C7D14FF4800058
:101A7000C1E700BF0CF108014FF48000BBE7000094
:101A800090F83C10012904BF02207047016CC90581
:101A900012D401684A6852050ED48A6822F0010205
:101AA0008A608968C90711D1016C41F20112914322
:101AB0004A1C002104E000BF016C41F0200201211A
:101AC0000264002280F83C20084670470021002272
:101AD00080F83C200846704770B581B00022009223
:101AE00090F83C20012A03D1022001B070BD00BF54
:101AF000D1F800E001221FFA8EFC4FEA4C0380F877
:101B00003C200EEB4E0213FA8EF31024BEF1090FA7
:101B100088BFA3F11E0288BF0C24036807251E5945
:101B2000954026EA05051D518D681E5905FA02F2F9
:101B300032431A514968062906D801EB81014A1F30
:101B4000194651F8345F0EE00C2901EB810105D8EC
:101B5000A1F12302194651F8305F04E0A1F14102DE
:101B6000194651F82C5F1F24944025EA04040C60A8
:101B70000CFA02F20C6842F2043CC4F2010C22435B
:101B8000ACF54174A3420A603ED1BEF1120F07D1F9
:101B9000DCF8001041F48001CCF8001034E000BF04
:101BA0002EF0010110292FD1DCF80010BEF1100F2A
:101BB00041F40001CCF8001026D140F21001C2F22D
:101BC000000109684DF68362C4F21B32A1FB0212C8
:101BD000910C01EB8101490000910099A1B100999C
:101BE00001390091009979B100990139009100996A
:101BF00051B1009901390091009929B10099013939
:101C0000009100990029EAD1002180F83C100020C1
:101C100001B070BD704700007047000070B5044609
:101C2000006806684568B10717D515F0200114D083
:101C3000216CC90603D4216C41F4007121648168D0
:101C400011F0405F02D1217E002969D02046FFF7C4
:101C5000E1FF20686FF012010160710714D515F0E3
:101C6000800111D0216CC90603D4216C41F40051CC
:101C70002164816811F4401F30D02046FFF734FD05
:101C800020686FF00C010160F10706D015F04001EB
:101C90001CBF01685FEAC17112D1B1060FD515F002
:101CA000806108BF70BD616C6FF0200541F00201DA
:101CB000616405602046FFF7AFFF2068056070BDD6
:101CC000206C40F480302064204600F0F1F8206859
:101CD0006FF001010160B106E1D4F0E7816B11F40E
:101CE000401F02D081684905C7D441684905C4D462
:101CF000816811F0405FC0D1217E0029BDD14168CB
:101D000021F080014160206C20F480502064206C20
:101D1000C005B2D4206C40F001002064ADE700BFE4
:101D2000C16A11F4700F03D0816849053FF58EAF89
:101D3000416821F020014160206C20F48070206413
:101D4000206CC0043FF582AF206C40F0010020649D
:101D50007CE70000002804BF0120704710B5016C2B
:101D600000293DD0016CC90645D4016C41F2021234
:101D70009143023142F204320164C4F2010211685B
:101D800021F440311160136890E812102343D0F819
:101D900010E013604A68012422F480724A604A68A5
:101DA000C0F6007442EA0E224A604A6822F040728D
:101DB0004A604A6842EA0C024A608A6822F4006279
:101DC0008A60C2688B681A438A60826A8B68A24202
:101DD00023F070638B608B6810D123F0405216E0C3
:101DE000044600F067F820460021616484F83C1046
:101DF000016CC906B9D5012153E000BF1A438A60BE
:101E00008A6822F040528A60C26A8B681A438A60EC
:101E10008A6822F002028A608A68037E90F8204075
:101E200042EA43028A604A6884B142F400624A602E
:101E30004A684EF2000322F460424A60426ACFF6DA
:101E4000FF734C6803EB4232224301E022F400624C
:101E50004A60CA6A40F2000C22F47002CA62C36986
:101E60004269CFF6F07CCC6A0CEB03532343CB6280
:101E70008B6823F400738B6090F830308C6844EAF0
:101E800043238B608B6823F480638B608B6843EA09
:101E900082228A6000214164026C012363F3010203
:101EA0000264002280F83C20BDE8104008467047DC
:101EB00070470000B0B586B0006842F20022C4F25C
:101EC000010200219042CDE90411CDE902110191F6
:101ED0003AD042F20011C4F20101884262D10020DE
:101EE00043F630010090C4F202014A69002442F432
:101EF00000724A614A69032502F400720092009A56
:101F000000900A68C4F2020442F001020A600A6802
:101F100002F001020092009A00900A6842F0020268
:101F20000A60096801F002010091009920210191E5
:101F3000CDE9025001A9204600F090FA0120CDE938
:101F4000010504F5806020E043F630000091C4F202
:101F50000200426942F480624261426902F4806296
:101F60000092009A0091016841F00401016000684C
:101F700000F00400009000980920019003200290D6
:101F80000020C4F2020000F500600021039101A9C5
:101F900000F064FA12200021002201F077FB1220E9
:101FA00001F062FB06B0B0BD70B5866D044600F06E
:101FB0002BFB94F83510022928D105462068216CA6
:101FC000026822F016020260426922F08002426139
:101FD00009B9A16C19B1016821F00801016001681B
:101FE00021F00101016000BF20680068C00715D022
:101FF00000F00AFB401B0628F6D320206065032072
:1020000084F83500002184F8341070BD80206065AC
:102010000120002184F8341070BD00BFE06D3F2125
:1020200001FA00F0B060012084F8350000200021A2
:1020300084F8341070BD000090F83510022909D1E1
:10204000052180F835100068016821F00101016068
:10205000002070478021416501207047406D704726
:1020600090F8350070470000F0B581B00021009174
:1020700040F21001C2F200010B68D0E9166148F28B
:10208000B51537680822C1F64E358A403A42A3FB9F
:1020900005350CD003681C68640708D51C6824F05B
:1020A00004041C60B260426D42F0010242650122EC
:1020B0008A403A4208D003685B691B0604D5B260C7
:1020C000426D42F00202426504228A403A4208D040
:1020D00003681B689B0704D5B260426D42F004029E
:1020E000426510228A403A4219D001680B681B07EA
:1020F00015D5B2600B680A685B0309D4D20509D410
:102100000A6822F008020A60016C29B907E000BFE2
:10211000110341D4016C11B1044688472046C26DB9
:10212000202101FA02F33B4243D001680F68FF0609
:102130003FD5B36090F835700B68052F1CD123F0A4
:1021400016030B604B6923F080034B61036C0BB9E2
:10215000836C1BB10B6823F008030B603F21914097
:10216000B160012180F83510016D0022002980F84E
:10217000342054D158E000BF0A685B0310D4D20564
:1021800012D40A6822F010020A60012180F835108A
:10219000002180F8341007E0816C0029BCD1BEE733
:1021A000110301D4416C00E0C16B11B104468847B2
:1021B0002046416DC1B3416DC9072ED0052180F87D
:1021C00035100168AA0A0B6823F001030B60009B1D
:1021D0000133934200931AD80B68DB0717D0009B9A
:1021E00001339342009312D80B68DB070FD0009B9A
:1021F0000133934200930AD80B68DB0707D0009B9A
:1022000001339342009302D80B68DB07DFD1012131
:1022100080F83510002180F83410C16C21B101B074
:10222000BDE8F040084700BF01B0F0BD2DE9F04126
:10223000044600F0E9F9ECB10546022084F83500C7
:102240000020216884F83400086820F0010008604C
:1022500021680868C00711D000F0D6F9401B052896
:10226000F6D9032520230320636584F83550BDE8A3
:10227000F08100BF0120BDE8F08100BF086848F28E
:102280003F02CFF21002D4E9013500EA020C04F15A
:102290000C0898E8C10143EA0C032B431843D4E926
:1022A000072E304338431043626A40EA0E00042A86
:1022B00040EA08031CD1206BD4E90A2E40EA0E0044
:1022C000184308604869BEF1000F20F0030040EA9F
:1022D000020040F0040C11D0B8F5005F36D0B8F120
:1022E000000F45D1022A46D0012A3BD032B942E044
:1022F0000B60486920F0070040EA020C01F0F8008A
:102300004AF6AB221038CAF6AA22A0FB02231A0909
:1023100047F65623C1F814C0C0F600039A5C40F299
:10232000FF335F284FF03F0021EA030100FA02F07B
:1023300088BF0431C4E916128860002301250020FB
:10234000636584F83550BDE8F08100BF032AD5D815
:10235000012540230120DFE802F0030E030500BF42
:1023600082E700BFAEF1C070B0FA80F0400904E02F
:10237000032A04D3C2D1CEF300600028BED00125C9
:1023800040230120636584F83550BDE8F0810000EA
:1023900090F834C0BCF1010F04BF0220704770B543
:1023A0004FF0010C80F834C0D0F858E090F835C0F8
:1023B000BCF1010F38D14FF0020C80F835C04FF05E
:1023C000000CC0F854C0D0F800C08468056CC06D23
:1023D000DCF80060402C26F48026CCF80060CCF8B5
:1023E00004300B4604BF13460A463F2101FA00F0B1
:1023F000CCF80830CCF80C20CEF80800DCF800004F
:1024000040F01600CCF800002DB1DCF8000040F0E0
:102410000800CCF80000DCF8000040F00100CCF827
:102420000000002070BD00BF002180F834100220A1
:1024300070BD0000B0B5044600F0E6F8054640F275
:102440000800C2F200000078611C18BF044400BFFD
:1024500000F0DAF8401BA042FAD3B0BD2DE9F04FEE
:1024600083B000F1200200F13E4741F600450092A2
:1024700007F1FF77C4F2020508224FEAB726A84207
:1024800008BF072200254FF000084FF00009072E73
:1024900038BF4FEAB72201920AE000BF09F10109F3
:1024A00008F10208B9F1100F05F1040500F0A2804F
:1024B0000F68012202FA09FE17EA0E0AEED0D1F8DF
:1024C00004C003220CF003077E1E02FA08F4012E5A
:1024D0006FEA040B12D88468CE6804EA0B0406FA8B
:1024E00008F634438460446824EA0E06CCF30014F2
:1024F00004FA09F42643466004E000BF032F01D12B
:1025000003271EE0C6688C6806EA0B0604FA08F486
:102510002643022FC66014D16FF00302009E02EA28
:10252000590756F807C005F01C040F220B69A2409A
:102530002CEA0202A3401A43F251D1F804C00CF075
:102540000307026807FA08F302EA0B021A431CF4B5
:10255000403F0260A2D0002243F644030292C4F23C
:1025600002031A6843F6004442F480421A601A6873
:10257000C4F2010402F480420292029A29F003029A
:102580004FF6084C2244CFF6FF7C52F80C3005F091
:102590000C070F26BE40B343019E06FA07F73B43E4
:1025A00042F80C30A2684B6842EA0A0743F60C4C2A
:1025B000DE0258BF22EA0A07A760C4F2010CDCF869
:1025C00000209E0242EA0A0758BF22EA0A07CCF816
:1025D000007062689E0342EA0A0758BF22EA0A07AF
:1025E00067602268DB0342EA0A0758BF22EA0A074B
:1025F000276053E703B0BDE8F08F00000069084092
:1026000018BF01207047000040F27070C2F2000055
:10261000006870477047000070470000F0B581B057
:102620000446006800254769426894F83E1002F4A9
:102630008076FA0505D5002E1EBF6FF480724261C8
:102640000125BA0505D5002E1EBF02356FF40072B4
:1026500042617A0516D5AEB1628D94F83D30D4F85A
:1026600030C0202908BF002A24D06FF4806240299E
:1026700005F10405426101D0102903D1016841F43C
:1026800000710160380507D536B1206808356FF450
:102690000061416101E000BF55B1206C40EA0501D5
:1026A0002046216401B0BDE8F04002F099BF00BFB0
:1026B00001B0F0BD03F0F701212909D0282B08BF94
:1026C000BCF1210F04D06FF4806141610435D9E77A
:1026D00094F83D10E26AB2F1080318BF0123203AD2
:1026E00018BF0122134208BF282921D0212939D13E
:1026F0000021CFF6FF71E16221212163202184F8BE
:102700003D10002184F83E10426822F4E0624260ED
:102710006FF480624261026822F480620260426962
:10272000120648BF0161204600F032FFAAE700BF51
:102730000021CFF6FF71E162416821F4E061416060
:102740006FF480614161016821F4806101600020C3
:102750002021206384F83D1084F83E00204600F0DC
:10276000D9FB8FE76FF4806141618BE7F0B581B0F1
:1027700007687968C26A90F83E5090F83DE0402DB5
:1027800001D0102D34D1BB697C69E60718D1B2F1B4
:102790002A4F00F06B82B2F52A0F00F06782220701
:1027A00001F4007240F10681002A00F00381416BC0
:1027B000426C0029D2B23A6140F0B080B0E000BF74
:1027C0008A0543D44FF0010C7A685B076ED412057A
:1027D00000F14C8204F04402402A40F0598111F487
:1027E000806100F0558101B0BDE8F04003F03AB8D7
:1027F000026C01F40073002A0CBFBC6900247D69DF
:10280000AA0729D543B3016C002918BFBC6990F809
:102810003D1001F02801282940F0C080796801228C
:1028200021F48061796004F0040182EA91012206BA
:102830004FF0180258BF0C22825A002380F83C3017
:1028400001B0BDE8F040FFF7E7BE00BFC16AB1F5D7
:102850002A0F3DD1012140E0EA066FD5002B6DD053
:1028600090F83D50796821F4E06179600021009191
:1028700079690091396841F001013960009939683E
:1028800021F4806139607968090540F17D8105F0A6
:10289000F7010446222940F04D8154F8381F0A6898
:1028A000526824F80E2C34F80E2C4BE1120500F17E
:1028B000DD8104F08402802A40F0FA8011F4806106
:1028C00000F0F68001B0BDE8F04003F0ADB800BF05
:1028D000C16AB1F12A4F01D10821C16290F83E10BE
:1028E00040290BD1016D406C002900F0FE0018BF9B
:1028F00040F00100386101B0F0BD00BF0169B1F5E1
:10290000804F40F0898090F83D10426C212902F000
:10291000FE0218BF01323A61416B09B1C96B39B986
:10292000806B002800F0A281C06B002800F09E811F
:10293000786840F40060786001B0F0BD0EF0F702F6
:10294000212A79D105F08402802A40F0C58011F453
:10295000806100F0C18090F83D10428D002A00F0A7
:102960008581426A12F8013B3B614262428D013A25
:102970004285428D002A08BF292940F07781796875
:1029800021F48061796021210163282180F83D10C4
:1029900001B0BDE8F04000F0FBBD00BF0021009198
:1029A0007A690092BA690092009A80F83C1001B0EE
:1029B000F0BD00BF4FF0010CA6078CEA522C7FF54A
:1029C00003AF002A3FF400AF90F83E20C16A036BCA
:1029D00090F83D60222E40F0A380066D002E08BFC7
:1029E000402A00F09D80026D002A40F0418102697A
:1029F000B2F5404F40F03C8100210091796900918F
:102A0000B96900910099396841F480713960016DAC
:102A10000131016501B0F0BD016D002900F00481B4
:102A2000016D012940F02281406C062101EAD0109D
:102A3000F130386101B0F0BD05F04402402A5BD1AD
:102A400011F4806158D090F83D10428D002A00F0BA
:102A50000D813A69436A1A70426A01324262428DBC
:102A6000013A4285428D002A08BF2A2940F0FE80A3
:102A700001684A6822F480624A60222101632821A9
:102A800080F83D1001B0BDE8F04000F07FBD00BF10
:102A900004F00401012282EA910141EA0C01C90714
:102AA00040F0E48001B0BDE8F04002F05FBE00BF3E
:102AB00004F00401012282EA910141EA0C01C907F4
:102AC00040F0D480BEF1210F40F0C88001B0BDE8D5
:102AD000F04002F067BF00BF690740F1C780002BDC
:102AE00000F0C480418D002900F0C080416A11F8D7
:102AF000012B3A610FE000BF690740F1B780002B5E
:102B000000F0B480418D002900F0B0803969426A3C
:102B10001170416A01314162418D01394185A5E061
:102B20000020009078690090B8690090009801B08A
:102B3000F0BD00BF54F8341F0A68526824F80A2C0C
:102B400034F80A2C1AB1026C42F0040202647A686A
:102B5000064622F4006208467A60FFF781FA0146D1
:102B60003046012910D0206845F24531C0F60001F9
:102B70000165FFF761FA0146304629B12168044634
:102B80000A6D084690472046418D61B101684A6947
:102B900052072FD44A69520639D4418D19B1016CBC
:102BA00041F004010164016C21B101B0BDE8F040C5
:102BB00002F016BD2A2D08D100210163282180F8DA
:102BC0003D10044600F0E2FC204690F83D10282914
:102BD00032D10021CFF6FF71C162002120220163B2
:102BE00080F83D2080F83E1001B0BDE8F04000F0D4
:102BF00091B900BF0969426A1170426A01680132E5
:102C00004262428D013A42854A695206C5D5096938
:102C1000426A1170416A01314162418D0139418539
:102C2000418D0029BBD1BEE7406C062101EAD010DE
:102C3000F030386101B0F0BD016B222918BF222DA0
:102C400014D100212022016380F83D2080F83E103D
:102C500001B0BDE8F04000F099BC00BF402D05D1A7
:102C600001B0BDE8F04002F039BF00BF01B0F0BDD7
:102C7000428D52B1428D012A16D1202918BF082950
:102C800026D1396821F48061396000210091796989
:102C90000091B96900910099396841F40071396077
:102CA0000021016501B0F0BD428D022A0CD110292E
:102CB00032D8012214238A40C0F201031A422BD0D9
:102CC0004FF480622EE000BF3A6842F480622BE04D
:102CD00011F5803F0CD1396821F480613960796841
:102CE0000905D2D5396821F48061396030E000BF30
:102CF000122B01D10129C4D11029F3D8012202FAE3
:102D000001F11422C0F201021142EBD0396841F402
:102D1000806139601CE000BF3A6822F480623A604A
:102D20004FF400623B681A433A607A6812050FD587
:102D30004A1E1F2A18D8012303FA02F248F281031F
:102D4000C8F200031A420FD0796841F480517960CB
:102D50000021009179690091B969009100990021E1
:102D6000016501B0F0BD00BF11F5803FECD0EFE789
:102D700040F23812C2F20002116811B10B688342AE
:102D80000FD0516811B10B6883420AD0916811B11C
:102D90000B68834205D0D16849B10A68824218BFE6
:102DA0007047002200680A776FF4E0614161704764
:102DB000002804BF01207047F0B581B0044690F8A8
:102DC0003D0028B9002084F83C00204600F0BCFA01
:102DD000242084F83D002068016821F00101016091
:102DE000016841F400410160016821F40041016083
:102DF00000F03AFD636848F2A16CC0F2010C40F6A5
:102E00000011C0F23D0163453CBF48F28041C0F271
:102E10001E01884202D2012001B0F0BD4DF683614F
:102E2000C4F21B31A0FB01122168970CD1F804E019
:102E30004FF496762EF03F0545EA92454D60774374
:102E400048F638160D6AC0F24106A7FB067625F053
:102E50003F07634538BF960C721C3A430A62CA6941
:102E600048F2A0664CF6FF77C0F20106B34222EAB0
:102E700007020BD801385B00B0FBF3F001306FF3B1
:102E80001F30042898BF04201BE000BFA76801384A
:102E900057B119277B43B0FBF3F001306FF31F30BC
:102EA00070B100F5804007E003EB4303B0FBF3F0A3
:102EB00001306FF31F3018B100F5004001E000BF92
:102EC00001201043C8610868D4E9072320F0C0003E
:102ED000104318430860886848F2FF3204F10C0779
:102EE00090438CCF18431043A6698860C86820F0CF
:102EF000FF0038433043C860086840F001000860B4
:102F000000202021206484F83D10206384F83E00D6
:102F100001B0F0BD7047000070470000704700002E
:102F200090F83E2001688B699B0723D5402A01D089
:102F3000102A1FD190F83C20012A04BF02207047BC
:102F400080B500226023026380F83D300B6823F4D3
:102F500080630B600B6843F400730B6042854B6821
:102F600023F4E0634B6080F83C2002F039FB002042
:102F700080BD00BF0120704710B52DED028B40F2DF
:102F80003811C2F200010C6814B12268824211D0DB
:102F90004C6814B1226882420CD08C6814B122684B
:102FA000824207D0CC6814B12168814202D0BDECC6
:102FB000028B10BDA179E279002061F30B2220770A
:102FC00000EE102A9FED451A94F92800B8EE400A49
:102FD00020EE010A01EE100A607FB8EEC11A84EDFE
:102FE000020A20EE010A01EE100AB8EE411A94ED31
:102FF000082A9FED3B8A20EE010A30EE020AF0EE2D
:10300000480AA28004F04CF8B5EE400A30EE081AE7
:10301000F1EE10FAB8BFB0EE410A84ED090AFFF7ED
:10302000F3FAA1694FF47A7202FB00F041B3411A3E
:1030300000EE101A9FED2B1AB8EE400A9FED2A2AD7
:1030400020EE011A94ED020AB4EE421AF1EE10FAE3
:103050003DDB9FED262AB4EE421AF1EE10FA36DA85
:1030600094ED053A9FED222A30EE433AB4EE423A0F
:10307000F1EE10FA0ADD9FED204A33EE043A0EE03D
:10308000A168C4E90510BDEC028B10BD9FED194A83
:10309000B4EE443AF1EE10FAB8BF33EE083A83EEDC
:1030A000011A94ED033A9FED154A9FED155A23EE50
:1030B000043A21EE051A31EE031AB3EE0E3A21EE70
:1030C000033A83EE022A84ED031A84ED042A84ED88
:1030D000050AA061BDEC028B10BD00BFDB0FC93A31
:1030E000DB0FC940BD3786356F12033ACDCCCC3DDE
:1030F000DB0F4940DB0F49C0DB0FC9C03333333F1F
:103100009A99993E704700002DE9F04786B098469D
:1031100016460F460446FFF777FA0021059194F80A
:103120003D10202940F0978040F21001C2F20001CA
:1031300009684BF28952C908C1F2F842A1FB021595
:10314000DDE90E23290A19256943059105990139FD
:1031500005910599002973D021688D69AD071AD5AD
:10316000059D013D0595059D002D69D08D69AD0733
:1031700011D5059D013D0595059D002D60D08D69FA
:10318000AD0708D5059D013D0595059D002D57D03E
:103190008D69AD07DAD494F83C50012D5BD0012540
:1031A00084F83C500D68ED0703D10D6845F001052A
:1031B0000D600D684FF0000C25F400650D602225B0
:1031C00084F83D50402584F83E50C4F840C0626207
:1031D0006385638D0025CFF6FF752385E5626764FF
:1031E000A664C4F84C80C4F850C0CBB3A56B002DC6
:1031F00058D0814645F2B140C0F6000045F2654C1A
:103200004FF0000AC0F6000CC5E90F0A103128463D
:10321000C5E911AAC5E913CAFFF7BAF8002851D0C9
:10322000202084F83D0084F83EA0206C40F010007F
:10323000206484F83CA0012006B0BDE8F08700BF00
:1032400000202021206384F83D1084F83E00206C8B
:1032500040F020002064022006B0BDE8F08700BFE7
:103260004FF0230C05462046394632464346CDE909
:1032700000C502F093FC0028DDD1002003902168F6
:103280004A6903928A690392039A0A6842F40072B7
:103290000A60202184F83D1084F83C0006B0BDE8A7
:1032A000F08700BF202084F83D00002084F83E0015
:1032B000216C41F08001216484F83C00012006B0BB
:1032C000BDE8F08723252046394632464346CDE9FE
:1032D000005902F063FCA8B1A06BFEF7ADFEA16B34
:1032E00020680022CA63016821F4806101602285A0
:1032F0006285016821F001010160012006B0BDE88E
:10330000F08700BF208D2168012805D1086820F4CE
:103310008060086004E000BF486840F48050486066
:10332000002004904A6904928A690492049A84F8FD
:103330003C004A6842F480724A604A6842F4006283
:103340004A6006B0BDE8F0872DE9F04F87B004462B
:10335000006845F60041C4F2000100278842CDE92B
:103360000577CDE90377029772D045F20041C4F2A8
:103370000001884240F00681002643F630050196A0
:10338000C4F20205286846F2400840F002002860B6
:10339000286802A900F0020001900198C020029064
:1033A0001220039001200490032005900420069031
:1033B0000020C4F2020000F58060C4F20208FFF7AA
:1033C0004DF8019628694FF0007A40F4001028610A
:1033D000286940F2D81500F400100190019808F116
:1033E0004800C2F200054FF48069C5E9000A4FF4B5
:1033F00040372846C5E90266C5E90496C5E9066670
:10340000C5E90876FEF712FF002818BFFDF7C4FBD8
:10341000A563AC6340F2382508F16000C2F20005F4
:103420004021C5E9000A05F1080080E8420228466B
:10343000C5E90566EE61C5E90876FEF7F7FE0028E6
:103440004FF020064FF01F0718BFFDF7A5FB87E0E0
:1034500043F630050197C4F20205286840F20009DE
:1034600040F0040028602868C4F2020900F004005B
:10347000019001980197286802AE40F00100286091
:1034800028684FF0010B00F00100019001984FF403
:1034900000700290122003904FF003084FF0040ACE
:1034A00009F500603146CDF810B0CDF81480CDF8A4
:1034B00018A0FEF7D3FF4FF4807002901220CDE9E0
:1034C000030BCDF8148046F2400848463146C4F25A
:1034D0000208CDF818A0FEF7C1FF019728694FF048
:1034E000C06A40F400002861286940F2982500F481
:1034F000000001900198C2F200054FF480694FF47A
:1035000040362846C5E9008AC5E90277C5E904972F
:10351000C5E90677C5E90867FEF788FE002818BFE9
:10352000FDF73AFBA563AC6340F2F82508F13000E3
:10353000C2F200054021C5E9000A05F10800002299
:1035400080E806022846C5E90522EA61C5E9086265
:10355000FEF76CFE49264FF0480708B1FDF71CFB4B
:103560003846012100226563AC6300F08FF83846CD
:1035700000F07AF830460821002200F087F8304643
:1035800000F072F807B0BDE8F08F0000704700004F
:103590007047000040F2080040F27071C2F2000073
:1035A000C2F2000100780A68104408607047000009
:1035B00080B543F60040C4F20200016841F4007196
:1035C0000160016841F480610160016841F480712B
:1035D0000160032000F086F80F2000F005F800F0ED
:1035E00027F8002080BD000070B540F20806C2F246
:1035F000000640F210013278C2F200014FF47A73F3
:103600000968B3FBF2F20446B1FBF2F1084600F0A0
:1036100061FB0F2C4FF0010508D838B94FF0FF308F
:1036200021460022002500F031F87460284670BD64
:1036300082B0002043F640010190C4F202014A68C2
:1036400042F480424A604A6802F480420192019A40
:103650000090086840F080500860086800F08050D2
:103660000090009802B07047002848BF704700F0F3
:103670001F01012202FA01F11C2202EAD0004EF2DF
:103680000012CEF2000281507047000010B54EF6D5
:103690000C5CCEF2000CDCF80030C3F3022E8EF08E
:1036A0000704042C28BF0424BEF103034FF0FF3E9F
:1036B0000EFA04F438BF0023A14399400EFA03F335
:1036C0009A43114300F00F0200F160430901043AEC
:1036D00003F564436244002848BF02F10C031970EB
:1036E00010BD00004EF60C51CEF200010A684FF6F4
:1036F000FF031A4060F30A2242F0806040F0FD7040
:1037000008607047002804BF012070472DE9F04190
:1037100043F60808C4F202080446D8F8F8030D4638
:1037200000F00700814207D988F8F853D8F8F80369
:1037300000F00700A84277D12068810717D541071C
:1037400005D5D8F8001041F4E051C8F80010010781
:1037500005D5D8F8001041F46041C8F80010D8F839
:103760000010A26821F0F0011143C8F80010C00752
:1037700040D1D8F8F80300F00700854207D288F856
:10378000F853D8F8F80300F00700A8424CD120689D
:10379000410707D5D8F80010E26821F4E051114341
:1037A000C8F80010000708D5D8F80000216920F4F7
:1037B000604040EAC100C8F8000000F07DF8D8F889
:1037C000001047F63E22C1F30311C0F60002515C1F
:1037D00040F2100220FA01F140F20C00C2F20000A7
:1037E0000068C2F200021160FFF7FEFE0020BDE893
:1037F000F08100BF6068811E022907D258F8081CBA
:1038000089015CBF0120BDE8F08111E0012807D1EA
:1038100058F8081C89035CBF0120BDE8F08107E06F
:1038200058F8081C890703D40120BDE8F08100BFC7
:10383000D8F8001021F003010843C8F80000FEF793
:10384000E3FE064641F28837D8F80000616800F0D0
:103850000C00B0EB810F8CD0FEF7D6FE801BB84277
:10386000F2D90320BDE8F08140F2100043F60801D0
:10387000C2F20000C4F202010068096847F64E2255
:10388000C1F38221C0F60002515CC84070470000BD
:1038900040F2100043F60801C2F20000C4F2020137
:1038A0000068096847F64E22C1F34231C0F60002B3
:1038B000515CC8407047000010B543F60404C4F2E0
:1038C00002046168C1F3810142F20040C0F2F400D9
:1038D000DFE801F002040A0210BD00BF41F200203F
:1038E000C0F27A0010BD00BF216801F03F022168DC
:1038F00023684902C3F3881106D4A1FB0001002309
:10390000FCF75EFC07E000BF41F20020C0F27A0045
:103910004843B0FBF2F021680222C1F3014102EBFF
:103920004101B0FBF1F010BD002804BF0120704739
:103930002DE9F04182B00446007843F60006C00746
:10394000C4F202060CD0B06800F00C00042840F06D
:1039500081803068800303D56068002800F06881AA
:10396000207880071BD5B06810F00C0F09D0B06824
:1039700000F00C00082840F087807068400200F1D9
:1039800083803068800703D5E068012840F05081CB
:103990003068216920F0F80040EAC10030602078EA
:1039A000000713D4207840072AD4A569002D00F021
:1039B0003A81B06800F00C00082840F0A580012D85
:1039C00040F00E81012002B0BDE8F081606900285E
:1039D00000F082800020C4F247200121C0F8801E40
:1039E000FEF712FE054600BF706F8007DAD4FEF7BF
:1039F0000BFE401B0228F7D9032002B0BDE8F0817E
:103A0000306C5FEAC0080AD400200190306C40F0AE
:103A100080503064306C00F080500190019847F283
:103A20000007C4F200073868C00547D4386840F47E
:103A300080703860FEF7E8FD054600BF3868C005B5
:103A40003CD4FEF7E1FD401B0228F7D9032002B069
:103A5000BDE8F081B06800F00C00082803D1706860
:103A600040023FF576AF61683068B1F5803F07D01E
:103A7000B1F5A02F40F09A8040F48020306030688B
:103A800040F4803030609AE0E068002840F20000A6
:103A9000C4F247205CD001210160FEF7B5FD054668
:103AA000306880073FF574AFFEF7AEFD401B02287B
:103AB000F6D9032002B0BDE8F08100BFA168306FE5
:103AC000012905D0052955D140F004003067306F39
:103AD00040F00100306756E00020C4F2472000218A
:103AE000C0F8801EFEF790FD054600BF706F80078E
:103AF0007FF558AFFEF788FD401B0228F6D903205A
:103B000002B0BDE8F08100BF0027C4F247270020C3
:103B10003866FEF779FD022D05460DD1306880012B
:103B200040F18A80FEF770FD401B02284FF0030031
:103B3000F4D902B0BDE8F0813068800173D5FEF79A
:103B400063FD401B02284FF00300F5D9F1E700BFE9
:103B500000210160FEF758FD054600BF3068800770
:103B60007FF51DAFFEF750FD401B02284FF003000C
:103B7000F4D9DEE720F001003067306F002920F033
:103B8000040030677AD0FEF73FFD054641F28837E2
:103B9000306F800700F18480FEF736FD401BB8428D
:103BA000F6D9032002B0BDE8F08100BF20F48030D8
:103BB00030603068002920F4802030607AD0FEF731
:103BC00023FD0546306880033FF5CAAEFEF71CFDB5
:103BD000401B6428F6D9032002B0BDE8F08100BF85
:103BE0007068E16900F480028A4221D1216A00F004
:103BF0003F028A421CD147F6C071626A0140B1EBB4
:103C0000821F15D1A16A4FF6FF73C903994300F4CF
:103C10004032A1F580318A420AD1E16A00F0706039
:103C2000B0EB016F04D1002002B0BDE8F08100BF0D
:103C3000012002B0BDE8F08104F11C052FCD08433E
:103C400040EA8210D9034FF6FF729143A1F580310B
:103C500040EA05600843706001203866FEF7D4FC36
:103C6000044600BF30688001DDD4FEF7CDFC001BA8
:103C700002284FF00300F5D95BE700BFFEF7C4FC54
:103C8000054641F2883700BF306F800708D5FEF740
:103C9000BBFC401BB8424FF00300F5D949E700BF19
:103CA000B8F1000F3FF581AE306C20F080503064E9
:103CB0007BE600BFFEF7A8FC054600BF3068800326
:103CC0007FF54EAEFEF7A0FC401B64284FF00300CA
:103CD000F4D92EE7411E0020B0EB116F1CBF01206C
:103CE00070474EF21002CEF2000251604EF62351A0
:103CF000CEF20001F0230B70072190601160704735
:103D0000704700007047000090F83C20012A4FF0F7
:103D1000020254D010B580F83D200268D2F804E0C9
:103D2000D2F808C00C682EF07003234341F2FF74F0
:103D3000C4F20004A24253600EDC40F2FF73C4F2EE
:103D400000039A4216DCB2F1804F2BD040F20043C0
:103D5000C4F2000324E000BF40F2FF33C4F20103C9
:103D60009A4213DC41F60003C4F200039A4219D0D0
:103D7000002313E040F60003C4F200039A4211D07E
:103D800040F60043C4F200030AE000BF44F200031F
:103D9000C4F201039A4205D040F20043C4F2010389
:103DA0009A4204D149682CF08003194391600121A3
:103DB000002280F83D1080F83C20BDE810401046FD
:103DC00070470000002804BF0120704710B504466A
:103DD00090F83D0028B9002084F83C00204600F00F
:103DE0001FF8022084F83D002068211D02F00AFD22
:103DF000012084F8460084F83E0084F83F0084F8EF
:103E0000400084F8410084F8420084F8430084F8BC
:103E1000440084F8450084F83D00002010BD0000F7
:103E200080B582B0006800F140404FEAB02003281E
:103E300021D8DFE800F0033D112300BF00200190EE
:103E400043F64000C4F20200016841F00101016044
:103E5000006800F001000CE00020019043F64000F3
:103E6000C4F20200016841F004010160006800F042
:103E700004000190019802B080BD00BF00200190B5
:103E800043F64000C4F202000168002241F008013C
:103E900001600068052100F00800019001983220BF
:103EA000FFF7F4FB322002B0BDE88040FFF7DCBB37
:103EB0000020019043F64000C4F202000168002295
:103EC00041F0020101600068042100F0020001904D
:103ED00001981D20FFF7DAFB1D2002B0BDE88040ED
:103EE000FFF7C2BB90F83D1001291CBF01207047AD
:103EF000022180F83D10006841F2FF71C4F2000118
:103F000088420DDC40F2FF71C4F20001884215DCEA
:103F1000B0F1804F2AD040F20041C4F2000123E00A
:103F200040F2FF31C4F20101884213DC41F6000186
:103F3000C4F20001884219D0002113E040F60001CC
:103F4000C4F20001884211D040F60041C4F20001E1
:103F50000AE000BF44F20001C4F20101884205D02A
:103F600040F20041C4F20101884206D1816801F0AB
:103F70000701062904BF00207047016841F00101D4
:103F8000016000207047000090F83D1001291CBF1F
:103F900001207047022180F83D10006841F2FF7255
:103FA000C168C4F20002904241F00101C1600DDC21
:103FB00040F2FF71C4F20001884215DCB0F1804F7D
:103FC0002AD040F20041C4F2000123E040F2FF3168
:103FD000C4F20101884213DC41F60001C4F2000181
:103FE000884219D0002113E040F60001C4F200011C
:103FF000884211D040F60041C4F200010AE000BF3F
:1040000044F20001C4F20101884205D040F20041AF
:10401000C4F20101884206D1816801F00701062936
:1040200004BF00207047016841F0010101600020D9
:104030007047000090F83C20012A4FF002026CD03B
:1040400080B580F83D20D0F800C04FF67772DCF8DC
:10405000083023EA0202CCF808200B684F2B29DC39
:104060001F2B45DD202B46D0302B44D0402B40F079
:10407000AF80D1F804E0C968DCF82030DCF82020FB
:1040800022F00102CCF82020DCF8182022F0F00207
:1040900042EA011123F00A0242EA0E02CCF818109B
:1040A000CCF82020DCF8081041F0470121F0300165
:1040B00028E000BF6F2B33DDB3F5005F74D0B3F59C
:1040C000805F21D0702B40F08380D1E901E3C96883
:1040D000DCF8082043EA0E0322F47F4243EA012180
:1040E0001143CCF80810DCF8081041F0770109E022
:1040F0000BB1102B6CD1DCF8081021F070011943C2
:1041000041F00701CCF808100022012180F83D1091
:10411000002180F83C10BDE880401046704700BF89
:10412000502B21D0602B53D1D1F804E0C968DCF8C2
:104130002030DCF8202022F01002CCF82020DCF81F
:10414000182022F4704242EA013123F0A00242EA30
:104150000E12CCF81810CCF82020DCF8081041F032
:10416000670121F01001CDE7D1F804E0C968DCF85F
:104170002030DCF8202022F00102CCF82020DCF8EE
:10418000182022F0F00242EA011123F00A0242EA6A
:104190000E02CCF81810CCF82020DCF8081041F002
:1041A000570121F02001ADE7D1E901E3C968DCF84E
:1041B000082043EA0E0322F47F4243EA012111431F
:1041C000CCF80810DCF8081041F480419AE700BFF1
:1041D00001229AE77047000070B504460068C56880
:1041E0000669B10716D515F0020113D06FF0020170
:1041F0000161012121778069800703D02046FFF704
:10420000E9FF05E0204600F0F7F8204600F036FA16
:1042100000202077700719D515F0040016D020680B
:104220006FF00401016102212177806910F4407F61
:1042300004D02046FFF7CEFF06E000BF204600F086
:10424000DBF8204600F01AFA00202077300717D557
:1042500015F0080014D020686FF0080101610421F6
:104260002177C069800703D02046FFF7B3FF05E040
:10427000204600F0C1F8204600F000FA0020207728
:10428000F00619D515F0100016D020686FF0100157
:10429000016108212177C06910F4407F04D02046D5
:1042A000FFF798FF06E000BF204600F0A5F8204683
:1042B00000F0E4F900202077F00718BF15F00100A6
:1042C00002D1300609D412E020686FF001010161CB
:1042D000204600F05DFA300609D515F0800006D0C2
:1042E00020686FF0800101612046FFF709FD70062C
:1042F00009D515F0400006D020686FF0400101613B
:10430000204600F0C9FAB00658BF70BD15F0200075
:1043100008D021686FF0200220460A61BDE8704095
:10432000FFF7F0BC70BD00002DE9F04186B00068D9
:1043300040F60002C4F2000200219042CDE90411CF
:10434000CDE90211019135D0B0F1804F51D1002556
:1043500043F630000095C4F202000168002441F0E9
:10436000010101600168C4F2020401F00101009141
:10437000009900950168032641F002010160006880
:104380004FF0020800F0020000900098012701A9F8
:1043900020460196CDE9028504960597FEF75EF862
:1043A0004FF48060CDE9010803A8E0C004F5806007
:1043B0001CE000BF43F630000091C4F20200026826
:1043C00042F008020260006800F0080000900098C7
:1043D0004FF4E04001900220CDE902010321CDE934
:1043E00004100020C4F2020000F5406001A9FEF7AD
:1043F00035F806B0BDE8F0817047000090F83C3019
:10440000012B04BF022070474FEAB202032A00F2D8
:10441000FF802DE9F043DFE802F003B13F7F00BFEA
:10442000036840F200461C6A1A6A24F0020422F073
:1044300001021A621A46D3F804C052F818EF8F68C6
:1044400043F48065C4F20106B54244EA070405D18D
:10445000CF6824F00C0427F004073C430F68B542F2
:1044600006D1D1E905582CF440762E4346EA080CD3
:104470002EF073063743C3F804C09F614F68096983
:104480005F631C629F6947F008079F619F6927F07F
:1044900004079F61B1E000BF036840F200481C6A56
:1044A0001A6A24F4007422F480721A621A46D3F84D
:1044B00004C052F81CEF8F6843F48065C4F2010811
:1044C000454544EA072408D1CF6840F2FF463F0241
:1044D00024F4406427EA06063443D1F800904545A9
:1044E00006D1D1E905562CF440572E4347EA061C65
:1044F0002EF0730747EA0907C3F804C0DF614F686D
:104500000969DF631C62DF6947F00807DF61DF6963
:1045100027F00407DF6170E0036840F20045D3F83C
:1045200020C01A6A43F4806722F480521A621A4645
:104530005C6852F81C8FD1F800E08E68C4F2010567
:10454000AF4204D14D6924F4804444EA85142CF42C
:10455000005747EA063728F4E64646EA0E265C602E
:10456000DE614E6809691E641F62DF6947F40067F7
:10457000DF61DF6927F48067DF613DE0036840F2B7
:1045800000481C6A1A6A24F0200422F010021A6201
:104590001A46D3F804C052F818EF8F6843F48065C8
:1045A000C4F20108454544EA071407D1CF686FF00B
:1045B000400624F0C00406EA07163443D1F8009000
:1045C000454506D1D1E905562CF440672E4347EA0C
:1045D000860C2EF4E64747EA0927C3F804C09F611A
:1045E0004F6809699F631C629F6947F400679F6178
:1045F0009F6927F480679F6109021368194311605E
:104600000021BDE8F043002280F83C2008467047B6
:104610000121002280F83C2008467047002804BF92
:104620000120704710B5044690F83D0028B90020DD
:1046300084F83C00204600F01FF8022084F83D007A
:104640002068211D02F0DEF8012084F8460084F87D
:104650003E0084F83F0084F8400084F8410084F86C
:10466000420084F8430084F8440084F8450084F84C
:104670003D00002010BD00007047000070470000A2
:10468000C1B1042908D0082914BF41224022825C0C
:10469000012A05D016E000BF3F22825C012A11D119
:1046A0000222082910D0042914BF80F8412080F884
:1046B0003F200BE090F83E20012A03D1022280F82F
:1046C0003E2003E00120704780F84020006801F0A0
:1046D0001F010122036A02FA01F123EA01020262C8
:1046E000026A114341F2FF72C4F200029042016279
:1046F0000CDC40F2FF71C4F20001884214DCB0F11E
:10470000804F37D040F2004116E000BF40F2FF3149
:10471000C4F20101884215DC41F60001C4F2000137
:10472000884227D0002115E040F60001C4F20001C4
:1047300088421FD040F60041C4F20001884219D0DF
:104740001FE000BF44F20001C4F20101884211D011
:1047500040F20041C4F20101884212D1416C40F2A2
:10476000004340F48062C4F2010341F400419A42E4
:10477000416406D1816801F00701062904BF0020C9
:104780007047016841F0010101600020704700009E
:1047900010B540F24841C2F20001884262D040F2B6
:1047A000D841C2F20001884218BF10BD40F2180083
:1047B000C2F20000FCF766F940F2E80440F244005F
:1047C000C2F20004C2F2000084ED010AFCF75AF9BB
:1047D00094ED013AB1EE402A94ED085A33EE400AC6
:1047E000B6EE003A94ED064A20EE030A94ED071A5D
:1047F00084ED030A35EE400A84ED022A34EE002AE5
:10480000B4EE412AF1EE10FA84ED062A06DCB1EE90
:10481000411AB4EE412AF1EE10FA03DAB0EE412A61
:1048200084ED061A94ED051A94ED043A22EE011A6D
:1048300023EE000A30EE011AB3EE0E0AB4EE401A6F
:10484000F1EE10FA0ADCBBEE0E2AB4EE421AB0EE1C
:10485000410AF1EE10FAB8BFB0EE420A84ED000A48
:1048600010BD00BF01F0DCFB40F2E804C2F200041E
:1048700084ED0F0A01F0CCFB40F21800C2F20000F8
:1048800084ED0C0AFCF738F940F24400C2F2000053
:10489000BDE81040FCF730B97047000070470000D9
:1048A00070470000B0B582B001680A68CC684B69F7
:1048B00002F02F05202D04F0200505D125B102B00E
:1048C000BDE8B04002F080B85FEA027C1EBF03F092
:1048D000010E04F4907313EB0E0341D1036BD50664
:1048E00018D5012B16D114F0100313D00022019219
:1048F0000A6801924A680192019A496949064BD4B3
:10490000818DC28DC38D002B18BF914240F006826D
:1049100002B0B0BD13062DD514F080032AD090F854
:104920004120212AF4D18268B2F5805F03D1026967
:10493000002A00F07982026A531C036212784A60EE
:10494000C28C013A1304C284E2D1C86820F080000E
:10495000C860C86840F04000C86002B0B0BD00BF89
:10496000D30718BF14F4807340F0E280530700F1BE
:10497000E580EAE05206CBD514F04002C8D0CA6800
:1049800022F04002CA60202180F8411002B0BDE848
:10499000B04000F0BBBC00BFC26B11684B68858D96
:1049A00099B2002900F0B480A94280F0B180C3859B
:1049B000D169B1F5807F00F0A080016851E8031F44
:1049C000026821F4807142E80313DBB1016851E809
:1049D000031F026821F4807142E8031393B1016858
:1049E00051E8031F026821F4807142E803134BB1C0
:1049F000016851E8031F026821F4807142E8031343
:104A0000002BDAD1016851E8051F026821F001018D
:104A100042E80513BBB3016851E8051F026821F0A5
:104A2000010142E8051373B3016851E8051F0268EC
:104A300021F0010142E805132BB3016851E8051F7D
:104A4000026821F0010142E80513002BDAD11AE0D7
:104A5000016851E8051F026821F0400142E8051392
:104A6000DBB1016851E8051F026821F0400142E80E
:104A7000051393B1016851E8051F026821F0400158
:104A800042E805134BB1016851E8051F026821F0A7
:104A9000400142E80513002BDAD1202180F84210B2
:104AA00000210163016851E8031F026821F0100131
:104AB00042E80313DBB1016851E8031F026821F0EB
:104AC000100142E8031393B1016851E8031F026823
:104AD00021F0100142E803134BB1016851E8031FB4
:104AE000026821F0100142E80313002BDAD1C16BF8
:104AF00004460846FDF758FA204602214163818D9D
:104B0000C28D891A89B202B0BDE8B040FFF7C6BEB7
:104B10008D427FF4FDAED269B2F5807F7FF4F8AEAE
:104B20000222426302B0BDE8B040FFF7B7BE00BF4B
:104B3000436C43F001034364530706D5BEF1000FF5
:104B400003D0436C43F002034364930706D5BEF1E0
:104B5000000F03D0436C43F004034364BCF1000F27
:104B600006D55EEA050303D0436C43F008034364B3
:104B7000436C002B3FF4CCAE920605D525B104461C
:104B800001F022FF216820464969426C01F0400192
:104B900002F00802891800F0B98000BF016851E8EE
:104BA000031F026821F4907142E80313BBB301684C
:104BB00051E8031F026821F4907142E8031373B3B4
:104BC000016851E8031F026821F4907142E8031361
:104BD0002BB3016851E8031F026821F4907142E889
:104BE0000313002BDAD11AE0016851E8051F0268AF
:104BF00021F0010142E80513DBB1016851E8051F0E
:104C0000026821F0010142E8051393B1016851E8FF
:104C1000051F026821F0010142E805134BB101684C
:104C200051E8051F026821F0010142E80513002B3D
:104C3000DAD1016B012924D1016851E8031F026810
:104C400021F0100142E80313DBB1016851E8031FB2
:104C5000026821F0100142E8031393B1016851E8A2
:104C6000031F026821F0100142E803134BB10168F1
:104C700051E8031F026821F0100142E80313002BE2
:104C8000DAD1202180F842100021016301684969CE
:104C9000490640F1C380016851E8051F026821F010
:104CA000400142E80513DBB1016851E8051F0268C5
:104CB00021F0400142E8051393B1016851E8051F56
:104CC000026821F0400142E805134BB1016851E848
:104CD000051F026821F0400142E80513002BDAD1DC
:104CE000C16B002900F09A8046F6BD12C0F60002A2
:104CF000044608460A65FDF79FF900283FF408AE10
:104D0000E06B016D02B0BDE8B04008470446FFF714
:104D1000C7FD0020606402B0B0BD00BF891A00BFAB
:104D2000026852E8032F036822F4907243E80325D7
:104D3000BDB3026852E8032F036822F4907243E87F
:104D4000032575B3026852E8032F036822F49072BA
:104D500043E803252DB3026852E8032F036822F4C9
:104D6000907243E80325002DDAD11AE0026852E878
:104D7000052F036822F0010243E80525DDB1026832
:104D800052E8052F036822F0010243E8052595B19A
:104D9000026852E8052F036822F0010243E8052566
:104DA0004DB1026852E8052F036822F0010243E882
:104DB0000525002DDAD1202280F84220002202634E
:104DC000026852E8032F036822F0100243E803252B
:104DD000DDB1026852E8032F036822F0100243E8B5
:104DE000032595B1026852E8032F036822F01002F0
:104DF00043E803254DB1026852E8032F036822F00F
:104E0000100243E80325002DDAD1022289B2426361
:104E100002B0BDE8B040FFF741BD00BF02B0BDE841
:104E2000B040FFF73DBD00BF026A32F8023B6FF3AE
:104E30005F234B60026283E5002804BF01207047B6
:104E400010B5044690F8410028B9002084F84000CD
:104E5000204600F021F8242084F841002068C16831
:104E600021F40051C160204601F02EFE2068016946
:104E700021F490410161416921F02A014161C16839
:104E800041F40051C16000202021606484F8411089
:104E900084F84210606310BD10B586B0006841F21E
:104EA0000042C4F2010200219042CDE90411CDE993
:104EB0000211019134D044F60041C4F2000188424D
:104EC0005ED1002043F630010090C4F202010A696D
:104ED00042F400220A610A6902F400220092009A58
:104EE00000900A6842F004020A60096801F00401B7
:104EF000009100994FF4406101910221CDE9021027
:104F00000820059040F600000491C4F2020001A9B7
:104F1000FDF7A4FA34200621002234242BE000BF40
:104F200043F630000091C4F20200426942F02002D0
:104F30004261426902F020020092009A00910268E8
:104F400042F004020260006800F004000090009843
:104F5000C02001900220CDE90201049008200590B4
:104F600040F60000C4F2020001A9FDF777FA4720DD
:104F7000072100224724FEF789FB2046FEF774FB39
:104F800006B010BD90F84230202B07D100294FF019
:104F9000010318BF002A05D118467047022318469E
:104FA000704700BF00230363816222218285C2858E
:104FB000436480F842100169006819B1C16841F486
:104FC0008071C160416941F001014161C16841F0F6
:104FD0002001C1601846704740F22051C2F2000122
:104FE000884218BF704740F29C00C2F2000001786E
:104FF0004278552902D0002A00F0AD802DE9F04317
:10500000531CDFB202440B2F43709170C0F0A1809B
:105010008178C57890F8049042792944494490F801
:1050200006E01144C479714490F808C00E1990F854
:105030000980664406EB0801867AC77A3144394410
:10504000037BC9B2994240F08280532D5CD0522D2F
:1050500036D0512D7BD146EA07273FB201EE107AB8
:105060009FED442AB8EEC11A81EE021A49EA0221E4
:105070000AB24EEA04210BB24CEA082100EE102AD3
:1050800040F2140209B2C2F2000292ED002A03EECD
:10509000103A04EE101AB8EEC00AB8EEC33AB8EEF1
:1050A000C44A22EE000A22EE033A22EE042A80EDE0
:1050B000040A80ED053A80ED062A80ED0D1A46E0DF
:1050C00049EA02214EEA04224CEA082309B212B24C
:1050D0001BB200EE101A9FED261A02EE102A03EE04
:1050E000103AB8EEC00AB8EEC22AB8EEC33A20EEC3
:1050F000010A22EE012A23EE011A80ED070A80ED53
:10510000082A80ED091A22E049EA02214EEA042227
:105110004CEA082309B212B21BB200EE101A9FED3E
:10512000131A02EE102A03EE103AB8EEC00AB8EED7
:10513000C22AB8EEC33A20EE010A22EE012A23EE7B
:10514000011A80ED0A0A80ED0B2A80ED0C1A00216D
:105150004170BDE8F04340F2205040F29C01C2F2A1
:105160000000C2F200010122FFF70CBF0000B43BB7
:1051700000007A3D0000C8422DE9F04381B00446AA
:1051800090F84100202809D100294FF0010018BFF4
:10519000002A07D101B0BDE8F08300BF022001B0B2
:1051A000BDE8F0830020606421201D460E4684F88F
:1051B00041001746FDF728FAA784E784A1688146D5
:1051C000B1F5805F02D1206900285DD0374600200C
:1051D000E28C2168002A5DD06A1C24D0002D4AD0C0
:1051E000804600BF0868000608D4FDF70DFAA0EB62
:1051F0000900A8427AD82168C868F3E717B117F800
:10520000010B04E038F8020B00276FF35F204860C1
:10521000E08C0138E084E08C0028E3D13AE000BF64
:105220000A68120609D40A68120606D40A68120629
:105230005CBF0A685FEA0262F2D51FB117F8012B62
:1052400005E000BF30F8022B00276FF35F224A60B1
:10525000E28C013AE284E28C002AE4D11AE000BF39
:1052600030F8022B00276FF35F224A60E28C013A8C
:10527000E284E28C72B10A68120635D5002FEFD0B5
:1052800017F8012BF1E700BF00273046E28C2168B8
:10529000002AA1D1086840061ED42DB3681C14D181
:1052A000086840062AD40868400627D408684006E3
:1052B00024D4086840064FF00000F1D50DE000BF8F
:1052C0002068C1680068400618D4FDF79DF9A0EB7E
:1052D0000900A842F4D909E00020202184F84110F7
:1052E00001B0BDE8F08300BFFDF78EF90320202157
:1052F00084F8411001B0BDE8F08300BF00202021F8
:1053000084F8411001B0BDE8F08300007047000050
:10531000FEE7000040F25830C2F20000FDF77EB90F
:1053200040F25830C2F20000FDF720BA40F2AC3033
:10533000C2F20000FDF772B940F2AC30C2F20000D8
:10534000FDF714BA10B581B000210091806B40F2D6
:105350001001C2F2000190F83DC009684BF2895279
:10536000C908C1F2F842A1FB0212110A23225143DB
:105370000091009901B30099013900910268116808
:1053800089051DD50099B9B10099013900911168BD
:10539000890515D5009979B10099013900911168F5
:1053A00089050DD5009939B100990139009111682D
:1053B0008905DED404E000BF016C41F020010164E6
:1053C000446B4FF0000E002C1CBF0021E163816B89
:1053D00000291CBF0022CA630268002C136823F452
:1053E00080631360A0F82AE018BFC4F850E00029D9
:1053F0001CBF00230B65116821F00101116090F8BA
:105400003D1060290CD1202180F83D10002180F84A
:105410003E10016401B0BDE81040FDF7FBB800BFCD
:105420000CF02801282911D1116841F00101116007
:10543000116841F48061116000210163282180F826
:105440003D1001B0BDE81040FDF792BC202180F86E
:105450003D10002180F83E1001B0BDE81040FDF77E
:1054600087BC000010B5846B616B00291CBF002253
:10547000CA63A16B00291CBF0022CA63FCF7EEFDC2
:10548000022808BF10BD2068016821F48061016016
:1054900000202021608584F83D1084F83E00206CB7
:1054A00040F0100120462164BDE81040FDF760BCCB
:1054B00010B5846B94F83D2094F83EE0D4F82CC0ED
:1054C0002168606B4B68002823F440734B601CBF5D
:1054D0000023C363A06B00281CBF0023C36302F03A
:1054E0002100212820D002F02200222808BFBEF18E
:1054F000200F19D094F83E00002808BF10BD608D21
:10550000012803D1086820F4806008604868BCF175
:10551000070F20F44070486028DCBCF12A4F2BD0E4
:105520001CF5803F28D02BE048682A2A20F4006030
:1055300048604FF0000060850AD0292A10D1212050
:105540002063282084F83D002046FEF721F807E07C
:1055500022202063282084F83D002046FEF716F81C
:105560002068416841F44071416010BDBCF1200FDA
:1055700002D0BCF1080F03D1086840F40070086045
:10558000486820F480504860486820F40060486013
:1055900000216185206C28B12046BDE81040FDF750
:1055A000E7BB00BF202084F83D0094F83E0084F85B
:1055B0003E10402806D120462163BDE81040FDF78B
:1055C000DBBC00BFBCF1080018BF1220BCF12001F9
:1055D00018BF014620462163BDE81040FDF79CBC82
:1055E00010B5044690F83D1090F83E00B0F110025E
:1055F00018BF0122403818BF0120024208BF2229EB
:1056000034D001F0280028283AD100202063282037
:1056100084F83D0020684168090542D5416821F4BD
:1056200000614160606B90F83510012958D1A06B82
:1056300045F24531C0F600010165FCF7FDFC00288C
:1056400061D020684169490606D50069616A087021
:10565000616A206801316162016821F00101016025
:10566000202084F83D00A06B4BE000BF206802685A
:1056700022F4006202604268120505D50CE000BF0A
:1056800020684268120507D4602905D0202184F8DB
:105690003D10002184F83E10002121634168090576
:1056A000BCD494F83D10602950D1202184F83D10DD
:1056B000002121644169490606D50069616A0870C4
:1056C000616A206801316162016821F001010160B5
:1056D0002046FCF79FFF206C000717D11BE000BF9E
:1056E00045F24531C0F600010165FCF7A5FC50B15B
:1056F0002168606B0A6822F001020A60202184F8A8
:105700003D10016D8847206C000704D02068416877
:1057100021F4E061416094F83D00216C490758BFD5
:1057200010BD282810D10020CFF6FF70E0620021C4
:105730002020216384F83D00204684F83E10BDE817
:105740001040FDF7E7BB00BF10BD00BF416949062F
:1057500005D50069616A0870606A013060622046A0
:10576000FDF706FB206C0007D0D1D4E7C16A428D5B
:10577000042A07D10168426A4B6823F480634B60B6
:10578000096911E0428D032A16D102680229536883
:1057900023F48063536005D0042903D0116821F4F9
:1057A000806111601169426A1170416A0131416280
:1057B000418D013941857047428D022A12D14A1E1E
:1057C0000F2A19D8DFE802F0081218121818181852
:1057D00018181818181818080268136823F480633A
:1057E0000EE000BF0168426ACAE700BF02681368A2
:1057F00043F4806304E000BF0268136843F400735D
:1058000013601269436A1A70426AD0F800C0531CD0
:105810004362438D013B4385DCF810305370426A8C
:10582000036801324262428D013A42855A6822F48D
:1058300040725A60202280F83D2090F83E300022CD
:10584000402B80F83E2003D10263FDF795BB00BFDB
:10585000B1F1080218BF1222203918BF11460163A6
:10586000FDF75ABB81B090F83D10222910D1C16AD2
:10587000428D042A0ED30168426A09691170416A97
:1058800001314162418D01394185418D032959D052
:1058900001B07047C36A012A54D8022B52D00022AB
:1058A000009240F21002C2F2000212684BF28953D9
:1058B000D208C1F2F843A2FB03231A0A02EB8202C8
:1058C0000092009A013A0092009A002A42D002689F
:1058D00013689B0517D5009B013B0093009BCBB33E
:1058E00013689B050FD5009B013B0093009B8BB376
:1058F00013689B0507D5009B013B0093009B4BB3AE
:1059000013689B05DDD4136823F480631360536828
:1059100023F4E06353601269436A1A70426A0132E9
:105920004262428D013A4285202280F83D2090F863
:105930003E300022402B80F83E2027D1026301B088
:10594000FDF71ABB0068416821F48061416001B035
:10595000704700BF016C41F0200101640168426A98
:105960004B6823F4E0634B6009691170416A0131AF
:105970004162418D01394185202180F83D1000218F
:1059800080F83E1001B0FDF7F3B900BFB1F1080295
:1059900018BF1222203918BF1146016301B0FDF76C
:1059A000BBBA0000C16A90F83D20212A18BF704799
:1059B000428D4AB1416A026811F8013B13614162AC
:1059C000418D01394185704711F5803F18BF082985
:1059D00018D101684A6822F4E0624A600A6842F419
:1059E00000720A6000212022016380F83D2090F8B7
:1059F0003E2080F83E10402A08BFFDF783BBFDF72C
:105A00008DBA00BF2029E4D001684A6822F4E06220
:105A10004A6011210163002180F83E10202180F8A6
:105A20003D10FDF77BBA000090F83D1090F83EC0A5
:105A3000C26A038D002B08BF212919D0212905D066
:105A4000BCF1400F08BF222900D07047418D69B3D7
:105A500090F83E10402908BF00F040B8416A026843
:105A600011F8013B13614162418D01394185704755
:105A700012F5803F18BF082A1ED101684A6822F437
:105A8000E0624A600A6842F400720A600021202243
:105A9000016380F83D2090F83E2080F83E10402AB7
:105AA00008BFFDF72FBBFDF739BA00BF006841689A
:105AB00021F4806141607047202ADED001684A6885
:105AC00022F4E0624A6011210163002180F83E1057
:105AD000202180F83D10FDF721BA000090F83D101C
