:020000040800F2
:10000000F00D0020A1010008FB570008B3400008D4
:10001000F9570008670F000815600008000000008D
:10002000000000000000000000000000FF57000872
:100030003D10000800000000FD57000801580008AE
:10004000BB010008BB010008BB010008BB010008A0
:10005000BB010008BB010008BB010008BB01000890
:10006000BB010008BB010008BB010008BB01000880
:10007000BB010008690F0008BB010008750F0008EC
:10008000BB010008BB010008B50B0008BB0100085C
:10009000BB010008BB010008BB010008BB01000850
:1000A000BB010008BB010008BB010008BB01000840
:1000B000BB010008A9580008BB010008C1400008A6
:1000C000B5400008BB010008BB010008BB010008E7
:1000D000BB010008BB010008BB010008BB01000810
:1000E000BB010008BB010008BB010008BB01000800
:1000F000CD580008BB010008C1580008BB0100082A
:10010000BB010008BB010008B5580008BB0100088E
:10011000B55B0008BB010008BB010008BB0100087B
:10012000810F0008BB0100088D0F0008BB0100080B
:10013000BB010008BB010008BB010008BB010008AF
:10014000BB010008BB010008BB010008BB0100089F
:10015000BB010008BB010008BB01000809600008E2
:10016000D9400008CD400008BB010008BB010008D1
:10017000BB010008BB010008BB0100080000000033
:10018000BB010008BB010008DFF810D000F0B4FA92
:100190000048004755710008AFF30080F00D0020C3
:1001A0000648804706480047FEE7FEE7FEE7FEE711
:1001B000FEE7FEE7FEE7FEE7FEE7FEE799580008E8
:1001C000890100082DE9F05F0546002092469B4614
:1001D00088460646814640241BE02846414647465D
:1001E000224600F07CF853465A46C01A914110D37B
:1001F00011461846224600F063F82D1A67EB0108F5
:100200004F4622460120002100F05AF817EB000962
:100210004E41201EA4F10104DFDC484631462A4647
:100220004346BDE8F09F40EA01039B0703D009E085
:1002300008C9121F08C0042AFAD203E011F8013BD2
:1002400000F8013B521EF9D27047D2B201E000F82B
:10025000012B491EFBD270470022F6E710B513466A
:100260000A4604461946FFF7F0FF204610BD00F08D
:10027000004230F000400AD0C10D01F56071C0F3BA
:10028000160042EA0151C20840071143704700209E
:100290000146704730B50B4601460020202201245C
:1002A00009E021FA02F59D4205D303FA02F5491B44
:1002B00004FA02F52844151EA2F10102F1DC30BD5A
:1002C000202A04DB203A00FA02F100207047914016
:1002D000C2F1200320FA03F3194390407047202A0B
:1002E00004DB203A21FA02F00021704721FA02F3E0
:1002F000D040C2F120029140084319467047F0B443
:1003000000F0004221F0004120F00040CE0DC30D6E
:10031000C1F3160141F40001C0F316004C4215462A
:1003200040F40000761E09E010EB440002D582F094
:10033000004240428842F7D840005B1EB342F9DADF
:1003400018B1F0BC002100F004BA2846F0BC704798
:100350002DE9FE4F804681EA0300C00F0C46009055
:1003600021F0004123F00045B8EB0200A94105D27D
:100370004046214690461C460B46024623F000406C
:10038000104347D0270DC7F30A00C3F30A51029068
:10039000401A019040286BDAC3F3130040F4801B2D
:1003A0000098924620B10023D2EB030A63EB0B0BBB
:1003B00001985946C0F140025046FFF781FF0646BA
:1003C0000D4650465946019A00F0A8F910EB080076
:1003D0006141002487EA115284EAE7731A4340D04E
:1003E000009A62B3019A012A4FEA075215DC001BFA
:1003F00061EB02014FF0004202EA0752CDE90042F0
:10040000001C41F5801132462B4600F0DFF903B0A5
:10041000BDE8F08F40462146F9E7001B61EB020181
:10042000001C41F5801300185B412018A2F500174D
:1004300047EB030140EAD570B6196D4111E06D0834
:100440004FEA360645EAC0754FEA0752001B61EBDA
:100450000201001C41F5801149084FEA30000019E3
:10046000514132462B4603B0BDE8F04F00F09FB932
:100470000098012240000023D0EB020263EBE073FE
:10048000009821464FEAE074B8EB000061EB0401EC
:10049000E9E783F000435BE781F0004158E72DE98D
:1004A000FE4F81EA030404F0004421F0004100946F
:1004B0004FF0000B23F0004350EA01045ED052EAF3
:1004C00003045BD0C3F30A54C1F30A552C44A4F2CD
:1004D000F3340194A0FB0254C1F3130141F48011E1
:1004E000C3F3130343F4801301FB024400FB034EE8
:1004F000840A970A44EA815447EA8357A4FB0768B1
:1005000002958D0A05FB07854FEA932C04FB0C54DA
:100510002705029D4FEA065847EA1637B5EB08054E
:100520006EEB070C870E920E47EA811742EA8312A0
:10053000A7FB0201B6EB0B0164EB00042B0D43EAB1
:100540000C335E1844EB1C50DA465146E7FB0201BF
:10055000C5F313044FEA0B3343EA14534FEA043252
:10056000019C43EA0603A4F10C040294009CCDE92B
:1005700000B400F02BF903B0BDE8F08F0020014675
:10058000F9E72DE9F04D81EA030404F0004B21F076
:10059000004514464FF0000A23F0004150EA0502DE
:1005A00020D054EA01021DD0C5F30A570246C5F314
:1005B0001303C1F31300C1F30A5640F4801543F44A
:1005C0008013A7EB0608101BD64608F2FD3873EB24
:1005D000050002D308F1010801E092185B41B8F16F
:1005E000000F03DA00200146BDE8F08D00204FF433
:1005F0008011064684460EE0171B73EB050705D3F2
:10060000121B63EB050306434CEA010C49084FEA51
:10061000300092185B4150EA0107EDD152EA030025
:1006200012D082EA040083EA0501084305D0101BBA
:10063000AB4106D20122002306E000224FF0004326
:1006400002E06FF0010253101AEB06004CEB085168
:1006500010EB0A0041EB0B01BDE8F04D00F0A7B82C
:10066000C1F30A52C1F3130140F2FF3341F4801188
:100670009A4202DA00200146704740F233439A4220
:10068000A2F2334202DC5242FFF729BEFFF718BE46
:1006900030B5041E71F1000404DB4FF00044404209
:1006A00064EB0101141E73F1000405DB1C464FF0DE
:1006B0000043524263EB0403994208BF904230BDAD
:1006C000002801DBC0F10040002901DBC1F100413D
:1006D000814202D24FF0004004E04FF0005001D1BF
:1006E0004FF0C0404FEA2062EFF3008162F31F61D8
:1006F00081F3008870470000064C074D06E0E06873
:1007000040F0010394E8070098471034AC42F6D358
:10071000FFF73EFDF8AF000818B00008202A06DBFE
:10072000CB17203A41FA02F043EAE07306E041FABF
:1007300002F3D040C2F120029140084319467047AD
:100740000029A8BF7047401C490008BF20F00100E5
:10075000704710B4B0FA80FC00FA0CF050EA0104C3
:1007600004BF10BC704749B1CCF1200421FA04F455
:1007700011FA0CF118BF012121430843A3EB0C012E
:10078000CB1D4FEA00614FEA102042BF002010BC91
:10079000704700EBC35010440029A4BF10BC704741
:1007A000401C490008BF20F0010010BC704710B584
:1007B000141E73F1000408DA401C41F10001921884
:1007C0005B411A4301D120F0010010BD2DE9F04D2D
:1007D00092469B4611B1B1FA81F202E0B0FA80F282
:1007E00020329046FFF76CFD04460F4640EA0A00AF
:1007F00041EA0B0153465A46084313D0114653EAC7
:10080000010019D0C8F140025046FFF768FD0546C7
:100810000E46504659464246FFF752FD084305D062
:10082000012004E020463946BDE8F08D0020054354
:1008300046EAE0762C4337430A986305E40AA0EBC6
:1008400008000022FD0A44EA47540A3002D500207D
:100850000146E9E7010510196941DDE9084500197C
:100860006941BDE8F04DA2E72DE9F05F23494FF063
:10087000000846460A68454644464FF4FA79C2F8ED
:1008800034800A68C2F838800968C1F83C801C4985
:100890000A68C2F834800A68C2F838800968C1F86A
:1008A0003C80322001F086FDDFF858A000270AF1D5
:1008B000040B00BFBAF80200BAF800200644BBF8E7
:1008C0000200BBF80010044490440D44012001F0E4
:1008D00071FD7F1C4F45EDDB4846B8FBF0F209493E
:1008E00018398A81B6FBF0F2CA81B5FBF9F2B4FB84
:1008F000F9F00A824882BDE8F09F0000DC04002085
:100900006C0500202800002010B50146806B026CA9
:1009100012F0500F05D0026CD20626D501F019F95D
:1009200010BD016C41F40071016401688A6812F025
:10093000405F17D1027EAAB9CA6A12F4700F02D0C2
:100940008A6852050ED44A6822F020024A60016C7F
:1009500021F480710164016CC90403D4016C41F07D
:100960000101016401F0F2F810BD806BC26CBDE8BA
:1009700010400846104710B5806B40210164416C5F
:1009800041F00401416401F0E4F810BD10B5806B42
:1009900001F0DEF810BD000070B564492DED048B48
:1009A00000680968DFED628A9FED628A0125624C6A
:1009B00088425AD104F118000188A1804088E08063
:1009C000A088A189401AE188E2898E1A06F0B6FA59
:1009D000B0EE409A304606F0B1FA5849A08A574A1C
:1009E00001EB800194ED0C1AD1ED000A403202EBCC
:1009F000800231EE601AD2ED000AD4ED0D1A81EDBD
:100A0000009A31EE091A71EEE00A82ED000A84EDD7
:100A10000C1A401C70EE800A00F00F0021EE280A2C
:100A2000C4ED0D0AA08260EEA80A2078B8B194ED5A
:100A3000081A30EE411A94ED080A01EE080A84ED16
:100A4000080A94ED090A70EEC00A94ED090A00EE56
:100A5000880A84ED090AA570BDEC048B70BD84ED95
:100A6000080AC4ED090A2570F5E735490968884286
:100A7000F2D131481C300188218140886081208971
:100A8000218A401A6189628A8E1A06F057FAB0EEFE
:100A9000409A304606F052FA2849E08A803101EB4C
:100AA0008001F0EE400A91ED000A94ED0E1A234AFF
:100AB000C03271EE401A02EB800294ED0F1A92EDF3
:100AC000000A81ED009AC2ED000A31EE401A31EEC3
:100AD000890A401C00F00F0031EE201A84ED0E0A46
:100AE00060EE280A84ED0F1AE08221EE280A607871
:100AF000A8B194ED0A1A30EEC11AD4ED0A0A41EEFB
:100B0000080AC4ED0A0AD4ED0B0A70EE600A94EDEF
:100B10000B0A00EE880A84ED0B0AE5709CE7C4ED31
:100B20000A0A84ED0B0A6570F7E70000E402002072
:100B30000000803D8FC2F53D10000020940700208A
:100B40002C0300200548017811B190ED080A704788
:100B500081888089081A06F0F1B900001000002091
:100B60000548417811B190ED0A0A70470189008A61
:100B7000081A06F0E3B900001000002005480178CB
:100B800011B190ED090A7047C188C089081A06F0B2
:100B9000D5B90000100000200548417811B190ED52
:100BA0000B0A70474189408A081A06F0C7B900004D
:100BB0001000002010B5054800F0CCFF044800F0FC
:100BC000C9FFBDE81040034800F0C4BF9C020020EC
:100BD000E40200202C030020464910B54A6822F4A4
:100BE00040324A604A6843681A434A6001684A686A
:100BF00022F480724A6001684A68036942EA03226B
:100C00004A6001684A6822F040724A6001684A6896
:100C100083681A434A6001688A6822F400628A6025
:100C200001688A68C3681A438A60816A6FF07062DB
:100C3000D14201688A6822F070628A6001688A681D
:100C40000CD0836A1A438A6001688A6822F0405295
:100C50008A6001688A68C36A1A4301E022F0405240
:100C60008A6001688A6822F002028A6001688A68E4
:100C7000037E42EA43028A6090F82010002901684E
:100C80004A680FD042F400624A6001684A6822F460
:100C900060424A6001684A68174C436A04EB433378
:100CA0001A4301E022F400624A600168CA6A22F431
:100CB0007002CA620168CA6A838B104C04EB03534A
:100CC0001A43CA6201688A6822F400728A60016865
:100CD0008A6890F8303042EA43228A6001688A6864
:100CE00022F480628A6001688A68406942EA802052
:100CF000886010BD0023014000E0FFFF0000F0FF0E
:100D000070B53E48002401684C6301688C6301683B
:100D1000CC630068C16A490801642146374802F083
:100D200091FE0421354802F08DFE0821334802F07F
:100D300089FE0C21314802F085FE314801684C6380
:100D400001688C630168CC630068C16A490801646A
:100D500000212B4802F076FE0421294802F072FEA1
:100D60000821274802F06EFE0C21254802F06AFE99
:100D7000244801F019F9244801F016F923480480A9
:100D80004480001D048044801C38047044709FED32
:100D9000200A204A80ED0D0A80ED0C0A80ED0F0A32
:100DA00080ED0E0AC48284820020A2F1400302F189
:100DB000800402F1400100BF02EB800585ED000ACE
:100DC00003EB800585ED000A04EB800585ED000A44
:100DD00001EB8005401C80B285ED000A1028EBD3A2
:100DE00002220A49074801F033F8BDE8704007497C
:100DF0000222091D044801F02BB80000DC04002089
:100E00006C050020E40200202C03002028000020B4
:100E100000000000D40700200068064A06499042FE
:100E200001D108687047054A904201D1486870476F
:100E3000002070470054004050000020005C00403B
:100E400010B190ED030A70479FED010A7047000052
:100E50000000000010B52DED028B90ED090A90ED19
:100E6000031A90F823009FED0B8A00EE900AF8EE2B
:100E7000600A01EE200AF0EE480A05F005FAB5EE28
:100E8000C00AF1EE10FA01D230EE080ABDEC028B76
:100E900010BD0000DB0FC94010B190ED040A70478F
:100EA0009FED010A704700000000000070B50400CB
:100EB00007D031B1144D0B681448AB4203D1046024
:100EC00005E0002070BD124DAB4200D144602160AE
:100ED0009FED100A84F8232084ED090A0025E5809F
:100EE000258184ED030A84ED040A84ED050A01F0EE
:100EF00075FBA06184F8205084F82150204600F052
:100F00001DF8012070BD000000540040500000207A
:100F1000005C00400000000010B504000DD094F803
:100F20002000002809D1206801F0E1FC202804D12C
:100F30002046BDE8104000F001B810BD1CB50028E7
:100F400010D090F8201000290CD1012180F8201039
:100F50000223011DCDE900130E22006801236C213C
:100F600001F00CFE1CBDFEE7014801F0B1B8000025
:100F7000D4060020014801F0ABB80000340700207F
:100F8000014801F0A5B80000D4030020014801F099
:100F90009FB800007403002001681823CAB2103AF9
:100FA000B2FBF3F2054B6FF30901032A9B5CC365A7
:100FB00000D9091D81650846704700007476000855
:100FC00010B5014600208B698A6A4FF0C07453B196
:100FD000B3F5005F15D072B1012A0CD0022A0AD0F5
:100FE000032A09D104E01AB1012A06D0022A03D14A
:100FF000C96AC90100D5012010BDC96AA142FAD051
:1010000010BD002AF7D0012AF2D0022AF3D0032A19
:10101000F3D010BD30B50468256825F4802525601F
:10102000046863608368402B036803D0996000689C
:10103000C26030BD9A600068C16030BD704772B652
:10104000FEE7000010B586B0040008D01422054960
:101050006846FFF7E8F86946204600F069FB06B0ED
:1010600010BD0000B0AF000810B504002DED068BD8
:1010700086B07DD0D4F8D400002879D0D4F8CC0044
:1010800000287CD0D4F8D80008B1804701E0B2EE47
:10109000080A9FED3E8AF0EE408A9FED3B0A04A9C4
:1010A00003A868EE809AF0EE481AB7EE001AF0EE48
:1010B000480AB0EE690A00F0C1F902AA01A968461F
:1010C000B0EE681ADDED040A9DED030A00F0B2FAF5
:1010D000D4F8D400CC349DEC030A8047C82001F03A
:1010E00069F920688047DFED2AAAF0EE400AB0EEE9
:1010F00060AAB0EE6A0A04F0D7FFB0EE409AB0EEF4
:101100006A0A05F019F9F0EE401A04A903A8B0EE36
:10111000491AF0EE480AB0EE690A00F08FF902AA07
:1011200001A96846B0EE681ADDED040A9DED030AD8
:1011300000F080FAA0689DEC030A8047C82001F007
:1011400039F920688047F0EE408AA068B0EE481A6E
:10115000F0EE480AB0EE480ACC3C804738EECA0AA6
:1011600000F07AF9B5EEC00AF1EE10FA03DB00E008
:1011700005E0012001E04FF0FF3084F8CA0006B01E
:10118000BDEC068B10BD0000CDCC4C3E0000000035
:101190003333B33E70B504002DED028B86B074D0AE
:1011A000D4F8D400002870D0D4F8CC0000286CD03B
:1011B000D4F8D80008B1804701E0B2EE080A9FEDEC
:1011C000368AF0EE402A9FED330AF0EE480A01A974
:1011D00022EE800A6846F0EE601AB7EE001A00F0C0
:1011E0002DF99DEC020A04AA03A902A8B0EE621A26
:1011F00000F020FA02A9D4F8D40091EC030A804749
:1012000000254FF49676022001F0D4F8D4F8CC00F3
:1012100000B180476D1CB542F5DBD4F8CC008047A7
:1012200094F9CA0000EE900A2078F8EEE00A60EE29
:10123000800A00EE100AB8EE400A20EEC00A84EDE3
:101240000D0A9FED160AD4ED0D0A03E070EE800A38
:10125000C4ED0D0AF5EEC00AF1EE10FAF6D310490E
:1012600010EE900A884204DB70EEC00AC4ED0D0A4D
:10127000F6E7B0EE480AD4F8D400B0EE401AF0EE2B
:10128000400A8047C82001F095F806B0BDEC028BFB
:1012900070BD0000CDCC4C3E00000000DB0FC9400B
:1012A000DB0FC94080ED000A30EEC10ADFED030A12
:1012B00020EE200A81ED000A704700003ACD133F6E
:1012C000002804D0021D82EC030A80F8C910704780
:1012D00000B5B0EE404A90ED110A0146F0EE604ACA
:1012E000B1EE400A603000F03DF981ED130A91ED56
:1012F000120AF0EE640A01F1780034EE400A00F0C0
:1013000031F981ED140A91F8C900002824D0087839
:1013100091ED0C1A00EE900AD1ED131AF8EE600A66
:1013200061EE200A91ED031A20EEC12A91ED121A06
:1013300042EE011AC1ED131AD1ED021A61EEA00AB4
:10134000D1ED111A60EEA10AD1ED011A41EE810A28
:1013500030EE800A81ED140A00BD000070B50D4624
:1013600004005BD0EDB3E021FEF776FF257001208D
:1013700084F8C8009FED2A0A84F8CA0084ED010AA7
:101380009FED280AF2EE081A84ED020A84ED030AA2
:1013900084F8C900C4ED041AB0EE000A84ED050A11
:1013A00000209FED212A2076DFED202A84ED072AF8
:1013B00084ED082A84ED092AB0EE421AF0EE620AA2
:1013C000B7EE080A04F1600000F0B0F8D4ED041A9A
:1013D000B0EE421AF0EE620AB7EE080A04F17800A5
:1013E00000E01BE000F0A2F8D4ED051AB0EE421ABE
:1013F000F1EE000A9FED0E0A04F1900000F096F85D
:10140000DFED0C1A9FED0C1AF0EE420AB3EE040A5F
:1014100004F1A80000F08AF8012070BD002070BD22
:10142000333313409F71613A0000000000002042F6
:10143000CDCC4C3E0000C842CDCCCC3D20EE012AA4
:1014400020EE210A00EEE12A00EE810A80ED002A5A
:1014500081ED000A70470000DFED090A094901E04B
:1014600030EE600A10EE100A8842F9DC064900BF2F
:1014700010EE100A884202D930EE200AF8E77047D1
:10148000DB0FC940DB0F4940DB0F49C010B5B0EEA0
:10149000404A9FED250A017E024649B102F19000C3
:1014A0000346012907D002290ED0032923D110BDFC
:1014B00092ED070A1FE092ED070AD2ED0C0A30EE1A
:1014C000600AF0EE440A14E092ED070AD2ED0A0A2F
:1014D00030EE600AFFF7C0FFF0EE440A02F1A80008
:1014E00000F040F8D2ED0C0A184630EE600AF0EE3B
:1014F000440A00F037F892ED051AB4EEC01AF1EE86
:1015000010FA01D2B0EE410AB1EE411AB4EEC01A9F
:10151000F1EE10FA01DDB0EE410ABDE81040F0EE48
:10152000440A1046FFF7D4BE00000000002809D08E
:10153000C0ED051A80EC030A9FED030A80ED040A52
:1015400080ED030A7047000000000000002805D06D
:101550009FED030A80ED040A80ED030A7047000046
:101560000000000020B1F5EEC00AF1EE10FA02D83A
:101570009FED270A704790ED042A90ED001ADFEDE9
:10158000251A00EE202A61EE002A80ED042A90ED53
:10159000013A90ED051A73EE213AC1EE231AB4EE2A
:1015A000E12AF1EE10FA01DDC0ED041A90ED042AF3
:1015B000F1EE611AB4EEE12AF1EE10FA02D3F0EE88
:1015C000421A01E0C0ED041A63EE211A90ED033ACD
:1015D00090ED022A80ED030A30EE433A32EEA10A82
:1015E00022EE033A83EE202A30EE020AB4EEC01A4D
:1015F000F1EE10FA01D2B0EE410AF1EE410AF4EE3A
:10160000C00AF1EE10FAB5DDB0EE600A70470000D6
:1016100000000000BD37863520EE012A00EEA12A29
:1016200060EE810A40EE610A80ED002AC1ED000AF9
:101630007047000070B5F0EE601A2DED068BBEEE1F
:1016400000AAB0EE408A60EE0A0A9FED310A154604
:101650000C46B0EE609A41EE800A01EEC09A064652
:10166000F0EE419AB0EE480AF0EE608A04F0C4FD54
:10167000F0EE490A04F0C0FDF0EE40AAF0EE680A70
:10168000B0EE480A04F0DCFDF0EE490A04F0D8FDA3
:10169000F0EE400A3AEEA00ADFED1E0A60EE0A1AEA
:1016A00038EE210A29EEA08A86ED000A38EEA10A5A
:1016B00084ED000A39EE210A85ED000AF0EEC00A39
:1016C00094ED000AB0EEC00A04F096FDD6ED008A53
:1016D000F0EE400AB0EEE80A04F08EFDB4EEC80A5F
:1016E000F1EE10FA11DDC8EE000A28EEA00A86ED30
:1016F000000A94ED000A20EE200A84ED000A95ED20
:10170000000A20EE200A85ED000ABDEC068B70BDB4
:10171000D7B35D3FEFC9133F002808D0B5EEC00A2C
:10172000F1EE10FA03D980ED050A80ED290A704721
:10173000002805D0002903D01422CC30FEF773BD59
:101740007047002800D001767047002815D080ED42
:10175000080AD0ED040AB4EEE00AF1EE10FA01DD59
:10176000C0ED080A90ED081AB1EE600AB4EEC01A96
:10177000F1EE10FA01D280ED080A7047002801D07E
:1017800080ED070A704700280AD0B5EEC00AF1EED6
:1017900010FA05D980ED040A80ED1D0A80ED230AB8
:1017A00070470000F0B504002DED068B87B07DD0AA
:1017B00094F8C800002879D0DFED8A8AD4F8CC00EC
:1017C00050B1804794F9CA0000EE900AF8EEE00AA2
:1017D00020EE200A84ED0A0AD4F8D03023B104F1B7
:1017E0004002111F081F9847D4F8DC0008B1804759
:1017F00002E07D48FFF750FB94F9CA0000EE900A22
:10180000F8EEE00A20EE800A84ED0C0AD4ED0A0A14
:10181000C4ED300A207894ED0D0A01EE100AB8EEFE
:10182000411A00EE810A9FED718AF0EE480A04F039
:101830002BFDB5EEC00A84ED0B0AF1EE10FA03D2CF
:1018400030EE080A84ED0B0A04F1380201A992EC8B
:10185000030A6846FFF726FD94ED0B0A04F024FC0A
:10186000F0EE409A94ED0B0A04F066FDB0EE409A5B
:1018700004F148019DEC020A081FF0EE491AB0EE8F
:10188000691AFFF7C9FEB0EE680A2046FFF7FEFDB1
:10189000207E9FED57AA04F15C073E1F351F0328E9
:1018A00012D0D4ED140A94ED130A00E055E003A918
:1018B00002A8F0EE491AB0EE691AFFF7BFFDD4F89E
:1018C000D800A0B380474EE094ED090AD4ED070A92
:1018D000484900EEA80A10EE100A84ED090A884271
:1018E00003DB30EE480A84ED090AB5EEC00AF1EEDA
:1018F00010FA03D230EE080A84ED090A04F0D4FB92
:10190000B0EE408A94ED090A04F016FDF0EE401A9C
:10191000D4ED080A05A904A8B0EE481AB0EE4A0AA8
:10192000FFF78CFDD4F8D80010B1804702E018E032
:10193000B2EE080A3A46B0EE401A31462846DDEDCE
:10194000050A9DED040AFFF775FED4F8D4000028BF
:1019500003D0543494EC030A804707B0BDEC068BE7
:10196000F0BDB2EE080A3A46B0EE401A31462846BB
:10197000DDED030A9DED020AFFF75CFED4F8D4000A
:1019800020B104F1540191EC030A804794ED110A4F
:10199000D4ED120A20EE000A00EEA00A04F094FD35
:1019A000D4ED050A9FED141A60EE810AF4EEC00A28
:1019B000F1EE10FAD1D2D4F8D40030B1B0EE4A0A28
:1019C000B0EE401AF0EE400A804704F16000FFF7E5
:1019D000BDFD04F17800FFF7B9FD04F19000FFF7B9
:1019E000B5FDBAE717B7513864010020DB0FC940D5
:1019F00000000000DB0FC9409A99993F7047000032
:101A000078B50024009490F83C20012A19D00122D6
:101A100080F83C200A6807230568092A13D9EE6874
:101A20000A3A02EB420293409E43EE600B788A68CA
:101A30000A3B03EB43039A400368DD682A43DA60FC
:101A400010E0022078BD2E6902EB420293409E43D3
:101A50002E610B788A6803EB43039A4003681D6983
:101A60002A431A614A681F23072A13D205686E6B3E
:101A7000521E02EB820293409E436E630B790A88EA
:101A80005B1E92B203EB83039A4003685D6B2A43AB
:101A90005A6327E005680D2A12D22E6BD21F02EB83
:101AA000820293409E432E630B790A88DB1F92B219
:101AB00003EB83039A4003681D6B2A431A6311E00A
:101AC000EE6A0D3A02EB820293409E43EE620B797E
:101AD0000A880D3B92B203EB83039A400368DD6AE8
:101AE0002A43DA62164B0568144A9D4206D10D68F6
:101AF000122D03D1556845F48005556005689D4257
:101B000018D10B68102B01D0112B13D1536843F45B
:101B100000035360096810290CD10A490A4A096870
:101B2000B1FBF2F101EB8101490000E0491E009197
:101B30000029FBD180F83C40002078BD0023014003
:101B4000002001400C00002040420F00FEF724BF9F
:101B50007047704770B5044600680668456816F01F
:101B6000020F05F020012AD049B3216CC90603D425
:101B7000216C41F400712164816811F0405F17D13C
:101B8000217EA9B9C16A11F4700F02D0816849059C
:101B90000ED4416821F020014160206C20F4807057
:101BA0002064206CC00403D4206C40F00100206449
:101BB0002046FFF7CBFF21686FF01200086016F097
:101BC000040F05F0800132D089B3206CC00603D425
:101BD000206C40F4005020642068816811F4401F9C
:101BE0001ED1816B11F4401F02D08168490517D4C2
:101BF0004168490514D4816811F0405F10D1217EFD
:101C000071B9416821F080014160206C20F480505E
:101C10002064206CC00503D4206C40F001002064D7
:101C20002046FFF7EBFE21686FF00C00086016F00D
:101C3000010F05F040010FD071B120680068C007A6
:101C40000AD0206C40F480302064204600F043F835
:101C500021686FF00100086016F0200F05F0806128
:101C60000ED000290CD0606C40F002006064206847
:101C70006FF0200505602046FFF76BFF20680560C8
:101C800070BD70B504004FF0000503D0206C002635
:101C900010B107E0012070BD204600F01DF8666419
:101CA00084F83C60206CC00610D4206C20F488506E
:101CB00040F0020020642046FEF78EFF6664206C30
:101CC00020F0020040F00100206400E0012584F8CB
:101CD0003C60284670BD70472DE9F04F87B006463E
:101CE00014216846FEF7B8FA5149504F3368002571
:101CF0004F48143903244F4ABB4217D1036843F4B9
:101D000080730360006800F480700590086840F0FC
:101D1000010008600868694600F001000590102085
:101D20008DE83100104600F057FB44E0DFF808C1B1
:101D30004FF480674FF400684FF400594FF4807AF5
:101D40004FF4403B634541D1036843F400730360A3
:101D5000006800F400700590086840F00100086019
:101D6000086800F001000590086840F00200086073
:101D70000868694600F00200059020208DE83100D7
:101D8000104600F029FB01208DE8310069462B4800
:101D900000F022FB2B4C2A4804F10C032060F803CE
:101DA000C4E9010583E8A00F2046656236E000BF64
:101DB000FFF745F936E000220221122001F048F831
:101DC000122001F037F807B0BDE8F08F1E4A9342A9
:101DD000F9D1026842F480620260006800F4806019
:101DE0000590086840F0040008600868694600F043
:101DF0000400059009208DE83100144800F0ECFA49
:101E0000104C0F486034303820608005C4E901056B
:101E100004F10C02204682E8A00F656200F028FA67
:101E20000028C5D1B463A663C5E7000000200140C7
:101E300044380240000002400021014000040240FA
:101E40004064024074030020002201400008024068
:101E5000F8B50E4600210446009190F83C00134668
:101E60000A46012807D0012084F83C0020688568D4
:101E7000ED0702D011E00220F8BD856845F00105AC
:101E800085604048404D0068B0FBF5F000EB400035
:101E900000E0401E00900028FBD120688568ED0519
:101EA00003D5856825F48075856020688568ED0711
:101EB0005DD0226C40F20165AA4342F48072226434
:101EC0004068400505D5206C20F4005040F4805057
:101ED0002064206CC00404D5606C20F006006064AF
:101EE00000E0616484F83C10A16B2948274DC86369
:101EF000A16B28480864A16B2748C86421686FF06B
:101F0000220008602068416841F0806141602068DB
:101F1000816841F480718160216832464C31A06B48
:101F200000F010FA024668681C49C006206806D016
:101F3000884224D1816811F0405F13D01FE08842AD
:101F4000F8D0174B984203D1D1F80433DB06F1D017
:101F5000144B984213D1D1F8041301F01F0110293A
:101F6000E8D30CE0816841F08041816007E0206C9B
:101F700040F010002064606C40F001006064104686
:101F8000F8BD00000C00002040420F00002301407B
:101F9000090900088D0900087709000800200140A0
:101FA000002101400022014010B50446002094F8B1
:101FB0003C1001290CD0012184F83C1021688A686A
:101FC00022F001028A6021688A68D20702D01DE0EF
:101FD000022010BD8A6822F480728A60A16B91F899
:101FE0003520022A07D1084600F014F818B1216CF8
:101FF00041F04001216421684A6822F080624A6011
:10200000216C21F4885141F001012164002184F800
:102010003C1010BD2DE9F0410446876D00F0DEFA5A
:10202000064694F835000025022806D08020606519
:1020300084F834500120BDE8F0812068016821F067
:10204000160101602068416921F080014161206C26
:1020500008B9A06C20B12068016821F00801016076
:102060002068016821F0010101600CE000F0B6FA7F
:10207000801B052807D920206065032084F83500DF
:1020800084F83450D7E720680068C007EED194F890
:102090005C103F208840B860012084F8350084F847
:1020A00034500020C7E790F83510022903D0802172
:1020B000416501207047052180F8351000680168EE
:1020C00021F0010101600020704790F83500704751
:1020D0002DE9F84304464FF00009CDF8009063481D
:1020E0004FF41651A56D0068B0FBF1F72E6894F817
:1020F0005C10082000FA01F131420FD021680A6813
:1021000052070BD50A6822F004020A6094F85C10AA
:102110008840A860606D40F00100606594F85C1034
:102120004FF0010808FA01F0304208D021684969EF
:10213000090604D5A860606D40F00200606594F85F
:102140005C1004208840304208D021680968890763
:1021500004D5A860606D40F00400606594F85C10E0
:1021600010208840304218D021680968090714D52A
:10217000A86020680168490304D50068000308D5F9
:10218000A16C07E00168C90503D4016821F00801CA
:102190000160216C09B12046884794F85C1020202A
:1021A0008840304231D021680968C9062DD5A86021
:1021B00094F8350005282068016806D0490347D502
:1021C000006800031DD4616C1CE021F01601016061
:1021D0002068416921F080014161206C08B9A06C40
:1021E00020B12068016821F00801016094F85C10BA
:1021F0003F208840A86084F8358084F83490216DB1
:102200001FE0E16B09B120468847606D00282BD0A4
:10221000606DC00714D0052084F83500206801687F
:1022200021F0010101600098401C0090B84203D8E1
:1022300020680068C007F6D184F8358084F83490AF
:10224000E16C002910D001B02046BDE8F0430847FA
:102250000168C905D5D4016821F01001016084F836
:10226000358084F83490CCE7BDE8F8830C0000207A
:102270002DE9F041044600F0B1F906465CB10220B8
:1022800084F83500002584F834502068016821F076
:10229000010101600DE00120BDE8F08100F09EF930
:1022A000801B052805D920206065032084F83500AF
:1022B000F2E720680068C007F0D122681168204862
:1022C0000140D4E901031843D4E9033633431843EA
:1022D00063691843A3691843E3691843236A1843E1
:1022E0000843616A042903D1D4E90B131943084355
:1022F000106020684069666A20F0070130460E438E
:10230000012704280CD1A06A0643E06A40B12046A8
:10231000FEF756FE20B14020606584F83570BAE7BC
:10232000206846612046FEF737FE94F85C203F2186
:1023300091408160656584F835700020ACE700004D
:102340003F8010F02DE9F0410446866D90F834008E
:10235000002501280DD0012084F8340094F8357050
:102360000020012F07D084F8340002252846BDE85C
:10237000F0810220FBE7022784F835706065204673
:10238000FEF748FE94F85C103F208840B06020685B
:10239000016841F016010160206C20B120680168DD
:1023A00041F0080101602068016841F0010101600D
:1023B000DCE7000070B5044600F010F90546601C2B
:1023C00002D004480078044400F008F9401BA04201
:1023D000FAD370BD000000202DE9F84FDFF8BCA152
:1023E0000022012503264FF00F090AF1040BAAF180
:1023F000040E00BF0B6805FA02F42340A34270D11B
:102400000F7907F00307012F01D0022F16D187683B
:102410004FEA420806FA08FC27EA0C07D1F80CC07C
:102420000CFA08FC4CEA070CC0F808C04768A74340
:102430000C79C4F3001494403C4344600C79E443A9
:10244000A4070AD0C4684FEA420C06FA0CF7BC4352
:102450008F6807FA0CF72743C7600C7904F0030470
:10246000022C12D1D40800EB840CDCF82040570772
:10247000FF0E09FA07F824EA0804D1F8108008FAD8
:1024800007F848EA0408CCF8208004684FEA420CB8
:1024900006FA0CF7BC430F7907F0030707FA0CF7AD
:1024A000274307604C6814F4403F70D03C4C2768C9
:1024B00047F480472760246822F0030704F480442F
:1024C0000094384C07EB040CDCF8084897074FEAF7
:1024D000177809FA08F7BC43334FB84202D10027F6
:1024E00024E054E0314FB84201D101271EE0304FC3
:1024F000B84201D1022719E02E4FB84201D103277B
:1025000014E02D4FB84201D104270FE02B4FB84201
:1025100001D105270AE02A4FB84201D1062705E07C
:10252000284FB84201D1072700E0082707FA08F72B
:102530002743CCF80878DAF800405746D1F804C0B1
:102540009C435FEACC2C00D51C433C60DBF8004088
:102550005F46D1F804C09C435FEA8C2C00D51C4335
:102560003C60DEF800407746D1F804C09C435FEA47
:102570008C3C00D51C433C60084F083F3C68D1F8B8
:1025800004C09C435FEACC3C00D51C433C60521C19
:10259000102AFFF42FAFBDE8F88F0000083C01407F
:1025A0004438024000300140000002400004024074
:1025B00000080240000C02400010024000140240DB
:1025C00000180240001C02400069084000D00120B1
:1025D00070470AB1816170470904FBE701488068D0
:1025E0007047000000000020704770472DE9F0415F
:1025F000016804464A694E6890F83E000025D743BA
:10260000FA0506D4F243D20503D46FF48072012593
:102610004A61B90508D4F143C90505D422686FF4AD
:10262000007145F002055161790525D4F143C905D2
:1026300022D4638D94F83D10226B202808D13BB939
:10264000212910D029290ED0282901D1212A0AD0E8
:1026500022686FF48061516145F00405102806D0AE
:10266000402804D008E0204602F01EF904E020686B
:10267000016841F400710160380508D4F043C005D9
:1026800005D421686FF4006045F008054861002D0D
:1026900007D0206C284320642046BDE8F04101F0BB
:1026A00087BDBDE8F0812DE9F0470268002153683D
:1026B000C66A90F83E4090F83D50102C12D0402C45
:1026C00010D0046C002C7DD05469E443A6077AD462
:1026D000DE43B60577D4036C03B19169BDE8F047DA
:1026E00002F0BEB8976951694FF42A0CC9435FEAFA
:1026F000C1784FF02A4904D066452AD04E4528D0EB
:1027000010E0DE43B6050DD4C16A614501D1012157
:1027100003E0C16A494501D10821C162BDE8F04723
:1027200002F004B80E0716D4DE43B60513D4416C8C
:10273000C9B21161416B09B1C96B29B9816B00291B
:1027400007D0C96B002904D00068416841F40061DA
:102750004160BDE8F0878E0706D4DE43B60503D49A
:10276000BDE8F04701F056BFFE43526876074FEAD6
:1027700002521DD4002AECDB0A0608D4DA435205C3
:1027800005D4490705D5BDE8F04701F0E7BE490784
:10279000DFD4D9438905DCD4212D05D0402CD8D1F4
:1027A000BDE8F04702F008B8BDE8F04701F094BE7C
:1027B000002ACEDB4A060BD4DA43520508D4490777
:1027C00008D501E00DE00EE0BDE8F04701F00ABEDB
:1027D0004907BED4D9438905BBD4BDE8F04701F011
:1027E00093BD916970E7E10606D4D943890503D406
:1027F000BDE8F04702F0A0B82821212D27D0292DCF
:1028000025D0650655D4DD436D0552D4640752D5F5
:1028100090F83D30448D002C9BD01269446A2270A0
:10282000426A521C4262428D521E4285428D002AEB
:102830008FD12A2B8DD10268536823F480635360B3
:102840002222026380F83D1000F098FA81E7250605
:1028500023D4DD436D0520D4640720D590F83D30A6
:10286000448D002CF2D0446A24781461426A521CD0
:102870004262428D521E4285428D002AE6D1292BAA
:10288000E4D10268536823F4806353602122026319
:1028900080F83D1000F073FA5BE76107D6D4D943A6
:1028A0008905D3D4418D0029D0D0416A09781161BE
:1028B0000AE06107CAD4D9438905C7D4418D0029EC
:1028C000C4D01169426A1170416A491C4162418D4C
:1028D000491E41853DE710B5FEF79EFA002805D058
:1028E000002100F8201F4178491C417010BD90F86C
:1028F0003D00704770B5040025D094F83D000025D8
:1029000020B984F83C50204600F0A6F9242084F831
:102910003D002068016821F0010101602068016824
:1029200041F4004101602068016821F40041016028
:1029300000F05AFB4D4A6168914201D84C4900E0D1
:102940004C49884201D2012070BD4B492368B0FB3D
:10295000F1F15E6826F03F060E435E6063689342C5
:1029600006D94FF4967359434FF47A73B1FBF3F1E0
:102970002368491C1E6A26F03F06314319626168CC
:10298000914210D84900401EB0FBF1F2521CC2F334
:102990000B02042A01D2042022E0B0FBF1F0401C1B
:1029A000C0F30B001CE0A268F2B301EBC10303EB20
:1029B0000116431EB3FBF6F35B1C43F480431B0577
:1029C00049D092B301EBC10202EB0111401EB0FBF2
:1029D000F1F0401CC0F30B0040F4804040F4004094
:1029E0002168CA694CF6FF739A431043C861D4E961
:1029F000071001432068026822F0C0021143016001
:102A0000D4E9030101432068826848F2FF339A4306
:102A100011438160D4E9050108432168CA6822F0A6
:102A2000FF021043C86001E00EE016E02068016874
:102A300041F0010101602564202084F83D002563F8
:102A400084F83E50002070BD01EB4106431EB3FBED
:102A5000F6F35B1CB3E70120C2E701EB4101401E26
:102A6000B0FBF1F0401CC0F30B00B7E7A0860100FB
:102A700080841E0000093D0040420F0070477047EF
:102A80007047000070B50546FEF7C6F904005DD03A
:102A90002068A8425AD1002084F82000A088DFEDE9
:102AA0002C0A40BAC0F30B0000EE100AE188218125
:102AB000B8EE400AE08020EE200A84ED030AFFF71A
:102AC0008DFDA169DFED230A411A00EE101A224A9A
:102AD000B8EE400A60EE200A10EE901A11441F4A28
:102AE00091422ED294ED030A94ED0A1A1C4A30EE5C
:102AF000410A9FED1C1A10EE101A914202DD30EED1
:102B0000410A06E010EE101A174A914201D930EE40
:102B1000010ADFED161A80EE201AD4ED040A21EE28
:102B2000210A9FED131A00EE810AF3EE0E0A84EDDE
:102B3000040A20EE200ADFED0F0A80EE201A84ED51
:102B4000051A94ED030A84ED0A0AA06170BD000025
:102B5000DB0FC93A6F12833AE8482EC7B515FB045C
:102B6000DB0F4940DB0FC940DB0F49C0CDCCCC3D6A
:102B70006666663FDB0F494070470000F8B50024E9
:102B8000DDE90676009490F83D50202D5ED1304D61
:102B900046F2A81C2D68B5FBFCF505EBC50C0CEB4B
:102BA000051500956D1E009506D00568AD69ED43CD
:102BB000AD070BD4009DF5E740F8304F202141735D
:102BC0008473016941F0200101613FE090F83C50BD
:102BD000012D3BD0012580F83C500568D5F800C098
:102BE0005FEACC7C05D1D5F800C04CF0010CC5F8EB
:102BF00000C00568D5F800C02CF4006CC5F800C012
:102C0000222580F83D50402580F83E5004644762FC
:102C10004685458D05850F4DC56241648264C36458
:102C2000046501680A6842F480620A6001680A6803
:102C300042F480720A6080F83C40018D21B1006846
:102C4000416841F4E06141600020F8BD0220F8BD18
:102C50000C0000200000FFFF2DE9F04186B0044683
:102C600014216846FDF7F8FA3E4B2268DFF8F88039
:102C700000213D4812240325042608F110089A4239
:102C80002BD1026842F002020260006802AA00F042
:102C90000200059082E86200C020CDE90004694688
:102CA0003248FFF799FBD8F8001041F40011C8F83A
:102CB0000010D8F80000002200F400100590114622
:102CC0001F2000F0C5F81F2000F0B4F800221146C4
:102CD000202000F0BDF820203EE025498A423DD169
:102CE000016841F004010160016801F004010591EF
:102CF000016841F0010101600068012700F0010056
:102D0000059050158DE89100CDE9035669461948A4
:102D1000FFF762FB38028DE89100CDE90356694662
:102D20001548FFF759FBD8F8001041F40001C8F826
:102D30000010D8F80000002200F4000005901146B1
:102D4000482000F085F8482000F074F80022114671
:102D5000492000F07DF8492000F06CF806B0BDE88D
:102D6000F08100000054004030380240000402406E
:102D7000005C0040000802400000024070477047BD
:102D80000248816802781144816070470000002089
:102D90000B4810B5016841F400710160016841F40D
:102DA00080610160016841F480710160032000F0DE
:102DB0006FF80F2000F006F800F024F8002010BD96
:102DC000003C024070B50D4D04464FF47A712878EE
:102DD000B1FBF0F00A490968B1FBF0F000F00AFB22
:102DE00048B9102C07D200222146501E00F030F8BE
:102DF00000206C6070BD012070BD0000000000204C
:102E00000C0000200A4808B5016841F480410160C7
:102E1000006800F4804000900548001F016841F000
:102E200080510160006800F08050009008BD0000F3
:102E300044380240002809DB00F01F0201219140C4
:102E40004009800000F1E020C0F800117047000048
:102E5000F0B40E4B1B680C46C3F30223C3F1070505
:102E6000042D00D90425191D072901D2002300E0F3
:102E7000DB1E012606FA05F1491E214099409E40BD
:102E8000761E16403143F0BC03F0FDB80CED00E0B7
:102E9000064900F0070208684FF6FF03184040EAB1
:102EA0000220034A10430860704700000CED00E068
:102EB0000000FA052DE9F0470E46050065D0DFF861
:102EC0001481D8F80000F7B200F00700B04207D232
:102ED00088F80070D8F8000000F00700B04254D124
:102EE00028683D4C810712D5400703D5206840F47F
:102EF000E05020602878000703D5206840F4604047
:102F000020602068A96820F0F0000843206028783D
:102F1000C0072DD0304968680839012812D002282E
:102F200013D0032811D00968890700292DDA2168F8
:102F300021F0030101432160FFF750FB814641F27C
:102F4000883A0EE009688903EFE709688901ECE730
:102F5000FFF744FBA0EB0901514502D90320BDE86E
:102F6000F0872068696800F00C00B0EB810FEFD1AA
:102F7000D8F80010404601F00701B14207D90770A8
:102F8000006800F00700B04201D00120E7E7287890
:102F9000400705D52068E96820F4E0500843206028
:102FA0002878000706D52068296920F4604040EAA7
:102FB000C100206000F038F82168084AC1F303110D
:102FC000515CC8400649086006480068FFF7FAFEF1
:102FD0000020C4E7003C0240083802407C7600082C
:102FE0000C0000200400002004480549006809681E
:102FF000044AC1F38221515CC84070470C00002094
:10300000083802408C7600080448054900680968C1
:10301000044AC1F34231515CC84070470C000020A3
:10302000083802408C760008154810B5006810F08A
:103030000C02144813D04110042A0FD0082A0ED1D4
:103040000F4C241F2268236802F03F025B0207D561
:103050002068C0F38810A0FB010106E0084610BDFF
:103060002168C1F38811A1FB00010023FDF7AAF834
:103070002168C1F30141491C4900B0FBF1F010BDCA
:10308000083802400024F4002DE9F84F04006ED007
:103090002078DFF84C93C007A9F104054AD009F164
:1030A00004000168C1F38101012908D00068C0F360
:1030B000810002280AD1D9F80000400206D528680C
:1030C000800337D560680028E1D033E06068B0F550
:1030D000803F10D0B0F5A02F286810D020F48030A9
:1030E0002860286820F4802028606068A8B1FFF775
:1030F00075FA06460DE0286840F48030F4E740F4A5
:1031000080202860F7E700BFFFF768FA801B64287B
:1031100073D828688003F7D50CE0FFF75FFA0646FE
:1031200005E000BFFFF75AFA801B6428F0D8286832
:103130008003F7D42078DFF8AC8280074FF0000AD4
:103140003ED5A748001D016811F00C0F08D000689B
:10315000C0F3810002280BD1D9F80000400207D447
:103160002868800716D5E068012800D112E033E115
:10317000E068B8B10120C8F80000FFF72FFA064652
:1031800005E000BFFFF72AFA801B0228C0D8286894
:103190008007F7D52868216920F0F80040EAC100CF
:1031A00028600DE0C8F800A0FFF718FA064604E012
:1031B000FFF714FA801B02281FD828688007F7D46D
:1031C0002078000722D5864F87486169703771B132
:1031D00001210160FFF702FA064604E0FFF7FEF95D
:1031E000801B022809D838688007F7D50EE0C0F8A0
:1031F00000A0FFF7F3F9064605E082E0FFF7EEF9DD
:10320000801B02287DD838688007F7D420784007D3
:1032100068D5DFF8CCB100270BF13C0BDBF80000E0
:10322000C0000BD4DBF8001041F08051CBF8001047
:10323000DBF80000012700F0805000906B4E3068F2
:10324000C00510D4306840F480703060FFF7C6F9D4
:10325000009005E0FFF7C2F90099401A022850D803
:103260003068C005F6D55E4EA0686C3601280FD0D8
:103270000528306810D020F001003060306820F060
:1032800004003060A068B8B1FFF7A8F900900FE023
:10329000306840F00100F4E740F004003060F7E7E8
:1032A000FFF79CF90099411A41F28830814266D8B3
:1032B00030688007F4D50EE0FFF790F9009007E042
:1032C000FFF78CF90099411A41F28830814256D8B3
:1032D00030688007F4D42FB1DBF8001021F0805162
:1032E000CBF80010A069C8B33D49091D0968C1F3B6
:1032F000810102294AD00228504607D0C8F8600050
:1033000000E03CE0FFF76AF904463BE04746C8F8B6
:103310006000FFF763F9064605E000BFFFF75EF9BE
:10332000801B02282BD828688001F7D4D4E9070134
:103330000843A16A2E4A490802EB0141626A41EA48
:103340008211084394F82C1040EA0161C9F800107A
:1033500001203866FFF742F9044606E03EE000BF70
:10336000FFF73CF9001B022809D828688001F7D52F
:1033700034E000BFFFF732F9001B022802D9032016
:10338000BDE8F88F28688001F4D427E00128F7D041
:10339000D9F80000E26900F4800191421CD1226A50
:1033A00000F03F01914217D147F6C071626A0140B7
:1033B000B1EB821F10D1A26A4FF0FF3300F440310D
:1033C00003EB5202B1EB024F06D194F82C1000F03F
:1033D0007060B0EB016F01D00120D1E70020CFE792
:1033E0000438024000004742800E4742007000400F
:1033F0000000FFFF10B5401EB0F1807F01D3012017
:1034000010BD4FF0E02460610F21601702F03BFE19
:103410000020A06107202061002010BD7047704788
:1034200070B590F83C20012A32D0012480F83C404D
:10343000022280F83D2003685A689D6822F07006D9
:103440000A6832435A60134B02689A4214D0B2F1B0
:10345000804F11D0104B9A420ED0104B9A420BD095
:103460000F4B9A4208D00F4B9A4205D00E4B9A420E
:1034700002D00E4B9A4204D1496825F080031943CB
:10348000916080F83D40002180F83C10084670BDF6
:10349000022070BD00000140000400400008004010
:1034A000000C0040000401400040014000180040B2
:1034B00010B5040003D094F83D0010B107E00120DE
:1034C00010BD002084F83C00204600F01FF80220C8
:1034D00084F83D00211D206802F0FEF9012084F8E7
:1034E000460084F83E0084F83F0084F8400084F8E9
:1034F000410084F8420084F8430084F8440084F8D2
:10350000450084F83D00002010BD000008B5234AA6
:103510000168234891420ED1016841F00201016027
:103520000068002200F00200009001211D20FFF73A
:103530008FFC1D202CE01B4A91420ED1016841F006
:10354000080101600068002200F0080000900121DD
:103550003220FFF77DFC32201AE0134881421BD154
:103560000F48001D016841F002010160006800225F
:1035700000F00200009001212C20FFF769FC2C20B4
:10358000FFF758FC002201212E20FFF761FC2E20BE
:10359000BDE80840FFF74EBC08BD00000004004035
:1035A00040380240000C00400004014090F83D10FB
:1035B000012901D001207047022180F83D100168E7
:1035C000CA6842F00102CA6000681149884214D0FA
:1035D000B0F1804F11D00F4988420ED00E49884279
:1035E0000BD00E49884208D00D49884205D00D49BC
:1035F000884202D00C49884204D1816801F0070159
:10360000062903D0016841F00101016000207047E4
:10361000000001400004004000080040000C004091
:1036200000040140004001400018004070B504460D
:1036300090F83C000025012817D0012684F83C6052
:10364000022084F83D002068826822F0770222F48C
:103650007F4282600868502838D00DDC20284FD087
:1036600005DC90B3102811D14AE0022070BD30284B
:1036700046D040280AD13BE060282FD070280DD0DA
:10368000B0F5805F03D0B0F5005F12D0012584F85B
:103690003D60002084F83C00284670BDCB68D1E92D
:1036A0000121206802F08DF92068816841F07701DE
:1036B00009E0CB68D1E90121206802F082F9206895
:1036C000816841F480418160E1E719E0CA68496896
:1036D000206802F04BFA5021206806E0CA68496869
:1036E000206802F054FA6021206802F074F9CEE7F5
:1036F000CA684968206802F039FA40212068F4E776
:10370000226801461046F0E770472DE9F041044673
:103710000068C66805694FF00007A90713D5B1070F
:1037200011D5F91E0161012020772068806980078A
:10373000204602D0FFF7E8FF04E000F0CFF8204673
:1037400000F07EF92777680716D5700714D5216831
:103750006FF004000861022020772068806910F46F
:10376000407F204602D0FFF7CFFF04E000F0B6F81C
:10377000204600F065F92777280715D5300713D5BF
:1037800021686FF008000861042020772068C06974
:103790008007204602D0FFF7B7FF04E000F09EF854
:1037A000204600F04DF92777E80616D5F00614D527
:1037B00021686FF010000861082020772068C06938
:1037C00010F4407F204602D0FFF79EFF04E000F097
:1037D00085F8204600F034F92777E80708D0F0078D
:1037E00006D021686FF001000861204600F08EF9D4
:1037F000280608D5300606D521686FF080000861DC
:103800002046FFF70BFE680608D5700606D521682E
:103810006FF040000861204600F0A0F9A8060AD524
:10382000B00608D521686FF0200008612046BDE889
:10383000F041FFF7F4BDBDE8F0810000F0B587B0BE
:10384000044614216846FCF707FD216800251E4840
:1038500003260224B1F1804F16D01C4A914211D1A7
:10386000016841F0080101600068694600F0080045
:1038700005904FF4E0408DE871001548CDF81040F8
:10388000FEF7AAFD07B0F0BD016841F0010101603B
:10389000016801F001010591016841F00201016038
:1038A0000068CDE9006400F002000127CDE9047052
:1038B000CDE9025669460748FEF78EFDB8028DE84D
:1038C000F10069460448DBE7303802400008004058
:1038D000000C02400000024000040240704770B536
:1038E000044690F83C0000260D4601280FD0012028
:1038F00084F83C006AB1042A1DD0082A2FD00C2A73
:103900003FD00126002084F83C00304670BD0220E4
:1039100070BD206802F068F82068816941F00801F4
:1039200081612068816921F00401816120688169D9
:103930002A69114311E0206802F086F82068816945
:1039400041F4006181612068816921F480618161B5
:10395000206881692A6941EA02218161D2E72068F1
:1039600002F0A8F82068C16941F00801C16120682F
:10397000C16921F00401C1612068C1692A6911434C
:1039800011E0206802F0CAF82068C16941F40061C2
:10399000C1612068C16921F48061C1612068C16989
:1039A0002A6941EA0221C161ACE710B5040003D0E5
:1039B00094F83D0010B107E0012010BD002084F80C
:1039C0003C00204600F01EF8022084F83D00211D36
:1039D000206801F081FF012084F8460084F83E0051
:1039E00084F83F0084F8400084F8410084F84200E5
:1039F00084F8430084F8440084F8450084F83D00CE
:103A0000002010BD08B501680B48B1F1804F0BD004
:103A10000A4A914207D1016841F00401016000683F
:103A200000F00400009008BD016841F00101016050
:103A3000006800F00100F5E740380240000800404F
:103A40007047000010B50446022249B104290ED087
:103A5000082913D094F84100012816D0012010BD88
:103A600094F83E000128F9D184F83E200FE094F844
:103A70003F000128F2D184F83F2008E094F840008C
:103A80000128EBD184F8402001E084F84120012294
:103A9000206801F089FF16492068164A884201D043
:103AA000904203D1436C43F400434364206888424E
:103AB00013D0B0F1804F10D00F4988420DD00F497C
:103AC00088420AD00E49884207D0904205D00D495D
:103AD000884202D00C49884204D1816801F0070174
:103AE000062903D0016841F001010160002010BDEA
:103AF00000000140000401400004004000080040B4
:103B0000000C004000400140001800400D4910B575
:103B1000884204D1BDE810400B48FDF743BE0B4975
:103B200088420ED10A48FDF7F7F90A48FDF7F4F983
:103B300000F0B6FF084C84ED060A00F0ABFF84ED00
:103B4000030A10BDB40500208400002024050020D5
:103B50006401002090010020C8090020704738B59A
:103B6000044690F84200202801D0022038BD51B10F
:103B70004AB10120206300206063204602F0BAF9B8
:103B8000216B012901D0012038BD21680A684968EC
:103B9000009121680C3151E8002F42F0100241E8F9
:103BA0000023002BF5D138BD2DE9F0410D4EB04278
:103BB00016D10D4F0D46002404E0385D00F090FF53
:103BC000641CA4B2AC42F8D34FF480720649054895
:103BD000FFF7C5FFF06B0068016821F00801016084
:103BE000BDE8F081440600209408002070470000E2
:103BF000F8B5016804460868CA684B6910F00F0FF1
:103C00004FF0000559D003F0010602F490773743D6
:103C100065D0C10705D0D10503D5616C41F0010124
:103C20006164410705D5D90703D0616C41F00201F9
:103C30006164810705D5D90703D0616C41F00401A7
:103C40006164010707D502F02001314303D0616CA4
:103C500041F008016164616C00293AD0800604D506
:103C6000900602D5204602F05EF820684069616C3B
:103C7000C0F38010090700D460B3204602F01EF89C
:103C800020684069400621D52068143050E8001FA4
:103C900021F0400140E80012002AF5D1E06BA8B104
:103CA00072490165E06BFEF7FEF9002811D0E06B68
:103CB000016D01B0BDE8F040084783060FD59306BB
:103CC0000DD52046BDE8F84002F02DB82046FFF79C
:103CD0008DFFF8BD2046FFF789FF6564F8BD266BB0
:103CE0002023012E7ED1C6067CD5D6067AD508685B
:103CF0004868009048694FF0020640064DD5E26BD7
:103D0000106840684FF480770004000C3AD0A18D11
:103D1000814237D9E085D069B8422DD020680C3077
:103D200050E8001F21F4807140E80012002AF5D10C
:103D30002068143050E8001F21F0010140E8001213
:103D4000002AF5D12068143050E8001F21F040010E
:103D500040E80012002AF5D184F84230256320683B
:103D60000C3050E8001F21F0100140E80012002A3A
:103D7000F5D1E06BFEF74EF96663A08DE18D401A38
:103D800081B206E0A18D8142A8D1D069B842A5D107
:103D900066632046FFF708FFF8BDA08DE18D401A4D
:103DA00081B2E08D0028F7D00029F5D020680C30D2
:103DB00050E8002F22F4907240E80027002FF5D140
:103DC0002068143050E8002F22F0010240E800275C
:103DD000002FF5D184F84230256320680C3050E87C
:103DE000002F00E006E022F0100240E80023002B44
:103DF000F3D1CDE705062BD5150629D594F841005A
:103E00002128C9D1A068B0F5805F01D12069B0B187
:103E1000206A411C2162216800784860E08C401EC5
:103E20000004000CE084B7D12068C16821F0800153
:103E3000C1602068C16841F04001C160F8BD206ADE
:103E40000088C0F308004860206A801C2062E5E713
:103E50004006F3D55006F1D5CA68204622F040024C
:103E6000CA6084F8413000F023F9F8BDC15B000856
:103E700070B5040004D094F84100002510B106E0AC
:103E8000012070BD84F84050204600F023F8242023
:103E900084F841002068C16821F40051C1602046C7
:103EA00001F0A2FF2068016921F4904101612068BE
:103EB000416921F02A0141612068C16841F4005143
:103EC000C1606564202084F8410084F84200656385
:103ED000002070BD2DE9F04186B0064614216846E9
:103EE000FCF7BAF9DFF80CC131684348022203231A
:103EF0000827424D0024614552D13F491031D1F885
:103F000000C04CF4002CC1F800C0096801F4002185
:103F10000591016841F0040101600068694600F004
:103F20000400059098028DE81500CDE90337284676
:103F3000FEF752FA334D32484FF480684705286047
:103F4000C5E90174C5E903486C61AC61EC612C62A0
:103F500028466C62FEF78CF908B1FDF770F8F5633E
:103F6000AE63284D264860353030E5E80207402032
:103F7000A5E81101234845F814496030AC61EC61B3
:103F80002C626C62FEF774F908B1FDF758F8B5635E
:103F9000002203213420AE63FEF75AFF342023E0D1
:103FA000194EB14222D1144914310E6846F0200650
:103FB0000E60096801F020010591016841F00401DB
:103FC00001600068694600F004000590C0208DE89B
:103FD0001500CDE903372846FEF7FEF9002203213C
:103FE0004720FEF735FF4720FEF724FF06B0BDE867
:103FF000F0810000004C00403038024000080240D0
:1040000040600240D4060020001401407047704711
:104010002DE9F843044690F84100984616460D46AF
:10402000202802D00220BDE8F88385B17EB10020AF
:104030006064212084F84100FEF7D0FAA68481460E
:10404000E684A0682027B0F5805F02D003E001205D
:10405000E9E7206910B12E4600250EE000260CE0AD
:104060008021204601F096FFA8B9C6B116F8010BD1
:1040700021684860E08C401EE084E08C4B464FF0A5
:104080000002CDF800800028EAD14FF04001204620
:1040900001F080FF40B184F841700320C3E735F898
:1040A000020BC0F30800E3E784F841700020BAE790
:1040B0007047FEE70148FEF799BA0000340400207B
:1040C0000148FEF7F0BA0000340400200148FEF772
:1040D0008DBA0000880400200148FEF7E4BA000011
:1040E0008804002038B5806B002190F83D202B4BD0
:1040F00046F2A8141B68B3FBF4F3C3EBC30303EB52
:10410000830300933BB15B1E009303681B689B0510
:1041100005D5009BF6E7036C43F020030364436B73
:1041200003B1D963836B03B1D96303681C6824F4BA
:1041300080641C604185436B03B11965836B03B1D7
:10414000196503681C6824F001041C6090F83D4068
:104150002023602C0BD0282434EA02020FD080F8F0
:104160003D3080F83E1000BFFEF7B5FB38BD80F84B
:104170003D3080F83E100164FEF736FA38BD026823
:10418000136843F0010313600268136843F480630B
:104190001360016380F83D40E6E700000C0000205A
:1041A00000684169C943090601D4002101617047D3
:1041B00070B5044690F83D0094F83E10102901D0E7
:1041C000402906D1222804D121680A6822F400621D
:1041D0000A60282131EA00024FF000054FF0200666
:1041E00026D021684968090505D4602803D084F8E1
:1041F0003D6084F83E50256320684168090537D545
:10420000416821F400614160606B90F835203C49C1
:10421000012A11D00165606BFDF745FF38B32068B6
:10422000016821F00101016084F83D60606B1CE0D1
:10423000256384F83D10DFE7A06B0165A06BFDF7F7
:1042400032FFA0B120684169C943490605D400691D
:10425000616A0870606A401C60622068016821F031
:104260000101016084F83D60A06B016D884710E09A
:1042700094F83D10602910D04169C943490605D41E
:104280000069616A0870606A401C60622046FEF73F
:1042900022FB206CC1071CD115E084F83D60256429
:1042A0004169C943490605D40069616A0870606ABA
:1042B000401C60622068016821F001010160204615
:1042C000FEF792F9E5E7810703D4410701D400071F
:1042D00004D52068416821F4E061416094F83D0014
:1042E000216C49070BD5282809D10648E0622563CF
:1042F00084F83D6084F83E502046FEF7BFFB70BD59
:10430000E54000080000FFFF10B5C26A438D016858
:10431000042B06D0438D032B08D0438D022B1DD0D8
:1043200012E04A6822F480624A600CE04B6823F491
:1043300080634B60042A06D0022A04D001680A6810
:1043400022F480620A6001680969426A1170416A58
:10435000491C4162418D491E418510BD012A34D05E
:10436000102A32D0042A34D0022A32D00B6843F407
:1043700000730B6001680969436A1970416A491C3E
:104380004162438D5B1E438503681B690B70416A64
:10439000491C4162418D491E418501684B6823F4E7
:1043A00040734B60202180F83D1090F83E30002192
:1043B000402B80F83E1010D0082A02D0202A00D0CE
:1043C00012210163FEF75BFB10BD0B6823F48063D1
:1043D000CFE70B6843F48063CBE70163FEF752FB42
:1043E00010BD000038B590F83D10222910D1C36AE5
:1043F000418D03290DD901680969426A1170416A2A
:10440000491C4162418D491E4185418D032906D0D9
:1044100038BDC26A022A02D0012906D029B100683B
:10442000416821F48061416038BD2A4A46F2A814EF
:1044300000211268B2FBF4F202EB820200920268E1
:104440002024009D6D1E009526D01568AD05F8D47A
:10445000156825F4806515600268556825F4E065E7
:10446000556002681269456A2A70426A521C4262AB
:10447000428D521E428580F83D4090F83E2080F8E3
:104480003E10402A21D0082B02D0202B00D0122130
:104490000163FEF7F4FA38BD036C43F020030364B4
:1044A000536823F4E063536002681269436A1A7028
:1044B000426A521C4262428D521E428580F83D4043
:1044C00080F83E10FEF707FA38BD0163FEF7DAFA0E
:1044D00038BD00000C00002010B5C26A90F83D10F5
:1044E00021290BD1418D51B1416A026809781161CE
:1044F000416A491C4162418D491E418510BD2023FE
:104500000021082A13D0202A11D012F5803F0ED0A6
:104510000268546824F4E06454601122026380F855
:104520003E1080F83D3000BFFEF7AAFA10BD0268C9
:10453000546824F4E06454600268146844F400741D
:104540001460016380F83D3090F83E2080F83E1002
:10455000402AE9D1FEF710FB10BD000010B590F81D
:104560003D1090F83E30C26A048DB4B1212903D0C9
:10457000402B11D122290FD1418DE1B390F83E108B
:10458000402942D0416A026809781161416A491C98
:104590004162418D491E418510BD2129E8D120236A
:1045A0000021082A13D0202A11D012F5803F0ED006
:1045B0000268546824F4E06454601122026380F8B5
:1045C0003E1080F83D3000BFFEF75AFA10BD026879
:1045D000546824F4E06454600268146844F400747D
:1045E0001460016380F83D3090F83E2080F83E1062
:1045F000402AE9D100E002E0FEF7BEFA10BD0068F3
:10460000416821F48061416010BDBDE8104000F0B8
:10461000D3B8000078B590F83E50C26A036B90F8AA
:104620003D6000240168222E7AD1066D0EB9402D1E
:1046300076D0056D1DB90569B5F5404F09D0458D9A
:1046400005B3468D384D012E0ED0438D022B3AD046
:104650005DE04A698A6900920A6842F480720A60E1
:10466000016D491C016578BDAA4213D10A6822F484
:1046700080620A6001684A68120503D50A6822F45C
:10468000806216E04A698A6900920A6842F4007200
:104690000A6039E0082A10D0202A0ED0122B0AD046
:1046A000042A03D0022A01D0102AE7D10A6842F472
:1046B00080620A6024E0012AE0D00A6822F4806265
:1046C0000A600168DEE7042A21D0022A1FD0102ADE
:1046D0001DD00B6823F480630B6001680B6843F402
:1046E00000630B6001684B681B0509D5AA4212D014
:1046F000012A10D0082A0ED0102A0CD0202A0AD065
:1047000001684A6989690091046578BD08E00B6811
:1047100043F48063E5E74A6842F480524A60EFE779
:10472000486988690090F0E70000FFFF90F83E10AC
:10473000402910D00169B1F5804F19D0016DA9B39E
:10474000016D012910D1416C5FF0F10201F440715B
:1047500042EAD11106E0016D0029416C05D0C9B2D1
:1047600041F0010100680161704701F0FE01F9E7C5
:1047700090F83D102129416C09D0C9B241F00101E6
:1047800002681161416B29B1C96B49B902E001F0BE
:10479000FE01F5E7816B0029E6D0C96B0029E3D063
:1047A0000068416841F4006141607047FFE7416C77
:1047B000F02201F44071CBE710B590F83D10026D86
:1047C0004AB1026D012A14D0026D022A16D0BDE84A
:1047D0001040FFF7E5BCC16C0129816C02D0C1F328
:1047E000072108E00268C9B21161016D891C0165E9
:1047F00010BD816CC9B20268116123E022291CD06E
:10480000428D0AB1212920D0428D002AF0D12129E0
:10481000EED101684A6822F4E0624A6001680A68E1
:1048200042F400720A6000210163202280F83D20DA
:1048300080F83E10FEF7A0F910BD01680A6842F446
:1048400080720A60016D491CD1E7416A02680978EB
:104850001161416A491C4162418D491E418510BD6B
:1048600038B50C4690F83D20002128259543026874
:104870000B4605D051699169009180F83C3038BDF4
:10488000556825F480655560E243540700D5012141
:10489000120601D5828900E0028B80F83C3092B28A
:1048A000FDF7A3FE38BD00002DE9F04190F83D3042
:1048B0000446C26A002120261E4F00686FF48065FE
:1048C000082A01D0202A01D1282B04D0212B17D06F
:1048D0004561BDE8F081E762426822F4E06242602F
:1048E000206845612068026822F4806202602163CA
:1048F00084F83D6084F83E102046FEF7BFF8E8E7F4
:10490000E7622122226384F83D6084F83E1041680A
:1049100021F4E0614160206845612068016821F46C
:10492000806101602046FFF73BFC2046FEF727FA36
:10493000CFE700000000FFFFF8B590F83D600446A7
:104940000068416821F4E061416020680025416908
:104950000091016841F0010101602068016821F4C3
:104960008061016020684168090520D5474F222EEB
:1049700048D02A2E46D0616B096849686185618DEF
:1049800019B1216C41F004012164416821F40061F6
:104990004160606BFDF799FB012808D0606B0765EB
:1049A000606BFDF780FB10B1606B016D8847608D17
:1049B00008B320684169C943490708D40069616A9E
:1049C0000870606A401C6062608D401E60852068CF
:1049D0004169C943490608D40069616A0870606A80
:1049E000401C6062608D401E6085608D18B1206C37
:1049F00040F004002064206C00B32046BDE8F8407D
:104A0000FFF7D6BBA16B096849686185618D19B153
:104A1000216C41F004012164416821F4006141608E
:104A2000A06BFDF752FB0128C1D0A06B0765A06BFE
:104A3000FDF739FB0028BAD0A06BB6E72A2E06D1C5
:104A40002563282084F83D002046FEF797F994F866
:104A50003D10202028290DD0216B222901D0222EA3
:104A600007D1256384F83D0084F83E502046FEF7C8
:104A700085F9F8BD0649E162256384F83D0084F8B4
:104A80003E502046FDF7FAFFF8BD0000E540000863
:104A90000000FFFF014890ED030A704794090020D1
:104AA000014890ED060A70479409002010B52821AE
:104AB0000848FBF7D1FB4FF4807207490748FFF71E
:104AC0004EF80648C06B0068016821F008010160DB
:104AD00010BD000094090020940800204406002026
:104AE0002DE9F0435C4A13780BB955287ED15B4918
:104AF000C8545B1CD8B210700B2877D3002318461B
:104B00000C5C401C2344C0B2DBB20A28F8D3887A7C
:104B10004FF00009984244D150484B782838512B27
:104B200004D0522B3ED0532B3BD167E091F802804A
:104B300091F803C00F7948EA0C2C0FFA8CFC00EEB8
:104B400010CA4E798D79F8EEC00A92ED010ACC793F
:104B50000B7A60EE800A497A47EA062636B2C0ED43
:104B6000000A00EE906A45EA042424B2F8EEE00A56
:104B700043EA012109B260EE800AC0ED010A00EEAD
:104B8000904AF8EEE00A20EE800ADFED350A80ED6B
:104B9000020A00EE101AB8EEC00A80EE201A80ED6C
:104BA000091A54E08C78CB780F7944EA03231BB2BE
:104BB00000EE103A4E798D79F8EEC00A9FED290A81
:104BC000C97947EA062460EE800A24B245EA012149
:104BD000C0ED030A00EE904A09B2F8EEE00A60EE7A
:104BE000800AC0ED040A00EE901A00E031E0F8EE11
:104BF000E00A20EE800A80ED050A28E08C78CB7868
:104C00000F7944EA03231BB200EE103A4E798D79F6
:104C1000F8EEC00A9FED140AC97947EA062460EE4F
:104C2000800A24B245EA0121C0ED060A00EE904A4E
:104C300009B2F8EEE00A60EE800AC0ED070A00EE65
:104C4000901AF8EEE00A20EE800A80ED080A82F859
:104C50000090BDE8F083000058000020BC0900204F
:104C60000000C84200007A3D0000B43B2DE9F0414D
:104C700014311433164607468DB29CB2F02800D387
:104C8000EF27F02E00D3EF264FF49671481E8D4289
:104C900000D305468C4200D304462A2000F088FA4F
:104CA000380A00F082FAF8B200F07FFA300A00F019
:104CB0007CFAF0B200F079FA2B2000F079FA280A99
:104CC00000F073FAE8B200F070FA200A00F06DFA12
:104CD000E0B200F06AFABDE8F0412C2000F068BABA
:104CE00010B51446F0280BD2B1F58C7F08D20B46D4
:104CF0000246FFF7BBFF2046BDE8104000F04BBA6C
:104D000010BD2DE9F0471E46DDF8208017460D4600
:104D10000446F02800D3EF24F02F00D3EF274FF400
:104D20008C71481E8D4200D305468E4200D3064644
:104D3000BC4202D920463C460746B54202D9284625
:104D40003546064633463A4629462046FFF78EFF4B
:104D50004FEA182A08F0FF09A8460CE0254606E0AD
:104D6000504600F022FA484600F01FFA6D1CBD4282
:104D7000F6D908F10108B045F0D9BDE8F087000088
:104D800030B587B014216846FBF766FA194800244D
:104D9000016841F004010160016801F0040105911E
:104DA000016841F0080101600068134D00F008003F
:104DB00005900122BB212846FDF70BFCBB2000908B
:104DC0000120CDE901040320039069462846FDF740
:104DD00003FB012210212846FDF7FBFB01222021C5
:104DE0002846FDF7F6FB012280212846FDF7F1FB5E
:104DF00007B030BD30380240000C024010B5FFF75C
:104E0000BFFF854C012210212046FDF7E2FB012265
:104E100011462046FDF7DDFB002202212046FDF76A
:104E2000D8FB002208212046FDF7D3FB6420FDF7C4
:104E3000C1FA012208212046FDF7CBFB6420FDF7D3
:104E4000B9FA112000F0B4F97820FDF7B3FA362052
:104E500000F0AEF9082000F0BFF93A2000F0A8F900
:104E6000052000F0B9F9B62000F0A2F90A2000F000
:104E7000B3F9822000F0B0F9B22000F099F90C20CB
:104E800000F0AAF90C2000F0A7F9002000F0A4F926
:104E9000332000F0A1F9332000F09EF9B72000F094
:104EA00087F9352000F098F9BB2000F081F928201F
:104EB00000F092F9C02000F07BF90C2000F08CF992
:104EC000C22000F075F9012000F086F9C32000F03F
:104ED0006FF9102000F080F9C42000F069F920205B
:104EE00000F07AF9C62000F063F90F2000F074F9A1
:104EF000D02000F05DF9A42000F06EF9A12000F0B0
:104F00006BF9E02000F054F9D02000F065F90020A2
:104F100000F062F9022000F05FF9072000F05CF970
:104F20000A2000F059F9282000F056F9322000F04C
:104F300053F9442000F050F9422000F04DF90620CA
:104F400000F04AF90E2000F047F9122000F044F971
:104F5000142000F041F9172000F03EF9E12000F0A4
:104F600027F9D02000F038F9002000F035F90220B0
:104F700000F032F9072000F02FF90A2000F02CF998
:104F8000282000F029F9312000F026F9542000F003
:104F900023F9472000F020F90E2000F01DF91C2015
:104FA00000F01AF9172000F017F91B2000F014F98F
:104FB0001E2000F011F92A2000F0FAF8002000F07D
:104FC0000BF9002000F008F9002000F005F9EF20AF
:104FD00000F002F92B2000F0EBF8002000F0FCF8C4
:104FE000142000F0F9F8012000F0F6F82B2000F072
:104FF000F3F8212000F0DCF8292000F0D9F82C206B
:1050000000F0D6F8012202212046FDF7E2FABDE8C1
:1050100010400A20FDF7CEB9000C02402DE9FF5FD9
:105020000546DDE90F4683466708DDF838807807D6
:1050300000D0012000EBD70000FB04FA203AD0B2E8
:105040000290019801992044401E83B2E819401E45
:1050500082B22846FFF70AFE0EB1002071E000255B
:105060002CE00C2C0FD0102C14D0182C15D0202C88
:1050700026D13648029900EB81100027465DF007E3
:1050800012D0039811E0029800EB4001304800EB89
:105090008100F2E72F48029903E0029800EB4001FB
:1050A0002D4800EB0110E8E7404600F074F87F1C43
:1050B0007608FFB2082FE2D36D1CADB25545D0D3B0
:1050C000BDE8FF9F0C2C20D0102C25D0182C26D00A
:1050D000202CF5D11D48029900EB81114FF00009F9
:1050E00011F80860F00704D02846039A0199FFF7E9
:1050F000F7FD6D1CADB2A5EB0B00B84216D10198BF
:105100005D46401C80B2019018E0029800EB40011F
:105110000F4800EB8101E1E70E48029903E0029895
:1051200000EB40010C4800EB0111D7E709F1010049
:10513000760800F0FF09B9F1080FD3D308F1010098
:1051400080B280465045BDD3BAE70000C89200083F
:1051500094760008087B0008F88000082DE9FE4FCF
:105160009946DDE90D6714468A460546DDF830802C
:105170000CE0CDF800804B4651462846CDE901674A
:10518000FFF74CFF05EB560085B2641C2278002A1D
:10519000EFD1BDE8FE8F10B50446000A00F01CF800
:1051A000E0B2BDE8104000F017B800F015B80000FC
:1051B00070B5084C0546002201212046FDF709FA8A
:1051C000284600F009F82046BDE87040012211464B
:1051D000FDF7FFB9000C024070B5144E05460022E1
:1051E00010213046FDF7F5F9002400222021304639
:1051F000FDF7EFF9280601D5012200E00022802109
:105200003046FDF7E6F9012220213046FDF7E1F9AD
:105210006806641C050EE4B2082CE6D33046BDE8EF
:10522000704001221021FDF7D4B90000000C0240AB
:105230007FB5002415480094019402941249039408
:1052400001604FF48031C0E901140461047680F8F4
:1052500020400F49C0E90A140125C561C46080F8E7
:1052600030404561FCF70DFD08B1FBF7E8FE042076
:10527000CDE90005694602940448FCF7C1FB00280B
:1052800001D0FBF7DCFE7FBD002001409C02002026
:105290000100000F7FB500211C480091019102918F
:1052A000194A0391026001244FF480320461C0E97D
:1052B0000121017680F820101203C26202254FF00E
:1052C000A062C5618262C16080F830404461FCF731
:1052D000D8FC08B1FBF7B3FE0520CDE9000404209B
:1052E000029069460948FCF78BFB08B1FBF7A7FE63
:1052F0000820CDE9000569460448FCF781FB002839
:1053000001D0FBF79CFE7FBD00210140E40200209C
:105310007FB500211C48009101910291194A039127
:10532000026001244FF480320461C0E9012101765A
:1053300080F820101203C26202254FF01062C5618E
:105340008262C16080F830404461FCF79AFC08B189
:10535000FBF775FE0A20CDE900040420029069469F
:105360000948FCF74DFB08B1FBF769FE0D20CDE9BC
:10537000000569460448FCF743FB002801D0FBF711
:105380005EFE7FBD002201402C030020194808B5B5
:10539000016841F400110160016801F400110091FD
:1053A000016841F4800101600068002200F480007F
:1053B000009004210D20FDF74BFD0D20FDF73AFD77
:1053C000002204210F20FDF743FD0F20FDF732FDE1
:1053D000002202213820FDF73BFD3820FDF72AFD91
:1053E000002202213A20FDF733FDBDE808403A20B3
:1053F000FDF720BD3038024000B587B01421684663
:10540000FAF72AFF1A480021026842F0800202607F
:10541000026802F080020592026842F00402026013
:10542000026802F004020592026842F00102026082
:10543000026802F001020592026842F00202026074
:10544000026802F002020592026842F0080202605D
:105450000068029100F0080005904FF44050CDE93B
:10546000000169460348FCF7B7FF07B000BD000024
:1054700030380240000402400D4810B50B4901606D
:105480000C49416000214FF480428160C0E9031261
:1054900041618161C1610162FDF72CFA002803D0EE
:1054A000BDE81040FBF7CBBD10BD0000005400402C
:1054B00034040020A08601000D4810B50B4901609E
:1054C0000C49416000214FF480428160C0E9031221
:1054D00041618161C1610162FDF70CFA002803D0CE
:1054E000BDE81040FBF7ABBD10BD0000005C004004
:1054F00088040020A086010010B58AB0002407941B
:105500001C2168460894FAF7A7FE25484FF0804111
:10551000C0E900142021816040F21941C0E9031460
:1055200080218161FEF741FA08B1FBF788FD702008
:10553000CDE9070407A91A48FDF772FF08B1FBF788
:105540007EFD6020009040F20D20CDE90104002294
:10555000694613480494FEF7C2F908B1FBF76FFDE2
:10556000042269460E48FEF7BAF908B1FBF767FD59
:10557000082269460A48FEF7B2F908B1FBF75FFD59
:10558000042004900C2269460548FEF7A8F908B1EA
:10559000FBF755FD0248FEF751F90AB010BD0000B7
:1055A000DC04002010B586B0002417480094019454
:1055B0000294039404941349059401605321C0E9B3
:1055C000011440F2F311C0E903148461FDF770FF88
:1055D00008B1FBF734FD4FF48050009069460A484B
:1055E000FEF724F808B1FBF72AFD049404A9064845
:1055F0000594FDF715FF002801D0FBF720FD06B04C
:1056000010BD0000000400402405002010B58AB041
:10561000002407941C2168460894FAF71DFE2548CB
:105620002349C0E900142021816040F21941C0E9FA
:10563000031480218161FEF7B8F908B1FBF7FFFC84
:105640007020CDE9070407A91A48FDF7E9FE08B163
:10565000FBF7F5FC6020009040F20D20CDE901043D
:105660000022694613480494FEF739F908B1FBF7A4
:10567000E6FC042269460F48FEF731F908B1FBF752
:10568000DEFC082269460B48FEF729F908B1FBF752
:10569000D6FC042004900C2269460648FEF71FF948
:1056A00008B1FBF7CCFC0348FEF7C8F80AB010BD00
:1056B000000800406C05002010B586B00024174893
:1056C0000094019402940394049413490594016096
:1056D0005321C0E901143121C0E903148461FDF7AD
:1056E000E7FE08B1FBF7ABFC4FF480500090694631
:1056F0000A48FDF79BFF08B1FBF7A1FC2020CDE98C
:10570000040404A90548FDF78BFE002801D0FBF72F
:1057100096FC06B010BD0000000C0040B40500204F
:1057200010B586B0002417480094019402940394A5
:1057300004941349059401605321C0E90114F9212F
:10574000C0E9031444618461FDF7B2FE08B1FBF7C0
:1057500076FC4FF48050009069460A48FDF766FFDA
:1057600008B1FBF76CFC049404A906480594FDF706
:1057700057FE002801D0FBF762FC06B010BD000008
:1057800000040140FC0500200C4810B50A490160E6
:105790004FF416514160002181600C22C160C0E9C4
:1057A00004128161C161FEF763FB002803D0BDE8EC
:1057B0001040FBF744BC10BD004C004044060020E4
:1057C0000C4810B50A4901604FF4E13141600021F5
:1057D00081600C22C160C0E904128161C161FEF7E1
:1057E00047FB002803D0BDE81040FBF728BC10BDE4
:1057F000001401408C060020FEE7FEE7704770476A
:10580000FDF7BEBA30B593B030216846FAF724FDF3
:1058100014210CA8FAF720FD1D480025016841F06D
:1058200080510160006800F08050119019480168B3
:1058300041F4804101600068022400F4804011902E
:1058400001200090000401908001CDE9064008AAE3
:105850000420A82182E813000B906846FDF714FC91
:1058600008B172B6FEE70CA90F2081E831004FF4B1
:10587000A0500F904FF48050109005210CA8FDF718
:1058800019FB002801D072B6FEE713B030BD00004E
:1058900040380240007000400248016841F4700145
:1058A0000160704788ED00E00148FDF72EBF000061
:1058B000240500200148FDF728BF0000B4050020A2
:1058C0000148FDF722BF0000FC0500200148FDF75C
:1058D0001CBF0000FC050020F0B50268274B284DD6
:1058E000284E294F294C4FF0804C984209D06045F2
:1058F00007D0A84205D0B04203D0B84201D0A042A0
:1059000004D122F0700E4A6842EA0E0298421BD07F
:10591000604519D0A84217D0B04215D0B84213D074
:10592000A04211D01A4DA8420ED01A4DA8420BD059
:10593000194DA84208D0194DA84205D0184DA842CB
:1059400002D0184DA84203D122F44075CA682A43F8
:105950004D6922F080022A438D68C5620D68856218
:10596000984201D0A04201D109690163016841F068
:1059700004010160012141610260F0BD00000140AD
:105980000004004000080040000C004000040140FA
:105990000040014000440140004801400018004020
:1059A000001C00400020004010B501F01F03012141
:1059B000046A99408C430462016A9A40114301626F
:1059C00010BD10B5846842EA032224F47F440A43E0
:1059D0002243826010BD826822F070020A4342F0C6
:1059E0000701816070470000F0B5036A026A22F087
:1059F0000102026242688469124E24F073050C6849
:105A00002C4323F002058B682B430D4DA84201D097
:105A1000B04205D123F00807CB683B4323F00403D1
:105A2000A84201D0B04205D14D6922F4407215431D
:105A30008A692A4342608461496841630362F0BD18
:105A40000000014000040140F0B5026A036A23F03F
:105A500010030362436884690D6824F4E64444EA51
:105A600005248D6822F0200242EA05120F4D104EE7
:105A7000A84201D0B04206D1CF6822F0800242EAAB
:105A8000071222F04002A84201D0B04207D14D696E
:105A900023F4406343EA85038D6943EA8503436049
:105AA0008461496881630262F0BD0000000001402A
:105AB00000040140F0B5026A036A23F480730362B4
:105AC0004368C46922F4007224F073050C68124E16
:105AD0002C438D6842EA05220E4DA84201D0B04207
