:020000040800F2
:10000000600C0020A1010008CD4B00087B300008E7
:10001000294800081D0700085D5500080000000081
:100020000000000000000000000000009B4C0008E1
:100030001D08000800000000994C0008E14D000870
:10004000BB010008BB010008BB010008BB010008A0
:10005000BB010008BB010008BB010008BB01000890
:10006000BB010008BB010008BB010008BB01000880
:10007000BB01000849070008BB010008550700083C
:10008000BB010008BB010008BD040008BB0100085B
:10009000BB010008BB010008BB010008BB01000850
:1000A000BB010008BB010008BB010008BB01000840
:1000B000BB010008894E0008BB0100088930000818
:1000C0007D300008BB010008BB010008BB0100082F
:1000D000BB010008BB010008BB010008BB01000810
:1000E000BB010008BB010008BB010008BB01000800
:1000F000BB010008BB010008BB010008BB010008F0
:10010000BB010008BB010008BB010008BB010008DF
:1001100071510008BB010008BB010008BB010008C9
:1001200061070008BB0100086D070008BB0100085B
:10013000BB010008BB010008BB010008BB010008AF
:10014000BB010008BB010008BB010008BB0100089F
:10015000BB010008BB010008BB01000851550008A5
:10016000A130000895300008BB010008BB01000861
:10017000BB010008BB010008BB0100080000000033
:10018000BB010008BB010008DFF810D000F098F8B0
:1001900000480047515C0008AFF30080600C00206D
:1001A0000648804706480047FEE7FEE7FEE7FEE711
:1001B000FEE7FEE7FEE7FEE7FEE7FEE7794E000812
:1001C000890100082DE9F05F0546002092469B4614
:1001D00088460646814640241BE02846414647465D
:1001E000224600F041F853465A46C01A914110D3B6
:1001F00011461846224600F028F82D1A67EB010830
:100200004F4622460120002100F01FF817EB00099D
:100210004E41201EA4F10104DFDC484631462A4647
:100220004346BDE8F09FD2B201E000F8012B491E21
:10023000FBD270470022F6E710B513460A46044683
:100240001946FFF7F0FF204610BD202A04DB203AB4
:1002500000FA02F1002070479140C2F1200320FA19
:1002600003F3194390407047202A04DB203A21FA17
:1002700002F00021704721FA02F3D040C2F12002BF
:100280009140084319467047002801DBC0F1004047
:10029000002901DBC1F10041814202D24FF0004050
:1002A00004E04FF0005001D14FF0C0404FEA20620F
:1002B000EFF3008162F31F6181F300887047000053
:1002C000064C074D06E0E06840F0010394E80700A3
:1002D00098471034AC42F6D3FFF75AFF009A000853
:1002E000209A000870B52DED0A8BDFED4ABA322056
:1002F000F0EE6B8AF0EE689AB0EE689AB0EE688A1B
:1003000001F0CCF8444D00249FED44AA9FED44CA6F
:100310009FED44BAF0EE00AA05F11A06288800EE17
:10032000100A6888B8EE400A20EE0A0A20EE0C0A8D
:1003300030EE4B0A20EE2A1A00EE100A3088B8EE92
:10034000400A79EE819A20EE0A0A20EE0C0A30EE7D
:100350004B0A60EE2A0A00EE100A708801EE900A3D
:10036000B8EE400A39EE209AF8EE611A052020EE28
:100370000A0A61EE8A1A20EE0C0A61EE8C1A30EE3F
:100380004B0A71EECB1A20EE2A0A61EEAA1A78EE19
:10039000808A38EE218A01F081F8641CA4B2642CB2
:1003A000BCD31D489FED200A0E384FF07E51C9EE98
:1003B000800A89EE001AC0ED080AC8EE801A80EDA6
:1003C000091A88EE002AB0EEE00A10EE102AC0EDFD
:1003D0000E1A8A4280ED0F2A01DDC0ED08BAB0EE98
:1003E000C10A10EE102A8A4201DDC0ED09BAB0EE52
:1003F000E10A10EE102A8A4201DDC0ED0EBAB0EE1D
:10040000C20A10EE102A8A4201DDC0ED0FBABDEC1F
:100410000A8B70BD000000002E0000200000803913
:10042000333353403333D33F0000C84210B5014645
:10043000806B026C12F0500F05D0026CD20626D5EC
:1004400000F0FAFB10BD016C41F400710164016819
:100450008A6812F0405F17D1027EAAB9CA6A12F404
:10046000700F02D08A6852050ED44A6822F020022A
:100470004A60016C21F480710164016CC90403D4E9
:10048000016C41F00101016400F0D4FB10BD806BF0
:10049000C26CBDE810400846104710B5806B402183
:1004A0000164416C41F00401416400F0C5FB10BDE2
:1004B00010B5806B00F0BFFB10BD000010B5054803
:1004C00000F0BBFB044800F0B8FBBDE81040034857
:1004D00000F0B3BB3C02002084020020CC020020CC
:1004E000464910B54A6822F440324A604A68436877
:1004F0001A434A6001684A6822F480724A600168BF
:100500004A68036942EA03224A6001684A6822F0A5
:1005100040724A6001684A6883681A434A60016809
:100520008A6822F400628A6001688A68C3681A4394
:100530008A60816A6FF07062D14201688A6822F035
:1005400070628A6001688A680CD0836A1A438A6084
:1005500001688A6822F040528A6001688A68C36A2A
:100560001A4301E022F040528A6001688A6822F052
:1005700002028A6001688A68037E42EA43028A6056
:1005800090F82010002901684A680FD042F40062F8
:100590004A6001684A6822F460424A6001684A6819
:1005A000174C436A04EB43331A4301E022F4006220
:1005B0004A600168CA6A22F47002CA620168CA6AA3
:1005C000838B104C04EB03531A43CA6201688A6898
:1005D00022F400728A6001688A6890F8303042EA3A
:1005E00043228A6001688A6822F480628A60016816
:1005F0008A68406942EA8020886010BD002301407B
:1006000000E0FFFF0000F0FF10B51D4800F040FDC6
:100610001C4800F03DFD1C4900209FED1C0A08808D
:1006200048801A31F2EE080A08804880A1F12800BB
:10063000022280ED050A80ED060A80ED070A80EDB2
:100640000B0A80ED0C0A80ED0D0AC0ED100A80ED5A
:10065000080A80ED090A80ED0E0A80ED0F0A1A39AA
:10066000074800F069FC084902221A31054800F0E9
:1006700063FC322000F012FFBDE81040FFF732BEED
:1006800084020020CC0200202E0000200000000088
:100690000021017470470000016002710021018196
:1006A0009FED020A80ED030A01747047000000000C
:1006B0001CB5017C09B102201CBD0121017402227C
:1006C000411DCDE90012006801230C226C2101F0CC
:1006D00069FA1CBDB0F8051049BAC1F30B010181DC
:1006E0000189DFED0C0A00EE101A0179B8EE400A1C
:1006F00060EE200A00EE101A0021B8EE400A20EE4B
:10070000800ADFED050A20EE200A80ED030A01745D
:100710007047000000008039DB0FC940FEE7000091
:1007200090ED000AB0EE001A81ED000A90EC020A8A
:1007300000EE810ADFED030A20EE200A81ED010AB6
:10074000704700003ACD133F014800F035BD00006E
:100750002C060020014800F02FBD00008C06002070
:10076000014800F029BD000074030020014800F09A
:1007700023BD00001403002001681823CAB2103AF8
:10078000B2FBF3F2054B6FF30901032A9B5CC365CF
:1007900000D9091D8165084670470000A460000863
:1007A00010B5014600208B698A6A4FF0C07453B1BE
:1007B000B3F5005F15D072B1012A0CD0022A0AD01D
:1007C000032A09D104E01AB1012A06D0022A03D172
:1007D000C96AC90100D5012010BDC96AA142FAD079
:1007E00010BD002AF7D0012AF2D0022AF3D0032A42
:1007F000F3D010BD30B50468256825F48025256048
:10080000046863608368402B036803D099600068C4
:10081000C26030BD9A600068C16030BD704772B67A
:10082000FEE7000070B504462DED048B0120002585
:10083000DFED218A9FED218A9FED219A84F8BD008A
:10084000B0EE681AF0EE080AB0EE480A204600F052
:100850002BF9642005F04EF9B0EE491AF0EE080AC3
:10086000B0EE480A204600F01FF9642005F042F976
:100870006D1C032DE4DBB0EE481AF0EE080AB0EE72
:10088000480A204600F010F94FF47A7005F032F96A
:10089000207805F049F984ED300AB0EE481AF0EE00
:1008A000480AB0EE480A204600F0FEF8002084F81E
:1008B000BD00BDEC048B70BD910A863F00000000B6
:1008C000910A86BF70B59FED2A0A04462DED048B70
:1008D000F6EE008ABEEE008A0170426080ED020AE8
:1008E00080ED030A80ED040A80ED050A002084F8FB
:1008F000BD0084F8BC0084ED300A92ED010A9FED42
:100900001D9A154660EE281A20EE081AF7EE000A26
:10091000B0EE490A04F1400004F088F9D5ED010A6F
:10092000B0EE490A04F1580060EEA81A20EE881AC9
:10093000F7EE000A04F07AF9D5ED021ADFED0E0A9F
:100940009FED0E0AB1EE611A04F1700004F06EF929
:10095000BDEC048B04F18800B1EE040ABDE87040E0
:10096000DFED071A9FED071ADFED070A04F05EB905
:10097000000000009A99993E0AD7233CCDCC4C3D0B
:100980000000FA430000FAC3CDCCCC3D70B504465C
:100990002DED028B90F8BD00002874D0207805F072
:1009A000CFF884ED060A207805F0CFF884ED070A29
:1009B000D4ED060A04F124010D46F1EE600A04F1BB
:1009C000180030EEC00A84ED080AFFF7A9FE20786F
:1009D00005F092F884ED0D0A04F12C01284604F08C
:1009E00033F994F8BC1004F170009FED288A054695
:1009F000022902D0032905D015E0D4ED0F0A94EDA9
:100A0000040A0AE0D4ED0E0A94ED050A04F1880008
:100A100004F0DDF8D4ED0F0A284604F0D8F884ED90
:100A2000028A84ED030AD4ED0B0A94ED020A04F164
:100A3000400004F0CCF884ED280AD4ED0C0A94EDC3
:100A4000030A04F1580004F0C2F884ED290A04F105
:100A5000A80194ED0D0A0E4604F1A00002F0FEFF7D
:100A6000606804F1B0010D4690ED010A304604F0D3
:100A700015F922782846BDEC028B4FF47A71BDE857
:100A8000704005F067B8BDEC028B70BD000000003F
:100A900080ED020AC0ED030A704780F8BC1001B176
:100AA000012180F8BD10704770B580ED290A00F172
:100AB000A8010446C0ED280AB0EE410A0E46A03057
:100AC00002F0CCFF606804F1B0010D4690ED010A20
:100AD000304604F0E3F822782846BDE870404FF431
:100AE0007A7105F037B8704778B50024009490F813
:100AF0003C20012A19D0012280F83C200A680723F3
:100B00000568092A13D9EE680A3A02EB42029340BB
:100B10009E43EE600B788A680A3B03EB43039A40DE
:100B20000368DD682A43DA6010E0022078BD2E6990
:100B300002EB420293409E432E610B788A6803EBDE
:100B400043039A4003681D692A431A614A681F23B8
:100B5000072A13D205686E6B521E02EB8202934085
:100B60009E436E630B790A885B1E92B203EB83038C
:100B70009A4003685D6B2A435A6327E005680D2A93
:100B800012D22E6BD21F02EB820293409E432E6341
:100B90000B790A88DB1F92B203EB83039A40036848
:100BA0001D6B2A431A6311E0EE6A0D3A02EB8202D2
:100BB00093409E43EE620B790A880D3B92B203EBA1
:100BC00083039A400368DD6A2A43DA62164B05689C
:100BD000144A9D4206D10D68122D03D1556845F483
:100BE0008005556005689D4218D10B68102B01D017
:100BF000112B13D1536843F4000353600968102983
:100C00000CD10A490A4A0968B1FBF2F101EB8101F2
:100C1000490000E0491E00910029FBD180F83C40CA
:100C2000002078BD00230140002001401C0000206E
:100C300040420F0070477047704770B50446006827
:100C40000668456816F0020F05F020012AD049B366
:100C5000216CC90603D4216C41F4007121648168C0
:100C600011F0405F17D1217EA9B9C16A11F4700F4C
:100C700002D0816849050ED4416821F0200141600D
:100C8000206C20F480702064206CC00403D4206C9D
:100C900040F0010020642046FFF7CCFF21686FF090
:100CA0001200086016F0040F05F0800132D089B3FD
:100CB000206CC00603D4206C40F4005020642068EF
:100CC000816811F4401F1ED1816B11F4401F02D0C6
:100CD0008168490517D44168490514D4816811F029
:100CE000405F10D1217E71B9416821F080014160DF
:100CF000206C20F480502064206CC00503D4206C4C
:100D000040F0010020642046FFF7EDFE21686FF0FF
:100D10000C00086016F0010F05F040010FD071B112
:100D200020680068C0070AD0206C40F4803020643E
:100D3000204600F043F821686FF00100086016F0CB
:100D4000200F05F080610ED000290CD0606C40F0BF
:100D50000200606420686FF0200505602046FFF700
:100D60006BFF2068056070BD70B504004FF0000592
:100D700003D0206C002610B107E0012070BD204692
:100D800000F01EF8666484F83C60206CC00610D445
:100D9000206C20F4885040F0020020642046FFF7C9
:100DA0009FFB6664206C20F0020040F0010020648C
:100DB00000E0012584F83C60284670BD70470000C3
:100DC0002DE9F04F87B0064614216846FFF732FA46
:100DD0005149504F336800254F48143903244F4A76
:100DE000BB4217D1036843F480730360006800F4CA
:100DF00080700590086840F0010008600868694646
:100E000000F00100059010208DE83100104600F040
:100E100057FB44E0DFF808C14FF480674FF40068E7
:100E20004FF400594FF4807A4FF4003B634541D1B1
:100E3000036843F400730360006800F400700590D9
:100E4000086840F001000860086800F001000590A3
:100E5000086840F0020008600868694600F0020077
:100E6000059020208DE83100104600F029FB01207C
:100E70008DE8310069462B4800F022FB2B4C2A48B4
:100E800004F10C032060F803C4E9010583E8A00F16
:100E90002046656236E000BFFFF7C1FC36E0002265
:100EA0001146122000F0EAFF122000F0D9FF07B02F
:100EB000BDE8F08F1E4A9342F9D1026842F4806285
:100EC0000260006800F480600590086840F004004B
:100ED00008600868694600F00400059009208DE864
:100EE0003100144800F0ECFA104C0F4860343038F0
:100EF00020608005C4E9010504F10C02204682E867
:100F0000A00F656200F028FA0028C5D1B463A6637B
:100F1000C5E70000002001404438024000000240C4
:100F200000210140000402404064024014030020FC
:100F30000022014000080240F8B50E460021044698
:100F4000009190F83C0013460A46012807D0012082
:100F500084F83C0020688568ED0702D011E002208B
:100F6000F8BD856845F0010585604048404D006842
:100F7000B0FBF5F000EB400000E0401E00900028C0
:100F8000FBD120688568ED0503D5856825F480755B
:100F9000856020688568ED075DD0226C40F20165B0
:100FA000AA4342F4807222644068400505D5206C53
:100FB00020F4005040F480502064206CC00404D51C
:100FC000606C20F00600606400E0616484F83C100E
:100FD000A16B2948274DC863A16B28480864A16B01
:100FE0002748C86421686FF02200086020684168C3
:100FF00041F0806141602068816841F480718160C6
:10100000216832464C31A06B00F010FA0246686845
:101010001C49C006206806D0884224D1816811F09E
:10102000405F13D01FE08842F8D0174B984203D19D
:10103000D1F80433DB06F1D0144B984213D1D1F828
:10104000041301F01F011029E8D30CE0816841F07E
:101050008041816007E0206C40F010002064606CEB
:1010600040F0010060641046F8BD00001C00002044
:1010700040420F00002301402D040008B104000885
:101080009B04000800200140002101400022014093
:1010900010B50446002094F83C1001290CD0012121
:1010A00084F83C1021688A6822F001028A60216875
:1010B0008A68D20702D01DE0022010BD8A6822F49F
:1010C00080728A60A16B91F83520022A07D1084608
:1010D00000F014F818B1216C41F04001216421683E
:1010E0004A6822F080624A60216C21F4885141F004
:1010F00001012164002184F83C1010BD2DE9F0416C
:101100000446876D00F0DEFA064694F835000025A7
:10111000022806D08020606584F834500120BDE8A4
:10112000F0812068016821F01601016020684169A2
:1011300021F080014161206C08B9A06C20B12068C9
:10114000016821F0080101602068016821F00101B7
:1011500001600CE000F0B6FA801B052807D92020BA
:101160006065032084F8350084F83450D7E72068A0
:101170000068C007EED194F85C103F208840B8604A
:10118000012084F8350084F834500020C7E790F837
:101190003510022903D080214165012070470521C7
:1011A00080F835100068016821F00101016000201D
:1011B000704790F8350070472DE9F84304464FF02A
:1011C0000009CDF8009063484FF41651A56D0068F2
:1011D000B0FBF1F72E6894F85C10082000FA01F1DA
:1011E00031420FD021680A6852070BD50A6822F0F5
:1011F00004020A6094F85C108840A860606D40F0BA
:101200000100606594F85C104FF0010808FA01F0E5
:10121000304208D021684969090604D5A860606D8C
:1012200040F00200606594F85C1004208840304271
:1012300008D021680968890704D5A860606D40F06E
:101240000400606594F85C1010208840304218D08B
:1012500021680968090714D5A86020680168490356
:1012600004D50068000308D5A16C07E00168C90532
:1012700003D4016821F008010160216C09B1204606
:10128000884794F85C1020208840304231D0216893
:101290000968C9062DD5A86094F83500052820688E
:1012A000016806D0490347D5006800031DD4616C6E
:1012B0001CE021F0160101602068416921F08001E5
:1012C0004161206C08B9A06C20B12068016821F050
:1012D0000801016094F85C103F208840A86084F801
:1012E000358084F83490216D1FE0E16B09B1204610
:1012F0008847606D00282BD0606DC00714D0052092
:1013000084F835002068016821F00101016000982F
:10131000401C0090B84203D820680068C007F6D18E
:1013200084F8358084F83490E16C002910D001B045
:101330002046BDE8F04308470168C905D5D40168D7
:1013400021F01001016084F8358084F83490CCE7F6
:10135000BDE8F8831C0000202DE9F041044600F0B0
:10136000B1F906465CB1022084F83500002584F806
:1013700034502068016821F0010101600DE0012076
:10138000BDE8F08100F09EF9801B052805D92020DA
:101390006065032084F83500F2E720680068C00724
:1013A000F0D12268116820480140D4E901031843B4
:1013B000D4E903363343184363691843A3691843D8
:1013C000E3691843236A18430843616A042903D177
:1013D000D4E90B1319430843106020684069666A1A
:1013E00020F0070130460E43012704280CD1A06AE3
:1013F0000643E06A40B12046FFF7D2F920B1402011
:10140000606584F83570BAE7206846612046FFF7CA
:10141000B3F994F85C203F2191408160656584F8C0
:1014200035700020ACE700003F8010F02DE9F0415E
:101430000446866D90F83400002501280DD0012067
:1014400084F8340094F835700020012F07D084F818
:10145000340002252846BDE8F0810220FBE7022780
:1014600084F8357060652046FFF7C4F994F85C1085
:101470003F208840B0602068016841F0160101609B
:10148000206C20B12068016841F0080101602068EB
:10149000016841F001010160DCE7000070B504461D
:1014A00000F010F90546601C02D00448007804449E
:1014B00000F008F9401BA042FAD370BD10000020D4
:1014C0002DE9F84FDFF8BCA10022012503264FF0DB
:1014D0000F090AF1040BAAF1040E00BF0B6805FA0C
:1014E00002F42340A34270D10F7907F00307012FC4
:1014F00001D0022F16D187684FEA420806FA08FC8D
:1015000027EA0C07D1F80CC00CFA08FC4CEA070CCF
:10151000C0F808C04768A7430C79C4F3001494408E
:101520003C4344600C79E443A4070AD0C4684FEA02
:10153000420C06FA0CF7BC438F6807FA0CF72743F6
:10154000C7600C7904F00304022C12D1D40800EB1C
:10155000840CDCF820405707FF0E09FA07F824EA4C
:101560000804D1F8108008FA07F848EA0408CCF813
:10157000208004684FEA420C06FA0CF7BC430F794E
:1015800007F0030707FA0CF7274307604C6814F4C9
:10159000403F70D03C4C276847F480472760246860
:1015A00022F0030704F480440094384C07EB040C49
:1015B000DCF8084897074FEA177809FA08F7BC43A0
:1015C000334FB84202D1002724E054E0314FB842F3
:1015D00001D101271EE0304FB84201D1022719E0A6
:1015E0002E4FB84201D1032714E02D4FB84201D14C
:1015F00004270FE02B4FB84201D105270AE02A4FFC
:10160000B84201D1062705E0284FB84201D107278B
:1016100000E0082707FA08F72743CCF80878DAF83B
:1016200000405746D1F804C09C435FEACC2C00D55B
:101630001C433C60DBF800405F46D1F804C09C438B
:101640005FEA8C2C00D51C433C60DEF800407746F6
:10165000D1F804C09C435FEA8C3C00D51C433C603D
:10166000084F083F3C68D1F804C09C435FEACC3C7B
:1016700000D51C433C60521C102AFFF42FAFBDE87C
:10168000F88F0000083C014044380240003001401F
:10169000000002400004024000080240000C02402A
:1016A000001002400014024000180240001C0240DA
:1016B0000069084000D0012070470AB1816170477D
:1016C0000904FBE701488068704700001000002013
:1016D000704770472DE9F041016804464A694E6839
:1016E00090F83E000025D743FA0506D4F243D20510
:1016F00003D46FF4807201254A61B90508D4F1431F
:10170000C90505D422686FF4007145F002055161E6
:10171000790525D4F143C90522D4638D94F83D1091
:10172000226B202808D13BB9212910D029290ED0BD
:10173000282901D1212A0AD022686FF480615161E1
:1017400045F00405102806D0402804D008E02046C3
:1017500002F08EF804E02068016841F40071016035
:10176000380508D4F043C00505D421686FF4006043
:1017700045F008054861002D07D0206C28432064FF
:101780002046BDE8F04101F0F7BCBDE8F0812DE94D
:10179000F047026800215368C66A90F83E4090F80E
:1017A0003D50102C12D0402C10D0046C002C7DD059
:1017B0005469E443A6077AD4DE43B60577D4036CB4
:1017C00003B19169BDE8F04702F02EB897695169FD
:1017D0004FF42A0CC9435FEAC1784FF02A4904D07C
:1017E00066452AD04E4528D010E0DE43B6050DD41C
:1017F000C16A614501D1012103E0C16A494501D1B6
:101800000821C162BDE8F04701F074BF0E0716D48D
:10181000DE43B60513D4416CC9B21161416B09B105
:10182000C96B29B9816B002907D0C96B002904D085
:101830000068416841F400614160BDE8F0878E07AF
:1018400006D4DE43B60503D4BDE8F04701F0C6BEBA
:10185000FE43526876074FEA02521DD4002AECDBA1
:101860000A0608D4DA43520505D4490705D5BDE870
:10187000F04701F057BE4907DFD4D9438905DCD4CE
:10188000212D05D0402CD8D1BDE8F04701F078BF1C
:10189000BDE8F04701F004BE002ACEDB4A060BD4B7
:1018A000DA43520508D4490708D501E00DE00EE0FF
:1018B000BDE8F04701F07ABD4907BED4D943890598
:1018C000BBD4BDE8F04701F003BD916970E7E106C4
:1018D00006D4D943890503D4BDE8F04702F010B817
:1018E0002821212D27D0292D25D0650655D4DD436B
:1018F0006D0552D4640752D590F83D30448D002CCC
:101900009BD01269446A2270426A521C4262428D24
:10191000521E4285428D002A8FD12A2B8DD102681A
:10192000536823F4806353602222026380F83D10E1
:1019300000F03AFA81E7250623D4DD436D0520D473
:10194000640720D590F83D30448D002CF2D0446AD5
:1019500024781461426A521C4262428D521E4285B2
:10196000428D002AE6D1292BE4D10268536823F482
:10197000806353602122026380F83D1000F015FA65
:101980005BE76107D6D4D9438905D3D4418D0029BB
:10199000D0D0416A097811610AE06107CAD4D943FD
:1019A0008905C7D4418D0029C4D01169426A1170DC
:1019B000416A491C4162418D491E41853DE7000055
:1019C00000680649884201D1054804E0054988427B
:1019D00003D103481430FEF75BBE7047005400404B
:1019E00014020020005C004070B5040025D094F87B
:1019F0003D00002520B984F83C50204600F040F915
:101A0000242084F83D002068016821F00101016074
:101A10002068016841F4004101602068016821F4F8
:101A20000041016000F0F6FA4D4A6168914201D828
:101A30004C4900E04C49884201D2012070BD4B491D
:101A40002368B0FBF1F15E6826F03F060E435E604E
:101A50006368934206D94FF4967359434FF47A73EF
:101A6000B1FBF3F12368491C1E6A26F03F0631439F
:101A700019626168914210D84900401EB0FBF1F232
:101A8000521CC2F30B02042A01D2042022E0B0FB54
:101A9000F1F0401CC0F30B001CE0A268F2B301EBB4
:101AA000C10303EB0116431EB3FBF6F35B1C43F4C7
:101AB00080431B0549D092B301EBC10202EB011137
:101AC000401EB0FBF1F0401CC0F30B0040F480401E
:101AD00040F400402168CA694CF6FF739A431043F2
:101AE000C861D4E9071001432068026822F0C002EF
:101AF00011430160D4E9030101432068826848F280
:101B0000FF339A4311438160D4E9050108432168FA
:101B1000CA6822F0FF021043C86001E00EE016E040
:101B20002068016841F0010101602564202084F8EB
:101B30003D00256384F83E50002070BD01EB410656
:101B4000431EB3FBF6F35B1CB3E70120C2E701EBD6
:101B50004101401EB0FBF1F0401CC0F30B00B7E7A1
:101B6000A086010080841E0000093D0040420F0055
:101B70007047000000680649884201D1054804E02A
:101B80000549884203D103481430FEF7A3BD7047CE
:101B90000054004014020020005C00407047704771
:101BA00070470000F8B50024DDE90676009490F84F
:101BB0003D50202D5ED1304D46F2A81C2D68B5FB5E
:101BC000FCF505EBC50C0CEB051500956D1E00959D
:101BD00006D00568AD69ED43AD070BD4009DF5E770
:101BE00040F8304F202141738473016941F0200196
:101BF00001613FE090F83C50012D3BD0012580F879
:101C00003C500568D5F800C05FEACC7C05D1D5F81A
:101C100000C04CF0010CC5F800C00568D5F800C044
:101C20002CF4006CC5F800C0222580F83D504025FA
:101C300080F83E50046447624685458D05850F4D0A
:101C4000C56241648264C364046501680A6842F441
:101C500080620A6001680A6842F480720A6080F853
:101C60003C40018D21B10068416841F4E061416070
:101C70000020F8BD0220F8BD1C0000200000FFFF7E
:101C80002DE9F04186B0044614216846FEF7D2FAE9
:101C90003F4A2168DFF8FC8000243E4812250326D5
:101CA000042708F1100891422BD1016841F002018C
:101CB0000160006802AA00F002000590C020CDE992
:101CC000000582E8D00069463348FFF7F9FBD8F8F1
:101CD000001041F40011C8F80010D8F800000022EC
:101CE00000F40010059011461F2000F0C7F81F20D7
:101CF00000F0B6F800221146202000F0BFF82020A6
:101D000040E0264A91423FD1016841F00401016060
:101D1000016801F004010591016841F001010160D1
:101D20000068694600F0010005905015CDE90005F6
:101D300002AA1B4882E8D000FFF7C2FB4FF4807074
:101D4000CDE9000502AA694682E8D0001548FFF7F0
:101D5000B7FBD8F8001041F40001C8F80010D8F81B
:101D60000000002200F4000005901146482000F019
:101D700085F8482000F074F800221146492000F050
:101D80007DF8492000F06CF806B0BDE8F081000055
:101D9000005400403038024000040240005C004023
:101DA0000008024000000240704770470248816806
:101DB0000278114481607047100000200B4810B574
:101DC000016841F400710160016841F480610160C3
:101DD000016841F480710160032000F06FF80F206A
:101DE00000F006F800F024F8002010BD003C02408E
:101DF00070B50D4D04464FF47A712878B1FBF0F0C0
:101E00000A490968B1FBF0F000F00AFB48B9102C50
:101E100007D200222146501E00F030F800206C60EE
:101E200070BD012070BD0000100000201C000020CB
:101E30000A4808B5016841F480410160006800F477
:101E4000804000900548001F016841F0805101600A
:101E5000006800F08050009008BD00004438024047
:101E6000002809DB00F01F02012191404009800099
:101E700000F1E020C0F8001170470000F0B40E4BF4
:101E80001B680C46C3F30223C3F10705042D00D9D8
:101E90000425191D072901D2002300E0DB1E0126BD
:101EA00006FA05F1491E214099409E40761E1640D3
:101EB0003143F0BC03F066BB0CED00E0064900F0D6
:101EC000070208684FF6FF03184040EA0220034A61
:101ED00010430860704700000CED00E00000FA05B8
:101EE0002DE9F0470E46050065D0DFF81481D8F8DB
:101EF0000000F7B200F00700B04207D288F8007087
:101F0000D8F8000000F00700B04254D128683D4CDA
:101F1000810712D5400703D5206840F4E0502060C7
:101F20002878000703D5206840F4604020602068CE
:101F3000A96820F0F000084320602878C0072DD061
:101F4000304968680839012812D0022813D00328C4
:101F500011D00968890700292DDA216821F00301D1
:101F600001432160FFF7AEFB814641F2883A0EE063
:101F700009688903EFE709688901ECE7FFF7A2FB2D
:101F8000A0EB0901514502D90320BDE8F087206884
:101F9000696800F00C00B0EB810FEFD1D8F80010A9
:101FA000404601F00701B14207D90770006800F010
:101FB0000700B04201D00120E7E72878400705D5A7
:101FC0002068E96820F4E050084320602878000782
:101FD00006D52068296920F4604040EAC1002060ED
:101FE00000F038F82168084AC1F30311515CC84079
:101FF0000649086006480068FFF7FAFE0020C4E7BB
:10200000003C024008380240AC6000081C00002080
:10201000140000200448054900680968044AC1F317
:102020008221515CC84070471C00002008380240E3
:10203000BC6000080448054900680968044AC1F307
:102040004231515CC84070471C00002008380240F3
:10205000BC600008154810B5006810F00C02144868
:1020600013D04110042A0FD0082A0ED10F4C241F80
:102070002268236802F03F025B0207D52068C0F3A4
:102080008810A0FB010106E0084610BD2168C1F3DD
:102090008811A1FB00010023FEF794F82168C1F329
:1020A0000141491C4900B0FBF1F010BD0838024065
:1020B0000024F4002DE9F84F04006ED02078DFF8FA
:1020C0004C93C007A9F104054AD009F10400016846
:1020D000C1F38101012908D00068C0F38100022802
:1020E0000AD1D9F80000400206D52868800337D508
:1020F00060680028E1D033E06068B0F5803F10D020
:10210000B0F5A02F286810D020F48030286028680F
:1021100020F4802028606068A8B1FFF7D3FA064653
:102120000DE0286840F48030F4E740F48020286017
:10213000F7E700BFFFF7C6FA801B642873D828684A
:102140008003F7D50CE0FFF7BDFA064605E000BFB7
:10215000FFF7B8FA801B6428F0D828688003F7D40A
:102160002078DFF8AC8280074FF0000A3ED5A74800
:10217000001D016811F00C0F08D00068C0F3810049
:1021800002280BD1D9F80000400207D42868800744
:1021900016D5E068012800D112E033E1E068B8B15B
:1021A0000120C8F80000FFF78DFA064605E000BFE1
:1021B000FFF788FA801B0228C0D828688007F7D567
:1021C0002868216920F0F80040EAC10028600DE08D
:1021D000C8F800A0FFF776FA064604E0FFF772FAA7
:1021E000801B02281FD828688007F7D420780007B2
:1021F00022D5864F87486169703771B1012101602E
:10220000FFF760FA064604E0FFF75CFA801B02283D
:1022100009D838688007F7D50EE0C0F800A0FFF7AE
:1022200051FA064605E082E0FFF74CFA801B0228CF
:102230007DD838688007F7D42078400768D5DFF864
:10224000CCB100270BF13C0BDBF80000C0000BD435
:10225000DBF8001041F08051CBF80010DBF80000F3
:10226000012700F0805000906B4E3068C00510D4FC
:10227000306840F480703060FFF724FA009005E089
:10228000FFF720FA0099401A022850D83068C0059C
:10229000F6D55E4EA0686C3601280FD00528306850
:1022A00010D020F001003060306820F00400306071
:1022B000A068B8B1FFF706FA00900FE0306840F070
:1022C0000100F4E740F004003060F7E7FFF7FAF9A7
:1022D0000099411A41F28830814266D830688007FF
:1022E000F4D50EE0FFF7EEF9009007E0FFF7EAF90A
:1022F0000099411A41F28830814256D830688007EF
:10230000F4D42FB1DBF8001021F08051CBF800108D
:10231000A069C8B33D49091D0968C1F381010229BB
:102320004AD00228504607D0C8F8600000E03CE0E0
:10233000FFF7C8F904463BE04746C8F86000FFF7DE
:10234000C1F9064605E000BFFFF7BCF9801B022873
:102350002BD828688001F7D4D4E907010843A16A83
:102360002E4A490802EB0141626A41EA82110843A0
:1023700094F82C1040EA0161C9F800100120386679
:10238000FFF7A0F9044606E03EE000BFFFF79AF928
:10239000001B022809D828688001F7D534E000BF67
:1023A000FFF790F9001B022802D90320BDE8F88F3F
:1023B00028688001F4D427E00128F7D0D9F800007C
:1023C000E26900F4800191421CD1226A00F03F01D1
:1023D000914217D147F6C071626A0140B1EB821F8A
:1023E00010D1A26A4FF0FF3300F4403103EB5202E8
:1023F000B1EB024F06D194F82C1000F07060B0EBF6
:10240000016F01D00120D1E70020CFE7043802405E
:1024100000004742800E4742007000400000FFFF6E
:1024200010B5401EB0F1807F01D3012010BD4FF0E8
:10243000E02460610F21601703F0A4F80020A06180
:1024400007202061002010BD7047704770B590F8DC
:102450003C20012A32D0012480F83C40022280F83E
:102460003D2003685A689D6822F070060A6832436E
:102470005A60134B02689A4214D0B2F1804F11D0C7
:10248000104B9A420ED0104B9A420BD00F4B9A42EF
:1024900008D00F4B9A4205D00E4B9A4202D00E4BF9
:1024A0009A4204D1496825F080031943916080F86D
:1024B0003D40002180F83C10084670BD022070BDF0
:1024C000000001400004004000080040000C0040F3
:1024D00000040140004001400018004010B5040015
:1024E00003D094F83D0010B107E0012010BD00209A
:1024F00084F83C00204600F01FF8022084F83D00DC
:10250000211D206802F0C6FC012084F8460084F8F2
:102510003E0084F83F0084F8400084F8410084F8CD
:10252000420084F8430084F8440084F8450084F8AD
:102530003D00002010BD000008B500681149884228
:1025400012D11148016841F00201016000680022C7
:1025500000F00200009011461D20FFF78FFCBDE83F
:1025600008401D20FFF77CBC0849884209D1064875
:10257000001D016841F002010160006800F00200E6
:10258000009008BD000400404038024000040140B3
:1025900090F83D10012901D001207047022180F8F8
:1025A0003D1000681149884214D0B0F1804F11D01D
:1025B0000F4988420ED00F4988420BD00E498842FD
:1025C00008D00E49884205D00D49884202D00D49F5
:1025D000884204D1816801F00701062903D001680F
:1025E00041F001010160002070470000000001403F
:1025F0000004004000080040000C004000040140BE
:10260000004001400018004090F83D10012901D021
:1026100001207047022180F83D100168CA6842F02D
:102620000102CA6000681149884214D0B0F1804F9D
:1026300011D00F4988420ED00E4988420BD00E4966
:10264000884208D00D49884205D00D49884202D001
:102650000C49884204D1816801F00701062903D0A2
:10266000016841F001010160002070470000014055
:102670000004004000080040000C0040000401403D
:10268000004001400018004070B5044690F83C003E
:102690000025012817D0012684F83C60022084F828
:1026A0003D002068826822F0770222F47F42826037
:1026B0000868502838D00DDC20284FD005DC90B3B6
:1026C000102811D14AE0022070BD302846D04028A1
:1026D0000AD13BE060282FD070280DD0B0F5805F84
:1026E00003D0B0F5005F12D0012584F83D600020D2
:1026F00084F83C00284670BDCB68D1E901212068F0
:1027000002F03DFC2068816841F0770109E0CB6868
:10271000D1E90121206802F032FC2068816841F48F
:1027200080418160E1E719E0CA684968206802F0E9
:10273000FBFC5021206806E0CA684968206802F066
:1027400004FD6021206802F024FCCEE7CA684968D5
:10275000206802F0E9FC40212068F4E72268014685
:102760001046F0E770472DE9F04104460068C6685E
:1027700005694FF00007A90713D5B10711D5F91E58
:10278000016101202077206880698007204602D0FF
:10279000FFF7E8FF04E000F0D3F8204600F082F9EC
:1027A0002777680716D5700714D521686FF00400E5
:1027B0000861022020772068806910F4407F20465D
:1027C00002D0FFF7CFFF04E000F0BAF8204600F097
:1027D00069F92777280715D5300713D521686FF0D9
:1027E00008000861042020772068C069800720461F
:1027F00002D0FFF7B7FF04E000F0A2F8204600F097
:1028000051F92777E80616D5F00614D521686FF040
:1028100010000861082020772068C06910F4407F0C
:10282000204602D0FFF79EFF04E000F089F8204622
:1028300000F038F92777E80708D0F00706D02168BC
:102840006FF001000861204600F092F9280608D5D3
:10285000300606D521686FF0800008612046FFF73A
:10286000F3FD680608D5700606D521686FF04000B4
:102870000861204600F0A6F9A8060AD5B00608D5DA
:1028800021686FF0200008612046BDE8F041FFF7A5
:10289000DCBDBDE8F081000070B586B004461421AF
:1028A0006846FDF7C7FC2168002420480225B1F1E5
:1028B000804F17D01E4A914212D1016841F00801A1
:1028C00001600068694600F0080005904FF4E040A0
:1028D0000090CDE901541748CDE90345FEF7F0FD1E
:1028E00006B070BD016841F001010160016801F0AE
:1028F00001010591016841F00201016000680126B3
:1029000000F00200059003200090CDE90154CDE9CC
:10291000034669460848FEF7D3FDB0020090CDE9B2
:102920000154CDE9034669460448D7E730380240F0
:1029300000080040000C0240000002400004024079
:10294000704770B5044690F83C0000260D460128FB
:102950000FD0012084F83C006AB1042A1DD0082A57
:102960002FD00C2A3FD00126002084F83C003046AE
:1029700070BD022070BD206802F014FB20688169E0
:1029800041F0080181612068816921F004018161C1
:10299000206881692A69114311E0206802F032FB46
:1029A0002068816941F4006181612068816921F4B6
:1029B00080618161206881692A6941EA022181611F
:1029C000D2E7206802F054FB2068C16941F0080199
:1029D000C1612068C16921F00401C1612068C16939
:1029E0002A69114311E0206802F076FB2068C16972
:1029F00041F40061C1612068C16921F48061C16155
:102A00002068C1692A6941EA0221C161ACE710B5B9
:102A1000040003D094F83D0010B107E0012010BD80
:102A2000002084F83C00204600F01EF8022084F8C4
:102A30003D00211D206802F02DFA012084F8460097
:102A400084F83E0084F83F0084F8400084F8410098
:102A500084F8420084F8430084F8440084F8450078
:102A600084F83D00002010BD08B501680B48B1F1A5
:102A7000804F0BD00A4A914207D1016841F004010E
:102A80000160006800F00400009008BD016841F09A
:102A900001010160006800F00100F5E740380240E4
:102AA000000800407047000010B50446022249B1FA
:102AB00004290ED0082913D094F84100012816D01B
:102AC000012010BD94F83E000128F9D184F83E2081
:102AD0000FE094F83F000128F2D184F83F2008E08D
:102AE00094F840000128EBD184F8402001E084F8FC
:102AF00041200122206802F035FA16492068164A62
:102B0000884201D0904203D1436C43F400434364B4
:102B10002068884213D0B0F1804F10D00F4988420E
:102B20000DD00F4988420AD00E49884207D0904202
:102B300005D00D49884202D00C49884204D18168F1
:102B400001F00701062903D0016841F0010101608D
:102B5000002010BD000001400004014000040040BE
:102B600000080040000C00400040014000180040F8
:102B700010B510492DED028B0068884217D10E4820
:102B8000FDF796FD0C481430FDF792FD9FED0B8A82
:102B90000B48B0EE480AFDF7F9FEB0EE480ABDEC6E
:102BA000028B0548BDE81040C438FDF7EFBEBDEC10
:102BB000028B10BD00040040140200206F12833B02
:102BC0008C000020704738B5044690F84200202859
:102BD00001D0022038BD51B14AB10120206300204C
:102BE0006063204602F064FC216B012901D00120C2
:102BF00038BD21680A684968009121680C3151E8A4
:102C0000002F42F0100241E80023002BF5D138BD1F
:102C10002DE9F0410D4EB04216D10D4F0D46002466
:102C200004E0385D00F05CFF641CA4B2AC42F8D351
:102C30004FF4807206490548FFF7C5FFF06B006846
:102C4000016821F008010160BDE8F0819C050020C9
:102C50002C07002070470000F8B50168044608689A
:102C6000CA684B6910F00F0F4FF0000559D003F000
:102C7000010602F49077374365D0C10705D0D1052E
:102C800003D5616C41F001016164410705D5D907A5
:102C900003D0616C41F002016164810705D5D90759
:102CA00003D0616C41F004016164010707D502F0B3
:102CB0002001314303D0616C41F008016164616C13
:102CC00000293AD0800604D5900602D5204602F0AD
:102CD00008FB20684069616CC0F38010090700D4CC
:102CE00060B3204602F0C8FA20684069400621D54A
:102CF0002068143050E8001F21F0400140E8001225
:102D0000002AF5D1E06BA8B172490165E06BFEF7CE
:102D10003EFA002811D0E06B016D01B0BDE8F04033
:102D2000084783060FD593060DD52046BDE8F84029
:102D300002F0D7BA2046FFF78DFFF8BD2046FFF717
:102D400089FF6564F8BD266B2023012E7ED1C6065F
:102D50007CD5D6067AD508684868009048694FF057
:102D6000020640064DD5E26B106840684FF480774C
:102D70000004000C3AD0A18D814237D9E085D0699A
:102D8000B8422DD020680C3050E8001F21F480712B
:102D900040E80012002AF5D12068143050E8001FE6
:102DA00021F0010140E80012002AF5D1206814301A
:102DB00050E8001F21F0400140E80012002AF5D140
:102DC00084F84230256320680C3050E8001F21F061
:102DD000100140E80012002AF5D1E06BFEF78EF9F1
:102DE0006663A08DE18D401A81B206E0A18D81421B
:102DF000A8D1D069B842A5D166632046FFF708FF85
:102E0000F8BDA08DE18D401A81B2E08D0028F7D089
:102E10000029F5D020680C3050E8002F22F4907281
:102E200040E80027002FF5D12068143050E8002F2B
:102E300022F0010240E80027002FF5D184F842304B
:102E4000256320680C3050E8002F00E006E022F0F7
:102E5000100240E80023002BF3D1CDE705062BD567
:102E6000150629D594F841002128C9D1A068B0F5EC
:102E7000805F01D12069B0B1206A411C21622168C4
:102E800000784860E08C401E0004000CE084B7D15C
:102E90002068C16821F08001C1602068C16841F0EC
:102EA0004001C160F8BD206A0088C0F30800486096
:102EB000206A801C2062E5E74006F3D55006F1D574
:102EC000CA68204622F04002CA6084F8413000F00F
:102ED000D3F8F8BD7D51000870B5040004D094F813
:102EE0004100002510B106E0012070BD84F840507B
:102EF000204600F023F8242084F841002068C168AF
:102F000021F40051C160204602F04CFA20680169AA
:102F100021F4904101612068416921F02A01416159
:102F20002068C16841F40051C1606564202084F8C4
:102F3000410084F842006563002070BD2DE9F04136
:102F400086B0064614216846FDF774F9DFF80CC117
:102F500031684348022203230827424D002461457B
:102F600052D13F491031D1F800C04CF4002CC1F8C7
:102F700000C0096801F400210591016841F00401D5
:102F800001600068694600F00400059098028DE831
:102F90001500CDE903372846FEF792FA334D324843
:102FA0004FF4806847052860C5E90174C5E9034806
:102FB0006C61AC61EC612C6228466C62FEF7CCF966
:102FC00008B1FDF72CFCF563AE63284D264860354B
:102FD0003030E5E802074020A5E81101234845F814
:102FE00014496030AC61EC612C626C62FEF7B4F99C
:102FF00008B1FDF714FCB563002211463420AE631E
:10300000FEF73CFF342023E0194EB14222D114498F
:1030100014310E6846F020060E60096801F02001A8
:103020000591016841F0040101600068694600F003
:1030300004000590C0208DE81500CDE9033728462F
:10304000FEF73EFA002211464720FEF717FF472001
:10305000FEF706FF06B0BDE8F0810000004C00401E
:103060003038024000080240406002402C06002038
:1030700000140140704770477047FEE70148FEF7B3
:1030800029BB0000D40300200148FEF780BB0000EC
:10309000D40300200148FEF71DBB000028040020D7
:1030A0000148FEF774BB00002804002038B5806B8F
:1030B000002190F83D202B4B46F2A8141B68B3FB6F
:1030C000F4F3C3EBC30303EB830300933BB15B1E39
:1030D000009303681B689B0505D5009BF6E7036C0E
:1030E00043F020030364436B03B1D963836B03B1E3
:1030F000D96303681C6824F480641C604185436BB9
:1031000003B11965836B03B1196503681C6824F06A
:1031100001041C6090F83D402023602C0BD0282433
:1031200034EA02020FD080F83D3080F83E1000BF34
:10313000FEF746FC38BD80F83D3080F83E10016453
:10314000FEF7C6FA38BD0268136843F00103136046
:103150000268136843F480631360016380F83D40A4
:10316000E6E700001C00002000684169C943090629
:1031700001D400210161704770B5044690F83D000C
:1031800094F83E10102901D0402906D1222804D1FC
:1031900021680A6822F400620A60282131EA0002EC
:1031A0004FF000054FF0200626D021684968090538
:1031B00005D4602803D084F83D6084F83E50256330
:1031C00020684168090537D5416821F400614160F4
:1031D000606B90F835203C49012A11D00165606B85
:1031E000FDF7D5FF38B32068016821F001010160C7
:1031F00084F83D60606B1CE0256384F83D10DFE7D8
:10320000A06B0165A06BFDF7C2FFA0B1206841690A
:10321000C943490605D40069616A0870606A401CA8
:1032200060622068016821F00101016084F83D605E
:10323000A06B016D884710E094F83D10602910D014
:103240004169C943490605D40069616A0870606A2A
:10325000401C60622046FEF7B3FB206CC1071CD106
:1032600015E084F83D6025644169C943490605D4E9
:103270000069616A0870606A401C606220680168C9
:1032800021F0010101602046FEF722FAE5E78107FF
:1032900003D4410701D4000704D52068416821F414
:1032A000E061416094F83D00216C49070BD5282866
:1032B00009D10648E062256384F83D6084F83E50F9
:1032C0002046FEF755FC70BDAD3000080000FFFF42
:1032D00010B5C26A438D0168042B06D0438D032BC1
:1032E00008D0438D022B1DD012E04A6822F4806280
:1032F0004A600CE04B6823F480634B60042A06D0DC
:10330000022A04D001680A6822F480620A60016817
:103310000969426A1170416A491C4162418D491E26
:10332000418510BD012A34D0102A32D0042A34D06D
:10333000022A32D00B6843F400730B6001680969FC
:10334000436A1970416A491C4162438D5B1E438583
:1033500003681B690B70416A491C4162418D491E1B
:10336000418501684B6823F440734B60202180F84D
:103370003D1090F83E300021402B80F83E1010D0D8
:10338000082A02D0202A00D012210163FEF7F2FBA6
:1033900010BD0B6823F48063CFE70B6843F48063B0
:1033A000CBE70163FEF7FBFB10BD000038B590F8DA
:1033B0003D10222910D1C36A418D03290DD901681E
:1033C0000969426A1170416A491C4162418D491E76
:1033D0004185418D032906D038BDC26A022A02D038
:1033E000012906D029B10068416821F4806141605B
:1033F00038BD2A4A46F2A81400211268B2FBF4F242
:1034000002EB8202009202682024009D6D1E00954E
:1034100026D01568AD05F8D4156825F480651560CB
:103420000268556825F4E065556002681269456ACE
:103430002A70426A521C4262428D521E428580F8B6
:103440003D4090F83E2080F83E10402A21D0082BC5
:1034500002D0202B00D012210163FEF78BFB38BD78
:10346000036C43F020030364536823F4E063536068
:1034700002681269436A1A70426A521C4262428DA3
:10348000521E428580F83D4080F83E10FEF798FAC3
:1034900038BD0163FEF783FB38BD00001C0000202F
:1034A00010B5C26A90F83D1021290BD1418D51B160
:1034B000416A026809781161416A491C4162418D83
:1034C000491E418510BD20230021082A13D0202A3F
:1034D00011D012F5803F0ED00268546824F4E064E5
:1034E00054601122026380F83E1080F83D3000BF26
:1034F000FEF754FB10BD0268546824F4E064546085
:103500000268146844F400741460016380F83D306C
:1035100090F83E2080F83E10402AE9D1FEF740FBAB
:1035200010BD000010B590F83D1090F83E30C26A12
:10353000048DB4B1212903D0402B11D122290FD100
:10354000418DE1B390F83E10402942D0416A0268B3
:1035500009781161416A491C4162418D491E4185CA
:1035600010BD2129E8D120230021082A13D0202AC8
:1035700011D012F5803F0ED00268546824F4E06444
:1035800054601122026380F83E1080F83D3000BF85
:10359000FEF704FB10BD0268546824F4E064546034
:1035A0000268146844F400741460016380F83D30CC
:1035B00090F83E2080F83E10402AE9D100E002E079
:1035C000FEF7EEFA10BD0068416821F480614160A9
:1035D00010BDBDE8104000F0D3B8000078B590F8F9
:1035E0003E50C26A036B90F83D6000240168222EB1
:1035F0007AD1066D0EB9402D76D0056D1DB90569DD
:10360000B5F5404F09D0458D05B3468D384D012E97
:103610000ED0438D022B3AD05DE04A698A69009250
:103620000A6842F480720A60016D491C016578BD28
:10363000AA4213D10A6822F480620A6001684A68CB
:10364000120503D50A6822F4806216E04A698A6985
:1036500000920A6842F400720A6039E0082A10D029
:10366000202A0ED0122B0AD0042A03D0022A01D01D
:10367000102AE7D10A6842F480620A6024E0012A35
:10368000E0D00A6822F480620A600168DEE7042A5A
:1036900021D0022A1FD0102A1DD00B6823F480638A
:1036A0000B6001680B6843F400630B6001684B68B2
:1036B0001B0509D5AA4212D0012A10D0082A0ED023
:1036C000102A0CD0202A0AD001684A698969009121
:1036D000046578BD08E00B6843F48063E5E74A6859
:1036E00042F480524A60EFE7486988690090F0E749
:1036F0000000FFFF90F83E10402910D00169B1F59D
:10370000804F19D0016DA9B3016D012910D1416C11
:103710005FF0F10201F4407142EAD11106E0016D5F
:103720000029416C05D0C9B241F001010068016176
:10373000704701F0FE01F9E790F83D102129416C36
:1037400009D0C9B241F0010102681161416B29B190
:10375000C96B49B902E001F0FE01F5E7816B002970
:10376000E6D0C96B0029E3D00068416841F40061EC
:1037700041607047FFE7416CF02201F44071CBE7F4
:1037800010B590F83D10026D4AB1026D012A14D0B7
:10379000026D022A16D0BDE81040FFF7E5BCC16CEF
:1037A0000129816C02D0C1F3072108E00268C9B287
:1037B0001161016D891C016510BD816CC9B202687F
:1037C000116123E022291CD0428D0AB1212920D089
:1037D000428D002AF0D12129EED101684A6822F4F5
:1037E000E0624A6001680A6842F400720A600021DF
:1037F0000163202280F83D2080F83E10FEF7D0F9CA
:1038000010BD01680A6842F480720A60016D491CAB
:10381000D1E7416A026809781161416A491C416235
:10382000418D491E418510BD38B50C4690F83D20AC
:1038300000212825954302680B4605D051699169FE
:10384000009180F83C3038BD556825F4806555609E
:10385000E243540700D50121120601D5828900E018
:10386000028B80F83C3092B2FDF733FF38BD000088
:103870002DE9F04190F83D300446C26A002120262F
:103880001E4F00686FF48065082A01D0202A01D1FC
:10389000282B04D0212B17D04561BDE8F081E762C9
:1038A000426822F4E0624260206845612068026854
:1038B00022F480620260216384F83D6084F83E1047
:1038C0002046FEF755F9E8E7E7622122226384F8F3
:1038D0003D6084F83E10416821F4E0614160206859
:1038E00045612068016821F4806101602046FFF78E
:1038F0003BFC2046FEF759FACFE700000000FFFF2F
:10390000F8B590F83D6004460068416821F4E06134
:1039100041602068002541690091016841F0010182
:1039200001602068016821F48061016020684168BD
:10393000090520D5474F222E48D02A2E46D0616B4C
:10394000096849686185618D19B1216C41F00401F4
:103950002164416821F400614160606BFDF729FC3E
:10396000012808D0606B0765606BFDF710FC10B193
:10397000606B016D8847608D08B320684169C94359
:10398000490708D40069616A0870606A401C606277
:10399000608D401E608520684169C943490608D48E
:1039A0000069616A0870606A401C6062608D401E38
:1039B0006085608D18B1206C40F004002064206C9C
:1039C00000B32046BDE8F840FFF7D6BBA16B0968FD
:1039D00049686185618D19B1216C41F00401216450
:1039E000416821F400614160A06BFDF7E2FB012812
:1039F000C1D0A06B0765A06BFDF7C9FB0028BAD04A
:103A0000A06BB6E72A2E06D12563282084F83D0056
:103A10002046FEF7C9F994F83D10202028290DD042
:103A2000216B222901D0222E07D1256384F83D0085
:103A300084F83E502046FEF7B7F9F8BD0649E1622A
:103A4000256384F83D0084F83E502046FEF790F848
:103A5000F8BD0000AD3000080000FFFF70B50D4656
:103A60002DED028BF0EE408A044601F08BFEF0EE65
:103A7000400AB0EE680AB0EE608A01F093FDD4ED22
:103A8000000A94ED011A60EE800A41EE480AC5ED85
:103A9000000AD4ED000A94ED011A60EE880A41EEA6
:103AA000000AC5ED010ABDEC028B70BD10B52821DE
:103AB0000848FCF7BFFB4FF4807207490748FFF73F
:103AC00082F80648C06B0068016821F008010160B7
:103AD00010BD00002C0800202C0700209C050020B1
:103AE0002DE9F0474A4D2DED028B2A780AB9552869
:103AF0007ED148498854521CD0B228700B2877D305
:103B0000002210460B5C401C1A44C0B2D2B20A28F4
:103B1000F8D3887A4FF00009904273D13D4C487831
:103B2000283C512804D0522831D053286AD14BE088
:103B3000B1F90200B1F90480B1F90660B1F9087079
:103B4000B3EE000A02F03CF89FED338A404620EEC7
:103B5000080A84ED000AB3EE000A02F031F820EE04
:103B6000080A304684ED010AB3EE000A02F028F894
:103B700020EE080ADFED290A84ED020A00EE107A31
:103B8000B8EEC00A80EE201A84ED091A3AE09FEDE3
:103B9000248AB1F90200B1F90460B1F90670B0EEFF
:103BA000480A02F00DF884ED030AB0EE480A3046E8
:103BB00002F006F884ED040AB0EE480A384601F037
:103BC000FFFF84ED050A1DE09FED168AB1F90200A2
:103BD000B1F90460B1F90670B0EE480A01F0F0FFE7
:103BE00084ED060AB0EE480A304601F0E9FF00E035
:103BF0000AE084ED070AB0EE480A384601F0E0FF1B
:103C000084ED080A85F80090BDEC028BBDE8F087D2
:103C100078000020540800200AE81C410000C84237
:103C20000000FA44000034432DE9F041143114330C
:103C3000164607468DB29CB2F02800D3EF27F02E2F
:103C400000D3EF264FF49671481E8D4200D30546EF
:103C50008C4200D304462A2000F012FB380A00F000
:103C60000DFBF8B200F00AFB300A00F007FBF0B2DF
:103C700000F004FB2B2000F003FB280A00F0FEFA02
:103C8000E8B200F0FBFA200A00F0F8FAE0B200F027
:103C9000F5FABDE8F0412C2000F0F2BA10B5144658
:103CA000F0280BD2B1F58C7F08D20B460246FFF705
:103CB000BBFF2046BDE8104000F0D6BA10BD2DE98C
:103CC000F0471E46DDF8208017460D460446F028D2
:103CD00000D3EF24F02F00D3EF274FF48C71481E50
:103CE0008D4200D305468E4200D30646BC4202D91F
:103CF00020463C460746B54202D928463546064688
:103D000033463A4629462046FFF78EFF4FEA182AE7
:103D100008F0FF09A8460CE0254606E0504600F0F2
:103D2000ADFA484600F0AAFA6D1CBD42F6D908F17A
:103D30000108B045F0D9BDE8F087000030B587B084
:103D400014216846FCF776FA19480024016841F00E
:103D500004010160016801F004010591016841F06E
:103D6000080101600068134D00F008000590012271
:103D7000BB212846FDF7A1FCBB2000900120CDE926
:103D800001040320039069462846FDF799FB0122B0
:103D900010212846FDF791FC012220212846FDF73D
:103DA0008CFC012280212846FDF787FC07B030BD3E
:103DB00030380240000C024010B5FFF7BFFF854CC1
:103DC000012210212046FDF778FC012211462046F1
:103DD000FDF773FC002202212046FDF76EFC002255
:103DE00008212046FDF769FC6420FDF757FB0122FE
:103DF00008212046FDF761FC6420FDF74FFB1120F0
:103E000000F03EFA7820FDF749FB362000F038FA42
:103E1000082000F049FA3A2000F032FA052000F0BC
:103E200043FAB62000F02CFA0A2000F03DFA822076
:103E300000F03AFAB22000F023FA0C2000F034FA35
:103E40000C2000F031FA002000F02EFA332000F0B0
:103E50002BFA332000F028FAB72000F011FA3520B1
:103E600000F022FABB2000F00BFA282000F01CFA28
:103E7000C02000F005FA0C2000F016FAC22000F075
:103E8000FFF9012000F010FAC32000F0F9F910202A
:103E900000F00AFAC42000F0F3F9202000F004FA40
:103EA000C62000F0EDF90F2000F0FEF9D02000F060
:103EB000E7F9A42000F0F8F9A12000F0F5F9E020DE
:103EC00000F0DEF9D02000F0EFF9002000F0ECF96E
:103ED000022000F0E9F9072000F0E6F90A2000F0DE
:103EE000E3F9282000F0E0F9322000F0DDF9442069
:103EF00000F0DAF9422000F0D7F9062000F0D4F9FA
:103F00000E2000F0D1F9122000F0CEF9142000F0BC
:103F1000CBF9172000F0C8F9E12000F0B1F9D0206A
:103F200000F0C2F9002000F0BFF9022000F0BCF957
:103F3000072000F0B9F90A2000F0B6F9282000F0B7
:103F4000B3F9312000F0B0F9542000F0ADF947206A
:103F500000F0AAF90E2000F0A7F91C2000F0A4F947
:103F6000172000F0A1F91B2000F09EF91E2000F0A0
:103F70009BF92A2000F084F9002000F095F9002038
:103F800000F092F9002000F08FF9EF2000F08CF99A
:103F90002B2000F075F9002000F086F9142000F0C5
:103FA00083F9012000F080F92B2000F07DF9212019
:103FB00000F066F9292000F063F92C2000F060F988
:103FC000012202212046FDF778FBBDE810400A20BF
:103FD000FDF764BA000C02402DE9FF5F0546DDE9FC
:103FE0000F4683466708DDF83880780700D0012047
:103FF00000EBD70000FB04FA203AD0B202900198FF
:1040000001992044401E83B2E819401E82B228461E
:10401000FFF70AFE0EB1002071E000252CE00C2C09
:104020000FD0102C14D0182C15D0202C26D13648A7
:10403000029900EB81100027465DF00712D003982B
:1040400011E0029800EB4001304800EB8100F2E7FC
:104050002F48029903E0029800EB40012D4800EB45
:104060000110E8E7404600F0FFF87F1C7608FFB239
:10407000082FE2D36D1CADB25545D0D3BDE8FF9FEC
:104080000C2C20D0102C25D0182C26D0202CF5D18B
:104090001D48029900EB81114FF0000911F80860EA
:1040A000F00704D02846039A0199FFF7F7FD6D1C2D
:1040B000ADB2A5EB0B00B84216D101985D46401C8D
:1040C00080B2019018E0029800EB40010F4800EB2D
:1040D0008101E1E70E48029903E0029800EB4001FC
:1040E0000C4800EB0111D7E709F10100760800F058
:1040F000FF09B9F1080FD3D308F1010080B280465F
:104100005045BDD3BAE70000F87C0008C460000841
:1041100038650008286B00082DE9FF4F83462DED18
:10412000020B83B0DFED210A139F154620EE200A13
:104130007E080024A246BCEEC00A10EE100A1FFA48
:1041400080F92DE0281B401EC1B20A2001F0A2FF19
:10415000B9FBF0F00A21B0FBF1F201FB1208A81E36
:1041600084420ED1129A00FB06B08DE8840480B21E
:104170002E22089B0699FFF72FFF641C6D1CE4B2EA
:10418000EDB212988DE8810408F13000C2B204FB50
:1041900006B080B2089B0699FFF71EFF641CE4B2CC
:1041A000AC42CFD309B0BDE8F08F00000000C84298
:1041B0002DE9FF4F83B00026DDE911B81D46824688
:1041C0004FEA58073446B1462CE0281B401EC1B2C6
:1041D0000A2001F05FFF0599B1FBF0F00A21B0FB66
:1041E000F1F201FB120026B9691E8C4201DA58B1C6
:1041F00001263030C2B204FB07A0CDF800B0CDE9F3
:10420000018980B2109B08E0CDF800B004FB07A044
:10421000CDE90189109B80B220220499FFF7DCFED2
:10422000641CE4B2AC42D0D307B0BDE8F08F2DE9F6
:10423000FE4F9946DDE90D6714468A460546DDF8CE
:1042400030800CE0CDF800804B4651462846CDE941
:104250000167FFF7C1FE05EB560085B2641C2278AA
:10426000002AEFD1BDE8FE8F10B50446000A00F029
:104270001BF8E0B2BDE8104000F016B800F014B82A
:1042800070B5084C0546002201212046FDF715FABD
:10429000284600F009F82046BDE87040012211468A
:1042A000FDF70BBA000C024070B5144E0546002213
:1042B00010213046FDF701FA00240022202130466B
:1042C000FDF7FBF9280601D5012200E0002280213C
:1042D0003046FDF7F2F9012220213046FDF7EDF9D5
:1042E0006806641C050EE4B2082CE6D33046BDE82F
:1042F000704001221021FDF7E0B90000000C0240DF
:104300007FB5002415480094019402941249039447
:1043100001604FF48031C0E901140461047680F833
:1043200020400F49C0E90A140125C561C46080F826
:1043300030404561FCF718FD08B1FCF770FA042025
:10434000CDE90005694602940448FCF7CDFB00283E
:1043500001D0FCF764FA7FBD002001403C02002040
:104360000100000F7FB500211C48009101910291CE
:10437000194A0391026001244FF480320461C0E9BC
:104380000121047680F820101203C26202254FF04A
:10439000C062C5618262C16080F830404161FCF753
:1043A000E3FC08B1FCF73BFA0520CDE9000403204B
:1043B000029069460948FCF797FB08B1FCF72FFA11
:1043C0000820CDE9000569460448FCF78DFB00286C
:1043D00001D0FCF724FA7FBD0021014084020020B7
:1043E0007FB500211C48009101910291194A039167
:1043F000026001244FF480320461C0E90121047697
:1044000080F820101203C26202254FF06062C5617D
:104410008262C16080F830404161FCF7A5FC08B1C0
:10442000FCF7FDF90A20CDE900040320029069465B
:104430000948FCF759FB08B1FCF7F1F90D20CDE96B
:10444000000569460448FCF74FFB002801D0FCF743
:10445000E6F97FBD00220140CC020020194808B5D2
:10446000016841F480010160016801F4800100915C
:10447000016841F4001101600068002200F400109E
:10448000009011460D20FDF7F9FC0D20FDF7E8FC2A
:10449000002211460F20FDF7F1FC0F20FDF7E0FC94
:1044A000002211463820FDF7E9FC3820FDF7D8FC42
:1044B000002211463A20FDF7E1FCBDE808403A2011
:1044C000FDF7CEBC3038024000B587B014216846F5
:1044D000FBF7B0FE1A480021026842F08002026039
:1044E000026802F080020592026842F00402026053
:1044F000026802F004020592026842F001020260C2
:10450000026802F001020592026842F002020260B3
:10451000026802F002020592026842F0080202609C
:104520000068029100F0080005904FF4E040CDE9EA
:10453000000169460348FCF7C3FF07B000BD000057
:1045400030380240000402400D4810B50B490160AC
:104550000C49416000214FF480428160C0E90312A0
:1045600041618161C1610162FDF73EFA002803D01B
:10457000BDE81040FCF753B910BD000000540040E6
:10458000D4030020A08601000D4810B50B4901603E
:104590000C49416000214FF480428160C0E9031260
:1045A00041618161C1610162FDF71EFA002803D0FB
:1045B000BDE81040FCF733B910BD0000005C0040BE
:1045C00028040020A086010010B58AB000240794BA
:1045D0001C2168460894FBF72DFE1E484FF08041D1
:1045E000C0E9001440F63301C0E90241046184616E
:1045F000FEF70DFA08B1FCF712F92020CDE9070407
:1046000007A91448FDF722FF08B1FCF708F960205C
:10461000CDE900040294002269460E480494FEF796
:1046200090F908B1FCF7FBF8042269460948FEF747
:1046300088F908B1FCF7F3F8082269460548FEF747
:1046400080F908B1FCF7EBF80248FEF725F90AB04B
:1046500010BD00007C04002010B586B0002417486F
:104660000094019402940394049413490594016006
:104670005321C0E9011440F69F71C0E9031484611D
:10468000FDF72CFF08B1FCF7CAF84FF480500090FA
:1046900069460A48FDF7F8FF08B1FCF7C0F8049432
:1046A00004A906480594FDF7D1FE002801D0FCF7C7
:1046B000B6F806B010BD000000040040C40400209D
:1046C00010B58AB0002407941C2168460894FBF7B3
:1046D000B1FD1E481C49C0E9001440F63301C0E991
:1046E000024104618461FEF792F908B1FCF797F882
:1046F0002020CDE9070407A91448FDF7A7FE08B15B
:10470000FCF78DF86020CDE9000402940022694690
:104710000E480494FEF715F908B1FCF780F804225E
:1047200069460A48FEF70DF908B1FCF778F8082247
:1047300069460648FEF705F908B1FCF770F803482A
:10474000FEF7AAF80AB010BD000800400C050020D2
:1047500010B586B000241748009401940294039485
:10476000049413490594C0E9001440F63301C0E9EC
:104770000241046144618461FDF7B0FE08B1FCF7B9
:104780004EF84FF48050009069460A48FDF77CFFD0
:1047900008B1FCF744F82020CDE9040404A9054839
:1047A000FDF754FE002801D0FCF739F806B010BD23
:1047B00000040140540500200C4810B50A4901606E
:1047C0004FF416514160002181600C22C160C0E9A4
:1047D00004128161C161FEF77FFB002803D0BDE8B0
:1047E0001040FCF71CB810BD004C00409C05002098
:1047F0000C4810B50A4901604FF4E13141600021D5
:1048000081600C22C160C0E904128161C161FEF7C0
:1048100063FB002803D0BDE81040FCF700B810BDD2
:1048200000140140E4050020FEE700003148DFED00
:10483000320A344A008800EE100A2E48B8EE400AC8
:104840000E38817820EE200ADFED2C0A20EE200AB7
:10485000DFED2B0A30EE600AF0EE000A20EE200AAF
:10486000D0ED080A30EE600A59B1002102EB810355
:10487000491C83ED000A0429F8DB00218170012125
:104880004170017802EB8103491C83ED000A01F0BD
:10489000030101704178D1B19FED1B0A5FF0000167
:1048A00002EB8103491CD3ED000A042930EE800A93
:1048B000F6DBF5EE000A90ED111A20EE200AF6EE76
:1048C000000A20EE200A01EE200A80ED110A10EE07
:1048D000101A0E4B0E4A994202DDB1EE040A05E0B1
:1048E00010EE101A914201D9B9EE040A80ED050AC2
:1048F000704700002E000020000080393333534001
:104900003333D33FEC060020000000000000A0403D
:104910000000A0C03148DFED320A344A408800EE82
:10492000100A2E48B8EE400A0E38417920EE200ACF
:10493000DFED2C0A20EE200ADFED2B0A30EE600AB4
:10494000F0EE000A20EE200AD0ED090A30EE600AEF
:1049500059B1002102EB8103491C83ED000A0429AF
:10496000F8DB0021417101210171C17802EB810363
:10497000491C83ED000A01F00301C1700179D1B136
:104980009FED1B0A5FF0000102EB8103491CD3ED90
:10499000000A042930EE800AF6DBF5EE000A90EDFD
:1049A000121A20EE200AF6EE000A20EE200A01EE8E
:1049B000200A80ED120A10EE101A0E4B0E4A994290
:1049C00002DDB1EE040A05E010EE101A914201D9A1
:1049D000B9EE040A80ED060A704700002E000020A0
:1049E00000008039333353403333D33FFC0600207B
:1049F000000000000000A0400000A0C03148DFED32
:104A0000320A344A008800EE100A2E48B8EE400AF6
:104A10002838017A20EE200ADFED2C0A20EE200A49
:104A2000DFED2B0A30EE600AF0EE000A20EE200ADD
:104A3000D0ED0E0A30EE600A59B1002102EB81037D
:104A4000491C83ED000A0429F8DB002101720121D1
:104A5000C171817902EB8103491C83ED000A01F0E9
:104A600003018171C179D1B19FED1B0A5FF0000193
:104A700002EB8103491CD3ED000A042930EE800AC1
:104A8000F6DBF5EE000A90ED131A20EE200AF6EEA2
:104A9000000A20EE200A01EE200A80ED130A10EE33
:104AA000101A0E4B0E4A994202DDB1EE040A05E0DF
:104AB00010EE101A914201D9B9EE040A80ED0B0AEA
:104AC0007047000048000020000080393333534015
:104AD0003333D33F0C070020000000000000A0404B
:104AE0000000A0C03148DFED320A344A408800EEB1
:104AF000100A2E48B8EE400A2838C17A20EE200A63
:104B0000DFED2C0A20EE200ADFED2B0A30EE600AE2
:104B1000F0EE000A20EE200AD0ED0F0A30EE600A17
:104B200059B1002102EB8103491C83ED000A0429DD
:104B3000F8DB0021C17201218172417A02EB81030D
:104B4000491C83ED000A01F003014172817AD1B161
:104B50009FED1B0A5FF0000102EB8103491CD3EDBE
:104B6000000A042930EE800AF6DBF5EE000A90ED2B
:104B7000141A20EE200AF6EE000A20EE200A01EEBA
:104B8000200A80ED140A10EE101A0E4B0E4A9942BC
:104B900002DDB1EE040A05E010EE101A914201D9CF
:104BA000B9EE040A80ED0C0A7047000048000020AE
:104BB00000008039333353403333D33F1C07002088
:104BC000000000000000A0400000A0C0FEE730EEA2
:104BD000601A90ED000A20EE010A80ED020AD0ED85
:104BE000031AD0ED050A30EE210AF4EEC00AF1EE08
:104BF00010FA0CDD90ED042AB4EEC02AF1EE10FAA2
:104C000005D290ED012A41EE021AC0ED031AF4EE2E
:104C1000C00AF1EE10FA06D3D0ED040AF4EEC00A91
:104C2000F1EE10FA01DDB0EE600A704780EC020A86
:104C30009FED040A80ED030A80ED041AC0ED051A09
:104C4000704700000000000070B50D462DED028B8E
:104C5000F0EE408A044600F095FDF0EE400AB0EE1A
:104C6000680AB0EE608A00F09DFCD4ED000A94ED75
:104C7000011A60EE800A41EE080AC5ED000AD4ED83
:104C8000010A20EE800AD4ED000A00EEC80A85ED84
:104C9000010ABDEC028B70BD7047704710B50C4621
:104CA0002DED068BD0ED000A80EE808AD0ED010A52
:104CB000C0EE808A28EE080A08EEA80A00F02AFE54
:104CC00010EE100A414988420CDD10EE100A4049EE
:104CD000884207DD9FED3F1AC1EE000A28EE208AC8
:104CE00068EEA08ABEEE00AA9FED3B1A28EE0A0AE3
:104CF000F0EE400A08EE810A48EEC10AB0EE409A92
:104D0000F0EE609AF0EE490AB0EE480A00F0F2FCCC
:104D1000F0EE690A00F0EEFCF0EE408AF0EE490A8F
:104D2000B0EE480A00F00AFDF0EE690A00F006FD58
:104D3000F0EE400AB6EE002A38EEA00A79EE820ABA
:104D40004FF07E5160EE0A1A38EE020A70EEA10AA8
:104D500030EE211A39EE020AB7EE002A84ED001A6D
:104D6000B5EEC01A30EE210ADFED1C1AF1EE10FA92
:104D700084ED010AC4ED020A02D2C4ED001A05E076
:104D800011EE100A884201DD84ED002AB5EEC00A5A
:104D9000F1EE10FA02D2C4ED011A05E010EE100A8D
:104DA000884201DD84ED012AF5EEC00AF1EE10FA29
:104DB00004D2C4ED021ABDEC068B10BD10EE900AB1
:104DC0008842F8DD84ED022AF5E700003333733FB3
:104DD0006F12833A3333733FD7B35D3F0000000057
:104DE000FCF7E4BF30B593B030216846FBF722FAF8
:104DF00014210CA8FBF71EFA1D480025016841F09C
:104E000080510160006800F08050119019480168DD
:104E100041F4804101600068022400F48040119058
:104E200001200090000401908001CDE9064008AA0D
:104E30000420A82182E813000B906846FDF73AF998
:104E400008B172B6FEE70CA90F2081E831004FF4DB
:104E5000A0500F904FF48050109005210CA8FDF742
:104E60003FF8002801D072B6FEE713B030BD000055
:104E700040380240007000400248016841F470016F
:104E80000160704788ED00E00148FDF76CBC000050
:104E9000C4040020F0B50268274B284D284E294F46
:104EA000294C4FF0804C984209D0604507D0A84269
:104EB00005D0B04203D0B84201D0A04204D122F0C4
:104EC000700E4A6842EA0E0298421BD0604519D023
:104ED000A84217D0B04215D0B84213D0A04211D08A
:104EE0001A4DA8420ED01A4DA8420BD0194DA84217
:104EF00008D0194DA84205D0184DA84202D0184D2F
:104F0000A84203D122F44075CA682A434D6922F0B1
:104F100080022A438D68C5620D688562984201D07F
:104F2000A04201D109690163016841F004010160F7
:104F3000012141610260F0BD000001400004004019
:104F400000080040000C0040000401400040014007
:104F5000004401400048014000180040001C00408F
:104F60000020004010B501F01F030121046A9940A0
:104F70008C430462016A9A401143016210BD10B56E
:104F8000846842EA032224F47F440A432243826075
:104F900010BD826822F070020A4342F0070181606E
:104FA00070470000F0B5036A026A22F00102026253
:104FB00042688469124E24F073050C682C4323F078
:104FC00002058B682B430D4DA84201D0B04205D19C
:104FD00023F00807CB683B4323F00403A84201D029
:104FE000B04205D14D6922F4407215438A692A43C3
:104FF00042608461496841630362F0BD0000014082
:1050000000040140F0B5026A036A23F01003036252
:10501000436884690D6824F4E64444EA05248D68F5
:1050200022F0200242EA05120F4D104EA84201D094
:10503000B04206D1CF6822F0800242EA071222F085
:105040004002A84201D0B04207D14D6923F4406329
:1050500043EA85038D6943EA8503436084614968B7
:1050600081630262F0BD00000000014000040140C5
:10507000F0B5026A036A23F4807303624368C4696B
:1050800022F4007224F073050C68124E2C438D68D4
:1050900042EA05220E4DA84201D0B04206D1CF68A7
:1050A00022F4006242EA072222F48062A84201D080
:1050B000B04207D14D6923F4405343EA05138D698B
:1050C00043EA05134360C4614968C1630262F0BDED
:1050D000000001400004014030B5046A026A22F475
:1050E000805202624268C3690D6823F4E64343EAD2
:1050F00005238D6824F4005444EA0534084DA84281
:1051000002D0084DA84204D14D6922F4804242EAFF
:1051100085124260C36149680164046230BD0000C9
:10512000000001400004014010B5036A046A24F045
:1051300001040462846924F0F00444EA021423F0B8
:105140000A020A438461026210BD10B5036A046A50
:1051500024F010040462846923F0A00324F4704452
:1051600044EA023243EA01118261016210BD00008B
:105170000148FDF771BD00009C05002010B5806B53
:105180000021C185FDF766FD10BD70B5846B2068F8
:10519000406994F84110C0F3C0100025212904D1C2
:1051A00018B1E584204600F08EF82068406994F834
:1051B0004210C0F38010222904D118B1E5852046A1
:1051C00000F05AF8606C40F0100060642046FDF773
:1051D00041FD70BD10B50146806B096809684FF04C
:1051E0000002C9052ED4C28501680C3151E8003F88
:1051F00023F4807341E80034002CF5D101681431A8
:1052000051E8003F23F0010341E80034002CF5D1C0
:105210000168143151E8003F23F0400341E80034B5
:10522000002CF5D1202180F84210016B012909D111
:1052300001680C3151E8003F23F0100341E80034CD
:10524000002CF5D14263016B012902D0FDF712FF5A
:1052500010BD818DFDF7DCFC10BD10B5806B012108
:105260004163016B012902D0FDF705FF10BD818D5F
:105270004908FDF7CDFC10BD01680C3151E8002F45
:1052800022F4907241E80023002BF5D1016814311B
:1052900051E8002F22F0010241E80023002BF5D154
:1052A000016B012909D101680C3151E8002F22F06E
:1052B000100241E80023002BF5D1202180F8421094
:1052C00000210163704701680C3151E8002F22F082
:1052D000C00241E80023002BF5D1202180F84110C5
:1052E000704708B590F84210222901D0022008BD6D
:1052F00082684FF480539A4201D1016921B1816AD9
:105300009A421BD04AB10AE00268816A5268C2F32D
:1053100008020A80816A891C08E0026972B1026889
:10532000526802F07F020A70816A491C8162C18D55
:10533000491E0904090CC18503D01BE002685268AC
:10534000F1E70168CA6822F02002CA600168CA68F1
:1053500022F48072CA6001684A6922F001024A613F
:10536000202180F8421000214163026B012A03D002
:10537000FDF780FE002008BD016301680C3151E893
:10538000002F22F0100241E80023002BF5D1016824
:105390000A68D20602D50A6849680091818DFDF736
:1053A00037FCE7E770B5044600680169E26821F45C
:1053B0004051114301612169A068E26908436169B4
:1053C000114308432168CA6849F20C639A430243B7
:1053D000CA6020684169A26921F4407111434161AA
:1053E00031492068884202D03049884202D1FCF716
:1053F00021FE01E0FCF70EFEE2690023192164257D
:105400003226B2F5004F626828D0A0FB0101930F4D
:105410009200FAF7D7FE0146B0FBF5F06FF01802E4
:10542000504301EB800006EB0010B0FBF5F000F0FC
:10543000F002B1FBF5F002EB0012B1FBF5F06FF0FA
:105440001803584301EB800006EB0010B0FBF5F0A9
:1054500000F00F0021681044886070BDA0FB0101BE
:1054600092185B41FAF7AEFE0146B0FBF5F002017F
:10547000B1FBF5F06FF01803584301EB800006EB29
:10548000C000B0FBF5F000F0F80002EB4002B1FB09
:10549000F5F0584301EB800006EBC000B0FBF5F0DF
:1054A00000F00700D6E700000010014000140140A2
:1054B00038B581620446828500201346606422224A
:1054C00084F84220E56B1F4AEA63E56B1E4A2A64B2
:1054D000E56B1E4AEA64E26B10650A462168E06BE0
:1054E000091DFBF7A3FF30B110206064202084F871
:1054F0004200012038BD20680168406800902069A2
:1055000048B120680C3050E8001F41F4807140E839
:105510000012002AF5D12068143050E8001F41F035
:10552000010140E80012002AF5D12068143050E84B
:10553000001F41F0400140E80012002AF5D1002090
:1055400038BD0000D55100085B5200088B5100089F
:105550000148FDF781BB0000E4050020FEE74100A3
:10556000080218BF04200A0E18BF40F001004FF0D7
:105570007F4232EA010108BF40F00200012808BF63
:10558000052070470907090E002804DB00F1E02020
:1055900080F80014704700F00F0000F1E02080F860
:1055A000141D704710EE101A08B5444A6846B2EB55
:1055B000410F28D94FF0E640B0EB410F94BF0020D7
:1055C0004FF0FF3000900098002861DB60EE000A89
:1055D00010F0010F45D010F0020FDFED391A9FEDEA
:1055E000391A00EEE11ADFED381A40EE811A21EE89
:1055F000A01AF0EE400A40EE010A08BFF1EE600A80
:10560000B0EE600A08BD314B21F0004293423CD914
:1056100011F0004FDFED2E0A20EE201ADFED2D0AEB
:1056200019BF31EE601A71EE200A31EE201A71EEC8
:10563000600ABDEEE01A11EE100A9FED271A00F085
:10564000030000EEC10A9FED251A009000EEC10A8A
:105650009FED231A00EEC10A9FED221A00EEC10A47
:10566000B1E79FED211A9FED210A10F0020F00EE25
:10567000810A9FED1F1A00EE801AB7EE000A00EEB5
:10568000810A18BFB1EE400A08BD00F073F99AE72D
:1056900010EE100A4000B0F17F4F3CBFB7EE000A99
:1056A00008BD07D14FF0010000F01EFABDE8084028
:1056B00000F050B9BDE8084000F049B9B61F927E2D
:1056C000336D4C39DA82083CA0AA2ABE490E4946FD
:1056D00083F9223F0000004B0000C93F00A0FD39C4
:1056E0000020A2331A61342CB93AB2BACA9F2A3DBB
:1056F000DDFFFFBE10B52DED028BB0EE608AF0EE3F
:10570000408A18EE101A18EE900AFAF7BDFD00F064
:105710007040B0F1005F0CD018EE100A20F000408D
:10572000C0F1FF40C00F02BFB0EE480ABDEC028BD3
:1057300010BDB0EE680ABDEC028B10BD10B52DEDAA
:10574000028BB0EE608AF0EE408A18EE101A18EE66
:10575000900AFAF799FD00F07040B0F1004F0CD0BC
:1057600018EE100A20F00040C0F1FF40C00F02BF49
:10577000B0EE480ABDEC028B10BDB0EE680ABDEC7D
:10578000028B10BD00B510EE101A2DED028B81B00A
:10579000524A6846B2EB410F2ED94FF0E640B0EBCB
:1057A000410F94BF00204FF0FF3000900098B0EE02
:1057B000408A00286ADB10F0010F4BD068EE080A1F
:1057C0009FED471A9FED470A00EE810A9FED461AAA
:1057D00010F0020F00EE801AB7EE000A00EE810A08
:1057E00002BF01B0BDEC028B00BD00BF01B0B1EE45
:1057F000400ABDEC028B00BD3C4B21F000429342BD
:1058000041D911F0004FDFED3A0A20EE201ADFED0A
:10581000390A19BF31EE601A71EE200A31EE201AF2
:1058200071EE600ABDEEE01A11EE100A9FED321A19
:1058300000F0030000EEC10A9FED301A009000EE68
:10584000C10A9FED2F1A00EEC10A9FED2E1A00EE3D
:10585000C10AABE728EE080A9FED2B1ADFED2B0AF1
:1058600010F0020F40EE410A9FED291A00EE201AB7
:1058700061EE000AB0EE480A08EE200AB6D101B087
:10588000BDEC028B00BD00F075F88FE718EE100A32
:105890004000B0F17F4F0DD218EE100AFFF75FFE07
:1058A000042808BF00F05EF8B0EE480A01B0BDEC75
:1058B000028B00BD09D1012000F016F901B0BDEC4A
:1058C000028B5DF804EB00F045B801B0B0EE480A79
:1058D000BDEC028B5DF804EB00F039B8B61F927E88
:1058E000B93AB2BACA9F2A3DDDFFFFBE490E49460A
:1058F00083F9223F0000004B0000C93F00A0FD39A2
:105900000020A2331A61342C336D4C39DA82083C02
:10591000A0AA2ABE10B52DED028BB1EEC08A18EEFA
:10592000100A20F00040C0F1FF40C00F0AD010EE76
:10593000100A20F00040C0F1FF40C00F04BF01205A
:1059400000F0D2F8B0EE480ABDEC028B10BD30EE8C
:10595000000A7047DFED020A80EEA00A70470000DF
:10596000000000009FED020A20EE000A70470000D0
:10597000000000102DE9F0014FF07F42B2EB410F23
:105980009FBF4FF0FF310160BDE8F00170474FF05D
:10599000004242EA0123C1F3C752783A551112F08E
:1059A0001F0C434CCCF120067C44C1F3C752A2F13A
:1059B00078024FEA621204EB820254F8254008BFD5
:1059C000D2E9015612D0556804FA0CF425FA06F70C
:1059D0003C43976805FA0CF527FA06F8D26807FAEF
:1059E0000CFCF24045EA08054CEA0206A4FB034C15
:1059F000A5FB0352A6FB03631D449D4234BF012651
:105A000000261319334416B1934202D903E093429E
:105A100001D2012200E00022624402F1200C920631
:105A2000DC0C42EA443200EE102A5B03DFED210A6F
:105A3000F8EEC01A00EE103A4FEA9C1C11F0004F2D
:105A4000B8EE400AC0F800C020EE201A00EE105A4E
:105A5000DFED190AB8EE400A20EE200A71EE810A45
:105A600070EE800A10EE902A02F500626FF30B02CE
:105A700000EE902A70EEE11A31EEC11ADFED101A35
:105A800030EE411A9FED0D0A20EE800A01EE210A48
:105A90009FED0C1A00EE810A04BFBDE8F0017047CB
:105AA000CCF180510160BDE8F001B1EE400A7047D1
:105AB00034400000000000360000802C22AAFD299E
:105AC000DB0FC92F0000C92F02E008C8121F08C150
:105AD000002AFAD170477047002001E001C1121F6F
