:020000040800F2
:10000000D00C0020A1010008FB580008B33F0008F5
:10001000F9580008750F0008216000080000000072
:10002000000000000000000000000000FF58000871
:100030006510000800000000FD5800080159000884
:10004000BB010008BB010008BB010008BB010008A0
:10005000BB010008BB010008BB010008BB01000890
:10006000BB010008BB010008BB010008BB01000880
:10007000BB010008790F0008BB010008850F0008CC
:10008000910F00089D0F0008A10C0008BB0100089B
:10009000BB010008BB010008BB010008BB01000850
:1000A000A9590008BB010008BB010008BB010008FA
:1000B000BB010008B5590008BB010008C13F00089A
:1000C000B53F0008BB010008BB010008BB010008E8
:1000D000BB010008BB010008BB010008BB01000810
:1000E000BB010008BB010008BB010008BB01000800
:1000F000BB010008BB010008BB010008BB010008F0
:10010000BB010008BB010008C1590008BB01000881
:10011000355D0008BB010008BB010008BB010008F9
:10012000A90F0008BB010008B50F0008BB010008BB
:10013000BB010008BB010008BB010008BB010008AF
:10014000BB010008BB010008BB010008BB0100089F
:10015000BB010008BB010008BB01000815600008D6
:10016000D93F0008CD3F0008BB010008BB010008D3
:10017000BB010008BB010008BB0100080000000033
:10018000BB010008BB010008DFF810D000F0B4FA92
:1001900000480047816D0008AFF30080D00C0020BC
:1001A0000648804706480047FEE7FEE7FEE7FEE711
:1001B000FEE7FEE7FEE7FEE7FEE7FEE799590008E7
:1001C000890100082DE9F05F0546002092469B4614
:1001D00088460646814640241BE02846414647465D
:1001E000224600F07CF853465A46C01A914110D37B
:1001F00011461846224600F063F82D1A67EB0108F5
:100200004F4622460120002100F05AF817EB000962
:100210004E41201EA4F10104DFDC484631462A4647
:100220004346BDE8F09F40EA01039B0703D009E085
:1002300008C9121F08C0042AFAD203E011F8013BD2
:1002400000F8013B521EF9D27047D2B201E000F82B
:10025000012B491EFBD270470022F6E710B513466A
:100260000A4604461946FFF7F0FF204610BD00F08D
:10027000004230F000400AD0C10D01F56071C0F3BA
:10028000160042EA0151C20840071143704700209E
:100290000146704730B50B4601460020202201245C
:1002A00009E021FA02F59D4205D303FA02F5491B44
:1002B00004FA02F52844151EA2F10102F1DC30BD5A
:1002C000202A04DB203A00FA02F100207047914016
:1002D000C2F1200320FA03F3194390407047202A0B
:1002E00004DB203A21FA02F00021704721FA02F3E0
:1002F000D040C2F120029140084319467047F0B443
:1003000000F0004221F0004120F00040CE0DC30D6E
:10031000C1F3160141F40001C0F316004C4215462A
:1003200040F40000761E09E010EB440002D582F094
:10033000004240428842F7D840005B1EB342F9DADF
:1003400018B1F0BC002100F004BA2846F0BC704798
:100350002DE9FE4F804681EA0300C00F0C46009055
:1003600021F0004123F00045B8EB0200A94105D27D
:100370004046214690461C460B46024623F000406C
:10038000104347D0270DC7F30A00C3F30A51029068
:10039000401A019040286BDAC3F3130040F4801B2D
:1003A0000098924620B10023D2EB030A63EB0B0BBB
:1003B00001985946C0F140025046FFF781FF0646BA
:1003C0000D4650465946019A00F0A8F910EB080076
:1003D0006141002487EA115284EAE7731A4340D04E
:1003E000009A62B3019A012A4FEA075215DC001BFA
:1003F00061EB02014FF0004202EA0752CDE90042F0
:10040000001C41F5801132462B4600F0DFF903B0A5
:10041000BDE8F08F40462146F9E7001B61EB020181
:10042000001C41F5801300185B412018A2F500174D
:1004300047EB030140EAD570B6196D4111E06D0834
:100440004FEA360645EAC0754FEA0752001B61EBDA
:100450000201001C41F5801149084FEA30000019E3
:10046000514132462B4603B0BDE8F04F00F09FB932
:100470000098012240000023D0EB020263EBE073FE
:10048000009821464FEAE074B8EB000061EB0401EC
:10049000E9E783F000435BE781F0004158E72DE98D
:1004A000FE4F81EA030404F0004421F0004100946F
:1004B0004FF0000B23F0004350EA01045ED052EAF3
:1004C00003045BD0C3F30A54C1F30A552C44A4F2CD
:1004D000F3340194A0FB0254C1F3130141F48011E1
:1004E000C3F3130343F4801301FB024400FB034EE8
:1004F000840A970A44EA815447EA8357A4FB0768B1
:1005000002958D0A05FB07854FEA932C04FB0C54DA
:100510002705029D4FEA065847EA1637B5EB08054E
:100520006EEB070C870E920E47EA811742EA8312A0
:10053000A7FB0201B6EB0B0164EB00042B0D43EAB1
:100540000C335E1844EB1C50DA465146E7FB0201BF
:10055000C5F313044FEA0B3343EA14534FEA043252
:10056000019C43EA0603A4F10C040294009CCDE92B
:1005700000B400F02BF903B0BDE8F08F0020014675
:10058000F9E72DE9F04D81EA030404F0004B21F076
:10059000004514464FF0000A23F0004150EA0502DE
:1005A00020D054EA01021DD0C5F30A570246C5F314
:1005B0001303C1F31300C1F30A5640F4801543F44A
:1005C0008013A7EB0608101BD64608F2FD3873EB24
:1005D000050002D308F1010801E092185B41B8F16F
:1005E000000F03DA00200146BDE8F08D00204FF433
:1005F0008011064684460EE0171B73EB050705D3F2
:10060000121B63EB050306434CEA010C49084FEA51
:10061000300092185B4150EA0107EDD152EA030025
:1006200012D082EA040083EA0501084305D0101BBA
:10063000AB4106D20122002306E000224FF0004326
:1006400002E06FF0010253101AEB06004CEB085168
:1006500010EB0A0041EB0B01BDE8F04D00F0A7B82C
:10066000C1F30A52C1F3130140F2FF3341F4801188
:100670009A4202DA00200146704740F233439A4220
:10068000A2F2334202DC5242FFF729BEFFF718BE46
:1006900030B5041E71F1000404DB4FF00044404209
:1006A00064EB0101141E73F1000405DB1C464FF0DE
:1006B0000043524263EB0403994208BF904230BDAD
:1006C000002801DBC0F10040002901DBC1F100413D
:1006D000814202D24FF0004004E04FF0005001D1BF
:1006E0004FF0C0404FEA2062EFF3008162F31F61D8
:1006F00081F3008870470000064C074D06E0E06873
:1007000040F0010394E8070098471034AC42F6D358
:10071000FFF73EFD2479000844790008202A06DB13
:10072000CB17203A41FA02F043EAE07306E041FABF
:1007300002F3D040C2F120029140084319467047AD
:100740000029A8BF7047401C490008BF20F00100E5
:10075000704710B4B0FA80FC00FA0CF050EA0104C3
:1007600004BF10BC704749B1CCF1200421FA04F455
:1007700011FA0CF118BF012121430843A3EB0C012E
:10078000CB1D4FEA00614FEA102042BF002010BC91
:10079000704700EBC35010440029A4BF10BC704741
:1007A000401C490008BF20F0010010BC704710B584
:1007B000141E73F1000408DA401C41F10001921884
:1007C0005B411A4301D120F0010010BD2DE9F04D2D
:1007D00092469B4611B1B1FA81F202E0B0FA80F282
:1007E00020329046FFF76CFD04460F4640EA0A00AF
:1007F00041EA0B0153465A46084313D0114653EAC7
:10080000010019D0C8F140025046FFF768FD0546C7
:100810000E46504659464246FFF752FD084305D062
:10082000012004E020463946BDE8F08D0020054354
:1008300046EAE0762C4337430A986305E40AA0EBC6
:1008400008000022FD0A44EA47540A3002D500207D
:100850000146E9E7010510196941DDE9084500197C
:100860006941BDE8F04DA2E79FED221A9FED222AD3
:1008700020EE010AB5EE001A30EE010ABDEEC01AF4
:1008800011EE100AB5EE400AF1EE10FAB8BF0138C9
:1008900001EE100AB8EEC11A30EE410A20EE020A4B
:1008A000BDEEC01A9FED152A11EE100A002130EEA0
:1008B000021AB1EB502F47F220111CBF0020B0EEFE
:1008C000410AC0F6000101EE100A01EB8001B8EE0A
:1008D000411A30EE410A91ED001A91ED012AB7EE6E
:1008E000003A33EE403A23EE011A20EE020A31EECE
:1008F000000A704783F9223E00000044000000C453
:100900009FED201A9FED202A20EE010ABDEEC01AAD
:1009100011EE100AB5EE400AF1EE10FAB8BF013838
:1009200001EE100AB8EEC11A30EE410A20EE020ABA
:10093000BDEEC01A9FED152A11EE100A002130EE0F
:10094000021AB1EB502F47F220111CBF0020B0EE6D
:10095000410AC0F6000101EE100A01EB8001B8EE79
:10096000411A30EE410A91ED001A91ED012AB7EEDD
:10097000003A33EE403A23EE011A20EE020A31EE3D
:10098000000A704783F9223E00000044000000C4C2
:100990002DE9F05F23494FF0000846460A684546B6
:1009A00044464FF4FA79C2F834800A68C2F83880B5
:1009B0000968C1F83C801C490A68C2F834800A689A
:1009C000C2F838800968C1F83C80322001F0FEFB93
:1009D000DFF858A000270AF1040B00BFBAF8002086
:1009E000BAF802009044BBF800100644BBF80200BD
:1009F0000D440444012001F0E9FB7F1C4F45EDDB71
:100A00004846B8FBF0F2094914398A81B6FBF0F286
:100A1000CA81B5FBF9F2B4FBF9F00A824882BDE85D
:100A2000F09F0000940600202407002024000020EE
:100A300010B50146806B026C12F0500F05D0026CAD
:100A4000D20626D500F0B1FF10BD016C41F4007153
:100A5000016401688A6812F0405F17D1027EAAB96A
:100A6000CA6A12F4700F02D08A6852050ED44A681E
:100A700022F020024A60016C21F480710164016C53
:100A8000C90403D4016C41F00101016400F08AFF44
:100A900010BD806BC26CBDE810400846104710B511
:100AA000806B40210164416C41F00401416400F01D
:100AB0007CFF10BD10B5806B00F076FF10BD00000C
:100AC00070B556492DED048B0068DFED558A9FED1A
:100AD000559A0125544C88424FD104F114000188E5
:100AE000A1804088E080A088A189401AE188E2893D
:100AF0008E1A05F0BBFFB0EE408A304605F0B6FF17
:100B0000207878B3D4ED070A38EE601AD4ED070ADE
:100B100041EE280AC4ED070AD4ED080A70EE600A17
:100B200094ED080A00EEA80A84ED080A94ED070A7D
:100B3000D4ED090A70EE600A94ED090A00EE890A04
:100B400084ED090A94ED080AD4ED0A0A70EE600AF1
:100B500094ED0A0A00EE890A84ED0A0AA570BDEC3C
:100B6000048B70BDFFE784ED078A84ED080A84EDED
:100B7000098A84ED0A0A2570F0E72C498842EED1F3
:100B80002948183001882181408860812089218A84
:100B9000401A6189628A8E1A05F068FFB0EE408AB9
:100BA000304605F063FF607868B3D4ED0B0A38EE89
:100BB000601AD4ED0B0A41EE280AC4ED0B0AD4EDFD
:100BC0000C0A70EE600A94ED0C0A00EEA80A84ED9F
:100BD0000C0A94ED0B0AD4ED0D0A70EE600A94ED48
:100BE0000D0A00EE890A84ED0D0A94ED0C0AD4ED8D
:100BF0000E0A70EE600A94ED0E0A00EE890A84ED8A
:100C00000E0AE570ABE784ED0B8A84ED0C0A84EDE7
:100C10000D8A84ED0E0A6570F3E7000000210140A3
:100C2000CDCC4C3E0BD7A33D10000020002201404C
:100C30000548017811B190ED090A704781888089D3
:100C4000081A05F013BF0000100000200548417885
:100C500011B190ED0D0A70470189008A081A05F05C
:100C600005BF0000100000200548017811B190ED8B
:100C70000A0A7047C188C089081A05F0F7BE00004B
:100C8000100000200548417811B190ED0E0A704720
:100C90004189408A081A05F0E9BE000010000020D2
:100CA00010B5044800F082FEBDE81040024800F094
:100CB0007DBE00001C03002064030020464910B5DF
:100CC0004A6822F440324A604A6843681A434A60DC
:100CD00001684A6822F480724A6001684A680369C0
:100CE00042EA03224A6001684A6822F040724A6080
:100CF00001684A6883681A434A6001688A6822F476
:100D000000628A6001688A68C3681A438A60816ADF
:100D10006FF07062D14201688A6822F070628A6066
:100D200001688A680CD0836A1A438A6001688A68FD
:100D300022F040528A6001688A68C36A1A4301E05F
:100D400022F040528A6001688A6822F002028A60BA
:100D500001688A68037E42EA43028A6090F82010A4
:100D6000002901684A680FD042F400624A600168B5
:100D70004A6822F460424A6001684A68174C436A34
:100D800004EB43331A4301E022F400624A60016835
:100D9000CA6A22F47002CA620168CA6A838B104C64
:100DA00004EB03531A43CA6201688A6822F4007292
:100DB0008A6001688A6890F8303042EA43228A608B
:100DC00001688A6822F480628A6001688A684069E2
:100DD00042EA8020886010BD0023014000E0FFFF50
:100DE0000000F0FF2A4810B5016800244C63016838
:100DF0008C630068C4632146254802F0D9FD0421B4
:100E0000234802F0D5FD0821214802F0D1FD2148F8
:100E100001684C6301688C630068C46300211D484D
:100E200002F0C6FD04211B4802F0C2FD082119484A
:100E300002F0BEFD184800F0C1FF184800F0BEFFE8
:100E4000174804804480001D0480448018380470D2
:100E500044709FED140A022280ED080A80ED070A13
:100E600080ED0C0A80ED0B0A80ED0A0A80ED090A7C
:100E700080ED0E0A80ED0D0A0949074800F0F2FEE8
:100E800007490222BDE81040091D044800F0EABEEF
:100E900094060020240700201C0300206403002087
:100EA000240000200000000010B190ED020A7047FD
:100EB0009FED010A704700000000000010B190EDA6
:100EC000030A70479FED010A704700000000000010
:100ED00000281BD0002919D00160427700219FED26
:100EE0000D0A818080ED020A80ED030A80ED040A7C
:100EF00080ED050A81610177074A80ED080A00BF8D
:100F000052F821301BB1491C0429F9DB704742F823
:100F100021007047000000008C0800202DE9FC41F2
:100F200004001FD001F066FA0546207F104E00270E
:100F300058B13068281A0A2814D927776C212068FC
:100F400001F0A9FC207F00280CD10221A01D3560F2
:100F5000CDE9000101230E226C21206801F0ECFC98
:100F600010B12777BDE8FC8101202077FAE7000067
:100F70004C000020FEE70000014800F0B5BF000073
:100F8000D4050020014800F0AFBF00003406002067
:100F9000014800F0A9BF000014050020014800F03E
:100FA000A3BF000074050020014800F09DBF0000B1
:100FB0000C040020014800F097BF0000AC030020A3
:100FC00001681823CAB2103AB2FBF3F2054B6FF373
:100FD0000901032A9B5CC36500D9091D8165084688
:100FE00070470000D870000810B5014600208B69DA
:100FF0008A6A4FF0C07453B1B3F5005F15D072B177
:10100000012A0CD0022A0AD0032A09D104E01AB11D
:10101000012A06D0022A03D1C96AC90100D50120DC
:1010200010BDC96AA142FAD010BD002AF7D0012A2A
:10103000F2D0022AF3D0032AF3D010BD30B50468F1
:10104000256825F480252560046863608368402B4B
:10105000036803D099600068C26030BD9A60006880
:10106000C16030BD704772B6FEE7000010B586B0B3
:101070000446142204496846FFF7D5F8694620461D
:1010800000F029FB06B010BDF870000810B586B05E
:101090000446142204496846FFF7C5F8694620460D
:1010A00000F019FB06B010BD0C71000810B5044625
:1010B0002DED068B86B0D0F8280108B1804701E0FD
:1010C000B2EE080A9FED3C8AF0EE408A9FED390AA5
:1010D00004A903A868EE809AF0EE481AB7EE001A49
:1010E000F0EE480AB0EE690A00F07CF902AA01A904
:1010F0006846B0EE681ADDED040A9DED030A00F0C3
:1011000075FAD4F8240104F58E749DEC030A804727
:10111000C82001F05BF820688047DFED28AAB0EE18
:10112000409AB0EE6A0AFFF79FFBB0EE40AAB0EE1D
:101130006A0AFFF7E5FBF0EE401A04A903A8B0EE37
:101140004A1AF0EE480AB0EE690A00F04BF902AA1A
:1011500001A96846B0EE681ADDED040A9DED030AA8
:1011600000F044FAA0689DEC030A8047C82001F013
:101170002DF820688047F0EE408AA068B0EE481A4B
:10118000F0EE480AB0EE480AA4F58E74804738EEB7
:10119000C90A00F035F9B5EEC00AF1EE10FA01DB2C
:1011A000012001E04FF0FF3084F8190106B0BDECDA
:1011B000068B10BDCDCC4C3E000000003333B33E57
:1011C00070B504462DED068B88B0D0F8280118B113
:1011D0008047F0EE408A01E0F2EE088A9FED550A62
:1011E0000025B3EE04AA68EE809A9FED538A00BFF3
:1011F00000EE105A05A904A8B8EEC00AB7EE001A0E
:1012000069EE800A80EE8A0AF0EE480AF0EE601A73
:1012100000F0E8F802AA01A96846B0EE681ADDED10
:10122000050A9DED040A00F0E1F9D4F824019DECD3
:10123000030A80470F2000F0C9FF6D1C142DD7DD75
:1012400000254FF49676022000F0C0FFD4F81C0170
:1012500000B180476D1CB542F5DBB0EE489A002521
:10126000D4F81C01804730EE099A022000F0AEFF4E
:101270006D1C322DF4DB94F91901DFED300A89EE93
:10128000200A00EE900A20789FED2D9AF8EEE00AF1
:1012900060EE800A00EE100AB8EE400A20EEC00AA6
:1012A000F0EE490A84ED090A04F024FFB5EEC00A05
:1012B00084ED090AF1EE10FA03D230EE090A84ED4A
:1012C000090A142500EE105A05A904A8B8EEC00AB0
:1012D000B7EE001A69EE800A80EE8A0AF0EE480A3C
:1012E000F0EE601A00F07EF802AA01A96846B0EE9E
:1012F000681ADDED050A9DED040A00F077F9D4F8CF
:1013000024019DEC030A8047082000F05FFF6D1E5A
:10131000D8D5B0EE480AD4F82401B0EE401AF0EE69
:10132000400A8047C82000F051FF08B0BDEC068B92
:1013300070BD0000CDCC4C3E0000000000004842D3
:10134000DB0FC9409FED061A80ED000A20EE010A6E
:101350009FED041A00EE810A81ED000A704700003B
:101360003ACD133F3ACD933F10B504462DED048B93
:10137000F2EE081AB0EE000A0170012084F818019C
:1013800084F81901C4ED011A84ED020A00209FEDD2
:10139000128ADFED128A9FED129A207384ED048A7F
:1013A000B0EE481AF0EE680AB0EE490A012104F1E5
:1013B000500000F03FF8D4ED011AB0EE481AF0EEFC
:1013C000680AB0EE490A012104F1900000F032F8F9
:1013D000BDEC048B012010BD000000009A99993FDC
:1013E000CDCCCC3F20EE012A20EE210A00EEE12AEE
:1013F00000EE810A80ED002A81ED000A70470000AE
:10140000DFED090A094901E030EE600A10EE100A2A
:101410008842F9DC064900BF10EE100A884202D962
:1014200030EE200AF8E77047DB0FC940DB0F494078
:10143000DB0F49C070B50D462DED048BB0EE618A0F
:10144000F0EE418AB0EE609AF0EE409A04464021F8
:10145000FEF702FF2563C4ED059A84ED069AC4EDFC
:10146000078A84ED0D8A9FED040A84ED0E8A84EDCF
:101470000F0ABDEC048B70BD00007A4480EC020AB8
:1014800030EE600A80ED020A016BD0ED031A11B153
:1014900001293DD096E070EE610A90ED051AF0EE5C
:1014A000002A20EE812A80ED082AD0ED060A20EEDF
:1014B000801AF0EE400A41EEE20A80ED0A1AD0ED01
:1014C000042A32EE011A70EEA20AD0ED072A60EE6D
:1014D000A20AC0ED090A71EE200A90ED0B1A30EE57
:1014E000811A80ED0B1AD0ED0D0AB4EEE01AF1EE80
:1014F00010FA01DDC0ED0B0A90ED0B1AF1EE600A57
:10150000B4EEE01AF1EE10FA5CD2C0ED0B0A59E02D
:10151000D0ED050A60EE802AF0EEC00AC0ED082A80
:1015200090ED0F1AB4EEE01AF1EE10FA1BDD90ED1B
:101530000A1AD0ED060A00EE801A80ED0A1AD0EDE4
:101540000E0AB4EEE01AF1EE10FA01DDC0ED0A0A5F
:1015500090ED0A1AF1EE600AB4EEE01AF1EE10FA1C
:1015600001D2C0ED0A0A70EE610A90ED071A60EE32
:10157000810AC0ED090A90ED0A2A32EE821A71EE54
:10158000200AC0ED0B0A90ED0D1AF4EEC10AF1EE3F
:1015900010FA08DD70EEC10A72EE600AC0ED0A0AA8
:1015A00080ED0B1A0EE0F1EE412AF4EEE20AF1EEC4
:1015B00010FA07D270EE810A72EE600AC0ED0A0AD4
:1015C000C0ED0B2AC0ED041A80ED030A90ED0B0A62
:1015D000704720EE012A00EEA12A60EE810A40EE5B
:1015E000610A80ED002AC1ED000A704770B5F0EE87
:1015F000601A2DED068BBEEE00AAB0EE408A60EEBA
:101600000A0A9FED310A15460C46B0EE609A41EE8B
:10161000800A01EEC09A0646F0EE419AB0EE480A02
:10162000F0EE608A04F01EFDF0EE490A04F01AFDA7
:10163000F0EE40AAF0EE680AB0EE480A04F036FD7B
:10164000F0EE490A04F032FDF0EE400A3AEEA00A4C
:10165000DFED1E0A60EE0A1A38EE210A29EEA08A92
:1016600086ED000A38EEA10A84ED000A39EE210A5F
:1016700085ED000AF0EEC00A94ED000AB0EEC00A53
:1016800004F0F0FCD6ED008AF0EE400AB0EEE80A75
:1016900004F0E8FCB4EEC80AF1EE10FA11DDC8EE71
:1016A000000A28EEA00A86ED000A94ED000A20EE5A
:1016B000200A84ED000A95ED000A20EE200A85ED4F
:1016C000000ABDEC068B70BDD7B35D3FEFC9133F79
:1016D00080ED020A7047142200F58E70FEF7A3BD5C
:1016E0000173704780ED040A704780ED010A80EDB8
:1016F000210A80ED310A704710B504462DED028BAA
:1017000084B0D0F81C0150B1804794F9190100EE63
:10171000900AF8EEE00A20EE200A84ED060AD4F8DA
:10172000203123B104F13002111F081F984720789F
:1017300094ED090A00EE900A94ED061AF8EE600A9C
:1017400001EE200A9FED418AF0EE480A04F0D2FC37
:10175000B5EEC00A84ED070AF1EE10FA03D230EEBE
:10176000080A84ED070A04F1280201A992EC030A91
:101770006846FFF7E7FD94ED070AFFF775F8B0EE4E
:10178000408A94ED070AFFF7BBF8F0EE403A04F107
:1017900038019DEC020A081FF0EE631AB0EE481AF9
:1017A000FFF717FF94ED043A94ED020AB4EEC30A72
:1017B000F1EE10FA01D2B0EE403AB1EE400AB4EECA
:1017C000C30AF1EE10FA01DDB0EE403AD4ED0D0A95
:1017D0009FED1F0A04F15000FFF750FE84ED0F0A41
:1017E000D4ED0E0AB0EE430A04F19000FFF746FE76
:1017F00084ED100AF0EE400A94ED0F0A03A902A846
:10180000F0EE631AB0EE481AFFF7ECFDD4F82801A9
:1018100008B1804701E0B2EE080A04F14C02111F42
:10182000B0EE401A081FDDED030A9DED020AFFF736
:10183000DDFED4F82401002803D0443494EC030ADC
:10184000804704B0BDEC028B10BD0000DB0FC94027
:10185000000000007047000078B50024009490F864
:101860003C20012A19D0012280F83C200A68072375
:101870000568092A13D9EE680A3A02EB420293403E
:101880009E43EE600B788A680A3B03EB43039A4061
:101890000368DD682A43DA6010E0022078BD2E6913
:1018A00002EB420293409E432E610B788A6803EB61
:1018B00043039A4003681D692A431A614A681F233B
:1018C000072A13D205686E6B521E02EB8202934008
:1018D0009E436E630B790A885B1E92B203EB83030F
:1018E0009A4003685D6B2A435A6327E005680D2A16
:1018F00012D22E6BD21F02EB820293409E432E63C4
:101900000B790A88DB1F92B203EB83039A400368CA
:101910001D6B2A431A6311E0EE6A0D3A02EB820254
:1019200093409E43EE620B790A880D3B92B203EB23
:1019300083039A400368DD6A2A43DA62164B05681E
:10194000144A9D4206D10D68122D03D1556845F405
:101950008005556005689D4218D10B68102B01D099
:10196000112B13D1536843F4000353600968102905
:101970000CD10A490A4A0968B1FBF2F101EB810175
:10198000490000E0491E00910029FBD180F83C404D
:10199000002078BD00230140002001400C00002001
:1019A00040420F00FFF78CB87047704770B504468F
:1019B00000680668456816F0020F05F020012AD07D
:1019C00049B3216CC90603D4216C41F40071216430
:1019D000816811F0405F17D1217EA9B9C16A11F465
:1019E000700F02D0816849050ED4416821F02001B2
:1019F0004160206C20F480702064206CC00403D40B
:101A0000206C40F0010020642046FFF7CBFF2168E6
:101A10006FF01200086016F0040F05F0800132D05C
:101A200089B3206CC00603D4206C40F400502064BD
:101A30002068816811F4401F1ED1816B11F4401F92
:101A400002D08168490517D44168490514D48168DA
:101A500011F0405F10D1217E71B9416821F0800101
:101A60004160206C20F480502064206CC00503D4B9
:101A7000206C40F0010020642046FFF7EBFE216857
:101A80006FF00C00086016F0010F05F040010FD058
:101A900071B120680068C0070AD0206C40F4803023
:101AA0002064204600F043F821686FF001000860D0
:101AB00016F0200F05F080610ED000290CD0606C6C
:101AC00040F00200606420686FF020050560204649
:101AD000FFF76BFF2068056070BD70B504004FF024
:101AE000000503D0206C002610B107E0012070BD76
:101AF000204600F01DF8666484F83C60206CC00647
:101B000010D4206C20F4885040F00200206420465D
:101B1000FFF7D4F86664206C20F0020040F001006A
:101B2000206400E0012584F83C60284670BD7047C1
:101B30002DE9F04F87B0064614216846FEF78CFB6E
:101B40004148404B1438326800253F4903240715AB
:101B50004FF400684FF400594FF4807A4FF4403B43
:101B60009A423FD10A6842F400720A60096801F49F
:101B700000710591016841F001010160016801F007
:101B800001010591016841F00201016000686946A8
:101B900000F00200059020208DE831002B4800F075
:101BA00027FB01208DE831006946294800F020FB21
:101BB000294C284804F10C022060F803C4E901050F
:101BC00082E8A00F2046656234E0B463002211462B
:101BD0001220A66301F000F9122001F0EFF807B01F
:101BE000BDE8F08F1D4B9A42F9D10A6842F4806239
:101BF0000A60096801F480610591016841F00401FF
:101C000001600068694600F00400059009208DE835
:101C10003100134800F0ECFA0F4C0E4860343038B5
:101C200020608005C4E9010504F10C02204682E829
:101C3000A00F656200F028FA0028C6D0FFF713FA5B
:101C4000C3E7000000210140443802400000024088
:101C50000004024040640240AC0300200022014026
:101C600000080240F8B50E4600210446009190F8A5
:101C70003C0013460A46012807D0012084F83C00A6
:101C800020688568ED0702D011E00220F8BD856864
:101C900045F0010585604048404D0068B0FBF5F017
:101CA00000EB400000E0401E00900028FBD12068BF
:101CB0008568ED0503D5856825F480758560206805
:101CC0008568ED075DD0226C40F20165AA4342F4BD
:101CD000807222644068400505D5206C20F40050D5
:101CE00040F480502064206CC00404D5606C20F067
:101CF0000600606400E0616484F83C10A16B294830
:101D0000274DC863A16B28480864A16B2748C864A5
:101D100021686FF0220008602068416841F080610E
:101D200041602068816841F4807181602168324699
:101D30004C31A06B00F012FA024668681C49C006DC
:101D4000206806D0884224D1816811F0405F13D00A
:101D50001FE08842F8D0174B984203D1D1F80433E2
:101D6000DB06F1D0144B984213D1D1F8041301F0E3
:101D70001F011029E8D30CE0816841F080418160A7
:101D800007E0206C40F010002064606C40F001001F
:101D900060641046F8BD00000C00002040420F00B7
:101DA00000230140310A0008B50A00089F0A000814
:101DB00000200140002101400022014010B50446EE
:101DC000002094F83C1001290CD0012184F83C102B
:101DD00021688A6822F001028A6021688A68D20735
:101DE00002D01DE0022010BD8A6822F480728A6051
:101DF000A16B91F83520022A07D1084600F014F8AB
:101E000018B1216C41F04001216421684A6822F038
:101E100080624A60216C21F4885141F00101216403
:101E2000002184F83C1010BD2DE9F0410446876D77
:101E300000F0E0FA064694F835000025022806D0A6
:101E40008020606584F834500120BDE8F08120686E
:101E5000016821F0160101602068416921F08001CC
:101E60004161206C08B9A06C20B12068016821F0A4
:101E7000080101602068016821F0010101600CE0A7
:101E800000F0B8FA801B052807D9202060650320E0
:101E900084F8350084F83450D7E720680068C0071C
:101EA000EED194F85C103F208840B860012084F89F
:101EB000350084F834500020C7E790F83510022927
:101EC00003D08021416501207047052180F835103D
:101ED0000068016821F00101016000207047406D39
:101EE000704790F8350070472DE9F84304464FF0ED
:101EF0000009CDF8009063484FF41651A56D0068B5
:101F0000B0FBF1F72E6894F85C10082000FA01F19C
:101F100031420FD021680A6852070BD50A6822F0B7
:101F200004020A6094F85C108840A860606D40F07C
:101F30000100606594F85C104FF0010808FA01F0A8
:101F4000304208D021684969090604D5A860606D4F
:101F500040F00200606594F85C1004208840304234
:101F600008D021680968890704D5A860606D40F031
:101F70000400606594F85C1010208840304218D04E
:101F800021680968090714D5A86020680168490319
:101F900004D50068000308D5A16C07E00168C905F5
:101FA00003D4016821F008010160216C09B12046C9
:101FB000884794F85C1020208840304231D0216856
:101FC0000968C9062DD5A86094F835000528206851
:101FD000016806D0490347D5006800031DD4616C31
:101FE0001CE021F0160101602068416921F08001A8
:101FF0004161206C08B9A06C20B12068016821F013
:102000000801016094F85C103F208840A86084F8C3
:10201000358084F83490216D1FE0E16B09B12046D2
:102020008847606D00282BD0606DC00714D0052054
:1020300084F835002068016821F0010101600098F2
:10204000401C0090B84203D820680068C007F6D151
:1020500084F8358084F83490E16C002910D001B008
:102060002046BDE8F04308470168C905D5D401689A
:1020700021F01001016084F8358084F83490CCE7B9
:10208000BDE8F8830C0000202DE9F041044600F083
:10209000B1F906465CB1022084F83500002584F8C9
:1020A00034502068016821F0010101600DE0012039
:1020B000BDE8F08100F09EF9801B052805D920209D
:1020C0006065032084F83500F2E720680068C007E7
:1020D000F0D12268116820480140D4E90103184377
:1020E000D4E903363343184363691843A36918439B
:1020F000E3691843236A18430843616A042903D13A
:10210000D4E90B1319430843106020684069666ADC
:1021100020F0070130460E43012704280CD1A06AA5
:102120000643E06A40B12046FEF75EFF20B1402042
:10213000606584F83570BAE7206846612046FEF78E
:102140003FFF94F85C203F2191408160656584F8F1
:1021500035700020ACE700003F8010F02DE9F04121
:102160000446866D90F83400002501280DD001202A
:1021700084F8340094F835700020012F07D084F8DB
:10218000340002252846BDE8F0810220FBE7022743
:1021900084F8357060652046FEF750FF94F85C10B7
:1021A0003F208840B0602068016841F0160101605E
:1021B000206C20B12068016841F0080101602068AE
:1021C000016841F001010160DCE7000070B50446E0
:1021D00000F010F90546601C02D004480078044461
:1021E00000F008F9401BA042FAD370BD00000020A7
:1021F0002DE9F84FDFF8BCA10022012503264FF09E
:102200000F090AF1040BAAF1040E00BF0B6805FACE
:1022100002F42340A34270D10F7907F00307012F86
:1022200001D0022F16D187684FEA420806FA08FC4F
:1022300027EA0C07D1F80CC00CFA08FC4CEA070C92
:10224000C0F808C04768A7430C79C4F30014944051
:102250003C4344600C79E443A4070AD0C4684FEAC5
:10226000420C06FA0CF7BC438F6807FA0CF72743B9
:10227000C7600C7904F00304022C12D1D40800EBDF
:10228000840CDCF820405707FF0E09FA07F824EA0F
:102290000804D1F8108008FA07F848EA0408CCF8D6
:1022A000208004684FEA420C06FA0CF7BC430F7911
:1022B00007F0030707FA0CF7274307604C6814F48C
:1022C000403F70D03C4C276847F480472760246823
:1022D00022F0030704F480440094384C07EB040C0C
:1022E000DCF8084897074FEA177809FA08F7BC4363
:1022F000334FB84202D1002724E054E0314FB842B6
:1023000001D101271EE0304FB84201D1022719E068
:102310002E4FB84201D1032714E02D4FB84201D10E
:1023200004270FE02B4FB84201D105270AE02A4FBE
:10233000B84201D1062705E0284FB84201D107274E
:1023400000E0082707FA08F72743CCF80878DAF8FE
:1023500000405746D1F804C09C435FEACC2C00D51E
:102360001C433C60DBF800405F46D1F804C09C434E
:102370005FEA8C2C00D51C433C60DEF800407746B9
:10238000D1F804C09C435FEA8C3C00D51C433C6000
:10239000084F083F3C68D1F804C09C435FEACC3C3E
:1023A00000D51C433C60521C102AFFF42FAFBDE83F
:1023B000F88F0000083C01404438024000300140E2
:1023C000000002400004024000080240000C0240ED
:1023D000001002400014024000180240001C02409D
:1023E0000069084000D0012070470AB18161704740
:1023F0000904FBE7014880687047000000000020E6
:10240000704770472DE9F041016804464A694E68FB
:1024100090F83E000025D743FA0506D4F243D205D2
:1024200003D46FF4807201254A61B90508D4F143E1
:10243000C90505D422686FF4007145F002055161A9
:10244000790525D4F143C90522D4638D94F83D1054
:10245000226B202808D13BB9212910D029290ED080
:10246000282901D1212A0AD022686FF480615161A4
:1024700045F00405102806D0402804D008E0204686
:1024800002F0D0FA04E02068016841F400710160B4
:10249000380508D4F043C00505D421686FF4006006
:1024A00045F008054861002D07D0206C28432064C2
:1024B0002046BDE8F04101F0A5BEBDE8F0812DE960
:1024C000F047026800215368C66A90F83E4090F8D1
:1024D0003D50102C12D0402C10D0046C002C7DD01C
:1024E0005469E443A6077AD4DE43B60577D4036C77
:1024F00003B19169BDE8F04702F070BA976951697C
:102500004FF42A0CC9435FEAC1784FF02A4904D03E
:1025100066452AD04E4528D010E0DE43B6050DD4DE
:10252000C16A614501D1012103E0C16A494501D178
:102530000821C162BDE8F04702F038B90E0716D491
:10254000DE43B60513D4416CC9B21161416B09B1C8
:10255000C96B29B9816B002907D0C96B002904D048
:102560000068416841F400614160BDE8F0878E0772
:1025700006D4DE43B60503D4BDE8F04702F08AB8BE
:10258000FE43526876074FEA02521DD4002AECDB64
:102590000A0608D4DA43520505D4490705D5BDE833
:1025A000F04702F01BB84907DFD4D9438905DCD4D2
:1025B000212D05D0402CD8D1BDE8F04702F03CB920
:1025C000BDE8F04701F0C8BF002ACEDB4A060BD4B5
:1025D000DA43520508D4490708D501E00DE00EE0C2
:1025E000BDE8F04701F03EBF4907BED4D943890595
:1025F000BBD4BDE8F04701F0C8BE916970E7E106C1
:1026000006D4D943890503D4BDE8F04702F052BA95
:102610002821212D27D0292D25D0650655D4DD432D
:102620006D0552D4640752D590F83D30448D002C8E
:102630009BD01269446A2270426A521C4262428DE7
:10264000521E4285428D002A8FD12A2B8DD10268DD
:10265000536823F4806353602222026380F83D10A4
:1026600000F050FB81E7250623D4DD436D0520D41F
:10267000640720D590F83D30448D002CF2D0446A98
:1026800024781461426A521C4262428D521E428575
:10269000428D002AE6D1292BE4D10268536823F445
:1026A000806353602122026380F83D1000F02BFB11
:1026B0005BE76107D6D4D9438905D3D4418D00297E
:1026C000D0D0416A097811610AE06107CAD4D943C0
:1026D0008905C7D4418D0029C4D01169426A11709F
:1026E000416A491C4162418D491E41853DE710B553
:1026F000044604F0C7FA002805D0002101772168BC
:102700006FF4E060486110BD70B5040025D094F806
:102710003D00002520B984F83C50204600F0F2F935
:10272000242084F83D002068016821F00101016047
:102730002068016841F4004101602068016821F4CB
:102740000041016000F014FC4D4A6168914201D8DB
:102750004C4900E04C49884201D2012070BD4B49F0
:102760002368B0FBF1F15E6826F03F060E435E6021
:102770006368934206D94FF4967359434FF47A73C2
:10278000B1FBF3F12368491C1E6A26F03F06314372
:1027900019626168914210D84900401EB0FBF1F205
:1027A000521CC2F30B02042A01D2042022E0B0FB27
:1027B000F1F0401CC0F30B001CE0A268F2B301EB87
:1027C000C10303EB0116431EB3FBF6F35B1C43F49A
:1027D00080431B0549D092B301EBC10202EB01110A
:1027E000401EB0FBF1F0401CC0F30B0040F48040F1
:1027F00040F400402168CA694CF6FF739A431043C5
:10280000C861D4E9071001432068026822F0C002C1
:1028100011430160D4E9030101432068826848F252
:10282000FF339A4311438160D4E9050108432168CD
:10283000CA6822F0FF021043C86001E00EE016E013
:102840002068016841F0010101602564202084F8BE
:102850003D00256384F83E50002070BD01EB410629
:10286000431EB3FBF6F35B1CB3E70120C2E701EBA9
:102870004101401EB0FBF1F0401CC0F30B00B7E774
:10288000A086010080841E0000093D0040420F0028
:1028900070477047704710B590F83E2001688B690B
:1028A000DB439B0703D4102A03D0402A01D0012028
:1028B00010BD90F83C20012A1CD0012280F83C2059
:1028C00000220263602380F83D300B6823F48063AC
:1028D0000B6001680B6843F400730B60428501686C
:1028E0004B6823F4E0634B6080F83C2001F08AFCE5
:1028F000002010BD022010BD10B504F0C3F900285F
:1029000014D000210177C188DFED090A49BAC1F36B
:102910000B0100EE101A8180B8EE400A20EE200A6A
:1029200080ED020ABDE8104004F0B0B810BD000010
:10293000DB0FC93A704700002DE9FC5F99469246CB
:102940008B460446DDF83080FFF754FD002506462F
:10295000009594F83D00202828D1664846F2A81139
:1029600020270068B0FBF1F000EBC00101EB001084
:1029700000900098401E009010D020688069C043ED
:102980008007F6D594F83C0001280FD0012084F888
:102990003C0020680168C9070BD00EE044F8305FA6
:1029A0006773A573206940F0200020610220BDE814
:1029B000FC9F016841F0010101602068016821F479
:1029C00000610160222084F83D00402084F83E0030
:1029D0002564C4F824800D986085608D2085464864
:1029E000E062C4F844B0C4F848A0C4F84C9025652F
:1029F000208D4FF02308002863D0A06B00B33F491F
:102A0000C163A16B3E48C864A06B0564A06B4564BC
:102A1000A06B8564A06B05652168238D1031626A07
:102A2000A06BFFF79BFBA0B184F83D7084F83E508B
:102A300054F8400F40F0100044F80409257049E0B4
:102A400084F83D7084F83E5054F8400F40F0800008
:102A5000F2E7CDE900864B4652465946204601F042
:102A60003FFF88B1A06BFFF728FAA06BC563206811
:102A7000016821F480610160258565852068016811
:102A800021F00101016025E0208D0128206813D08C
:102A9000416841F480514160206841698169009139
:102AA00084F83C50416841F480714160206841687D
:102AB00041F4006141601BE0016821F48061016024
:102AC000EAE7CDE900864B4652465946204601F0DA
:102AD00007FF08B101206AE7206841698169009118
:102AE000016841F40071016084F83D7084F83C5045
:102AF00000205CE70C0000200000FFFFE140000820
:102B0000A14000082DE9F04F87B004461421684623
:102B1000FDF7A2FB734FDFF8C881D4F800C07148FD
:102B20001226012103220423103700254FF4806B65
:102B3000C4455BD1D0F800C04CF0020CC0F800C016
:102B400000680DF1080800F00200059088E80E000A
:102B5000C020CDE9000669466348FFF749FB3868A5
:102B600040F4001038603868614E00F400100590A1
:102B70005E4830604FF00079C6E90195C6E9035B15
:102B800075614FF44038B561C6E907585F46304675
:102B90007562FFF779FA08B1FEF765FAA663B463C8
:102BA000534E524860361830E6E802094020A1C66C
:102BB0004F4846F814596030B561C6E90758756248
:102BC000FFF762FA08B1FEF74EFA666300220221AF
:102BD0001F20B46300F000F91F2000F0EFF800227E
:102BE0000221202000F0F8F8202073E0DFF80481B3
:102BF000C44571D1D0F800C04CF0040CC0F800C03E
:102C0000D0F800C00CF0040CCDF814C0D0F800C00F
:102C10004CF0010CC0F800C00068884600F00100CC
:102C200005904FF4007091469A468DE84107694639
:102C30003148FFF7DDFA4FF480708DE841076946AF
:102C40002E48FFF7D5FA386840F40000386038683D
:102C5000274E00F4000005902448C0364838306004
:102C60004FF0C067C6E90175C6E9035B75614FF4B3
:102C70004038B561C6E90758D94630467562FFF756
:102C800003FA08B1FEF7EFF9A663B46317481C4EC8
:102C90001838E6E802074020A6E82102184846F85E
:102CA0001459B561C6E907587562FFF7EDF908B127
:102CB000FEF7D9F96663002202214820B46300F0D0
:102CC0008BF8482000F07AF800220221492000F019
:102CD00083F8492000F072F807B0BDE8F08F0000DB
:102CE0000054004030380240000402408860024036
:102CF00014050020005C0040000802400000024073
:102D000034060020704770470248816802781144F9
:102D100081607047000000200B4810B5016841F445
:102D200000710160016841F480610160016841F453
:102D300080710160032000F06FF80F2000F006F8AA
:102D400000F024F8002010BD003C024070B50D4D8D
:102D500004464FF47A712878B1FBF0F00A4909680B
:102D6000B1FBF0F000F00AFB48B9102C07D20022AA
:102D70002146501E00F030F800206C6070BD01202C
:102D800070BD0000000000200C0000200A4808B5BB
:102D9000016841F480410160006800F480400090C7
:102DA0000548001F016841F080510160006800F093
:102DB0008050009008BD000044380240002809DB24
:102DC00000F01F02012191404009800000F1E02045
:102DD000C0F8001170470000F0B40E4B1B680C46A1
:102DE000C3F30223C3F10705042D00D90425191DDF
:102DF000072901D2002300E0DB1E012606FA05F1B7
:102E0000491E214099409E40761E16403143F0BC39
:102E100003F018B90CED00E0064900F0070208685D
:102E20004FF6FF03184040EA0220034A10430860AF
:102E3000704700000CED00E00000FA052DE9F047B6
:102E40000E46050065D0DFF81481D8F80000F7B20F
:102E500000F00700B04207D288F80070D8F80000F0
:102E600000F00700B04254D128683D4C810712D5CC
:102E7000400703D5206840F4E05020602878000720
:102E800003D5206840F4604020602068A96820F0E5
:102E9000F000084320602878C0072DD030496868CA
:102EA0000839012812D0022813D0032811D009684C
:102EB000890700292DDA216821F0030101432160EF
:102EC000FFF798FA814641F2883A0EE009688903D3
:102ED000EFE709688901ECE7FFF78CFAA0EB09013D
:102EE000514502D90320BDE8F0872068696800F0E9
:102EF0000C00B0EB810FEFD1D8F80010404601F084
:102F00000701B14207D90770006800F00700B0421E
:102F100001D00120E7E72878400705D52068E96857
:102F200020F4E050084320602878000706D5206888
:102F3000296920F4604040EAC100206000F038F8C0
:102F40002168084AC1F30311515CC8400649086072
:102F500006480068FFF7FAFE0020C4E7003C024084
:102F600008380240E07000080C0000200400002037
:102F70000448054900680968044AC1F38221515C8C
:102F8000C84070470C00002008380240F07000086C
:102F90000448054900680968044AC1F34231515C9C
:102FA000C84070470C00002008380240F07000084C
:102FB000154810B5006810F00C02144813D04110E9
:102FC000042A0FD0082A0ED10F4C241F2268236830
:102FD00002F03F025B0207D52068C0F38810A0FB17
:102FE000010106E0084610BD2168C1F38811A1FB6C
:102FF00000010023FDF7E6F82168C1F30141491CF7
:103000004900B0FBF1F010BD083802400024F40084
:103010002DE9F84F04006ED02078DFF84C93C007FC
:10302000A9F104054AD009F104000168C1F3810146
:10303000012908D00068C0F3810002280AD1D9F81C
:103040000000400206D52868800337D56068002854
:10305000E1D033E06068B0F5803F10D0B0F5A02F2C
:10306000286810D020F480302860286820F4802060
:1030700028606068A8B1FFF7BDF906460DE0286832
:1030800040F48030F4E740F480202860F7E700BF88
:10309000FFF7B0F9801B642873D828688003F7D540
:1030A0000CE0FFF7A7F9064605E000BFFFF7A2F91D
:1030B000801B6428F0D828688003F7D42078DFF8D4
:1030C000AC8280074FF0000A3ED5A748001D01687A
:1030D00011F00C0F08D00068C0F3810002280BD15A
:1030E000D9F80000400207D42868800716D5E068A8
:1030F000012800D112E033E1E068B8B10120C8F83E
:103100000000FFF777F9064605E000BFFFF772F908
:10311000801B0228C0D828688007F7D52868216955
:1031200020F0F80040EAC10028600DE0C8F800A0D7
:10313000FFF760F9064604E0FFF75CF9801B022800
:103140001FD828688007F7D42078000722D5864F3B
:1031500087486169703771B101210160FFF74AF951
:10316000064604E0FFF746F9801B022809D83868B4
:103170008007F7D50EE0C0F800A0FFF73BF9064640
:1031800005E082E0FFF736F9801B02287DD8386819
:103190008007F7D42078400768D5DFF8CCB1002746
:1031A0000BF13C0BDBF80000C0000BD4DBF8001087
:1031B00041F08051CBF80010DBF80000012700F04F
:1031C000805000906B4E3068C00510D4306840F4D9
:1031D00080703060FFF70EF9009005E0FFF70AF904
:1031E0000099401A022850D83068C005F6D55E4EC6
:1031F000A0686C3601280FD00528306810D020F068
:1032000001003060306820F004003060A068B8B180
:10321000FFF7F0F800900FE0306840F00100F4E7AD
:1032200040F004003060F7E7FFF7E4F80099411A36
:1032300041F28830814266D830688007F4D50EE0CC
:10324000FFF7D8F8009007E0FFF7D4F80099411A8B
:1032500041F28830814256D830688007F4D42FB1CB
:10326000DBF8001021F08051CBF80010A069C8B342
:103270003D49091D0968C1F3810102294AD002288C
:10328000504607D0C8F8600000E03CE0FFF7B2F815
:1032900004463BE04746C8F86000FFF7ABF8064637
:1032A00005E000BFFFF7A6F8801B02282BD828688E
:1032B0008001F7D4D4E907010843A16A2E4A4908DE
:1032C00002EB0141626A41EA8211084394F82C1032
:1032D00040EA0161C9F8001001203866FFF78AF85A
:1032E000044606E03EE000BFFFF784F8001B02281A
:1032F00009D828688001F7D534E000BFFFF77AF8D5
:10330000001B022802D90320BDE8F88F286880013D
:10331000F4D427E00128F7D0D9F80000E26900F4DE
:10332000800191421CD1226A00F03F01914217D1E5
:1033300047F6C071626A0140B1EB821F10D1A26AE8
:103340004FF0FF3300F4403103EB5202B1EB024F78
:1033500006D194F82C1000F07060B0EB016F01D032
:103360000120D1E70020CFE70438024000004742A7
:10337000800E4742007000400000FFFF10B5401E65
:10338000B0F1807F01D3012010BD4FF0E0246061D7
:103390000F21601702F056FE0020A0610720206177
:1033A000002010BD7047704770B590F83C20012A8E
:1033B00032D0012480F83C40022280F83D2003688E
:1033C0005A689D6822F070060A6832435A60134BAF
:1033D00002689A4214D0B2F1804F11D0104B9A4239
:1033E0000ED0104B9A420BD00F4B9A4208D00F4B85
:1033F0009A4205D00E4B9A4202D00E4B9A4204D10B
:10340000496825F080031943916080F83D40002110
:1034100080F83C10084670BD022070BD00000140DD
:103420000004004000080040000C0040000401407F
:10343000004001400018004010B5040003D094F88B
:103440003D0010B107E0012010BD002084F83C00D1
:10345000204600F01FF8022084F83D00211D20685E
:1034600002F0B4FA012084F8460084F83E0084F8A3
:103470003F0084F8400084F8410084F8420084F85A
:10348000430084F8440084F8450084F83D0000209F
:1034900010BD000008B501682948B1F1804F11D076
:1034A000284A914216D1016841F00201016000688A
:1034B000002200F00200009003211D20FFF78CFC89
:1034C0001D2038E0016841F001010160006800F052
:1034D000010009E01C4A914208D1016841F0040151
:1034E0000160006800F00400009008BD174A914296
:1034F0000ED1016841F0080101600068002200F06F
:103500000800009003213220FFF766FC322012E011
:103510000F488142E9D10A48001D016841F4803119
:1035200001600068002200F4803000900121182022
:10353000FFF752FC1820BDE80840FFF73FBC000031
:10354000403802400004004000080040000C0040E9
:103550000040014090F83D10012901D00120704742
:10356000022180F83D100168CA6842F00102CA6079
:1035700000681149884214D0B0F1804F11D00F4932
:1035800088420ED00E4988420BD00E49884208D09E
:103590000D49884205D00D49884202D00C49884225
:1035A00004D1816801F00701062903D0016841F0C8
:1035B000010101600020704700000140000400404C
:1035C00000080040000C00400004014000400140A1
:1035D0000018004070B5044690F83C000025012812
:1035E00017D0012684F83C60022084F83D00206852
:1035F000826822F0770222F47F42826008685028B5
:1036000038D00DDC20284FD005DC90B3102811D124
:103610004AE0022070BD302846D040280AD13BE065
:1036200060282FD070280DD0B0F5805F03D0B0F5A2
:10363000005F12D0012584F83D60002084F83C0032
:10364000284670BDCB68D1E90121206802F033FA29
:103650002068816841F0770109E0CB68D1E9012158
:10366000206802F028FA2068816841F48041816076
:10367000E1E719E0CA684968206802F037FB502189
:10368000206806E0CA684968206802F040FB6021B3
:10369000206802F01AFACEE7CA684968206802F08A
:1036A00025FB40212068F4E7226801461046F0E738
:1036B00070472DE9F04104460068C66805694FF07F
:1036C0000007A90713D5B10711D5F91E0161012023
:1036D0002077206880698007204602D0FFF7E8FF46
:1036E00004E000F0CFF8204600F061F92777680782
:1036F00016D5700714D521686FF004000861022008
:1037000020772068806910F4407F204602D0FFF7C0
:10371000CFFF04E000F0B6F8204600F048F9277724
:10372000280715D5300713D521686FF00800086108
:10373000042020772068C0698007204602D0FFF768
:10374000B7FF04E000F09EF8204600F030F927773C
:10375000E80616D5F00614D521686FF01000086150
:10376000082020772068C06910F4407F204602D0EE
:10377000FFF79EFF04E000F085F8204600F017F9FF
:103780002777E80708D0F00706D021686FF001001E
:103790000861204600F070F9280608D5300606D5E5
:1037A00021686FF0800008612046FFF7FBFD680686
:1037B00008D5700606D521686FF0400008612046E4
:1037C00000F0A9F9A8060AD5B00608D521686FF05F
:1037D000200008612046BDE8F041FFF7E4BDBDE8E8
:1037E000F0810000F0B587B0044614216846FCF76C
:1037F00033FD216800251E4803260224B1F1804FC5
:1038000016D01C4A914211D1016841F008010160B3
:103810000068694600F0080005904FF4E0408DE82C
:1038200071001548CDF81040FEF7E2FC07B0F0BD7E
:10383000016841F001010160016801F00101059199
:10384000016841F0020101600068CDE9006400F008
:1038500002000127CDE90470CDE902566946074808
:10386000FEF7C6FCB8028DE8F10069460448DBE7C4
:103870003038024000080040000C024000000240C6
:1038800000040240704770B5044690F83C000026E2
:103890000D4601280FD0012084F83C006AB1042AAB
:1038A0001DD0082A2FD00C2A3FD00126002084F8F2
:1038B0003C00304670BD022070BD206802F00EF959
:1038C0002068816941F0080181612068816921F0E7
:1038D00004018161206881692A69114311E020682F
:1038E00002F02CF92068816941F40061816120684F
:1038F000816921F480618161206881692A6941EAD6
:1039000002218161D2E7206802F04EF92068C16986
:1039100041F00801C1612068C16921F00401C16161
:103920002068C1692A69114311E0206802F070F92A
:103930002068C16941F40061C1612068C16921F456
:103940008061C1612068C1692A6941EA0221C161BF
:10395000ACE710B5040003D094F83D0010B107E0C7
:10396000012010BD002084F83C00204600F01EF825
:10397000022084F83D00211D206802F027F8012074
:1039800084F8460084F83E0084F83F0084F8400044
:1039900084F8410084F8420084F8430084F844002D
:1039A00084F8450084F83D00002010BD7047704742
:1039B00010B50446022249B104290ED0082913D0BB
:1039C00094F84100012816D0012010BD94F83E0063
:1039D0000128F9D184F83E200FE094F83F00012837
:1039E000F2D184F83F2008E094F840000128EBD1A0
:1039F00084F8402001E084F841200122206802F090
:103A00004DF816492068164A884201D0904203D1E9
:103A1000436C43F4004343642068884213D0B0F100
:103A2000804F10D00F4988420DD00F4988420AD0EC
:103A30000E49884207D0904205D00D49884202D0F5
:103A40000C49884204D1816801F00701062903D09E
:103A5000016841F001010160002010BD000001403B
:103A6000000401400004004000080040000C004039
:103A700000400140001800400B4910B5884207D1B2
:103A80000A48FDF739FEBDE810400948FDF734BE8D
:103A90000849884207D10848FDF740FABDE81040C0
:103AA0000648FDF73BBA10BDB407002074000020A3
:103AB000A4010020DC060020D4020020F80200202F
:103AC00070B5044690F83C00012812D0012584F816
:103AD0003C50022084F83D00204602F0C1F801006D
:103AE0004FF0000007D084F83D5084F83C000120DE
:103AF00070BD022070BD2168CA6822F04002CA6011
:103B00002168CA6822F48042CA6084F83D5084F873
:103B10003C00002070BD704770477047F8B50168E1
:103B200004460868CA684B6910F00F0F4FF0000593
:103B300059D003F0010602F49077374365D0C107EE
:103B400005D0D10503D5616C41F0010161644107E5
:103B500005D5D90703D0616C41F00201616481078A
:103B600005D5D90703D0616C41F0040161640107F8
:103B700007D502F02001314303D0616C41F0080108
:103B80006164616C00293AD0800604D5900602D5A4
:103B9000204602F003F920684069616CC0F3801090
:103BA000090700D460B3204602F0D1F820684069CC
:103BB000400621D52068143050E8001F21F0400154
:103BC00040E80012002AF5D1E06BA8B17249016506
:103BD000E06BFEF772F9002811D0E06B016D01B0C7
:103BE000BDE8F040084783060FD593060DD5204663
:103BF000BDE8F84002F0D2B82046FFF78EFFF8BDCE
:103C00002046FFF78AFF6564F8BD266B2023012E4E
:103C10007ED1C6067CD5D6067AD50868486800905D
:103C200048694FF0020640064DD5E26B10684068C7
:103C30004FF480770004000C3AD0A18D814237D92F
:103C4000E085D069B8422DD020680C3050E8001FC4
:103C500021F4807140E80012002AF5D12068143068
:103C600050E8001F21F0010140E80012002AF5D1C0
:103C70002068143050E8001F21F0400140E8001295
:103C8000002AF5D184F84230256320680C3050E8D2
:103C9000001F21F0100140E80012002AF5D1E06B6E
:103CA000FEF7C2F86663A08DE18D401A81B206E08E
:103CB000A18D8142A8D1D069B842A5D166632046C2
:103CC000FFF72AFFF8BDA08DE18D401A81B2E08D8B
:103CD0000028F7D00029F5D020680C3050E8002FDC
:103CE00022F4907240E80027002FF5D120681430AC
:103CF00050E8002F22F0010240E80027002FF5D104
:103D000084F84230256320680C3050E8002F00E032
:103D100006E022F0100240E80023002BF3D1CDE7AB
:103D200005062BD5150629D594F841002128C9D1BF
:103D3000A068B0F5805F01D12069B0B1206A411C54
:103D40002162216800784860E08C401E0004000C6D
:103D5000E084B7D12068C16821F08001C16020688B
:103D6000C16841F04001C160F8BD206A0088C0F31D
:103D700008004860206A801C2062E5E74006F3D511
:103D80005006F1D5CA68204622F04002CA6084F885
:103D9000413000F00DF9F8BD415D000870B5040038
:103DA00004D094F84100002510B106E0012070BD58
:103DB00084F84050204600F023F8242084F8410085
:103DC0002068C16821F40051C160204602F048F823
:103DD0002068016921F4904101612068416921F066
:103DE0002A0141612068C16841F40051C1606564E5
:103DF000202084F8410084F842006563002070BDF3
:103E000070B586B0044614216846FCF725FA24688C
:103E1000294E0023294A022108252948B44222D1EB
:103E2000264C1034266846F400262660246804F4E4
:103E300000240594146844F0040414601268CDE969
:103E4000023102F0040205924FF44062CDE90021F4
:103E500004956946FEF7CCF9002205213420FEF7CF
:103E6000BBFF342023E0174EB44222D1134C14344C
:103E7000266846F020062660246804F02004059495
:103E8000146844F0040414601268CDE9023102F0B1
:103E900004020592C022CDE9002104956946FEF78F
:103EA000A7F9002205214720FEF796FF4720FEF7DD
:103EB00085FF06B070BD0000004C00403038024065
:103EC000000802400014014090F84230202B01D03D
:103ED0000220704721B11AB10023036302F046B8F3
:103EE00001207047084910B588420BD10748407837
:103EF00000F072FF05490122BDE81040491C02484C
:103F0000FFF7E2BF10BD0000FC07002050000020BA
:103F10002DE9F843044690F84100984616460D46B0
:103F2000202802D00220BDE8F88385B17EB10020B0
:103F30006064212084F84100FEF75CFAA684814683
:103F4000E684A0682027B0F5805F02D003E001205E
:103F5000E9E7206910B12E4600250EE000260CE0AE
:103F60008021204602F01DF8A8B9C6B116F8010B51
:103F700021684860E08C401EE084E08C4B464FF0A6
:103F80000002CDF800800028EAD14FF04001204621
:103F900002F007F840B184F841700320C3E735F818
:103FA000020BC0F30800E3E784F841700020BAE791
:103FB0007047FEE70148FEF725BA00006C040020B8
:103FC0000148FEF77CBA00006C0400200148FEF7AF
:103FD00019BA0000C00400200148FEF770BA0000C2
:103FE000C004002038B5806B002190F83D202B4B99
:103FF00046F2A8141B68B3FBF4F3C3EBC30303EB53
:10400000830300933BB15B1E009303681B689B0511
:1040100005D5009BF6E7036C43F020030364436B74
:1040200003B1D963836B03B1D96303681C6824F4BB
:1040300080641C604185436B03B11965836B03B1D8
:10404000196503681C6824F001041C6090F83D4069
:104050002023602C0BD0282434EA02020FD080F8F1
:104060003D3080F83E1000BFFEF741FB38BD80F8C0
:104070003D3080F83E100164FEF7C2F938BD026899
:10408000136843F0010313600268136843F480630C
:104090001360016380F83D40E6E700000C0000205B
:1040A00070B5846B0025616B01B1CD63A16B01B16B
:1040B000CD63FDF714FF022811D02068016821F4B8
:1040C000806101606585202084F83D0084F83E50C1
:1040D000206C40F0100020642046FEF708FB70BD05
:1040E0002DE9F041846B94F83D2094F83E50E16A4C
:1040F0002068436823F440734360636B002003B17E
:10410000D863A36B03B1D863212333EA02074FF0CE
:1041100022060CD036EA020701D1202D07D094F8F0
:104120003E20002A21D0628D012A20D024E021687F
:104130004D6825F400654D6060852820292A02D04D
:104140002A2A07D00CE0236384F83D002046FEF7BE
:10415000DAFD05E0266384F83D002046FEF7D2FD37
:104160002068416841F440714160BDE8F0812268F7
:10417000136823F4806313602268536823F4407348
:10418000536011F5803F06D0082904D0B1F12A4FC1
:1041900001D0202904D12268136843F4007313600E
:1041A0002268536823F4805353602268536823F4D1
:1041B000006353606085226C1AB12046FEF797FABF
:1041C000D3E7202284F83D2094F83E2084F83E0076
:1041D000402A09D0082902D0202900D012202063CB
:1041E0002046FEF756FBC0E720632046FEF784FB1F
:1041F000BBE700684169C943090601D40021016198
:104200007047000070B5044690F83D0094F83E10E9
:10421000102901D0402906D1222804D121680A683A
:1042200022F400620A60282131EA00024FF0000502
:104230004FF0200626D021684968090505D460287A
:1042400003D084F83D6084F83E50256320684168BF
:10425000090537D5416821F400614160606B90F831
:1042600035203C49012A11D00165606BFDF725FE20
:1042700038B32068016821F00101016084F83D60D5
:10428000606B1CE0256384F83D10DFE7A06B0165DF
:10429000A06BFDF712FEA0B120684169C943490631
:1042A00005D40069616A0870606A401C6062206819
:1042B000016821F00101016084F83D60A06B016D8F
:1042C000884710E094F83D10602910D04169C94337
:1042D000490605D40069616A0870606A401C606222
:1042E0002046FEF704FA206CC1071CD115E084F8C3
:1042F0003D6025644169C943490605D40069616A86
:104300000870606A401C60622068016821F0010149
:1043100001602046FEF774F8E5E7810703D4410702
:1043200001D4000704D52068416821F4E0614160B0
:1043300094F83D00216C49070BD5282809D106487F
:10434000E062256384F83D6084F83E502046FEF725
:104350009FFA70BDE53F00080000FFFF01684A6951
:10436000D24352050FD46FF480624A61002140F8B5
:10437000301F202242738173026942F004020261FD
:104380000173012070470020704710B5C26A438D49
:104390000168042B06D0438D032B08D0438D022BDC
:1043A0001DD012E04A6822F480624A600CE04B683B
:1043B00023F480634B60042A06D0022A04D00168EB
:1043C0000A6822F480620A6001680969426A117011
:1043D000416A491C4162418D491E418510BD012A37
:1043E00034D0102A32D0042A34D0022A32D00B68BA
:1043F00043F400730B6001680969436A1970416AEC
:10440000491C4162438D5B1E438503681B690B7029
:10441000416A491C4162418D491E418501684B68D2
:1044200023F440734B60202180F83D1090F83E301B
:104430000021402B80F83E1010D0082A02D0202AFC
:1044400000D012210163FEF724FA10BD0B6823F49B
:104450008063CFE70B6843F48063CBE70163FEF72B
:104460004BFA10BD38B590F83D10222910D1C36A1F
:10447000418D03290DD901680969426A1170416AA9
:10448000491C4162418D491E4185418D032906D059
:1044900038BDC26A022A02D0012906D029B10068BB
:1044A000416821F48061416038BD2A4A46F2A8146F
:1044B00000211268B2FBF4F202EB82020092026861
:1044C0002024009D6D1E009526D01568AD05F8D4FA
:1044D000156825F4806515600268556825F4E06567
:1044E000556002681269456A2A70426A521C42622B
:1044F000428D521E428580F83D4090F83E2080F863
:104500003E10402A21D0082B02D0202B00D01221AF
:104510000163FEF7BEF938BD036C43F0200303646A
:10452000536823F4E063536002681269436A1A70A7
:10453000426A521C4262428D521E428580F83D40C2
:1045400080F83E10FEF7D3F838BD0163FEF7D4F9CA
:1045500038BD00000C00002010B5C26A90F83D1074
:1045600021290BD1418D51B1416A0268097811614D
:10457000416A491C4162418D491E418510BD20237D
:104580000021082A13D0202A11D012F5803F0ED026
:104590000268546824F4E06454601122026380F8D5
:1045A0003E1080F83D3000BFFEF774F910BD026880
:1045B000546824F4E06454600268146844F400749D
:1045C0001460016380F83D3090F83E2080F83E1082
:1045D000402AE9D1FEF7AEF910BD000010B590F801
:1045E0003D1090F83E30C26A048DB4B1212903D049
:1045F000402B11D122290FD1418DE1B390F83E100B
:10460000402942D0416A026809781161416A491C17
:104610004162418D491E418510BD2129E8D12023E9
:104620000021082A13D0202A11D012F5803F0ED085
:104630000268546824F4E06454601122026380F834
:104640003E1080F83D3000BFFEF724F910BD02682F
:10465000546824F4E06454600268146844F40074FC
:104660001460016380F83D3090F83E2080F83E10E1
:10467000402AE9D100E002E0FEF75CF910BD0068D5
:10468000416821F48061416010BDBDE8104000F038
:10469000D3B8000078B590F83E50C26A036B90F82A
:1046A0003D6000240168222E7AD1066D0EB9402D9E
:1046B00076D0056D1DB90569B5F5404F09D0458D1A
:1046C00005B3468D384D012E0ED0438D022B3AD0C6
:1046D0005DE04A698A6900920A6842F480720A6061
:1046E000016D491C016578BDAA4213D10A6822F404
:1046F00080620A6001684A68120503D50A6822F4DC
:10470000806216E04A698A6900920A6842F400727F
:104710000A6039E0082A10D0202A0ED0122B0AD0C5
:10472000042A03D0022A01D0102AE7D10A6842F4F1
:1047300080620A6024E0012AE0D00A6822F48062E4
:104740000A600168DEE7042A21D0022A1FD0102A5D
:104750001DD00B6823F480630B6001680B6843F481
:1047600000630B6001684B681B0509D5AA4212D093
:10477000012A10D0082A0ED0102A0CD0202A0AD0E4
:1047800001684A6989690091046578BD08E00B6891
:1047900043F48063E5E74A6842F480524A60EFE7F9
:1047A000486988690090F0E70000FFFF90F83E102C
:1047B000402910D00169B1F5804F19D0016DA9B31E
:1047C000016D012910D1416C5FF0F10201F44071DB
:1047D00042EAD11106E0016D0029416C05D0C9B251
:1047E00041F0010100680161704701F0FE01F9E745
:1047F00090F83D102129416C09D0C9B241F0010166
:1048000002681161416B29B1C96B49B902E001F03D
:10481000FE01F5E7816B0029E6D0C96B0029E3D0E2
:104820000068416841F4006141607047FFE7416CF6
:10483000F02201F44071CBE710B590F83D10026D05
:104840004AB1026D012A14D0026D022A16D0BDE8C9
:104850001040FFF7CEBCC16C0129816C02D0C1F3BE
:10486000072108E00268C9B21161016D891C016568
:1048700010BD816CC9B20268116123E022291CD0ED
:10488000428D0AB1212920D0428D002AF0D1212960
:10489000EED101684A6822F4E0624A6001680A6861
:1048A00042F400720A6000210163202280F83D205A
:1048B00080F83E10FEF73EF810BD01680A6842F429
:1048C00080720A60016D491CD1E7416A026809786B
:1048D0001161416A491C4162418D491E418510BDEB
:1048E0002DE9F84F0446006889460B9D01689846FB
:1048F000174641F4806101602068016841F48071CD
:10490000016000954FF0011B0022594620460A9B8A
:1049100000F07EF94FF4007A40B120680068C005CD
:1049200001D5C4F840A00320BDE8F88F216809F044
:10493000FE0008612B46284920460A9A00F0B0F98B
:10494000F0BB20684169806900902A4620460A9998
:1049500000F004FA40B1206C04283AD120680168C4
:1049600041F40071016034E0FEB2B8F1010F09D0EA
:104970002168380A08612A4620460A9900F0EEF9B3
:104980000028E8D1206806612A4620460A9900F0EE
:10499000E5F90028DFD12068016841F480710160E9
:1049A00000950022594620460A9B00F031F9002864
:1049B000B3D1216809F0FF0040F00100086100E078
:1049C00007E02B46044920460A9A00F069F90028BE
:1049D000AAD00120A8E700000200010038B50C466B
:1049E00090F83D2000212825954302680B4605D00C
:1049F00051699169009180F83C3038BD556825F4C3
:104A000080655560E243540700D50121120601D5A7
:104A1000828900E0028B80F83C3092B2FDF7F1FC15
:104A200038BD00002DE9F04190F83D300446C26ADF
:104A3000002120261E4F00686FF48065082A01D0EF
:104A4000202A01D1282B04D0212B17D04561BDE8A5
:104A5000F081E762426822F4E062426020684561CA
:104A60002068026822F480620260216384F83D605D
:104A700084F83E102046FDF70BFFE8E7E7622122AD
:104A8000226384F83D6084F83E10416821F4E061BF
:104A90004160206845612068016821F480610160FF
:104AA0002046FFF7A6FB2046FEF72DF9CFE70000D2
:104AB0000000FFFFF8B590F83D60044600684168CB
:104AC00021F4E0614160206800254169009101689E
:104AD00041F0010101602068016821F480610160FA
:104AE00020684168090520D5474F222E48D02A2E3C
:104AF00046D0616B096849686185618D19B1216C87
:104B000041F004012164416821F400614160606B5F
:104B1000FDF7E7F9012808D0606B0765606BFDF7CA
:104B2000CCF910B1606B016D8847608D08B32068C7
:104B30004169C943490708D40069616A0870606A1D
:104B4000401C6062608D401E608520684169C943D9
:104B5000490608D40069616A0870606A401C606296
:104B6000608D401E6085608D18B1206C40F004009F
:104B70002064206C00B32046BDE8F840FFF742BB3C
:104B8000A16B096849686185618D19B1216C41F09B
:104B900004012164416821F400614160A06BFDF7CC
:104BA000A0F90128C1D0A06B0765A06BFDF785F9BE
:104BB0000028BAD0A06BB6E72A2E06D1256328209C
:104BC00084F83D002046FEF79DF894F83D10202023
:104BD00028290DD0216B222901D0222E07D125634F
:104BE00084F83D0084F83E502046FEF78BF8F8BD6F
:104BF0000649E162256384F83D0084F83E50204672
:104C0000FDF746FEF8BD0000E53F00080000FFFF8D
:104C10002DE9F047984617460D460446C1F307466E
:104C2000DDF820902AE000BFB8F1FF3F26D0FDF765
:104C3000E1FBA0EB0901414502D8B8F1000F1DD1FD
:104C40002068012E16D0806925EA00000004000CBF
:104C500012D00020B84211D1002044F8300F20219A
:104C60006173A073216941F020012161207301204B
:104C7000BDE8F0874069E7E70120EBE72068012EF7
:104C80000AD0806925EA00000004000C06D000204C
:104C9000B842C9D00020EBE74069F3E70120F7E70D
:104CA0002DE9F047984616460D4604464FF0000998
:104CB0004FF0200AC1F3074723E020684069C04352
:104CC000400515D42068016841F400710160216835
:104CD0006FF480604861C4F8309084F83DA084F897
:104CE0003E90216C41F00401216484F83C9021E065
:104CF000701C06D0FDF77EFBA0EB0800B04203D885
:104D000016B1012F1FD021E02068012F15D0806936
:104D100025EA00000004000C18D000BF44F8309FC2
:104D200084F80DA084F80E90216941F020012161E2
:104D300084F80C900120BDE8F087406925EA000066
:104D40000004000CEAD12068406901E02068806915
:104D500025EA00000004000CAFD1ECE770B5164660
:104D60000D4604461EE02046FFF7F8FA08B1012080
:104D700070BD681C16D0FDF73DFB801BA84200D813
:104D800085B920684069C04300060BD5002044F86F
:104D9000300F20216173A073216941F0200121614E
:104DA0002073E4E720684069C0430006DBD400209C
:104DB00070BD000010B528210448FBF74DFABDE88E
:104DC0001040012202490348FFF77EB89C080020EA
:104DD00051000020FC07002070B54A4A13780BB937
:104DE00055287CD14849C8545B1CD8B210700B2898
:104DF00075D3002318460C5C401C2344C0B2DBB2C0
:104E00000A28F8D3887A0024984279D13E484B7812
:104E10002838512B04D0522B2FD0532B70D14DE07A
:104E2000B1F90260B1F9045000EE106AB1F9063030
:104E3000B1F90810F8EEC00A92ED010A60EE800A9E
:104E4000C0ED000A00EE905AF8EEE00A60EE800A2B
:104E5000C0ED010A00EE903AF8EEE00A20EE800A7A
:104E6000DFED2A0A80ED020A00EE101AB8EEC00A41
:104E700080EE201A80ED091A42E0B1F90250B1F932
:104E8000043000EE105AB1F90610F8EEC00A9FED9A
:104E9000200A60EE800AC0ED030A00EE903AF8EEB8
:104EA000E00A60EE800AC0ED040A00EE901AF8EE07
:104EB000E00A20EE800A80ED050A21E0B1F90250F7
:104EC000B1F9043000EE105AB1F90610F8EEC00A3C
:104ED0009FED100A60EE800AC0ED060A00E010E0C7
:104EE00000EE903AF8EEE00A60EE800AC0ED070AA4
:104EF00000EE901AF8EEE00A20EE800A80ED080A33
:104F0000147070BD50000020C40800200000C8428A
:104F100000007A3D0000B43B2DE9F0411431143318
:104F2000164607468DB29CB2F02800D3EF27F02E2C
:104F300000D3EF264FF49671481E8D4200D30546EC
:104F40008C4200D304462A2000F0AEF9380A00F063
:104F5000A9F9F8B200F0A6F9300A00F0A3F9F0B20E
:104F600000F0A0F92B2000F09FF9280A00F09AF930
:104F7000E8B200F097F9200A00F094F9E0B200F0EE
:104F800091F9BDE8F0412C2000F08EB92DE9F047F1
:104F90001E46DDF8208017460D460446F02800D353
:104FA000EF24F02F00D3EF274FF48C71481E8D4271
:104FB00000D305468E4200D30646BC4202D92046A5
:104FC0003C460746B54202D9284635460646334692
:104FD0003A4629462046FFF79FFF4FEA182A08F075
:104FE000FF09A8460CE0254606E0504600F05AF9B5
:104FF000484600F057F96D1CBD42F6D908F101088A
:10500000B045F0D9BDE8F08730B587B014216846C7
:10501000FBF722F919480024016841F004010160FE
:10502000016801F004010591016841F00801016087
:105030000068134D00F0080005900122BB212846AE
:10504000FDF7D3F9BB2000900120CDE90104032036
:10505000039069462846FDF7CBF801221021284627
:10506000FDF7C3F9012220212846FDF7BEF90122F0
:1050700080212846FDF7B9F907B030BD303802402D
:10508000000C024010B5FFF7BFFF854C0122102134
:105090002046FDF7AAF9012211462046FDF7A5F9A1
:1050A000002202212046FDF7A0F900220821204617
:1050B000FDF79BF96420FDF789F8012208212046BD
:1050C000FDF793F96420FDF781F8112000F0ECF86A
:1050D0007820FDF77BF8362000F0E6F8082000F095
:1050E000F7F83A2000F0E0F8052000F0F1F8B620DB
:1050F00000F0DAF80A2000F0EBF8822000F0E8F87F
:10510000B22000F0D1F80C2000F0E2F80C2000F002
:10511000DFF8002000F0DCF8332000F0D9F833206D
:1051200000F0D6F8B72000F0BFF8352000F0D0F836
:10513000BB2000F0B9F8282000F0CAF8C02000F029
:10514000B3F80C2000F0C4F8C22000F0ADF8012044
:1051500000F0BEF8C32000F0A7F8102000F0B8F867
:10516000C42000F0A1F8202000F0B2F8C62000F022
:105170009BF80F2000F0ACF8D02000F095F8A420A8
:1051800000F0A6F8A12000F0A3F8E02000F08CF8D1
:10519000D02000F09DF8002000F09AF8022000F0E6
:1051A00097F8072000F094F80A2000F091F82820E2
:1051B00000F08EF8322000F08BF8442000F088F8E0
:1051C000422000F085F8062000F082F80E2000F062
:1051D0007FF8122000F07CF8142000F079F81720F6
:1051E00000F076F8E12000F05FF8D02000F070F8D1
:1051F000002000F06DF8022000F06AF8072000F0AF
:1052000067F80A2000F064F8282000F061F83120E7
:1052100000F05EF8542000F05BF8472000F058F8EA
:105220000E2000F055F81C2000F052F8172000F076
:105230004FF81B2000F04CF81E2000F049F82A20FF
:1052400000F032F8002000F043F8002000F040F8B1
:10525000002000F03DF8EF2000F03AF82B2000F09D
:1052600023F8002000F034F8142000F031F8012079
:1052700000F02EF82B2000F02BF8212000F014F87D
:10528000292000F011F82C2000F00EF80122022154
:105290002046FDF7AAF8BDE810400A20FCF796BFAB
:1052A000000C024000F014B870B5084C054600220E
:1052B00001212046FDF799F8284600F009F820461C
:1052C000BDE8704001221146FDF78FB8000C024086
:1052D00070B5144E0546002210213046FDF785F8C2
:1052E0000024002220213046FDF77FF8280601D552
:1052F000012200E0002280213046FDF776F80122ED
:1053000020213046FDF771F86806641C050EE4B2F2
:10531000082CE6D33046BDE8704001221021FDF78D
:1053200064B80000000C02407FB500211C480091C9
:1053300001910291194A0391026001244FF48032D5
:105340000461C0E90121017680F820101203C262D5
:1053500002254FF0C062C5618262C16080F83040B2
:105360004461FCF7BAFB08B1FBF77DFE0520CDE9EF
:1053700000040420029069460948FCF76DFA08B160
:10538000FBF771FE0820CDE9000569460448FCF7EB
:1053900063FA002801D0FBF766FE7FBD00210140C3
:1053A0001C0300207FB500211C480091019102914F
:1053B000194A0391026001244FF480320461C0E96C
:1053C0000121017680F820101203C26202254FF0FD
:1053D000C062C5618262C16080F830404461FCF700
:1053E0007CFB08B1FBF73FFE0A20CDE90004042056
:1053F000029069460948FCF72FFA08B1FBF733FE23
:105400000D20CDE9000569460448FCF725FA00287F
:1054100001D0FBF728FE7FBD00220140640300207D
:10542000214808B5016841F480010160016801F478
:1054300080010091016841F40011016000680022C0
:1054400000F40010009011460D20FDF7C5FC0D2062
:10545000FDF7B4FC002211460F20FDF7BDFC0F2024
:10546000FDF7ACFC002211461020FDF7B5FC102022
:10547000FDF7A4FC002211461120FDF7ADFC112020
:10548000FDF79CFC002211463820FDF7A5FC3820D2
:10549000FDF794FC002211463A20FDF79DFCBDE883
:1054A00008403A20FDF78ABC3038024000B587B08A
:1054B00014216846FAF7D0FE1A480021026842F02B
:1054C00080020260026802F080020592026842F0E7
:1054D00004020260026802F004020592026842F0CF
:1054E00001020260026802F001020592026842F0C5
:1054F00002020260026802F002020592026842F0B3
:10550000080202600068029100F0080005904FF464
:105510004050CDE9000169460348FCF769FE07B039
:1055200000BD000030380240000402400D4810B5B4
:105530000B4901600C49416000214FF480428160B9
:10554000C0E9031241618161C1610162FDF7DCF8CC
:10555000002803D0BDE81040FBF785BD10BD00005A
:10556000005400406C040020801A06000D4810B55D
:105570000B4901600C49416000214FF48042816079
:10558000C0E9031241618161C1610162FDF7BCF8AC
:10559000002803D0BDE81040FBF765BD10BD00003A
:1055A000005C0040C0040020801A060070B58EB078
:1055B00000240794089409940A940B941C216846CB
:1055C0000C94FAF749FE2C484FF08041202580E8E2
:1055D0003200802640F219418661C0E90314FDF7CC
:1055E0002BFF08B1FBF73FFD4FF48050079007A950
:1055F0002148FDF7EFFF08B1FBF735FD1E48FEF728
:10560000A8F908B1FBF72FFDCDE90B560BA91A48F5
:10561000FDF7CAFE08B1FBF726FD6020009040F2BE
:105620000D20CDE901040022694613480494FEF7D9
:105630002AF908B1FBF717FD042269460E48FEF768
:1056400022F908B1FBF70FFD082269460A48FEF768
:105650001AF908B1FBF707FD042004900C226946F3
:105660000548FEF710F908B1FBF7FDFC0248FEF70C
:10567000B9F80EB070BD00009406002010B586B0D9
:10568000002417480094019402940394049413494D
:1056900005940160A721C0E9011440F2E731C0E997
:1056A00003148461FDF7C8FE08B1FBF7DCFC4FF47E
:1056B0008050009069460A48FDF78CFF08B1FBF75F
:1056C000D2FC049404A906480594FDF76DFE002859
:1056D00001D0FBF7C8FC06B010BD0000000400407C
:1056E000DC06002010B592B000240C940D940E94AA
:1056F000142107A80F94FAF7AFFD10941C216846F7
:105700001194FAF7A9FD32483049C0E9001420216C
:10571000816040F21941C0E9031480218161FDF7E5
:105720008BFE08B1FBF79FFC4FF480500C900CA946
:105730002748FDF74FFF08B1FBF795FC2448FEF71B
:1057400008F908B1FBF78FFC06200790102008909D
:1057500007A91F48FEF7B4F908B1FBF784FC1094C1
:1057600010A91B481194FDF71FFE08B1FBF77BFC45
:105770006020009040F20D20CDE90104002269462E
:1057800013480494FEF77FF808B1FBF76CFC042281
:1057900069460F48FEF777F808B1FBF764FC08226A
:1057A00069460B48FEF76FF808B1FBF75CFC042074
:1057B00004900C2269460648FEF765F808B1FBF72D
:1057C00052FC0348FEF70EF812B010BD000800406E
:1057D0002407002010B586B00024174800940194D7
:1057E000029403940494134905940160A721C0E92D
:1057F000011440F2E731C0E903148461FDF71CFE97
:1058000008B1FBF730FC4FF48050009069460A481D
:10581000FDF7E0FE08B1FBF726FC049404A9064856
:105820000594FDF7C1FD002801D0FBF71CFC06B074
:1058300010BD0000000C00406C0700201FB50021C7
:1058400010480091019102910D4A03910260A72234
:10585000C0E9012140F2E732C0E903218161FDF78F
:10586000EBFD08B1FBF7FFFB4FF480500090694659
:105870000448FDF7AFFE002801D0FBF7F4FB1FBD85
:1058800000400140B40700200C4810B50A490160EF
:105890004FF416514160002181600C22C160C0E9C3
:1058A00004128161C161FEF779FA002803D0BDE8D6
:1058B0001040FBF7D8BB10BD004C0040FC07002097
:1058C0000C4810B50A4901604FF4E13141600021F4
:1058D00081600C22C160C0E904128161C161FEF7E0
:1058E0005DFA002803D0BDE81040FBF7BCBB10BD3B
:1058F0000014014044080020FEE7FEE770477047AF
:10590000FDF702BA30B593B030216846FAF7A4FC2F
:1059100014210CA8FAF7A0FC1D480025016841F0ED
:1059200080510160006800F08050119019480168B2
:1059300041F4804101600068022400F4804011902D
:1059400001200090000401908001CDE9064008AAE2
:105950000420A82182E813000B906846FDF758FB4D
:1059600008B172B6FEE70CA90F2081E831004FF4B0
:10597000A0500F904FF48050109005210CA8FDF717
:105980005DFA002801D072B6FEE713B030BD00000A
:1059900040380240007000400248016841F4700144
:1059A0000160704788ED00E00148FDF782BE00000D
:1059B000B40700200148FDF77CBE0000DC06002093
:1059C0000148FDF776BE00006C070020F0B50268C4
:1059D000274B284D284E294F294C4FF0804C984298
:1059E00009D0604507D0A84205D0B04203D0B842E4
:1059F00001D0A04204D122F0700E4A6842EA0E02A1
:105A000098421BD0604519D0A84217D0B04215D09B
:105A1000B84213D0A04211D01A4DA8420ED01A4D50
:105A2000A8420BD0194DA84208D0194DA84205D064
:105A3000184DA84202D0184DA84203D122F4407557
:105A4000CA682A434D6922F080022A438D68C562E4
:105A50000D688562984201D0A04201D109690163B5
:105A6000016841F004010160012141610260F0BD63
:105A7000000001400004004000080040000C00400D
:105A80000004014000400140004401400048014042
:105A900000180040001C00400020004010B501F03C
:105AA0001F030121046A99408C430462016A9A40F1
:105AB0001143016210BD10B5846842EA032224F448
:105AC0007F440A432243826010BD826822F0700244
:105AD0000A4342F00701816070470000F0B5036A95
