:020000040800F2
:1000000078170020A10100084F5600082B41000876
:100010004D560008690D0008855D000800000000CD
:10002000000000000000000000000000535600081F
:10003000410E000800000000515600085556000807
:10004000BB010008BB010008BB010008BB010008A0
:10005000BB010008BB010008BB010008BB01000890
:10006000BB010008BB010008BB010008BB01000880
:10007000BB0100086D0D0008BB010008790D0008E8
:10008000850D0008910D0008790A0008BB010008E1
:10009000BB010008BB010008BB010008BB01000850
:1000A000BB010008BB010008BB010008BB01000840
:1000B000BB010008FD560008BB01000839410008DB
:1000C0002D410008BB010008BB010008BB0100086E
:1000D000BB010008BB010008BB010008BB01000810
:1000E000BB010008BB010008BB010008BB01000800
:1000F000BB010008BB010008BB010008BB010008F0
:10010000BB010008BB01000809570008BB0100083B
:10011000995A0008BB010008BB010008BB01000898
:10012000BB010008BB010008BB010008BB010008BF
:10013000BB010008BB010008BB010008BB010008AF
:10014000BB010008BB010008BB010008BB0100089F
:10015000BB010008BB010008BB010008795D000875
:100160005141000845410008BB010008BB010008DF
:10017000BB010008BB010008BB0100080000000033
:10018000BB010008BB010008DFF810D000F086FAC0
:100190000048004765690008AFF300807817002029
:1001A0000648804706480047FEE7FEE7FEE7FEE711
:1001B000FEE7FEE7FEE7FEE7FEE7FEE7ED56000896
:1001C000890100082DE9F05F0546002092469B4614
:1001D00088460646814640241BE02846414647465D
:1001E000224600F06AF853465A46C01A914110D38D
:1001F00011461846224600F051F82D1A67EB010807
:100200004F4622460120002100F048F817EB000974
:100210004E41201EA4F10104DFDC484631462A4647
:100220004346BDE8F09FD2B201E000F8012B491E21
:10023000FBD270470022F6E710B513460A46044683
:100240001946FFF7F0FF204610BD00F0004230F0E5
:1002500000400AD0C10D01F56071C0F3160042EAFA
:100260000151C20840071143704700200146704702
:1002700030B50B46014600202022012409E021FA76
:1002800002F59D4205D303FA02F5491B04FA02F573
:100290002844151EA2F10102F1DC30BD202A04DB46
:1002A000203A00FA02F1002070479140C2F1200389
:1002B00020FA03F3194390407047202A04DB203AC8
:1002C00021FA02F00021704721FA02F3D040C2F176
:1002D00020029140084319467047F0B400F00042F4
:1002E00021F0004120F00040CE0DC30DC1F31601F6
:1002F00041F40001C0F316004C42154640F40000E2
:10030000761E09E010EB440002D582F00042404224
:100310008842F7D840005B1EB342F9DA18B1F0BC4E
:10032000002100F0E8B92846F0BC70472DE9FE4FE7
:10033000804681EA0300C00F0C46009021F0004186
:1003400023F00045B8EB0200A94105D24046214602
:1003500090461C460B46024623F00040104347D00F
:10036000270DC7F30A00C3F30A510290401A019007
:1003700040286BDAC3F3130040F4801B00989246C8
:1003800020B10023D2EB030A63EB0B0B0198594613
:10039000C0F140025046FFF781FF06460D46504629
:1003A0005946019A00F08CF910EB080061410024D5
:1003B00087EA115284EAE7731A4340D0009A62B385
:1003C000019A012A4FEA075215DC001B61EB02017A
:1003D0004FF0004202EA0752CDE90042001C41F50D
:1003E000801132462B4600F0C3F903B0BDE8F08F10
:1003F00040462146F9E7001B61EB0201001C41F574
:10040000801300185B412018A2F5001747EB030189
:1004100040EAD570B6196D4111E06D084FEA360615
:1004200045EAC0754FEA0752001B61EB0201001C50
:1004300041F5801149084FEA300000195141324618
:100440002B4603B0BDE8F04F00F083B900980122BD
:1004500040000023D0EB020263EBE07300982146DA
:100460004FEAE074B8EB000061EB0401E9E783F0C8
:1004700000435BE781F0004158E72DE9FE4F81EA38
:10048000030404F0004421F0004100944FF0000BFD
:1004900023F0004350EA01045ED052EA03045BD02B
:1004A000C3F30A54C1F30A552C44A4F2F334019463
:1004B000A0FB0254C1F3130141F48011C3F31303F1
:1004C00043F4801301FB024400FB034E840A970AA5
:1004D00044EA815447EA8357A4FB076802958D0AD2
:1004E00005FB07854FEA932C04FB0C542705029D5E
:1004F0004FEA065847EA1637B5EB08056EEB070CCE
:10050000870E920E47EA811742EA8312A7FB020187
:10051000B6EB0B0164EB00042B0D43EA0C335E18C1
:1005200044EB1C50DA465146E7FB0201C5F31304C5
:100530004FEA0B3343EA14534FEA0432019C43EA77
:100540000603A4F10C040294009CCDE900B400F071
:100550000FF903B0BDE8F08F00200146F9E72DE95F
:10056000F04D81EA030404F0004B21F000451446ED
:100570004FF0000A23F0004150EA050220D054EA6F
:1005800001021DD0C5F30A570246C5F31303C1F398
:100590001300C1F30A5640F4801543F48013A7EB0F
:1005A0000608101BD64608F2FD3873EB050002D38F
:1005B00008F1010801E092185B41B8F1000F03DA7D
:1005C00000200146BDE8F08D00204FF48011064662
:1005D00084460EE0171B73EB050705D3121B63EB74
:1005E000050306434CEA010C49084FEA3000921813
:1005F0005B4150EA0107EDD152EA030012D082EAD2
:10060000040083EA0501084305D0101BAB4106D264
:100610000122002306E000224FF0004302E06FF0C9
:10062000010253101AEB06004CEB085110EB0A00C4
:1006300041EB0B01BDE8F04D00F08BB8C1F30A525D
:10064000C1F3130140F2FF3341F480119A4202DA00
:1006500000200146704740F233439A42A2F23342EF
:1006600002DC5242FFF729BEFFF718BE30B5041E68
:1006700071F1000404DB4FF00044404264EB0101DF
:10068000141E73F1000405DB1C464FF00043524278
:1006900063EB0403994208BF904230BD064C074DFE
:1006A00006E0E06840F0010394E807009847103442
:1006B000AC42F6D3FFF76CFD98740008B8740008DC
:1006C000202A06DBCB17203A41FA02F043EAE07316
:1006D00006E041FA02F3D040C2F120029140084303
:1006E000194670470029A8BF7047401C490008BF41
:1006F00020F00100704710B4B0FA80FC00FA0CF052
:1007000050EA010404BF10BC704749B1CCF1200489
:1007100021FA04F411FA0CF118BF01212143084316
:10072000A3EB0C01CB1D4FEA00614FEA102042BF42
:10073000002010BC704700EBC35010440029A4BF38
:1007400010BC7047401C490008BF20F0010010BCDD
:10075000704710B5141E73F1000408DA401C41F113
:10076000000192185B411A4301D120F0010010BD35
:100770002DE9F04D92469B4611B1B1FA81F202E0AB
:10078000B0FA80F220329046FFF788FD04460F460B
:1007900040EA0A0041EA0B0153465A46084313D087
:1007A000114653EA010019D0C8F140025046FFF744
:1007B00084FD05460E46504659464246FFF76EFDFB
:1007C000084305D0012004E020463946BDE8F08DFD
:1007D0000020054346EAE0762C4337430A98630538
:1007E000E40AA0EB08000022FD0A44EA47540A305C
:1007F00002D500200146E9E7010510196941DDE94C
:10080000084500196941BDE8F04DA2E79FED221AA5
:100810009FED222A20EE010AB5EE001A30EE010A01
:10082000BDEEC01A11EE100AB5EE400AF1EE10FA54
:10083000B8BF013801EE100AB8EEC11A30EE410A15
:1008400020EE020ABDEEC01A9FED152A11EE100A25
:10085000002130EE021AB1EB502F46F694411CBF36
:100860000020B0EE410AC0F6000101EE100A01EBD3
:100870008001B8EE411A30EE410A91ED001A91ED77
:10088000012AB7EE003A33EE403A23EE011A20EE89
:10089000020A31EE000A704783F9223E000000444C
:1008A000000000C49FED201A9FED202A20EE010ACF
:1008B000BDEEC01A11EE100AB5EE400AF1EE10FAC4
:1008C000B8BF013801EE100AB8EEC11A30EE410A85
:1008D00020EE020ABDEEC01A9FED152A11EE100A95
:1008E000002130EE021AB1EB502F46F694411CBFA6
:1008F0000020B0EE410AC0F6000101EE100A01EB43
:100900008001B8EE411A30EE410A91ED001A91EDE6
:10091000012AB7EE003A33EE403A23EE011A20EEF8
:10092000020A31EE000A704783F9223E00000044BB
:10093000000000C470B5324900202DED048B9FEDFE
:100940002F8A0A68B0EE489AF0EE488AF0EE489A8C
:1009500050630A6890630968C8632A490A6850634B
:100960000A6890630968C863642001F0ABFC002446
:100970004FF4FA650121244800F0D6FF00EE100A7A
:1009800002212148B8EE400A30EE099A00F0CCFF6F
:1009900000EE100A01211D48B8EE400A70EE288AC8
:1009A00000F0C2FF00EE100A02211848B8EE400A1B
:1009B00030EE088A00F0B8FF00EE100A0120B8EE11
:1009C000400A70EE299A01F07DFC641CAC42D1DB38
:1009D00010489FED0F0AC9EE000AC0ED010AC8EEEB
:1009E000800AC0ED020AC8EE000AC0ED030AC9EE93
:1009F000800AC0ED040ABDEC048B70BD000000004D
:100A000044050020D40500208C020020D4020020E0
:100A10000000FA4410000020024890ED050AB1EEF3
:100A2000400A704710000020024890ED060AB1EE1F
:100A3000400A704710000020024890ED070AB1EE0E
:100A4000400A704710000020024890ED080AB1EEFD
:100A5000400A704710000020024890ED090AB1EEEC
:100A6000400A704710000020024890ED0A0AB1EEDB
:100A7000400A70471000002010B5044801F026F924
:100A8000BDE81040024801F021B900008C020020AE
:100A9000D4020020464910B54A6822F440324A6028
:100AA0004A6843681A434A6001684A6822F48072BF
:100AB0004A6001684A68036942EA03224A600168A1
:100AC0004A6822F040724A6001684A6883681A43A3
:100AD0004A6001688A6822F400628A6001688A6854
:100AE000C3681A438A60816A6FF07062D1420168FC
:100AF0008A6822F070628A6001688A680CD0836A12
:100B00001A438A6001688A6822F040528A6001684C
:100B10008A68C36A1A4301E022F040528A60016881
:100B20008A6822F002028A6001688A68037E42EACB
:100B300043028A6090F82010002901684A680FD0AB
:100B400042F400624A6001684A6822F460424A60E6
:100B500001684A68174C436A04EB43331A4301E0C7
:100B600022F400624A600168CA6A22F47002CA6212
:100B70000168CA6A838B104C04EB03531A43CA62A0
:100B800001688A6822F400728A6001688A6890F8B5
:100B9000303042EA43228A6001688A6822F4806227
:100BA0008A6001688A68406942EA8020886010BDD6
:100BB0000023014000E0FFFF0000F0FF70B5214D71
:100BC000002428684463286884632868C463214635
:100BD000284602F0B5FF0421284602F0B1FF0821A3
:100BE000284602F0ADFF184E3068446330688463D5
:100BF0003068C4630021304602F0A2FF0421304671
:100C000002F09EFF0821304602F09AFF296840F268
:100C10001A400864316808640C21284602F090FFED
:100C20000C21304602F08CFF284602F01FFD3046B2
:100C300002F01CFD054800F095FEBDE87040044838
:100C400000F090BE44050020D40500208C02002056
:100C5000D402002010B5074800F064FF064800F0F9
:100C600061FF044800F0ECFEBDE81040024800F0CF
:100C7000E7BE00008C020020D402002010B190EDED
:100C8000020A70479FED010A704700000000000053
:100C900010B190ED090A70479FED010A70470000FE
:100CA0000000000010B190ED030A70479FED010AAB
:100CB0007047000000000000002821D000291FD04C
:100CC0000160427700219FED100A818080ED020AC9
:100CD00080ED030A80ED040A80ED050A8161017749
:100CE00080ED080A80ED090A012180F82810074AE2
:100CF000002100BF52F821301BB1491C0429F9DB47
:100D0000704742F82100704700000000F406002000
:100D10002DE9FC4104001FD001F0E4FB0546207FD3
:100D2000104E002758B13068281A0A2814D927779E
:100D30006C21206801F027FE207F00280CD10221C1
:100D4000A01D3560CDE9000101230E226C21206831
:100D500001F094FE10B12777BDE8FC8101202077D7
:100D6000FAE700003C000020FEE70000014801F027
:100D700037B9000084040020014801F031B90000B7
:100D8000E4040020014801F02BB90000C403002056
:100D9000014801F025B9000024040020016818234F
:100DA000CAB2103AB2FBF3F2054B6FF30901032A02
:100DB0009B5CC36500D9091D81650846704700002A
:100DC000746C000810B5014600208B698A6A4FF0E8
:100DD000C07453B1B3F5005F15D072B1012A0CD0C5
:100DE000022A0AD0032A09D104E01AB1012A06D046
:100DF000022A03D1C96AC90100D5012010BDC96A00
:100E0000A142FAD010BD002AF7D0012AF2D0022A5E
:100E1000F3D0032AF3D010BD30B50468256825F45B
:100E200080252560046863608368402B036803D0D5
:100E300099600068C26030BD9A600068C16030BDD2
:100E4000704772B6FEE7000000280CD0064940F853
:100E5000C81F06494160064981600649C1600649CC
:100E60000161064941617047A56A0008B16A00083E
:100E7000E16A0008916A0008996A0008D56A0008CA
:100E800000280CD0064940F8C81F064941600649B1
:100E900081600649C16006490161064941617047A8
:100EA000F96A0008056B0008356B0008E56A000860
:100EB000ED6A0008296B000870B504002DED088B61
:100EC00086B07DD0D4F8C800002879D0D4F8D010EE
:100ED00000297CD08047F0EE409AB0EE08BADFEDF2
:100EE0003EAAD4F8D400B0EE6A8A18B18047F0EE7A
:100EF000408A01E0F2EE088A01F0F4FA05469FED1F
:100F0000379A4FF47A7632E09FED350A354938EE5C
:100F1000008A18EE100A884201DB38EE498AB0EEEA
:100F2000480AFFF773FCB0EE40AAB0EE480AFFF79C
:100F3000B9FCF0EE401A01A96846B0EE4A1AF0EE8C
:100F40004B0AB0EE6A0A00F073F99DEC020A04AA9B
:100F500003A902A8B0EE681A00F0ECF902A9D4F8CF
:100F6000D00091EC030A8047012001F0ABF901F0B9
:100F7000B9FA401BB042C7D3D4F8C8008047B0EEDE
:100F8000408AB0EE6A0AD4F8D000B0EE401AF0EE13
:100F9000400A804738EE690A134910EE100A884269
:100FA00001DD30EE490A114910EE100A884201D9DC
:100FB00030EE090AB5EEC00AF1EE10FA03DD00E0EA
:100FC00005E0012001E04FF0FF3084F8C50006B0D5
:100FD000BDEC088B70BD000000000000DB0FC940B5
:100FE0002FE3CD3BDB0FC940DB0F4940DB0F49C08E
:100FF00070B504462DED068B8EB0D0F8D40008B144
:10100000804701E0B2EE080AB0EE089AB0EE40AABE
:101010000025DFED599ADFED598A00BF00EE105A26
:101020000AA909A8B8EEC00AB7EE001A69EE000ACC
:1010300080EEA90AF0EE680AF0EE601A00F0F8F807
:101040000CAA08A90BA8B0EE4A1ADDED0A0A9DED1C
:10105000090A00F06FF9D4F8D0009DED0C1ADDED0F
:10106000080A9DED0B0A8047052001F02BF96D1C45
:10107000642DD3DDB0EE688A07A906A8F0EE481A01
:10108000B7EE001AF0EE480AB0EE490A00F0D0F8C8
:1010900002AA01A96846B0EE4A1ADDED070A9DEDE5
:1010A000060A00F047F9D4F8D0009DEC030A804707
:1010B0004FF47A7001F006F964260025D4F8C800D0
:1010C000804730EE088A022001F0FCF86D1CB54222
:1010D000F4DB00EE106A94F9C500F8EEC00A88EE61
:1010E000200A00EE900A2078F8EEE00A60EE800A0E
:1010F00000EE100AB8EE400A20EEC00A84ED0C0A99
:1011000000F0A4F884ED0C0A6425B0EE688A00BFF4
:1011100000EE105A07A906A8B8EEC00AB7EE001AEA
:1011200069EE000A80EEA90AF0EE480AF0EE601AB5
:1011300000F07EF802AA01A96846B0EE4A1ADDED79
:10114000070A9DED060A00F0F5F8D4F8D0009DECF2
:10115000030A8047052001F0B5F86D1ED8D5B0EE22
:10116000480AD4F8D000B0EE401AF0EE400A8047AA
:101170000EB0BDEC068B70BD0000C8420000000040
:101180009FED061A80ED000A20EE010A9FED041A79
:1011900000EE810A81ED000A704700003ACD133F4E
:1011A0003ACD933F70B50D46040039D0E021FFF7EA
:1011B00041F82570F2EE081AC4ED051AB0EE000AE7
:1011C00084ED060A00202077012184F8C510B7EECF
:1011D000000A84ED010A9FED130A9FED132A84EDA6
:1011E000020A84ED030ADFED112A2074B0EE421AE0
:1011F000F0EE620AB1EE040A04F15C0000F03CF883
:10120000D4ED051AB0EE421AF0EE620AB1EE040A0D
:1012100004F1740000F030F884F8C410012070BDAF
:10122000002070BD6F12833A0000000000004842A9
:1012300020EE012A20EE210A00EEE12A00EE810ACA
:1012400080ED002A81ED000A7047000010B52DEDF9
:10125000028B9FED088AF0EE480A04F0B5FDB5EE6A
:10126000C00AF1EE10FA01D230EE080ABDEC028B92
:1012700010BD0000DB0FC940C0ED051A80EC030A69
:101280009FED030A80ED030A80ED040A7047000019
:101290000000000010B5DFED1F1A04462DED048B91
:1012A000B0EE408AF0EE608A90ED000A20EE089AD7
:1012B00090ED030A08EE280A80ED030A90ED011A6A
:1012C000D0ED050A71EE211A80EEA11AF1EE410A65
:1012D00005F0BAFA84ED030AD4ED010A94ED041A7C
:1012E00020EE800A38EE411AD4ED020A84ED048A19
:1012F00039EE000A20EE811AC1EE280A94ED051A93
:10130000BDEC048BBDE8104030EE200AF1EE410A3E
:1013100005F09ABABD37863520EE012A00EEA12AE3
:1013200060EE810A40EE610A80ED002AC1ED000AFC
:101330007047000070B5BEEE003A2DED028B60EEF6
:10134000031A80ED000A9FED3F0A1546B0EE612AB0
:1013500040EEC01A00EE802A0C46064681ED002AB7
:10136000C2ED001AD0ED000AD1ED002AB0EE602ADD
:10137000F4EEE02AF1EE10FA01DDF0EE620AF4EE8E
:10138000E01AF1EE10FA01DDF0EE610AB0EE420A69
:10139000F4EEC02AF1EE10FA01D2B0EE620AF4EED9
:1013A000C01AF1EE10FA01D2B0EE610A9FED268A62
:1013B00030EE800A60EE030A32EE200A80EE012A47
:1013C000B6EE000AF0EE401A42EE001AC6ED001A20
:1013D000D4ED001A71EEA01A81EE812AF0EE401AC7
:1013E00042EE001AC4ED001AD5ED001A71EEA00A03
:1013F000C0EE811AF0EE400AB7EE001A41EE800A04
:10140000C5ED000A96ED000AF0EE480A05F01CFA58
:1014100086ED000A94ED000AB7EE001AF0EE480AD5
:1014200005F012FA84ED000A95ED000AB7EE001AF5
:10143000F0EE480A05F008FA85ED000ABDEC028BD3
:1014400070BD0000D7B35D3F00000000002801D050
:1014500080ED060A7047002800D001777047002809
:1014600001D080ED080A7047002805D080ED050AFC
:1014700080ED1C0A80ED220A7047000010B504467A
:101480002DED048B84B0D0F8DC0008B180471CE05F
:10149000D4F8C80010B1804784ED090A94F9C5005A
:1014A000D4ED090A00EE100A2078B8EEC00A60EE0A
:1014B000800A00EE100AB8EE401A94ED0C0A00EE15
:1014C000810A84ED0A0AFFF7C1FE84ED0A0AD4F806
:1014D000CC3023B104F13C02111F081F984704F1DE
:1014E000340201A992EC030A6846FFF749FE94ED25
:1014F0000A0AFFF78BF9F0EE408A94ED0A0AFFF72B
:10150000D1F9B0EE408A04F144019DEC020A081FB3
:10151000F0EE481AB0EE681AFFF7FEFE94ED061AD8
:1015200094ED080AF1EE410A05F08EF9F0EE400A5A
:1015300094ED111A94ED100A9FED309A70EEC19A55
:10154000B1EE400AF0EE490A04F15C00FFF7A2FE9A
:1015500084ED120AF0EE490AB0EE690A04F1740053
:10156000FFF798FE84ED130AD4ED120A60EEA00A8C
:1015700040EE000AB0EE600A04F07EFC94ED051A1D
:10158000B4EEC01AF1EE10FA0DD2C1EE000A94EDDD
:10159000120A20EE200A84ED120A94ED130A20EEBE
:1015A000200A84ED130AD4ED130A94ED120A03A95C
:1015B00002A8F0EE481AB0EE681AFFF739FED4F828
:1015C000D40008B1804701E0B2EE080A04F15802E5
:1015D000111FB0EE401A081FDDED030A9DED020A4F
:1015E000FFF7A8FED4F8D000002803D0503494ECC4
:1015F000030A804704B0BDEC048B10BD17B7D13887
:1016000070B590F83C20694D012A19D0012280F86C
:101610003C200A6807230468092A13D9E6680A3AB5
:1016200002EB420293409E43E6600A788B680A3AD6
:1016300002EB420293400268D4682343D36010E077
:10164000022070BD266902EB420293409E43266150
:101650000A788B6802EB42029340026814692343C4
:1016600013610268936B23F4401393630268936BD6
:101670000C8A4F4E06EB0454234393630A790B7C88
:10168000D21AD21C02EB82021F2393400268946B91
:101690009C4394630A790B7CD21AD21C02EB82031E
:1016A0000A8892B29A4003689C6B22439A638A69C3
:1016B000AA420268936823F47023936002689368D7
:1016C0000CD08C69234393600268936823F4401321
:1016D000936002689368CC69234301E023F44013CC
:1016E00093604A7D002A0268536802D043F4806305
:1016F00001E023F4806353600A7D002A0268536886
:1017000002D043F4805301E023F4805353604A68CD
:10171000012A16D0022A1FD0032A026827D0136A92
:101720006FF30B0313620268136ACC6823431362DE
:10173000214B04681F4A9C4227D10C68122C20D0F0
:1017400023E0026853696FF30B0353610268536926
:10175000CC6823435361EBE7026893696FF30B0393
:10176000936102689369CC6823439361E0E7D3698E
:101770006FF30B03D3610268D369CC682343D36151
:10178000D6E7546844F48004546004689C4208D14D
:101790000968102901D0112903D1516841F40001D1
:1017A0005160002180F83C10084670BD01000F0018
:1017B0000000F0FF002301400020014010B5524A14
:1017C0002DED048B01680020DFED508A504CB0EE07
:1017D000009AB6EE008A914244D12178491CC9B2E0
:1017E000217002297DD3207001214A4800F09CF825
:1017F00000EE100AD4ED010A0221B8EE400A454875
:1018000070EE609A00F090F800EE100AD4ED020A33
:101810004148B8EE400A30EE600A69EEA80A20EEB0
:10182000280A60EE890A20EE091A30EE810AF1EEEC
:10183000401A94ED050A70EEC00A00EE880A84EDA5
:10184000050A94ED060A71EE400A00EE880A84ED5E
:10185000060A94ED070A71EEC00A00EE880A84EDCC
:10186000070A48E02D4A91424BD16178491CC9B220
:101870006170022945D360700121294800F054F8B5
:1018800000EE100AD4ED030A0221B8EE400A244803
:1018900070EE609A00F048F800EE100AD4ED040AE9
:1018A000B8EE400A70EE600A29EEA80A60EEA80AB7
:1018B00020EE090A60EE890A30EE201AF1EE411A94
:1018C00094ED081A30EE410A00EE081A84ED081A69
:1018D00094ED090A70EEC00A00EE880A84ED090A48
:1018E00000E00EE094ED0A0A0E4871EEC00A00EE28
:1018F000880A84ED0A0ABDEC048BBDE81040FFF7AE
:10190000BDBDBDEC048B10BD002101406740533AC2
:10191000100000208C0200207400002000220140F2
:10192000D40200205401002008B500220092036870
:10193000521F1A60012911D002290CD0032906D0A8
:10194000042901D0009808BD0068806C01E000689F
:10195000406C009008BD0068006CFAE70068C06B3E
:10196000F7E7000018B50021009190F83C20012A0B
:1019700007D0012280F83C2002689368DB0702D080
:1019800011E0022018BD936843F001039360284AD8
:10199000284B1268B2FBF3F202EB420200E0521E47
:1019A0000092002AFBD102689368DB0735D0036CF4
:1019B00042F20104A34343F480530364036CDB0548
:1019C00000D4416480F83C106FF0040111601A49A2
:1019D00049680068C906816801F440110FD0D1B18F
:1019E00000224168154B41F38021491C98421CD1CB
:1019F000DAB1D1B1816841F48001816015E041B173
:101A00000021426842F38022521C71B1002AF1D1B8
:101A10000BE00121F5E70122E3E7016C41F0100141
:101A20000164416C41F001014164002018BD0000D7
:101A30000C00002040420F00002301400020014024
:101A400018B50022009290F83C10012907D001211E
:101A500080F83C1001688B68DB0702D011E002209F
:101A600018BD8B6843F001038B602A492A4B096833
:101A7000B1FBF3F101EB410100E0491E00910029A7
:101A8000FBD101688B68DB073AD0036C42F201049A
:101A9000A34343F480530364036CDB0500D4426426
:101AA00080F83C206FF004020A6001684A6842F046
:101AB00080024A60194949680068C906816801F4D2
:101AC00040110FD0D1B100224168154B41F3802164
:101AD000491C98421CD1DAB1D1B1816841F480012E
:101AE000816015E041B10021426842F38022521C1E
:101AF00071B1002AF1D10BE00121F5E70122E3E702
:101B0000016C41F010010164416C41F0010141643C
:101B1000002018BD0C00002040420F0000230140AF
:101B20000020014090F83C200021012A12D001221F
:101B300080F83C20026CD20515D4026853685B051E
:101B400011D4936823F00103936002689268D2076E
:101B500002D00DE002207047026C22F4885242F05D
:101B60000102026404E0016C41F0200101640121E2
:101B7000002280F83C2008467047000078B5002419
:101B8000009490F83C20012A19D0012280F83C20D2
:101B90000A6807230568092A13D9EE680A3A02EB96
:101BA000420293409E43EE600B788A680A3B03EB47
:101BB00043039A400368DD682A43DA6010E002209C
:101BC00078BD2E6902EB420293409E432E610B7852
:101BD0008A6803EB43039A4003681D692A431A612C
:101BE0004A681F23072A13D205686E6B521E02EB48
:101BF000820293409E436E630B790A885B1E92B209
:101C000003EB83039A4003685D6B2A435A6327E022
:101C100005680D2A12D22E6BD21F02EB820293406E
:101C20009E432E630B790A88DB1F92B203EB83037A
:101C30009A4003681D6B2A431A6311E0EE6A0D3A5D
:101C400002EB820293409E43EE620B790A880D3BC1
:101C500092B203EB83039A400368DD6A2A43DA6297
:101C6000164B0568144A9D4206D10D68122D03D10A
:101C7000556845F48005556005689D4218D10B688C
:101C8000102B01D0112B13D1536843F40003536080
:101C9000096810290CD10A490A4A0968B1FBF2F116
:101CA00001EB8101490000E0491E00910029FBD1B0
:101CB00080F83C40002078BD002301400020014016
:101CC0000C00002040420F007047704770B504467A
:101CD00000680668456816F0020F05F020012AD05A
:101CE00049B3216CC90603D4216C41F4007121640D
:101CF000816811F0405F17D1217EA9B9C16A11F442
:101D0000700F02D0816849050ED4416821F020018E
:101D10004160206C20F480702064206CC00403D4E7
:101D2000206C40F0010020642046FFF7CDFF2168C1
:101D30006FF01200086016F0040F05F0800132D039
:101D400089B3206CC00603D4206C40F4005020649A
:101D50002068816811F4401F1ED1816B11F4401F6F
:101D600002D08168490517D44168490514D48168B7
:101D700011F0405F10D1217E71B9416821F08001DE
:101D80004160206C20F480502064206CC00503D496
:101D9000206C40F0010020642046FFF70FFD216811
:101DA0006FF00C00086016F0010F05F040010FD035
:101DB00071B120680068C0070AD0206C40F4803000
:101DC0002064204600F043F821686FF001000860AD
:101DD00016F0200F05F080610ED000290CD0606C49
:101DE00040F00200606420686FF020050560204626
:101DF000FFF76BFF2068056070BD70B504004FF001
:101E0000000503D0206C002610B107E0012070BD52
:101E1000204600F01DF8666484F83C60206CC00623
:101E200010D4206C20F4885040F00200206420463A
:101E3000FEF730FE6664206C20F0020040F00100E6
:101E4000206400E0012584F83C60284670BD70479E
:101E500030B587B0044614216846FEF7EBF92B48ED
:101E6000294B226800242949143803259A4226D197
:101E70000A6842F400720A60096801F40071059171
:101E8000016841F001010160016801F00101059163
:101E9000016841F0020101600068694600F002003B
:101EA00005902020CDE900050294194800F01CFAA5
:101EB0000120CDE9000569460294164818E0164B4A
:101EC0009A421FD10A6842F480620A60096801F4EC
:101ED00080610591016841F0040101600068694674
:101EE00000F0040005900920CDE9000502940B489C
:101EF00000F0FAF900221146122001F00FF812202A
:101F000000F0FEFF07B030BD002101404438024020
:101F1000000002400004024000220140000802408C
:101F20002DE9F0410446876D00F0DCFA064694F88E
:101F300035000025022806D08020606584F83450E2
:101F40000120BDE8F0812068016821F016010160E0
:101F50002068416921F080014161206C08B9A06CC2
:101F600020B12068016821F0080101602068016843
:101F700021F0010101600CE000F0B4FA801B05289B
:101F800007D920206065032084F8350084F8345098
:101F9000D7E720680068C007EED194F85C103F20B6
:101FA0008840B860012084F8350084F8345000205F
:101FB000C7E790F83510022903D080214165012040
:101FC0007047052180F835100068016821F0010193
:101FD000016000207047406D704790F835007047F1
:101FE0002DE9F84304464FF00009CDF8009063480E
:101FF0004FF41651A56D0068B0FBF1F72E6894F808
:102000005C10082000FA01F131420FD021680A6803
:1020100052070BD50A6822F004020A6094F85C109B
:102020008840A860606D40F00100606594F85C1025
:102030004FF0010808FA01F0304208D021684969E0
:10204000090604D5A860606D40F00200606594F850
:102050005C1004208840304208D021680968890754
:1020600004D5A860606D40F00400606594F85C10D1
:1020700010208840304218D021680968090714D51B
:10208000A86020680168490304D50068000308D5EA
:10209000A16C07E00168C90503D4016821F00801BB
:1020A0000160216C09B12046884794F85C1020201B
:1020B0008840304231D021680968C9062DD5A86012
:1020C00094F8350005282068016806D0490347D5F3
:1020D000006800031DD4616C1CE021F01601016052
:1020E0002068416921F080014161206C08B9A06C31
:1020F00020B12068016821F00801016094F85C10AB
:102100003F208840A86084F8358084F83490216DA1
:102110001FE0E16B09B120468847606D00282BD095
:10212000606DC00714D0052084F835002068016870
:1021300021F0010101600098401C0090B84203D8D2
:1021400020680068C007F6D184F8358084F83490A0
:10215000E16C002910D001B02046BDE8F0430847EB
:102160000168C905D5D4016821F01001016084F827
:10217000358084F83490CCE7BDE8F8830C0000206B
:102180002DE9F041044600F0ADF906465CB10220AD
:1021900084F83500002584F834502068016821F067
:1021A000010101600DE00120BDE8F08100F09AF925
:1021B000801B052805D920206065032084F83500A0
:1021C000F2E720680068C007F0D122681168204853
:1021D0000140D4E901031843D4E9033633431843DB
:1021E00063691843A3691843E3691843236A1843D2
:1021F0000843616A042903D1D4E90B131943084346
:10220000106020684069666A20F0070130460E437E
:10221000012704280CD1A06A0643E06A40B1204699
:10222000FEF7D0FD20B14020606584F83570BAE734
:10223000206846612046FEF7B1FD94F85C203F21FE
:1022400091408160656584F835700020ACE700003E
:102250003F8010F02DE9F0410446866D90F834007F
:10226000002501280DD0012084F8340094F8357041
:102270000020012F07D084F8340002252846BDE84D
:10228000F0810220FBE7022784F835706065204664
:10229000FEF7C2FD94F85C103F208840B0602068D3
:1022A000016841F016010160206C20B120680168CE
:1022B00041F0080101602068016841F001010160FE
:1022C000DCE7000070B5044600F00CF90546601C20
:1022D00002D004480078044400F004F9401BA042F6
:1022E000FAD370BD000000202DE9F84FDFF8BCA143
:1022F0000022012503264FF00F090AF1040BAAF171
:10230000040E00BF0B6805FA02F42340A34270D10B
:102310000F7907F00307012F01D0022F16D187682C
:102320004FEA420806FA08FC27EA0C07D1F80CC06D
:102330000CFA08FC4CEA070CC0F808C04768A74331
:102340000C79C4F3001494403C4344600C79E4439A
:10235000A4070AD0C4684FEA420C06FA0CF7BC4343
:102360008F6807FA0CF72743C7600C7904F0030461
:10237000022C12D1D40800EB840CDCF82040570763
:10238000FF0E09FA07F824EA0804D1F8108008FAC9
:1023900007F848EA0408CCF8208004684FEA420CA9
:1023A00006FA0CF7BC430F7907F0030707FA0CF79E
:1023B000274307604C6814F4403F70D03C4C2768BA
:1023C00047F480472760246822F0030704F4804420
:1023D0000094384C07EB040CDCF8084897074FEAE8
:1023E000177809FA08F7BC43334FB84202D10027E7
:1023F00024E054E0314FB84201D101271EE0304FB4
:10240000B84201D1022719E02E4FB84201D103276B
:1024100014E02D4FB84201D104270FE02B4FB842F2
:1024200001D105270AE02A4FB84201D1062705E06D
:10243000284FB84201D1072700E0082707FA08F71C
:102440002743CCF80878DAF800405746D1F804C0A2
:102450009C435FEACC2C00D51C433C60DBF8004079
:102460005F46D1F804C09C435FEA8C2C00D51C4326
:102470003C60DEF800407746D1F804C09C435FEA38
:102480008C3C00D51C433C60084F083F3C68D1F8A9
:1024900004C09C435FEACC3C00D51C433C60521C0A
:1024A000102AFFF42FAFBDE8F88F0000083C014070
:1024B0004438024000300140000002400004024065
:1024C00000080240000C02400010024000140240CC
:1024D00000180240001C02400069084000D00120A2
:1024E000704700000148806870470000000000202D
:1024F000704770472DE9F041016804464A694E680B
:1025000090F83E000025D743FA0506D4F243D205E1
:1025100003D46FF4807201254A61B90508D4F143F0
:10252000C90505D422686FF4007145F002055161B8
:10253000790525D4F143C90522D4638D94F83D1063
:10254000226B202808D13BB9212910D029290ED08F
:10255000282901D1212A0AD022686FF480615161B3
:1025600045F00405102806D0402804D008E0204695
:1025700002F014FB04E02068016841F4007101607E
:10258000380508D4F043C00505D421686FF4006015
:1025900045F008054861002D07D0206C28432064D1
:1025A0002046BDE8F04101F0E9BEBDE8F0812DE92B
:1025B000F047026800215368C66A90F83E4090F8E0
:1025C0003D50102C12D0402C10D0046C002C7DD02B
:1025D0005469E443A6077AD4DE43B60577D4036C86
:1025E00003B19169BDE8F04702F0B4BA9769516947
:1025F0004FF42A0CC9435FEAC1784FF02A4904D04E
:1026000066452AD04E4528D010E0DE43B6050DD4ED
:10261000C16A614501D1012103E0C16A494501D187
:102620000821C162BDE8F04702F07CB90E0716D45C
:10263000DE43B60513D4416CC9B21161416B09B1D7
:10264000C96B29B9816B002907D0C96B002904D057
:102650000068416841F400614160BDE8F0878E0781
:1026600006D4DE43B60503D4BDE8F04702F0CEB889
:10267000FE43526876074FEA02521DD4002AECDB73
:102680000A0608D4DA43520505D4490705D5BDE842
:10269000F04702F05FB84907DFD4D9438905DCD49D
:1026A000212D05D0402CD8D1BDE8F04702F080B9EB
:1026B000BDE8F04702F00CB8002ACEDB4A060BD486
:1026C000DA43520508D4490708D501E00DE00EE0D1
:1026D000BDE8F04701F082BF4907BED4D943890560
:1026E000BBD4BDE8F04701F00CBF916970E7E1068B
:1026F00006D4D943890503D4BDE8F04702F096BA61
:102700002821212D27D0292D25D0650655D4DD433C
:102710006D0552D4640752D590F83D30448D002C9D
:102720009BD01269446A2270426A521C4262428DF6
:10273000521E4285428D002A8FD12A2B8DD10268EC
:10274000536823F4806353602222026380F83D10B3
:1027500000F07AFB81E7250623D4DD436D0520D404
:10276000640720D590F83D30448D002CF2D0446AA7
:1027700024781461426A521C4262428D521E428584
:10278000428D002AE6D1292BE4D10268536823F454
:10279000806353602122026380F83D1000F055FBF6
:1027A0005BE76107D6D4D9438905D3D4418D00298D
:1027B000D0D0416A097811610AE06107CAD4D943CF
:1027C0008905C7D4418D0029C4D01169426A1170AE
:1027D000416A491C4162418D491E41853DE710B562
:1027E000044604F041F8002805D000210177216853
:1027F0006FF4E060486110BD70B5040025D094F816
:102800003D00002520B984F83C50204600F01CFA19
:10281000242084F83D002068016821F00101016056
:102820002068016841F4004101602068016821F4DA
:102830000041016000F03EFC4D4A6168914201D8C0
:102840004C4900E04C49884201D2012070BD4B49FF
:102850002368B0FBF1F15E6826F03F060E435E6030
:102860006368934206D94FF4967359434FF47A73D1
:10287000B1FBF3F12368491C1E6A26F03F06314381
:1028800019626168914210D84900401EB0FBF1F214
:10289000521CC2F30B02042A01D2042022E0B0FB36
:1028A000F1F0401CC0F30B001CE0A268F2B301EB96
:1028B000C10303EB0116431EB3FBF6F35B1C43F4A9
:1028C00080431B0549D092B301EBC10202EB011119
:1028D000401EB0FBF1F0401CC0F30B0040F4804000
:1028E00040F400402168CA694CF6FF739A431043D4
:1028F000C861D4E9071001432068026822F0C002D1
:1029000011430160D4E9030101432068826848F261
:10291000FF339A4311438160D4E9050108432168DC
:10292000CA6822F0FF021043C86001E00EE016E022
:102930002068016841F0010101602564202084F8CD
:102940003D00256384F83E50002070BD01EB410638
:10295000431EB3FBF6F35B1CB3E70120C2E701EBB8
:102960004101401EB0FBF1F0401CC0F30B00B7E783
:10297000A086010080841E0000093D0040420F0037
:1029800070477047704710B590F83E2001688B691A
:10299000DB439B0703D4102A03D0402A01D0012037
:1029A00010BD90F83C20012A1CD0012280F83C2068
:1029B00000220263602380F83D300B6823F48063BB
:1029C0000B6001680B6843F400730B60428501687B
:1029D0004B6823F4E0634B6080F83C2001F0CEFCB0
:1029E000002010BD022010BD10B52DED028B03F0AC
:1029F0003BFF040039D000202077E088DFED1C0A7F
:102A000040BAC0F30B0000EE100AA0809FED198AB7
:102A1000B8EE400A20EE200A84ED020A94F928005C
:102A200000EE900A607FF8EEE00A01EE100A60EE18
:102A3000200AB8EE411A94ED080A00EE810AF0EE81
:102A4000480A03F0C1F9B5EEC00A84ED090AF1EEB7
:102A500010FA03D230EE080A84ED090A2046BDECD4
:102A6000028BBDE8104003F089BEBDEC028B10BDA7
:102A7000DB0FC93ADB0FC940704700002DE9FC5F4E
:102A8000994692468B460446DDF83080FFF72AFDD2
:102A900000250646009594F83D00202828D1664878
:102AA00046F2A81120270068B0FBF1F000EBC0014E
:102AB00001EB001000900098401E009010D020689C
:102AC0008069C0438007F6D594F83C0001280FD0F8
:102AD000012084F83C0020680168C9070BD00EE093
:102AE00044F8305F6773A573206940F020002061CF
:102AF0000220BDE8FC9F016841F0010101602068EF
:102B0000016821F400610160222084F83D0040202A
:102B100084F83E002564C4F824800D986085608D9B
:102B200020854648E062C4F844B0C4F848A0C4F820
:102B30004C902565208D4FF02308002863D0A06BB2
:102B400000B33F49C163A16B3E48C864A06B0564F4
:102B5000A06B4564A06B8564A06B05652168238D1F
:102B60001031626AA06BFFF775FBA0B184F83D706D
:102B700084F83E5054F8400F40F0100044F8040927
:102B8000257049E084F83D7084F83E5054F8400FB9
:102B900040F08000F2E7CDE900864B4652465946A8
:102BA000204601F059FF88B1A06BFFF702FAA06B35
:102BB000C5632068016821F4806101602585658511
:102BC0002068016821F00101016025E0208D0128C5
:102BD000206813D0416841F4805141602068416908
:102BE0008169009184F83C50416841F480714160F2
:102BF0002068416841F4006141601BE0016821F4F4
:102C000080610160EAE7CDE900864B4652465946AD
:102C1000204601F021FF08B101206AE720684169E0
:102C200081690091016841F40071016084F83D7090
:102C300084F83C5000205CE70C0000200000FFFFFF
:102C400059420008194200082DE9F04F87B00446A8
:102C500014216846FDF7EEFA734FDFF8C881D4F807
:102C600000C07148122601210322042310370025D9
:102C70004FF4806BC4455BD1D0F800C04CF0020C1F
:102C8000C0F800C000680DF1080800F002000590CF
:102C900088E80E00C020CDE9000669466348FFF7CA
:102CA00023FB386840F4001038603868614E00F447
:102CB000001005905E4830604FF00079C6E901953C
:102CC000C6E9035B75614FF44038B561C6E9075842
:102CD0005F4630467562FFF753FA08B1FEF7B1F868
:102CE000A663B463534E524860361830E6E80209D2
:102CF0004020A1C64F4846F814596030B561C6E976
:102D000007587562FFF73CFA08B1FEF79AF8666358
:102D1000002201211F20B46300F000F91F2000F001
:102D2000EFF800220821202000F0F8F8202073E0BE
:102D3000DFF80481C44571D1D0F800C04CF0040C18
:102D4000C0F800C0D0F800C00CF0040CCDF814C0DE
:102D5000D0F800C04CF0010CC0F800C000688846F4
:102D600000F0010005904FF4007091469A468DE8FE
:102D7000410769463148FFF7B7FA4FF480708DE894
:102D8000410769462E48FFF7AFFA386840F4000063
:102D900038603868274E00F4000005902448C0369B
:102DA000483830604FF0C067C6E90175C6E9035B7B
:102DB00075614FF44038B561C6E90758D9463046C9
:102DC0007562FFF7DDF908B1FEF73BF8A663B4635F
:102DD00017481C4E1838E6E802074020A6E82102F2
:102DE000184846F81459B561C6E907587562FFF7E7
:102DF000C7F908B1FEF725F86663002201214820D3
:102E0000B46300F08BF8482000F07AF80022082123
:102E1000492000F083F8492000F072F807B0BDE8BF
:102E2000F08F00000054004030380240000402409F
:102E300088600240C4030020005C0040000802409B
:102E400000000240E4040020704770470248816897
:102E50000278114481607047000000200B4810B5D3
:102E6000016841F400710160016841F48061016012
:102E7000016841F480710160032000F06FF80F20B9
:102E800000F006F800F024F8002010BD003C0240DD
:102E900070B50D4D04464FF47A712878B1FBF0F00F
:102EA0000A490968B1FBF0F000F00AFB48B9102CA0
:102EB00007D200222146501E00F030F800206C603E
:102EC00070BD012070BD0000000000200C0000203B
:102ED0000A4808B5016841F480410160006800F4C7
:102EE000804000900548001F016841F0805101605A
:102EF000006800F08050009008BD00004438024097
:102F0000002809DB00F01F020121914040098000E8
:102F100000F1E020C0F8001170470000F0B40E4B43
:102F20001B680C46C3F30223C3F10705042D00D927
:102F30000425191D072901D2002300E0DB1E01260C
:102F400006FA05F1491E214099409E40761E164022
:102F50003143F0BC02F028BF0CED00E0064900F060
:102F6000070208684FF6FF03184040EA0220034AB0
:102F700010430860704700000CED00E00000FA0507
:102F80002DE9F0470E46050065D0DFF81481D8F82A
:102F90000000F7B200F00700B04207D288F80070D6
:102FA000D8F8000000F00700B04254D128683D4C2A
:102FB000810712D5400703D5206840F4E050206017
:102FC0002878000703D5206840F46040206020681E
:102FD000A96820F0F000084320602878C0072DD0B1
:102FE000304968680839012812D0022813D0032814
:102FF00011D00968890700292DDA216821F0030121
:1030000001432160FFF76EFA814641F2883A0EE0F3
:1030100009688903EFE709688901ECE7FFF762FABD
:10302000A0EB0901514502D90320BDE8F0872068D3
:10303000696800F00C00B0EB810FEFD1D8F80010F8
:10304000404601F00701B14207D90770006800F05F
:103050000700B04201D00120E7E72878400705D5F6
:103060002068E96820F4E0500843206028780007D1
:1030700006D52068296920F4604040EAC10020603C
:1030800000F038F82168084AC1F30311515CC840C8
:103090000649086006480068FFF7FAFE0020C4E70A
:1030A000003C0240083802407C6C00080C00002004
:1030B000040000200448054900680968044AC1F377
:1030C0008221515CC84070470C0000200838024043
:1030D0008C6C00080448054900680968044AC1F37B
:1030E0004231515CC84070470C0000200838024053
:1030F0008C6C0008154810B5006810F00C021448DC
:1031000013D04110042A0FD0082A0ED10F4C241FCF
:103110002268236802F03F025B0207D52068C0F3F3
:103120008810A0FB010106E0084610BD2168C1F32C
:103130008811A1FB00010023FDF744F82168C1F3C9
:103140000141491C4900B0FBF1F010BD08380240B4
:103150000024F4002DE9F84F04006ED02078DFF849
:103160004C93C007A9F104054AD009F10400016895
:10317000C1F38101012908D00068C0F38100022851
:103180000AD1D9F80000400206D52868800337D557
:1031900060680028E1D033E06068B0F5803F10D06F
:1031A000B0F5A02F286810D020F48030286028685F
:1031B00020F4802028606068A8B1FFF793F90646E4
:1031C0000DE0286840F48030F4E740F48020286067
:1031D000F7E700BFFFF786F9801B642873D82868DB
:1031E0008003F7D50CE0FFF77DF9064605E000BF48
:1031F000FFF778F9801B6428F0D828688003F7D49B
:103200002078DFF8AC8280074FF0000A3ED5A7484F
:10321000001D016811F00C0F08D00068C0F3810098
:1032200002280BD1D9F80000400207D42868800793
:1032300016D5E068012800D112E033E1E068B8B1AA
:103240000120C8F80000FFF74DF9064605E000BF71
:10325000FFF748F9801B0228C0D828688007F7D5F7
:103260002868216920F0F80040EAC10028600DE0DC
:10327000C8F800A0FFF736F9064604E0FFF732F978
:10328000801B02281FD828688007F7D42078000701
:1032900022D5864F87486169703771B1012101607D
:1032A000FFF720F9064604E0FFF71CF9801B02280F
:1032B00009D838688007F7D50EE0C0F800A0FFF7FE
:1032C00011F9064605E082E0FFF70CF9801B0228A1
:1032D0007DD838688007F7D42078400768D5DFF8B4
:1032E000CCB100270BF13C0BDBF80000C0000BD485
:1032F000DBF8001041F08051CBF80010DBF8000043
:10330000012700F0805000906B4E3068C00510D44B
:10331000306840F480703060FFF7E4F8009005E01A
:10332000FFF7E0F80099401A022850D83068C0052D
:10333000F6D55E4EA0686C3601280FD0052830689F
:1033400010D020F001003060306820F004003060C0
:10335000A068B8B1FFF7C6F800900FE0306840F001
:103360000100F4E740F004003060F7E7FFF7BAF837
:103370000099411A41F28830814266D8306880074E
:10338000F4D50EE0FFF7AEF8009007E0FFF7AAF8DB
:103390000099411A41F28830814256D8306880073E
:1033A000F4D42FB1DBF8001021F08051CBF80010DD
:1033B000A069C8B33D49091D0968C1F3810102290B
:1033C0004AD00228504607D0C8F8600000E03CE030
:1033D000FFF788F804463BE04746C8F86000FFF76F
:1033E00081F8064605E000BFFFF77CF8801B022845
:1033F0002BD828688001F7D4D4E907010843A16AD3
:103400002E4A490802EB0141626A41EA82110843EF
:1034100094F82C1040EA0161C9F8001001203866C8
:10342000FFF760F8044606E03EE000BFFFF75AF8F9
:10343000001B022809D828688001F7D534E000BFB6
:10344000FFF750F8001B022802D90320BDE8F88FCF
:1034500028688001F4D427E00128F7D0D9F80000CB
:10346000E26900F4800191421CD1226A00F03F0120
:10347000914217D147F6C071626A0140B1EB821FD9
:1034800010D1A26A4FF0FF3300F4403103EB520237
:10349000B1EB024F06D194F82C1000F07060B0EB45
:1034A000016F01D00120D1E70020CFE704380240AE
:1034B00000004742800E4742007000400000FFFFBE
:1034C00010B5401EB0F1807F01D3012010BD4FF038
:1034D000E02460610F21601702F066FC0020A0610B
:1034E00007202061002010BD7047704770B590F82C
:1034F0003C20012A32D0012480F83C40022280F88E
:103500003D2003685A689D6822F070060A683243BD
:103510005A60134B02689A4214D0B2F1804F11D016
:10352000104B9A420ED0104B9A420BD00F4B9A423E
:1035300008D00F4B9A4205D00E4B9A4202D00E4B48
:103540009A4204D1496825F080031943916080F8BC
:103550003D40002180F83C10084670BD022070BD3F
:10356000000001400004004000080040000C004042
:1035700000040140004001400018004010B5040064
:1035800003D094F83D0010B107E0012010BD0020E9
:1035900084F83C00204600F01FF8022084F83D002B
:1035A000211D206802F0B6F8012084F8460084F856
:1035B0003E0084F83F0084F8400084F8410084F81D
:1035C000420084F8430084F8440084F8450084F8FD
:1035D0003D00002010BD000008B501681F48B1F192
:1035E000804F11D01E4A914216D1016841F002016C
:1035F00001600068002200F00200009004211D20FC
:10360000FFF78CFC1D2024E0016841F001010160FE
:10361000006800F0010009E0124A914208D10168F7
:1036200041F004010160006800F00400009008BD52
:103630000D4A9142FBD1016841F008010160006828
:10364000002200F00800009005213220FFF766FC00
:103650003220BDE80840FFF753BC0000403802406C
:103660000004004000080040000C004090F83D10AD
:10367000012901D001207047022180F83D10006827
:103680001149884214D0B0F1804F11D00F498842BF
:103690000ED00F4988420BD00E49884208D00E49FF
:1036A000884205D00D49884202D00D49884204D194
:1036B000816801F00701062903D0016841F001018A
:1036C000016000207047000000000140000400403D
:1036D00000080040000C0040000401400040014090
:1036E0000018004090F83D10012901D001207047DA
:1036F000022180F83D100168CA6842F00102CA60E8
:1037000000681149884214D0B0F1804F11D00F49A0
:1037100088420ED00E4988420BD00E49884208D00C
:103720000D49884205D00D49884202D00C49884293
:1037300004D1816801F00701062903D0016841F036
:1037400001010160002070470000014000040040BA
:1037500000080040000C004000040140004001400F
:103760000018004070B5044690F83C000025012880
:1037700017D0012684F83C60022084F83D002068C0
:10378000826822F0770222F47F4282600868502823
:1037900038D00DDC20284FD005DC90B3102811D193
:1037A0004AE0022070BD302846D040280AD13BE0D4
:1037B00060282FD070280DD0B0F5805F03D0B0F511
:1037C000005F12D0012584F83D60002084F83C00A1
:1037D000284670BDCB68D1E90121206802F00FF8BE
:1037E0002068816841F0770109E0CB68D1E90121C7
:1037F000206802F004F82068816841F4804181600B
:10380000E1E719E0CA684968206802F021F950210F
:10381000206806E0CA684968206802F02AF9602139
:10382000206801F0F6FFCEE7CA684968206802F018
:103830000FF940212068F4E7226801461046F0E7BE
:1038400070472DE9F04104460068C66805694FF0ED
:103850000007A90713D5B10711D5F91E0161012091
:103860002077206880698007204602D0FFF7E8FFB4
:1038700004E000F0CFF8204600F061F927776807F0
:1038800016D5700714D521686FF004000861022076
:1038900020772068806910F4407F204602D0FFF72F
:1038A000CFFF04E000F0B6F8204600F048F9277793
:1038B000280715D5300713D521686FF00800086177
:1038C000042020772068C0698007204602D0FFF7D7
:1038D000B7FF04E000F09EF8204600F030F92777AB
:1038E000E80616D5F00614D521686FF010000861BF
:1038F000082020772068C06910F4407F204602D05D
:10390000FFF79EFF04E000F085F8204600F017F96D
:103910002777E80708D0F00706D021686FF001008C
:103920000861204600F070F9280608D5300606D553
:1039300021686FF0800008612046FFF7D5FD68061A
:1039400008D5700606D521686FF040000861204652
:1039500000F09CF9A8060AD5B00608D521686FF0DA
:10396000200008612046BDE8F041FFF7BEBDBDE87C
:10397000F0810000F0B587B0044614216846FCF7DA
:1039800059FC216800251E4803260224B1F1804F0E
:1039900016D01C4A914211D1016841F00801016022
:1039A0000068694600F0080005904FF4E0408DE89B
:1039B00071001548CDF81040FEF796FC07B0F0BD39
:1039C000016841F001010160016801F00101059108
:1039D000016841F0020101600068CDE9006400F077
:1039E00002000127CDE90470CDE902566946074877
:1039F000FEF77AFCB8028DE8F10069460448DBE77F
:103A00003038024000080040000C02400000024034
:103A100000040240704770B5044690F83C00002650
:103A20000D4601280FD0012084F83C006AB1042A19
:103A30001DD0082A2FD00C2A3FD00126002084F860
:103A40003C00304670BD022070BD206801F0EAFEE7
:103A50002068816941F0080181612068816921F055
:103A600004018161206881692A69114311E020689D
:103A700001F008FF2068816941F4006181612068DC
:103A8000816921F480618161206881692A6941EA44
:103A900002218161D2E7206801F02AFF2068C16914
:103AA00041F00801C1612068C16921F00401C161D0
:103AB0002068C1692A69114311E0206801F04CFFB8
:103AC0002068C16941F40061C1612068C16921F4C5
:103AD0008061C1612068C1692A6941EA0221C1612E
:103AE000ACE710B5040003D094F83D0010B107E036
:103AF000012010BD002084F83C00204600F01EF894
:103B0000022084F83D00211D206801F003FE012001
:103B100084F8460084F83E0084F83F0084F84000B2
:103B200084F8410084F8420084F8430084F844009B
:103B300084F8450084F83D00002010BD70477047B0
:103B400010B50446022249B104290ED0082913D029
:103B500094F84100012816D0012010BD94F83E00D1
:103B60000128F9D184F83E200FE094F83F000128A5
:103B7000F2D184F83F2008E094F840000128EBD10E
:103B800084F8402001E084F841200122206801F0FF
:103B900029FE16492068164A884201D0904203D176
:103BA000436C43F4004343642068884213D0B0F16F
:103BB000804F10D00F4988420DD00F4988420AD05B
:103BC0000E49884207D0904205D00D49884202D064
:103BD0000C49884204D1816801F00701062903D00D
:103BE000016841F001010160002010BD00000140AA
:103BF000000401400004004000080040000C0040A8
:103C000000400140001800401A4910B5884210D108
:103C100001F092F9184C84ED060A01F087F984ED61
:103C2000030A1648FDF774F8BDE810401448FDF784
:103C30006FB8144988421CD11048FDF733F8124C74
:103C40000F4884ED010AFDF72DF8B1EE400A84ED2E
:103C5000020AD4ED010A084830EE800AF6EE000AA6
:103C6000143820EE200A84ED030A02F065FF84ED8B
:103C7000000A10BD8C0500204C07002034020020F3
:103C8000600200201C0600205C0000207047704786
:103C900070470000F8B5016804460868CA684B69B7
:103CA00010F00F0F4FF0000559D003F0010602F499
:103CB0009077374365D0C10705D0D10503D5616C36
:103CC00041F001016164410705D5D90703D0616C5A
:103CD00041F002016164810705D5D90703D0616C09
:103CE00041F004016164010707D502F0200131436E
:103CF00003D0616C41F008016164616C00293AD025
:103D0000800604D5900602D5204601F0F9FE206811
:103D10004069616CC0F38010090700D460B320468D
:103D200001F0C7FE20684069400621D520681430A4
:103D300050E8001F21F0400140E80012002AF5D1B0
:103D4000E06BA8B172490165E06BFEF732F900281B
:103D500011D0E06B016D01B0BDE8F040084783066B
:103D60000FD593060DD52046BDE8F84001F0C8BE3A
:103D70002046FFF78DFFF8BD2046FFF789FF6564F9
:103D8000F8BD266B2023012E7ED1C6067CD5D60633
:103D90007AD508684868009048694FF002064006E6
:103DA0004DD5E26B106840684FF480770004000C3A
:103DB0003AD0A18D814237D9E085D069B8422DD063
:103DC00020680C3050E8001F21F4807140E8001298
:103DD000002AF5D12068143050E8001F21F00101BD
:103DE00040E80012002AF5D12068143050E8001F86
:103DF00021F0400140E80012002AF5D184F8423059
:103E0000256320680C3050E8001F21F0100140E8C5
:103E10000012002AF5D1E06BFEF782F86663A08DF0
:103E2000E18D401A81B206E0A18D8142A8D1D0690E
:103E3000B842A5D166632046FFF729FFF8BDA08DE3
:103E4000E18D401A81B2E08D0028F7D00029F5D02D
:103E500020680C3050E8002F22F4907240E80027D0
:103E6000002FF5D12068143050E8002F22F0010215
:103E700040E80027002FF5D184F842302563206800
:103E80000C3050E8002F00E006E022F0100240E87D
:103E90000023002BF3D1CDE705062BD5150629D538
:103EA00094F841002128C9D1A068B0F5805F01D104
:103EB0002069B0B1206A411C216221680078486005
:103EC000E08C401E0004000CE084B7D12068C1687B
:103ED00021F08001C1602068C16841F04001C160EB
:103EE000F8BD206A0088C0F308004860206A801C82
:103EF0002062E5E74006F3D55006F1D5CA682046B2
:103F000022F04002CA6084F8413000F00DF9F8BD9B
:103F1000A55A000870B5040004D094F841000025AB
:103F200010B106E0012070BD84F84050204600F03A
:103F300023F8242084F841002068C16821F400514E
:103F4000C160204601F03EFE2068016921F49041E5
:103F500001612068416921F02A0141612068C1683E
:103F600041F40051C1606564202084F8410084F868
:103F700042006563002070BD70B586B00446142110
:103F80006846FCF757F92468294E0023294A022184
:103F900008252948B44222D1264C1034266846F41C
:103FA00000262660246804F400240594146844F074
:103FB000040414601268CDE9023102F00402059293
:103FC0004FF44062CDE9002104956946FEF78CF973
:103FD000002206213420FEF7A1FF342023E0174EF3
:103FE000B44222D1134C1434266846F020062660D1
:103FF000246804F020040594146844F00404146058
:104000001268CDE9023102F004020592C022CDE926
:10401000002104956946FEF767F900220721472031
:10402000FEF77CFF4720FEF76BFF06B070BD000077
:10403000004C0040303802400008024000140140AB
:1040400090F84230202B01D00220704721B11AB1E4
:104050000023036301F03CBE01207047084910B5FE
:1040600088420BD10748407800F07EFF05490122C5
:10407000BDE81040491C0248FFF7E2BF10BD000038
:1040800064060020400000202DE9F843044690F823
:104090004100984616460D46202802D00220BDE871
:1040A000F88385B17EB100206064212084F841004E
:1040B000FEF718FAA6848146E684A0682027B0F5AA
:1040C000805F02D003E00120E9E7206910B12E46AD
:1040D00000250EE000260CE08021204601F013FEB2
:1040E000A8B9C6B116F8010B21684860E08C401EE3
:1040F000E084E08C4B464FF00002CDF800800028B1
:10410000EAD14FF04001204601F0FDFD40B184F8B6
:1041100041700320C3E735F8020BC0F30800E3E762
:1041200084F841700020BAE77047FEE70148FEF7C7
:10413000E1B900001C0300200148FEF738BA000076
:104140001C0300200148FEF7D5B9000070030020D1
:104150000148FEF72CBA00007003002038B5806BD0
:10416000002190F83D202B4B46F2A8141B68B3FBAE
:10417000F4F3C3EBC30303EB830300933BB15B1E78
:10418000009303681B689B0505D5009BF6E7036C4D
:1041900043F020030364436B03B1D963836B03B122
:1041A000D96303681C6824F480641C604185436BF8
:1041B00003B11965836B03B1196503681C6824F0AA
:1041C00001041C6090F83D402023602C0BD0282473
:1041D00034EA02020FD080F83D3080F83E1000BF74
:1041E000FEF7FDFA38BD80F83D3080F83E100164DE
:1041F000FEF77EF938BD0268136843F001031360CF
:104200000268136843F480631360016380F83D40E3
:10421000E6E700000C00002070B5846B0025616BA0
:1042200001B1CD63A16B01B1CD63FDF7D4FE0228CE
:1042300011D02068016821F480610160658520202B
:1042400084F83D0084F83E50206C40F0100020645B
:104250002046FEF7C4FA70BD2DE9F041846B94F856
:104260003D2094F83E50E16A2068436823F440738F
:104270004360636B002003B1D863A36B03B1D863C1
:10428000212333EA02074FF022060CD036EA020758
:1042900001D1202D07D094F83E20002A21D0628D34
:1042A000012A20D024E021684D6825F400654D6086
:1042B00060852820292A02D02A2A07D00CE023630F
:1042C00084F83D002046FEF7C0FD05E0266384F833
:1042D0003D002046FEF7B8FD2068416841F440717A
:1042E0004160BDE8F0812268136823F480631360A5
:1042F0002268536823F44073536011F5803F06D061
:10430000082904D0B1F12A4F01D0202904D1226814
:10431000136843F4007313602268536823F48053D6
:1043200053602268536823F4006353606085226CF5
:104330001AB12046FEF753FAD3E7202284F83D2035
:1043400094F83E2084F83E00402A09D0082902D083
:10435000202900D0122020632046FEF712FBC0E780
:1043600020632046FEF740FBBBE700684169C94374
:10437000090601D4002101617047000070B50446B0
:1043800090F83D0094F83E10102901D0402906D144
:10439000222804D121680A6822F400620A602821D8
:1043A00031EA00024FF000054FF0200626D02168C8
:1043B0004968090505D4602803D084F83D6084F875
:1043C0003E50256320684168090537D5416821F4CE
:1043D00000614160606B90F835203C49012A11D0A2
:1043E0000165606BFDF7E5FD38B32068016821F0D9
:1043F0000101016084F83D60606B1CE0256384F876
:104400003D10DFE7A06B0165A06BFDF7D2FDA0B109
:1044100020684169C943490605D40069616A08708A
:10442000606A401C60622068016821F0010101603F
:1044300084F83D60A06B016D884710E094F83D1052
:10444000602910D04169C943490605D40069616AF1
:104450000870606A401C60622046FEF7C0F9206C5C
:10446000C1071CD115E084F83D6025644169C9434A
:10447000490605D40069616A0870606A401C606280
:104480002068016821F0010101602046FEF730F844
:10449000E5E7810703D4410701D4000704D520686C
:1044A000416821F4E061416094F83D00216C4907C6
:1044B0000BD5282809D10648E062256384F83D60C1
:1044C00084F83E502046FEF75BFA70BD5D4100085F
:1044D0000000FFFF01684A69D24352050FD46FF410
:1044E00080624A61002140F8301F202242738173AC
:1044F000026942F00402026101730120704700204A
:10450000704710B5C26A438D0168042B06D0438DF5
:10451000032B08D0438D022B1DD012E04A6822F4F1
:1045200080624A600CE04B6823F480634B60042A8D
:1045300006D0022A04D001680A6822F480620A6068
:1045400001680969426A1170416A491C4162418DE2
:10455000491E418510BD012A34D0102A32D0042AC8
:1045600034D0022A32D00B6843F400730B60016828
:104570000969436A1970416A491C4162438D5B1E97
:10458000438503681B690B70416A491C4162418D78
:10459000491E418501684B6823F440734B6020211C
:1045A00080F83D1090F83E300021402B80F83E10FE
:1045B00010D0082A02D0202A00D012210163FEF771
:1045C000E0F910BD0B6823F48063CFE70B6843F478
:1045D0008063CBE70163FEF707FA10BD38B590F8AA
:1045E0003D10222910D1C36A418D03290DD90168DC
:1045F0000969426A1170416A491C4162418D491E34
:104600004185418D032906D038BDC26A022A02D0F5
:10461000012906D029B10068416821F48061416018
:1046200038BD2A4A46F2A81400211268B2FBF4F2FF
:1046300002EB8202009202682024009D6D1E00950C
:1046400026D01568AD05F8D4156825F48065156089
:104650000268556825F4E065556002681269456A8C
:104660002A70426A521C4262428D521E428580F874
:104670003D4090F83E2080F83E10402A21D0082B83
:1046800002D0202B00D012210163FEF77AF938BD49
:10469000036C43F020030364536823F4E063536026
:1046A00002681269436A1A70426A521C4262428D61
:1046B000521E428580F83D4080F83E10FEF78FF88C
:1046C00038BD0163FEF790F938BD00000C000020F2
:1046D00010B5C26A90F83D1021290BD1418D51B11E
:1046E000416A026809781161416A491C4162418D41
:1046F000491E418510BD20230021082A13D0202AFD
:1047000011D012F5803F0ED00268546824F4E064A2
:1047100054601122026380F83E1080F83D3000BFE3
:10472000FEF730F910BD0268546824F4E064546068
:104730000268146844F400741460016380F83D302A
:1047400090F83E2080F83E10402AE9D1FEF794F917
:1047500010BD000010B590F83D1090F83E30C26AD0
:10476000048DB4B1212903D0402B11D122290FD1BE
:10477000418DE1B390F83E10402942D0416A026871
:1047800009781161416A491C4162418D491E418588
:1047900010BD2129E8D120230021082A13D0202A86
:1047A00011D012F5803F0ED00268546824F4E06402
:1047B00054601122026380F83E1080F83D3000BF43
:1047C000FEF7E0F810BD0268546824F4E064546019
:1047D0000268146844F400741460016380F83D308A
:1047E00090F83E2080F83E10402AE9D100E002E037
:1047F000FEF742F910BD0068416821F48061416014
:1048000010BDBDE8104000F0D3B8000078B590F8B6
:104810003E50C26A036B90F83D6000240168222E6E
:104820007AD1066D0EB9402D76D0056D1DB905699A
:10483000B5F5404F09D0458D05B3468D384D012E55
:104840000ED0438D022B3AD05DE04A698A6900920E
:104850000A6842F480720A60016D491C016578BDE6
:10486000AA4213D10A6822F480620A6001684A6889
:10487000120503D50A6822F4806216E04A698A6943
:1048800000920A6842F400720A6039E0082A10D0E7
:10489000202A0ED0122B0AD0042A03D0022A01D0DB
:1048A000102AE7D10A6842F480620A6024E0012AF3
:1048B000E0D00A6822F480620A600168DEE7042A18
:1048C00021D0022A1FD0102A1DD00B6823F4806348
:1048D0000B6001680B6843F400630B6001684B6870
:1048E0001B0509D5AA4212D0012A10D0082A0ED0E1
:1048F000102A0CD0202A0AD001684A6989690091DF
:10490000046578BD08E00B6843F48063E5E74A6816
:1049100042F480524A60EFE7486988690090F0E706
:104920000000FFFF90F83E10402910D00169B1F55A
:10493000804F19D0016DA9B3016D012910D1416CCF
:104940005FF0F10201F4407142EAD11106E0016D1D
:104950000029416C05D0C9B241F001010068016134
:10496000704701F0FE01F9E790F83D102129416CF4
:1049700009D0C9B241F0010102681161416B29B14E
:10498000C96B49B902E001F0FE01F5E7816B00292E
:10499000E6D0C96B0029E3D00068416841F40061AA
:1049A00041607047FFE7416CF02201F44071CBE7B2
:1049B00010B590F83D10026D4AB1026D012A14D075
:1049C000026D022A16D0BDE81040FFF7CEBCC16CC4
:1049D0000129816C02D0C1F3072108E00268C9B245
:1049E0001161016D891C016510BD816CC9B202683D
:1049F000116123E022291CD0428D0AB1212920D047
:104A0000428D002AF0D12129EED101684A6822F4B2
:104A1000E0624A6001680A6842F400720A6000219C
:104A20000163202280F83D2080F83E10FEF724F834
:104A300010BD01680A6842F480720A60016D491C69
:104A4000D1E7416A026809781161416A491C4162F3
:104A5000418D491E418510BD2DE9F84F044600687F
:104A600089460B9D01689846174641F480610160B4
:104A70002068016841F48071016000954FF0011BCE
:104A80000022594620460A9B00F07EF94FF4007A36
:104A900040B120680068C00501D5C4F840A00320DB
:104AA000BDE8F88F216809F0FE0008612B4628490F
:104AB00020460A9A00F0B0F9F0BB2068416980698D
:104AC00000902A4620460A9900F004FA40B1206C72
:104AD00004283AD12068016841F40071016034E093
:104AE000FEB2B8F1010F09D02168380A08612A46E0
:104AF00020460A9900F0EEF90028E8D12068066106
:104B00002A4620460A9900F0E5F90028DFD12068FE
:104B1000016841F4807101600095002259462046E9
:104B20000A9B00F031F90028B3D1216809F0FF0099
:104B300040F00100086100E007E02B4604492046F0
:104B40000A9A00F069F90028AAD00120A8E700001D
:104B50000200010038B50C4690F83D2000212825C0
:104B6000954302680B4605D051699169009180F820
:104B70003C3038BD556825F480655560E2435407E4
:104B800000D50121120601D5828900E0028B80F850
:104B90003C3092B2FDF7ADFC38BD00002DE9F0418C
:104BA00090F83D300446C26A002120261E4F00685E
:104BB0006FF48065082A01D0202A01D1282B04D067
:104BC000212B17D04561BDE8F081E762426822F4ED
:104BD000E0624260206845612068026822F48062D9
:104BE0000260216384F83D6084F83E102046FDF7A2
:104BF000C7FEE8E7E7622122226384F83D6084F87B
:104C00003E10416821F4E061416020684561206800
:104C1000016821F4806101602046FFF7A6FB204671
:104C2000FEF713F9CFE700000000FFFFF8B590F89A
:104C30003D6004460068416821F4E06141602068FD
:104C4000002541690091016841F00101016020687F
:104C5000016821F48061016020684168090520D560
:104C6000474F222E48D02A2E46D0616B09684968EA
:104C70006185618D19B1216C41F0040121644168A5
:104C800021F400614160606BFDF7A7F9012808D0AD
:104C9000606B0765606BFDF78CF910B1606B016D9F
:104CA0008847608D08B320684169C943490708D423
:104CB0000069616A0870606A401C6062608D401E15
:104CC000608520684169C943490608D40069616A62
:104CD0000870606A401C6062608D401E6085608D57
:104CE00018B1206C40F004002064206C00B3204612
:104CF000BDE8F840FFF742BBA16B096849686185D0
:104D0000618D19B1216C41F004012164416821F4E5
:104D100000614160A06BFDF760F90128C1D0A06B74
:104D20000765A06BFDF745F90028BAD0A06BB6E780
:104D30002A2E06D12563282084F83D002046FEF760
:104D400083F894F83D10202028290DD0216B2229CA
:104D500001D0222E07D1256384F83D0084F83E500F
:104D60002046FEF771F8F8BD0649E162256384F834
:104D70003D0084F83E502046FDF702FEF8BD0000DD
:104D80005D4100080000FFFF2DE9F04798461746F7
:104D90000D460446C1F30746DDF820902AE000BF27
:104DA000B8F1FF3F26D0FDF79DFBA0EB090141457F
:104DB00002D8B8F1000F1DD12068012E16D08069ED
:104DC00025EA00000004000C12D00020B84211D1E6
:104DD000002044F8300F20216173A073216941F055
:104DE0002001216120730120BDE8F0874069E7E7D9
:104DF0000120EBE72068012E0AD0806925EA000037
:104E00000004000C06D00020B842C9D00020EBE717
:104E10004069F3E70120F7E72DE9F0479846164689
:104E20000D4604464FF000094FF0200AC1F3074732
:104E300023E020684069C043400515D4206801681C
:104E400041F40071016021686FF480604861C4F82A
:104E5000309084F83DA084F83E90216C41F004012C
:104E6000216484F83C9021E0701C06D0FDF73AFBE9
:104E7000A0EB0800B04203D816B1012F1FD021E0EB
:104E80002068012F15D0806925EA00000004000C7D
:104E900018D000BF44F8309F84F80DA084F80E901D
:104EA000216941F02001216184F80C900120BDE8C6
:104EB000F087406925EA00000004000CEAD1206870
:104EC000406901E02068806925EA00000004000CC8
:104ED000AFD1ECE770B516460D4604461EE02046FD
:104EE000FFF7F8FA08B1012070BD681C16D0FDF775
:104EF000F9FA801BA84200D885B920684069C043F0
:104F000000060BD5002044F8300F20216173A073F8
:104F1000216941F0200121612073E4E720684069A4
:104F2000C0430006DBD4002070BD0000014890EDB6
:104F3000030A704704070020014890ED060A7047F5
:104F40000407002010B528210448FBF773F9BDE8D9
:104F50001040012202490348FFF772B804070020FD
:104F6000410000206406002070B54A4A13780BB94E
:104F700055287CD14849C8545B1CD8B210700B2806
:104F800075D3002318460C5C401C2344C0B2DBB22E
:104F90000A28F8D3887A0024984279D13E484B7881
:104FA0002838512B04D0522B2FD0532B70D14DE0E9
:104FB000B1F90260B1F9045000EE106AB1F906309F
:104FC000B1F90810F8EEC00A92ED010A60EE800A0D
:104FD000C0ED000A00EE905AF8EEE00A60EE800A9A
:104FE000C0ED010A00EE903AF8EEE00A20EE800AE9
:104FF000DFED2A0A80ED020A00EE101AB8EEC00AB0
:1050000080EE201A80ED091A42E0B1F90250B1F9A0
:10501000043000EE105AB1F90610F8EEC00A9FED08
:10502000200A60EE800AC0ED030A00EE903AF8EE26
:10503000E00A60EE800AC0ED040A00EE901AF8EE75
:10504000E00A20EE800A80ED050A21E0B1F9025065
:10505000B1F9043000EE105AB1F90610F8EEC00AAA
:105060009FED100A60EE800AC0ED060A00E010E035
:1050700000EE903AF8EEE00A60EE800AC0ED070A12
:1050800000EE901AF8EEE00A20EE800A80ED080AA1
:10509000147070BD400000202C0700200000C842A2
:1050A00000007A3D0000B43BF0B58DB000250895B6
:1050B00009950A95202168460B95FBF7BBF8254812
:1050C0002349012401604FF480310461C0E90115D6
:1050D000057680F820502049C0E90A15C560C461F2
:1050E00080F830504461FCF788FE08B1FBF7A9FE58
:1050F000052603200896CDE9094008A91548FCF7C4
:105100003DFD08B1FBF79DFE0820CDE900044004F9
:10511000029407904FF44030022706908DF8155006
:1051200004978DF8145069460A480395FCF768FA0D
:1051300008B1FBF786FE69460648CDE90067FCF733
:105140005FFA002801D0FBF77CFE0DB0F0BD000037
:10515000002101408C0200200100000FF0B58DB04D
:105160000025089509950A95202168460B95FBF7BF
:1051700061F825482349012401604FF4803104611E
:10518000C0E90115057680F820502049C0E90A15CC
:10519000C560C46180F830504461FCF72EFE08B150
:1051A000FBF74FFE0A2603200896CDE9094008A91F
:1051B0001548FCF7E3FC08B1FBF743FE0D20CDE9F1
:1051C00000040227F804029407904FF41020069080
:1051D0008DF8155004978DF8145069460A480395C8
:1051E000FCF70EFA08B1FBF72CFE69460648CDE93C
:1051F0000067FCF705FA002801D0FBF722FE0DB08E
:10520000F0BD000000220140D40200200100000F88
:10521000154808B5016841F40011016000680022DA
:1052200000F40010009001210D20FDF777FE0D2005
:10523000FDF766FE002201210F20FDF76FFE0F2013
:10524000FDF75EFE002201211020FDF767FE102011
:10525000FDF756FE002201211120FDF75FFEBDE89B
:1052600008401120FDF74CBE3038024000B587B031
:1052700014216846FAF7DEFF1A480021026842F05E
:1052800080020260026802F080020592026842F029
:1052900004020260026802F004020592026842F011
:1052A00001020260026802F001020592026842F007
:1052B00002020260026802F002020592026842F0F5
:1052C000080202600068029100F0080005904FF4A7
:1052D0004050CDE9000169460348FDF705F807B0E5
:1052E00000BD000030380240000402400D4810B5F7
:1052F0000B4901600C49416000214FF480428160FC
:10530000C0E9031241618161C1610162FDF774FA74
:10531000002803D0BDE81040FBF793BD10BD00008E
:10532000005400401C030020A08601000D4810B569
:105330000B4901600C49416000214FF480428160BB
:10534000C0E9031241618161C1610162FDF754FA54
:10535000002803D0BDE81040FBF773BD10BD00006E
:10536000005C004070030020A086010010B58EB0E4
:1053700000240794089409940A940B941C2168460D
:105380000C94FAF757FF2C484FF08041C0E9001405
:105390002021816040F63301C0E90314802181613E
:1053A000FEF7ECF808B1FBF74CFD4FF48050079086
:1053B00007A92148FEF7D6F908B1FBF742FD1E48C0
:1053C000FEF78FFB08B1FBF73CFD7020CDE90B0425
:1053D0000BA91948FEF78AF808B1FBF732FD6020E7
:1053E000009040F21A40CDE90104002269461248BB
:1053F0000494FEF710FB08B1FBF723FD0422694675
:105400000D48FEF708FB08B1FBF71BFD08226946B3
:105410000948FEF700FB08B1FBF713FD0C226946B3
:105420000548FEF7F8FA08B1FBF70BFD0248FEF756
:10543000A1FA0EB010BD00004405002010B586B0E2
:10544000002417480094019402940394049413498F
:1054500005940160A721C0E9011440F2F311C0E9ED
:1054600003148461FEF78AF808B1FBF7EAFC4FF4F5
:105470008050009069460A48FEF774F908B1FBF7BE
:10548000E0FC049404A906480594FEF72FF80028D0
:1054900001D0FBF7D6FC06B010BD000000040040B0
:1054A0008C05002010B58EB0002407940894099450
:1054B0000A940B941C2168460C94FAF7BBFE2C4806
:1054C0002A49C0E900142021816040F63301C0E977
:1054D000031480218161FEF751F808B1FBF7B1FC9C
:1054E0004FF48050079007A92148FEF73BF908B117
:1054F000FBF7A7FC1E48FEF7F4FA08B1FBF7A1FC86
:105500007020CDE90B040BA91948FDF7EFFF08B196
:10551000FBF797FC6020009040F21A40CDE90104AF
:105520000022694612480494FEF775FA08B1FBF7A9
:1055300088FC042269460E48FEF76DFA08B1FBF7B5
:1055400080FC082269460A48FEF765FA08B1FBF7B5
:1055500078FC0C2269460648FEF75DFA08B1FBF7B5
:1055600070FC0348FEF706FA0EB010BD00080040BC
:10557000D405002010B586B000241748009401948B
:10558000029403940494134905940160A721C0E98F
:10559000011440F2CF71C0E903148461FDF7EEFFFE
:1055A00008B1FBF74EFC4FF48050009069460A4862
:1055B000FEF7D8F808B1FBF744FC049404A90648A8
:1055C0000594FDF793FF002801D0FBF73AFC06B0E5
:1055D00010BD0000000C00401C0600200C4810B557
:1055E0000A4901604FF416514160002181600C228C
:1055F000C160C0E904128161C161FEF78BFC002823
:1056000003D0BDE81040FBF71CBC10BD004C0040AF
:10561000640600200C4810B50A4901604FF4E121EE
:105620004160002181600C22C160C0E904128161E7
:10563000C161FEF76FFC002803D0BDE81040FBF706
:1056400000BC10BD00140140AC060020FEE7FEE7E0
:1056500070477047FDF7FABB30B593B0302168460C
:10566000FAF7E8FD14210CA8FAF7E4FD1D4800251F
:10567000016841F080510160006800F08050119095
:105680001948016841F4804101600068022400F477
:105690008040119001200090000401908001CDE92C
:1056A000064008AA0420A82182E813000B9068464F
:1056B000FDF750FD08B172B6FEE70CA90F2081E896
:1056C00031004FF4A0500F904FF4805010900521FE
:1056D0000CA8FDF755FC002801D072B6FEE713B008
:1056E00030BD0000403802400070004002480168B0
:1056F00041F470010160704788ED00E00148FEF759
:10570000A0B800008C0500200148FEF79AB8000000
:105710001C060020F0B50268274B284D284E294F63
:10572000294C4FF0804C984209D0604507D0A842E0
:1057300005D0B04203D0B84201D0A04204D122F03B
:10574000700E4A6842EA0E0298421BD0604519D09A
:10575000A84217D0B04215D0B84213D0A04211D001
:105760001A4DA8420ED01A4DA8420BD0194DA8428E
:1057700008D0194DA84205D0184DA84202D0184DA6
:10578000A84203D122F44075CA682A434D6922F029
:1057900080022A438D68C5620D688562984201D0F7
:1057A000A04201D109690163016841F0040101606F
:1057B000012141610260F0BD000001400004004091
:1057C00000080040000C004000040140004001407F
:1057D000004401400048014000180040001C004007
:1057E0000020004010B501F01F030121046A994018
:1057F0008C430462016A9A401143016210BD10B5E6
:10580000846842EA032224F47F440A4322438260EC
:1058100010BD826822F070020A4342F007018160E5
:1058200070470000F0B5036A026A22F001020262CA
:1058300042688469124E24F073050C682C4323F0EF
:1058400002058B682B430D4DA84201D0B04205D113
:1058500023F00807CB683B4323F00403A84201D0A0
:10586000B04205D14D6922F4407215438A692A433A
:1058700042608461496841630362F0BD00000140F9
:1058800000040140F0B5026A036A23F010030362CA
:10589000436884690D6824F4E64444EA05248D686D
:1058A00022F0200242EA05120F4D104EA84201D00C
:1058B000B04206D1CF6822F0800242EA071222F0FD
:1058C0004002A84201D0B04207D14D6923F44063A1
:1058D00043EA85038D6943EA85034360846149682F
:1058E00081630262F0BD000000000140000401403D
:1058F000F0B5026A036A23F4807303624368C469E3
:1059000022F4007224F073050C68124E2C438D684B
:1059100042EA05220E4DA84201D0B04206D1CF681E
:1059200022F4006242EA072222F48062A84201D0F7
:10593000B04207D14D6923F4405343EA05138D6902
:1059400043EA05134360C4614968C1630262F0BD64
:10595000000001400004014030B5046A026A22F4EC
:10596000805202624268C3690D6823F4E64343EA49
:1059700005238D6824F4005444EA0534084DA842F8
:1059800002D0084DA84204D14D6922F4804242EA77
:1059900085124260C36149680164046230BD000041
:1059A0000000014000040140134910B50C68E06A92
:1059B00001EE900AF8EE611A20EE210ABCEEC00A50
:1059C00010EE102A00EE100A6263B8EE400A20EED4
:1059D000800ABCEEC00A10EE103A00EE100AB8EED3
:1059E000400A21EE000ABCEEC00A10EE100A0A6856
:1059F00093630968C86310BD44050020134910B5BE
:105A00000C68E06A01EE900AF8EE611A20EE210AB5
:105A1000BCEEC00A10EE102A00EE100A6263B8EE67
:105A2000400A20EE800ABCEEC00A10EE103A00EEEA
:105A3000100AB8EE400A21EE000ABCEEC00A10EED1
:105A4000100A0A6893630968C86310BDD405002072
:105A500010B5036A046A24F001040462846924F026
:105A6000F00444EA021423F00A020A438461026249
:105A700010BD10B5036A046A24F01004046284693E
:105A800023F0A00324F4704444EA023243EA0111F3
:105A90008261016210BD00000148FEF7FBB8000002
:105AA0006406002010B5806B0021C185FEF7F0F878
:105AB00010BD01680C3151E8002F22F4907241E8CA
:105AC0000023002BF5D10168143151E8002F22F09A
:105AD000010241E80023002BF5D1016B012909D116
