:020000040800F2
:10000000600C0020A10100081B4E00089739000871
:10001000194E00084D0D00081156000800000000A0
:100020000000000000000000000000001F4E00085B
:10003000250E0008000000001D4E0008214E00089B
:10004000BB010008BB010008BB010008BB010008A0
:10005000BB010008BB010008BB010008BB01000890
:10006000BB010008BB010008BB010008BB01000880
:10007000BB010008510D0008BB0100085D0D000820
:10008000BB010008BB010008750A0008BB0100089D
:10009000BB010008BB010008BB010008BB01000850
:1000A000BB010008BB010008BB010008BB01000840
:1000B000BB010008BB010008BB010008A53900080E
:1000C00099390008BB010008BB010008BB0100080A
:1000D000BB010008BB010008BB010008BB01000810
:1000E000BB010008BB010008BB010008BB01000800
:1000F000BB010008BB010008BB010008BB010008F0
:10010000BB010008BB010008C94E0008BB01000884
:10011000B1510008BB010008BB010008BB01000889
:10012000690D0008BB010008750D0008BB0100083F
:10013000BB010008BB010008BB010008BB010008AF
:10014000BB010008BB010008BB010008BB0100089F
:10015000BB010008BB010008BB01000805560008F0
:10016000BD390008B1390008BB010008BB01000817
:10017000BB010008BB010008BB0100080000000033
:10018000BB010008BB010008DFF810D000F05EFAE8
:100190000048004725660008AFF30080600C00208F
:1001A0000648804706480047FEE7FEE7FEE7FEE711
:1001B000FEE7FEE7FEE7FEE7FEE7FEE7B94E0008D2
:1001C000890100082DE9F05F0546002092469B4614
:1001D00088460646814640241BE02846414647465D
:1001E000224600F06AF853465A46C01A914110D38D
:1001F00011461846224600F051F82D1A67EB010807
:100200004F4622460120002100F048F817EB000974
:100210004E41201EA4F10104DFDC484631462A4647
:100220004346BDE8F09FD2B201E000F8012B491E21
:10023000FBD270470022F6E710B513460A46044683
:100240001946FFF7F0FF204610BD00F0004230F0E5
:1002500000400AD0C10D01F56071C0F3160042EAFA
:100260000151C20840071143704700200146704702
:1002700030B50B46014600202022012409E021FA76
:1002800002F59D4205D303FA02F5491B04FA02F573
:100290002844151EA2F10102F1DC30BD202A04DB46
:1002A000203A00FA02F1002070479140C2F1200389
:1002B00020FA03F3194390407047202A04DB203AC8
:1002C00021FA02F00021704721FA02F3D040C2F176
:1002D000200291400843194670472DE9FE4F8046A1
:1002E00081EA0300C00F0C46009021F0004123F08A
:1002F0000045B8EB0200A94105D240462146904690
:100300001C460B46024623F00040104347D0270D01
:10031000C7F30A00C3F30A510290401A0190402823
:100320006BDAC3F3130040F4801B0098924620B1AF
:100330000023D2EB030A63EB0B0B01985946C0F183
:1003400040025046FFF7AAFF06460D465046594662
:10035000019A00F08DF910EB08006141002487EA52
:10036000115284EAE7731A4340D0009A62B3019AAB
:10037000012A4FEA075215DC001B61EB02014FF026
:10038000004202EA0752CDE90042001C41F580110B
:1003900032462B4600F08DF903B0BDE8F08F4046A1
:1003A0002146F9E7001B61EB0201001C41F58013B7
:1003B00000185B412018A2F5001747EB030140EA43
:1003C000D570B6196D4111E06D084FEA360645EA61
:1003D000C0754FEA0752001B61EB0201001C41F59A
:1003E000801149084FEA30000019514132462B462E
:1003F00003B0BDE8F04F00F04DB900980122400075
:100400000023D0EB020263EBE073009821464FEA31
:10041000E074B8EB000061EB0401E9E783F000430E
:100420005BE781F0004158E72DE9FE4F81EA0304C4
:1004300004F0004421F0004100944FF0000B23F041
:10044000004350EA01045ED052EA03045BD0C3F3D8
:100450000A54C1F30A552C44A4F2F3340194A0FBCE
:100460000254C1F3130141F48011C3F3130343F4A5
:10047000801301FB024400FB034E840A970A44EAFE
:10048000815447EA8357A4FB076802958D0A05FB50
:1004900007854FEA932C04FB0C542705029D4FEA75
:1004A000065847EA1637B5EB08056EEB070C870EC2
:1004B000920E47EA811742EA8312A7FB0201B6EBCC
:1004C0000B0164EB00042B0D43EA0C335E1844EB84
:1004D0001C50DA465146E7FB0201C5F313044FEA0C
:1004E0000B3343EA14534FEA0432019C43EA0603F8
:1004F000A4F10C040294009CCDE900B400F0D9F8FA
:1005000003B0BDE8F08F00200146F9E72DE9F04D7A
:1005100081EA030404F0004B21F0004514464FF03B
:10052000000A23F0004150EA050220D054EA0102FB
:100530001DD0C5F30A570246C5F31303C1F31300D8
:10054000C1F30A5640F4801543F48013A7EB060864
:10055000101BD64608F2FD3873EB050002D308F1F4
:10056000010801E092185B41B8F1000F03DA0020A6
:100570000146BDE8F08D00204FF480110646844608
:100580000EE0171B73EB050705D3121B63EB050386
:1005900006434CEA010C49084FEA300092185B41CF
:1005A00050EA0107EDD152EA030012D082EA0400BA
:1005B00083EA0501084305D0101BAB4106D2012296
:1005C000002306E000224FF0004302E06FF001023A
:1005D00053101AEB06004CEB085110EB0A0041EBEC
:1005E0000B01BDE8F04D00F055B8C1F30A52C1F35C
:1005F000130140F2FF3341F480119A4202DA0020E5
:100600000146704740F233439A42A2F2334202DC81
:100610005242FFF752BEFFF741BE000030B5041E44
:1006200071F1000404DB4FF00044404264EB01012F
:10063000141E73F1000405DB1C464FF000435242C8
:1006400063EB0403994208BF904230BD064C074D4E
:1006500006E0E06840F0010394E807009847103492
:10066000AC42F6D3FFF794FD3C6B00085C6B0008CE
:10067000202A06DBCB17203A41FA02F043EAE07366
:1006800006E041FA02F3D040C2F120029140084353
:100690001946704710B5141E73F1000408DA401CA7
:1006A00041F1000192185B411A4301D120F0010091
:1006B00010BD2DE9F04D92469B4611B1B1FA81F281
:1006C00002E0B0FA80F220329046FFF7E7FD0446E0
:1006D0000F4640EA0A0041EA0B0153465A460843D6
:1006E00013D0114653EA010019D0C8F14002504618
:1006F000FFF7E3FD05460E46504659464246FFF7D2
:10070000CDFD084305D0012004E020463946BDE870
:10071000F08D0020054346EAE0762C4337430A98E3
:100720006305E40AA0EB08000022FD0A44EA4754EE
:100730000A3002D500200146E9E701051019694198
:10074000DDE9084500196941BDE8F04DA2E7000068
:100750002DE9F05F23494FF0000846460A684546F8
:1007600044464FF47A79C2F834800A68C2F8388077
:100770000968C1F83C801C490A68C2F834800A68DC
:10078000C2F838800968C1F83C804FF4FA7001F073
:10079000CDFADFF858A000270AF1040BBAF80200DE
:1007A000BAF800200644BBF80200BBF8001004446D
:1007B00090440D440A2001F0B9FA7F1C4F45EDDB4F
:1007C0004846B8FBF0F2094918398A81B6FBF0F2C5
:1007D000CA81B5FBF9F2B4FBF9F00A824882BDE8A0
:1007E000F09F000000040020480400204800002082
:1007F0000249887800228A7070470000300000208B
:1008000010B50146806B026C12F0500F05D0026CDF
:10081000D20626D500F059FE10BD016C41F40071DE
:10082000016401688A6812F0405F17D1027EAAB99C
:10083000CA6A12F4700F02D08A6852050ED44A6850
:1008400022F020024A60016C21F480710164016C85
:10085000C90403D4016C41F00101016400F032FECF
:1008600010BD806BC26CBDE810400846104710B543
:10087000806B40210164416C41F00401416400F04F
:1008800024FE10BD10B5806B00F01EFE10BD0000F0
:1008900070B564492DED048B00680968DFED628A4C
:1008A0009FED628A0125624C88425AD104F11800FA
:1008B0000188A1804088E080A088A189401AE18851
:1008C000E2898E1A05F080FDB0EE409A304605F0C0
:1008D0007BFD5849A08A574A01EB800194ED0C1A20
:1008E000D1ED000A403202EB800231EE601AD2ED07
:1008F000000AD4ED0D1A81ED009A31EE091A71EE5D
:10090000E00A82ED000A84ED0C1A401C70EE800AA9
:1009100000F00F0021EE280AC4ED0D0AA08260EE5F
:10092000A80A2078B8B194ED081A30EE411A94ED77
:10093000080A01EE080A84ED080A94ED090A70EE2F
:10094000C00A94ED090A00EE880A84ED090AA57030
:10095000BDEC048B70BD84ED080AC4ED090A257056
:10096000F5E7354909688842F2D131481C300188E1
:100970002181408860812089218A401A6189628AA8
:100980008E1A05F021FDB0EE409A304605F01CFDB0
:100990002849E08A803101EB8001F0EE400A91EDB8
:1009A000000A94ED0E1A234AC03271EE401A02EB8F
:1009B000800294ED0F1A92ED000A81ED009AC2EDCB
:1009C000000A31EE401A31EE890A401C00F00F0097
:1009D00031EE201A84ED0E0A60EE280A84ED0F1A1B
:1009E000E08221EE280A6078A8B194ED0A1A30EE70
:1009F000C11AD4ED0A0A41EE080AC4ED0A0AD4ED80
:100A00000B0A70EE600A94ED0B0A00EE880A84ED82
:100A10000B0AE5709CE7C4ED0A0A84ED0B0A6570C9
:100A2000F7E70000080200200000803D9A99193E77
:100A300030000020280600205002002005480178E0
:100A400011B190ED080A704781888089081A05F075
:100A5000BBBC0000300000200548017811B190EDCA
:100A6000090A7047C188C089081A05F0ADBC0000AA
:100A70003000002010B5054800F028FD044800F0C3
:100A800025FDBDE81040034800F020BDC001002056
:100A90000802002050020020464910B54A6822F49E
:100AA00040324A604A6843681A434A6001684A68AB
:100AB00022F480724A6001684A68036942EA0322AC
:100AC0004A6001684A6822F040724A6001684A68D8
:100AD00083681A434A6001688A6822F400628A6067
:100AE00001688A68C3681A438A60816A6FF070621D
:100AF000D14201688A6822F070628A6001688A685F
:100B00000CD0836A1A438A6001688A6822F04052D6
:100B10008A6001688A68C36A1A4301E022F0405281
:100B20008A6001688A6822F002028A6001688A6825
:100B3000037E42EA43028A6090F82010002901688F
:100B40004A680FD042F400624A6001684A6822F4A1
:100B500060424A6001684A68174C436A04EB4333B9
:100B60001A4301E022F400624A600168CA6A22F472
:100B70007002CA620168CA6A838B104C04EB03538B
:100B80001A43CA6201688A6822F400728A600168A6
:100B90008A6890F8303042EA43228A6001688A68A5
:100BA00022F480628A6001688A68406942EA802093
:100BB000886010BD0023014000E0FFFF0000F0FF4F
:100BC00070B5234800F0ACFE224800F0A9FE224890
:100BD000002101804180001D018041801C3801708E
:100BE00041709FED1E0A80ED0D0A80ED0C0A80ED2C
:100BF0000F0A80ED0E0AC182818219490020A1F1FD
:100C0000400201F1800301F1400400BF01EB8005C7
:100C100085ED000A02EB800585ED000A03EB8005F7
:100C200085ED000A04EB8005401C80B285ED000ACA
:100C30001028EBD302220849054800F0C5FDBDE8A5
:100C4000704005490222091D024800F0BDBD0000A8
:100C50000802002050020020480000200000000090
:100C6000680600200068064A0649904201D10868DB
:100C70007047054A904201D148687047002070478C
:100C80000054004070000020005C004010B190ED66
:100C9000030A70479FED010A704700000000000042
:100CA00070B5040007D031B1124D0B681248AB4249
:100CB00003D1046005E0002070BD104DAB4200D1AF
:100CC000446021609FED0E0AA27784ED080A00259A
:100CD000E580258184ED030A84ED040A84ED050A8C
:100CE00001F038F9A06125776577204600F01BF800
:100CF000012070BD0054004070000020005C0040E6
:100D00000000000010B504000CD0207F002809D19D
:100D1000206801F0A7FA202804D12046BDE8104041
:100D200000F001B810BD1CB500280ED0017F0029CD
:100D30000BD1012101770223011DCDE900130E2201
:100D4000006801236C2101F0BDFB1CBDFEE7000023
:100D5000014800F079BE000068050020014800F05D
:100D600073BE0000C8050020014800F06DBE000001
:100D7000F8020020014800F067BE00009802002041
:100D800001681823CAB2103AB2FBF3F2054B6FF3B5
:100D90000901032A9B5CC36500D9091D81650846CA
:100DA00070470000FC6A000810B5014600208B69FE
:100DB0008A6A4FF0C07453B1B3F5005F15D072B1B9
:100DC000012A0CD0022A0AD0032A09D104E01AB160
:100DD000012A06D0022A03D1C96AC90100D501201F
:100DE00010BDC96AA142FAD010BD002AF7D0012A6D
:100DF000F2D0022AF3D0032AF3D010BD30B5046834
:100E0000256825F480252560046863608368402B8D
:100E1000036803D099600068C26030BD9A600068C2
:100E2000C16030BD704772B6FEE70000F0B5040047
:100E30002DED028B81B050D0A06800284DD02068E5
:100E400000284AD0E06808B1804701E0B2EE080A05
:100E5000DFED240A9FED248A204620EE200AF0EEE2
:100E6000480AB0EE601A00F0B3F800261F4800965A
:100E70000099491C00918142FADBF0EE488A002576
:100E800044F620672068804770EE288A0096009814
:100E9000401C0090B842FADB6D1C202DF2DB207C58
:100EA0009FED130A00EE900A204628EE800AF8EE25
:100EB000600A20EE800A84ED310AB0EE480AB0EEF6
:100EC000401AF0EE400A00F083F84CF250300096E1
:100ED0000099491C00918142FADB01B0BDEC028B04
:100EE000F0BD0000CDCC4C3E0000000020A107006A
:100EF0000000003D10B190ED2A0A70479FED010AF5
:100F0000704700000000000010B190ED2B0A704700
:100F10009FED010A704700000000000070B50D460B
:100F200004004AD0F5B3D021FFF784F904F8105F2C
:100F3000F2EE080AC4ED010AB0EE001A84ED021ABE
:100F400000209FED1F0A607684ED030A84ED040AF9
:100F500084ED050A2076F6EE001AC4ED081AF2EECA
:100F6000041AC4ED091A84ED0A0A84ED0D1AB3EED1
:100F7000041A84ED0E1A9FED131A84ED0F0A84ED06
:100F8000101A9FED111ADFED111A84ED131AB7EE46
:100F9000081A84ED141AC4ED151A84ED160A84EDAE
:100FA0001C0A00E009E004F164010120C1EC030A1D
:100FB000C4ED1F0A84F8BC0070BD002070BD0000A5
:100FC00000000000CDCCCC3D000048420000204293
:100FD00010B586B004001DD094F8CC00002819D0BC
:100FE00001A9684605F0AAFAE06808B1804701E067
:100FF000B2EE080A04AAB0EE401A9DEC020A03A958
:1010000002A805F0D1FCA068002803D002A991EC49
:10101000030A804706B010BD002808D0B5EEC00A0C
:10102000F1EE10FA03D980ED060A80ED110A70473F
:1010300010B504000CD000290AD091E80D00C96851
:10104000E16084E80D00002802D0804784ED320A78
:1010500010BD0000002813D080F829109FED090A68
:1010600080ED0F0A80ED100A80ED150A80ED160A5A
:1010700080ED1B0A80ED1C0A80ED210A80ED220A1A
:101080007047000000000000002801D080ED0B0A2E
:10109000704700280AD0B5EEC00AF1EE10FA05D963
:1010A00080ED050A80ED1D0A80ED230A70470000DF
:1010B00030B504002DED088B83B07CD094F8CC00C3
:1010C000002878D0A34D95ED000AB5EEC00AF1EEE8
:1010D00010FA03D89FEDA00A85ED000AE068F0EE53
:1010E00040AA18B18047F0EE408A01E0F2EE088A8B
:1010F0009FED9A9A28EE898A84ED1D8A84ED238AD1
:10110000206810B1804784ED240A636823B104F19C
:10111000A402111F081F9847D4ED240A94ED320A47
:101120008F4930EEC00A10EE100A9FED8E1A8842E9
:1011300002DD30EE410A06E010EE100A8A498842CC
:1011400001D930EE010ADFED891A80EE2A1A95EDF9
:10115000010A31EE401A01EE210A85ED010A84ED03
:10116000260AC4ED320A207C94ED310A01EE100A01
:10117000B8EE411A10EE810A05F0BEFB84ED250A97
:10118000D4ED270A94ED281AF0EE001ACDED000AEE
:1011900041EE210AB0EE40AA20EE899A8DED019A27
:1011A000DDED009A04F06AFAB0EE401AB0EE4A0A99
:1011B000B0EE41BA00E0C8E004F008FB69EE8B0A2B
:1011C00049EE000AC4ED2A0A69EE0B0A49EEC00A8C
:1011D000C4ED2B0A9FED660A94F8290030B104F1A2
:1011E0003005012805D002281DD105E094ED0B0A39
:1011F00019E094ED0B0A0DE094ED0B0AD4ED240AEE
:1012000030EE600A05F078FBF0EE6A0A04F148005F
:1012100005F08CFBD4ED260A284630EE600AF0EE8D
:101220006A0A05F083FBD4ED060AF4EEC00AF1EE7B
:1012300010FA01D2B0EE600AF1EE600AF4EEC00AD4
:10124000F1EE10FA01DDB0EE600AD4ED2A0A04F1E5
:101250006000B1EE601AD4ED2B0A30EE609AF0EE29
:101260006A0AB0EE410A05F061FB84ED2C0AF0EE4B
:101270006A0AB0EE490A04F1780005F057FB84EDE4
:101280002D0A94F8280040B3207C94ED261A00EE35
:10129000900AD4ED071A94ED092AF8EE600A61EE7F
:1012A000200A94ED2A1A61EE812A22EE203A94ED6A
:1012B0002B2A43EE422A94ED2C3A61EE821A72EE0A
:1012C000832AC4ED2C2A94ED082A62EE200A40EE0F
:1012D000811A31EE800A84ED2D0A94ED2C0AD4EDAA
:1012E0002D0A20EE000A00EEA00A04F037FBB4EE4F
:1012F000C80AF1EE10FA0DDDC8EE000A94ED2C0AD2
:1013000020EE200A84ED2C0A94ED2D0A20EE200A0E
:1013100084ED2D0A94ED251AD4ED2D0A94ED2C0AB6
:1013200001A9684605F00AF904F1C002111F9DECFD
:10133000020A081FB0EE681A05F036FBA068002804
:1013400003D0B83494EC030A804703B0BDEC088B9B
:1013500030BD00008800002017B751383ACD133F48
:10136000DB0F4940DB0FC940DB0F49C0CDCC4C3E01
:10137000000000007047000078B50024009490F849
:101380003C20012A19D0012280F83C200A6807235A
:101390000568092A13D9EE680A3A02EB4202934023
:1013A0009E43EE600B788A680A3B03EB43039A4046
:1013B0000368DD682A43DA6010E0022078BD2E69F8
:1013C00002EB420293409E432E610B788A6803EB46
:1013D00043039A4003681D692A431A614A681F2320
:1013E000072A13D205686E6B521E02EB82029340ED
:1013F0009E436E630B790A885B1E92B203EB8303F4
:101400009A4003685D6B2A435A6327E005680D2AFA
:1014100012D22E6BD21F02EB820293409E432E63A8
:101420000B790A88DB1F92B203EB83039A400368AF
:101430001D6B2A431A6311E0EE6A0D3A02EB820239
:1014400093409E43EE620B790A880D3B92B203EB08
:1014500083039A400368DD6A2A43DA62164B056803
:10146000144A9D4206D10D68122D03D1556845F4EA
:101470008005556005689D4218D10B68102B01D07E
:10148000112B13D1536843F40003536009681029EA
:101490000CD10A490A4A0968B1FBF2F101EB81015A
:1014A000490000E0491E00910029FBD180F83C4032
:1014B000002078BD00230140002001402C000020C6
:1014C00040420F00FFF7E4B97047704770B504461B
:1014D00000680668456816F0020F05F020012AD062
:1014E00049B3216CC90603D4216C41F40071216415
:1014F000816811F0405F17D1217EA9B9C16A11F44A
:10150000700F02D0816849050ED4416821F0200196
:101510004160206C20F480702064206CC00403D4EF
:10152000206C40F0010020642046FFF7CBFF2168CB
:101530006FF01200086016F0040F05F0800132D041
:1015400089B3206CC00603D4206C40F400502064A2
:101550002068816811F4401F1ED1816B11F4401F77
:1015600002D08168490517D44168490514D48168BF
:1015700011F0405F10D1217E71B9416821F08001E6
:101580004160206C20F480502064206CC00503D49E
:10159000206C40F0010020642046FFF7EBFE21683C
:1015A0006FF00C00086016F0010F05F040010FD03D
:1015B00071B120680068C0070AD0206C40F4803008
:1015C0002064204600F043F821686FF001000860B5
:1015D00016F0200F05F080610ED000290CD0606C51
:1015E00040F00200606420686FF02005056020462E
:1015F000FFF76BFF2068056070BD70B504004FF009
:10160000000503D0206C002610B107E0012070BD5A
:10161000204600F01DF8666484F83C60206CC0062B
:1016200010D4206C20F4885040F002002064204642
:10163000FFF732FA6664206C20F0020040F00100EF
:10164000206400E0012584F83C60284670BD7047A6
:101650002DE9F04F87B0064614216846FEF7EAFDF3
:101660005149504F336800254F48143903244F4ADD
:10167000BB4217D1036843F480730360006800F431
:1016800080700590086840F00100086008686946AD
:1016900000F00100059010208DE83100104600F0A8
:1016A00057FB44E0DFF808C14FF480674FF400684F
:1016B0004FF400594FF4807A4FF4403B634541D1D9
:1016C000036843F400730360006800F40070059041
:1016D000086840F001000860086800F0010005900B
:1016E000086840F0020008600868694600F00200DF
:1016F000059020208DE83100104600F029FB0120E4
:101700008DE8310069462B4800F022FB2B4C2A481B
:1017100004F10C032060F803C4E9010583E8A00F7D
:101720002046656236E000BFFFF77DFB36E0002211
:101730000221122001F042F8122001F032F807B025
:10174000BDE8F08F1E4A9342F9D1026842F48062EC
:101750000260006800F480600590086840F00400B2
:1017600008600868694600F00400059009208DE8CB
:101770003100144800F0ECFA104C0F486034303857
:1017800020608005C4E9010504F10C02204682E8CE
:10179000A00F656200F028FA0028C5D1B463A663E3
:1017A000C5E700000020014044380240000002402C
:1017B00000210140000402404064024098020020E1
:1017C0000022014000080240F8B50E460021044600
:1017D000009190F83C0013460A46012807D00120EA
:1017E00084F83C0020688568ED0702D011E00220F3
:1017F000F8BD856845F0010585604048404D0068AA
:10180000B0FBF5F000EB400000E0401E0090002827
:10181000FBD120688568ED0503D5856825F48075C2
:10182000856020688568ED075DD0226C40F2016517
:10183000AA4342F4807222644068400505D5206CBA
:1018400020F4005040F480502064206CC00404D583
:10185000606C20F00600606400E0616484F83C1075
:10186000A16B2948274DC863A16B28480864A16B68
:101870002748C86421686FF022000860206841682A
:1018800041F0806141602068816841F4807181602D
:10189000216832464C31A06B00F010FA02466868AD
:1018A0001C49C006206806D0884224D1816811F006
:1018B000405F13D01FE08842F8D0174B984203D105
:1018C000D1F80433DB06F1D0144B984213D1D1F890
:1018D000041301F01F011029E8D30CE0816841F0E6
:1018E0008041816007E0206C40F010002064606C53
:1018F00040F0010060641046F8BD00002C0000209C
:1019000040420F000023014001080008850800083C
:101910006F08000800200140002101400022014022
:1019200010B50446002094F83C1001290CD0012188
:1019300084F83C1021688A6822F001028A602168DC
:101940008A68D20702D01DE0022010BD8A6822F406
:1019500080728A60A16B91F83520022A07D108466F
:1019600000F014F818B1216C41F0400121642168A5
:101970004A6822F080624A60216C21F4885141F06B
:1019800001012164002184F83C1010BD2DE9F041D3
:101990000446876D00F0DEFA064694F8350000250F
:1019A000022806D08020606584F834500120BDE80C
:1019B000F0812068016821F016010160206841690A
:1019C00021F080014161206C08B9A06C20B1206831
:1019D000016821F0080101602068016821F001011F
:1019E00001600CE000F0B6FA801B052807D9202022
:1019F0006065032084F8350084F83450D7E7206808
:101A00000068C007EED194F85C103F208840B860B1
:101A1000012084F8350084F834500020C7E790F89E
:101A20003510022903D0802141650120704705212E
:101A300080F835100068016821F001010160002084
:101A4000704790F8350070472DE9F84304464FF091
:101A50000009CDF8009063484FF41651A56D006859
:101A6000B0FBF1F72E6894F85C10082000FA01F141
:101A700031420FD021680A6852070BD50A6822F05C
:101A800004020A6094F85C108840A860606D40F021
:101A90000100606594F85C104FF0010808FA01F04D
:101AA000304208D021684969090604D5A860606DF4
:101AB00040F00200606594F85C10042088403042D9
:101AC00008D021680968890704D5A860606D40F0D6
:101AD0000400606594F85C1010208840304218D0F3
:101AE00021680968090714D5A860206801684903BE
:101AF00004D50068000308D5A16C07E00168C9059A
:101B000003D4016821F008010160216C09B120466D
:101B1000884794F85C1020208840304231D02168FA
:101B20000968C9062DD5A86094F8350005282068F5
:101B3000016806D0490347D5006800031DD4616CD5
:101B40001CE021F0160101602068416921F080014C
:101B50004161206C08B9A06C20B12068016821F0B7
:101B60000801016094F85C103F208840A86084F868
:101B7000358084F83490216D1FE0E16B09B1204677
:101B80008847606D00282BD0606DC00714D00520F9
:101B900084F835002068016821F001010160009897
:101BA000401C0090B84203D820680068C007F6D1F6
:101BB00084F8358084F83490E16C002910D001B0AD
:101BC0002046BDE8F04308470168C905D5D401683F
:101BD00021F01001016084F8358084F83490CCE75E
:101BE000BDE8F8832C0000202DE9F041044600F008
:101BF000B1F906465CB1022084F83500002584F86E
:101C000034502068016821F0010101600DE00120DD
:101C1000BDE8F08100F09EF9801B052805D9202041
:101C20006065032084F83500F2E720680068C0078B
:101C3000F0D12268116820480140D4E9010318431B
:101C4000D4E903363343184363691843A36918433F
:101C5000E3691843236A18430843616A042903D1DE
:101C6000D4E90B1319430843106020684069666A81
:101C700020F0070130460E43012704280CD1A06A4A
:101C80000643E06A40B12046FFF78EF820B14020BD
:101C9000606584F83570BAE7206846612046FFF732
:101CA0006FF894F85C203F2191408160656584F86D
:101CB00035700020ACE700003F8010F02DE9F041C6
:101CC0000446866D90F83400002501280DD00120CF
:101CD00084F8340094F835700020012F07D084F880
:101CE000340002252846BDE8F0810220FBE70227E8
:101CF00084F8357060652046FFF780F894F85C1032
:101D00003F208840B0602068016841F01601016002
:101D1000206C20B12068016841F008010160206852
:101D2000016841F001010160DCE7000070B5044684
:101D300000F010F90546601C02D004480078044405
:101D400000F008F9401BA042FAD370BD200000202B
:101D50002DE9F84FDFF8BCA10022012503264FF042
:101D60000F090AF1040BAAF1040E00BF0B6805FA73
:101D700002F42340A34270D10F7907F00307012F2B
:101D800001D0022F16D187684FEA420806FA08FCF4
:101D900027EA0C07D1F80CC00CFA08FC4CEA070C37
:101DA000C0F808C04768A7430C79C4F300149440F6
:101DB0003C4344600C79E443A4070AD0C4684FEA6A
:101DC000420C06FA0CF7BC438F6807FA0CF727435E
:101DD000C7600C7904F00304022C12D1D40800EB84
:101DE000840CDCF820405707FF0E09FA07F824EAB4
:101DF0000804D1F8108008FA07F848EA0408CCF87B
:101E0000208004684FEA420C06FA0CF7BC430F79B5
:101E100007F0030707FA0CF7274307604C6814F430
:101E2000403F70D03C4C276847F4804727602468C7
:101E300022F0030704F480440094384C07EB040CB0
:101E4000DCF8084897074FEA177809FA08F7BC4307
:101E5000334FB84202D1002724E054E0314FB8425A
:101E600001D101271EE0304FB84201D1022719E00D
:101E70002E4FB84201D1032714E02D4FB84201D1B3
:101E800004270FE02B4FB84201D105270AE02A4F63
:101E9000B84201D1062705E0284FB84201D10727F3
:101EA00000E0082707FA08F72743CCF80878DAF8A3
:101EB00000405746D1F804C09C435FEACC2C00D5C3
:101EC0001C433C60DBF800405F46D1F804C09C43F3
:101ED0005FEA8C2C00D51C433C60DEF8004077465E
:101EE000D1F804C09C435FEA8C3C00D51C433C60A5
:101EF000084F083F3C68D1F804C09C435FEACC3CE3
:101F000000D51C433C60521C102AFFF42FAFBDE8E3
:101F1000F88F0000083C0140443802400030014086
:101F2000000002400004024000080240000C024091
:101F3000001002400014024000180240001C024041
:101F40000069084000D0012070470AB181617047E4
:101F50000904FBE70148806870470000200000206A
:101F6000704770472DE9F041016804464A694E68A0
:101F700090F83E000025D743FA0506D4F243D20577
:101F800003D46FF4807201254A61B90508D4F14386
:101F9000C90505D422686FF4007145F0020551614E
:101FA000790525D4F143C90522D4638D94F83D10F9
:101FB000226B202808D13BB9212910D029290ED025
:101FC000282901D1212A0AD022686FF48061516149
:101FD00045F00405102806D0402804D008E020462B
:101FE00002F0D4F804E02068016841F40071016057
:101FF000380508D4F043C00505D421686FF40060AB
:1020000045F008054861002D07D0206C2843206466
:102010002046BDE8F04101F03DBDBDE8F0812DE96D
:10202000F047026800215368C66A90F83E4090F875
:102030003D50102C12D0402C10D0046C002C7DD0C0
:102040005469E443A6077AD4DE43B60577D4036C1B
:1020500003B19169BDE8F04702F074B8976951691E
:102060004FF42A0CC9435FEAC1784FF02A4904D0E3
:1020700066452AD04E4528D010E0DE43B6050DD483
:10208000C16A614501D1012103E0C16A494501D11D
:102090000821C162BDE8F04701F0BABF0E0716D4AF
:1020A000DE43B60513D4416CC9B21161416B09B16D
:1020B000C96B29B9816B002907D0C96B002904D0ED
:1020C0000068416841F400614160BDE8F0878E0717
:1020D00006D4DE43B60503D4BDE8F04701F00CBFDB
:1020E000FE43526876074FEA02521DD4002AECDB09
:1020F0000A0608D4DA43520505D4490705D5BDE8D8
:10210000F04701F09DBE4907DFD4D9438905DCD4EF
:10211000212D05D0402CD8D1BDE8F04701F0BEBF3D
:10212000BDE8F04701F04ABE002ACEDB4A060BD4D8
:10213000DA43520508D4490708D501E00DE00EE066
:10214000BDE8F04701F0C0BD4907BED4D9438905B9
:10215000BBD4BDE8F04701F049BD916970E7E106E5
:1021600006D4D943890503D4BDE8F04702F056B838
:102170002821212D27D0292D25D0650655D4DD43D2
:102180006D0552D4640752D590F83D30448D002C33
:102190009BD01269446A2270426A521C4262428D8C
:1021A000521E4285428D002A8FD12A2B8DD1026882
:1021B000536823F4806353602222026380F83D1049
:1021C00000F082FA81E7250623D4DD436D0520D493
:1021D000640720D590F83D30448D002CF2D0446A3D
:1021E00024781461426A521C4262428D521E42851A
:1021F000428D002AE6D1292BE4D10268536823F4EA
:10220000806353602122026380F83D1000F05DFA84
:102210005BE76107D6D4D9438905D3D4418D002922
:10222000D0D0416A097811610AE06107CAD4D94364
:102230008905C7D4418D0029C4D01169426A117043
:10224000416A491C4162418D491E41853DE710B5F7
:10225000FEF708FD002804D000210177417F491CCA
:10226000417710BD90F83D007047000070B5040044
:1022700025D094F83D00002520B984F83C50204634
:1022800000F08EF9242084F83D002068016821F0D8
:10229000010101602068016841F40041016020688B
:1022A000016821F40041016000F054FB4D4A61686F
:1022B000914201D84C4900E04C49884201D20120AA
:1022C00070BD4B492368B0FBF1F15E6826F03F0614
:1022D0000E435E606368934206D94FF49673594388
:1022E0004FF47A73B1FBF3F12368491C1E6A26F0A0
:1022F0003F06314319626168914210D84900401E7F
:10230000B0FBF1F2521CC2F30B02042A01D20420EA
:1023100022E0B0FBF1F0401CC0F30B001CE0A2680F
:10232000F2B301EBC10303EB0116431EB3FBF6F35B
:102330005B1C43F480431B0549D092B301EBC102FF
:1023400002EB0111401EB0FBF1F0401CC0F30B008A
:1023500040F4804040F400402168CA694CF6FF73A5
:102360009A431043C861D4E907100143206802680A
:1023700022F0C00211430160D4E903010143206847
:10238000826848F2FF339A4311438160D4E9050122
:1023900008432168CA6822F0FF021043C86001E0C8
:1023A0000EE016E02068016841F00101016025643B
:1023B000202084F83D00256384F83E50002070BD45
:1023C00001EB4106431EB3FBF6F35B1CB3E70120B0
:1023D000C2E701EB4101401EB0FBF1F0401CC0F32D
:1023E0000B00B7E7A086010080841E0000093D00B5
:1023F00040420F00704770477047000070B50546B7
:10240000FEF730FC04004DD02068A8424AD10020DD
:102410002077A088DFED240A40BAC0F30B0000EE5D
:10242000100AE1882181B8EE400AE08020EE200AFF
:1024300084ED030AFFF78EFDA16A71B3411A2CD017
:1024400000EE101A9FED191A194AB8EE400AC0EEB4
:10245000010A94ED030A94ED091A30EE410A9FED4A
:10246000151A10EE101A914202DD30EE410A06E014
:1024700010EE101A104A914201D930EE010A80EE96
:10248000201AB3EE0E0ADFED0D0A84ED041A21EED8
:10249000000A80EE201A84ED051A94ED030A84EDFB
:1024A000090AA06270BD0000DB0FC93A00007A443F
:1024B000DB0F4940DB0FC940DB0F49C0DB0F494050
:1024C00070470000F8B50024DDE90676009490F826
:1024D0003D50202D5ED1304D46F2A81C2D68B5FB35
:1024E000FCF505EBC50C0CEB051500956D1E009574
:1024F00006D00568AD69ED43AD070BD4009DF5E747
:1025000040F8304F202141738473016941F020016C
:1025100001613FE090F83C50012D3BD0012580F84F
:102520003C500568D5F800C05FEACC7C05D1D5F8F1
:1025300000C04CF0010CC5F800C00568D5F800C01B
:102540002CF4006CC5F800C0222580F83D504025D1
:1025500080F83E50046447624685458D05850F4DE1
:10256000C56241648264C364046501680A6842F418
:1025700080620A6001680A6842F480720A6080F82A
:102580003C40018D21B10068416841F4E061416047
:102590000020F8BD0220F8BD2C0000200000FFFF45
:1025A0002DE9F04186B0044614216846FDF742FE4D
:1025B0003F4A2168DFF8FC8000243E4812250326AC
:1025C000042708F1100891422BD1016841F0020163
:1025D0000160006802AA00F002000590C020CDE969
:1025E000000582E8D00069463348FFF7B1FBD8F810
:1025F000001041F40011C8F80010D8F800000022C3
:1026000000F40010059003211F2000F0D7F81F20D0
:1026100000F0C7F800220321202000F0CFF820208E
:1026200040E0264A91423FD1016841F00401016037
:10263000016801F004010591016841F001010160A8
:102640000068694600F0010005905015CDE90005CD
:1026500002AA1B4882E8D000FFF77AFB4FF4807093
:10266000CDE9000502AA694682E8D0001548FFF7C7
:102670006FFBD8F8001041F40001C8F80010D8F83A
:102680000000002200F4000005900321482000F023
:1026900095F8482000F085F800220321492000F039
:1026A0008DF8492000F07DF806B0BDE8F08100000B
:1026B000005400403038024000040240005C0040FA
:1026C00000080240000002407047704702488168DD
:1026D0000278114481607047200000200B4810B53B
:1026E000016841F400710160016841F4806101609A
:1026F000016841F480710160032000F07FF80F2031
:1027000000F006F800F024F8002010BD003C024064
:1027100070B50D4D04464FF47A712878B1FBF0F096
:102720000A490968B1FBF0F000F01AFB48B9102C17
:1027300007D200222146501E00F040F800206C60B5
:1027400070BD012070BD0000200000202C00002082
:102750000A4808B5016841F480410160006800F44E
:10276000804000900548001F016841F080510160E1
:10277000006800F08050009008BD0000443802401E
:1027800000280DDB00F01F0201219140400980006C
:1027900000F1E020C0F88011BFF34F8FBFF36F8FBF
:1027A0007047002809DB00F01F0201219140400919
:1027B000800000F1E020C0F800117047F0B40E4B2B
:1027C0001B680C46C3F30223C3F10705042D00D98F
:1027D0000425191D072901D2002300E0DB1E012674
:1027E00006FA05F1491E214099409E40761E16408A
:1027F0003143F0BC02F031BF0CED00E0064900F0BF
:10280000070208684FF6FF03184040EA0220034A17
:1028100010430860704700000CED00E00000FA056E
:102820002DE9F0470E46050065D0DFF81481D8F891
:102830000000F7B200F00700B04207D288F800703D
:10284000D8F8000000F00700B04254D128683D4C91
:10285000810712D5400703D5206840F4E05020607E
:102860002878000703D5206840F460402060206885
:10287000A96820F0F000084320602878C0072DD018
:10288000304968680839012812D0022813D003287B
:1028900011D00968890700292DDA216821F0030188
:1028A00001432160FFF756FB814641F2883A0EE072
:1028B00009688903EFE709688901ECE7FFF74AFB3C
:1028C000A0EB0901514502D90320BDE8F08720683B
:1028D000696800F00C00B0EB810FEFD1D8F8001060
:1028E000404601F00701B14207D90770006800F0C7
:1028F0000700B04201D00120E7E72878400705D55E
:102900002068E96820F4E050084320602878000738
:1029100006D52068296920F4604040EAC1002060A3
:1029200000F038F82168084AC1F30311515CC8402F
:102930000649086006480068FFF7EAFE0020C4E781
:10294000003C024008380240046B00082C000020C4
:10295000240000200448054900680968044AC1F3BE
:102960008221515CC84070472C000020083802408A
:10297000146B00080448054900680968044AC1F35B
:102980004231515CC84070472C000020083802409A
:10299000146B0008154810B5006810F00C021448BC
:1029A00013D04110042A0FD0082A0ED10F4C241F37
:1029B0002268236802F03F025B0207D52068C0F35B
:1029C0008810A0FB010106E0084610BD2168C1F394
:1029D0008811A1FB00010023FDF7F4FB2168C1F37E
:1029E0000141491C4900B0FBF1F010BD083802401C
:1029F0000024F4002DE9F84F04006ED02078DFF8B1
:102A00004C93C007A9F104054AD009F104000168FC
:102A1000C1F38101012908D00068C0F381000228B8
:102A20000AD1D9F80000400206D52868800337D5BE
:102A300060680028E1D033E06068B0F5803F10D0D6
:102A4000B0F5A02F286810D020F4803028602868C6
:102A500020F4802028606068A8B1FFF77BFA064662
:102A60000DE0286840F48030F4E740F480202860CE
:102A7000F7E700BFFFF76EFA801B642873D8286859
:102A80008003F7D50CE0FFF765FA064605E000BFC6
:102A9000FFF760FA801B6428F0D828688003F7D419
:102AA0002078DFF8AC8280074FF0000A3ED5A748B7
:102AB000001D016811F00C0F08D00068C0F3810000
:102AC00002280BD1D9F80000400207D428688007FB
:102AD00016D5E068012800D112E033E1E068B8B112
:102AE0000120C8F80000FFF735FA064605E000BFF0
:102AF000FFF730FA801B0228C0D828688007F7D576
:102B00002868216920F0F80040EAC10028600DE043
:102B1000C8F800A0FFF71EFA064604E0FFF71AFA0D
:102B2000801B02281FD828688007F7D42078000768
:102B300022D5864F87486169703771B101210160E4
:102B4000FFF708FA064604E0FFF704FA801B0228A4
:102B500009D838688007F7D50EE0C0F800A0FFF765
:102B6000F9F9064605E082E0FFF7F4F9801B022838
:102B70007DD838688007F7D42078400768D5DFF81B
:102B8000CCB100270BF13C0BDBF80000C0000BD4EC
:102B9000DBF8001041F08051CBF80010DBF80000AA
:102BA000012700F0805000906B4E3068C00510D4B3
:102BB000306840F480703060FFF7CCF9009005E099
:102BC000FFF7C8F90099401A022850D83068C005AC
:102BD000F6D55E4EA0686C3601280FD00528306807
:102BE00010D020F001003060306820F00400306028
:102BF000A068B8B1FFF7AEF900900FE0306840F080
:102C00000100F4E740F004003060F7E7FFF7A2F9B5
:102C10000099411A41F28830814266D830688007B5
:102C2000F4D50EE0FFF796F9009007E0FFF792F970
:102C30000099411A41F28830814256D830688007A5
:102C4000F4D42FB1DBF8001021F08051CBF8001044
:102C5000A069C8B33D49091D0968C1F38101022972
:102C60004AD00228504607D0C8F8600000E03CE097
:102C7000FFF770F904463BE04746C8F86000FFF7ED
:102C800069F9064605E000BFFFF764F9801B0228DA
:102C90002BD828688001F7D4D4E907010843A16A3A
:102CA0002E4A490802EB0141626A41EA8211084357
:102CB00094F82C1040EA0161C9F800100120386630
:102CC000FFF748F9044606E03EE000BFFFF742F98F
:102CD000001B022809D828688001F7D534E000BF1E
:102CE000FFF738F9001B022802D90320BDE8F88F4E
:102CF00028688001F4D427E00128F7D0D9F8000033
:102D0000E26900F4800191421CD1226A00F03F0187
:102D1000914217D147F6C071626A0140B1EB821F40
:102D200010D1A26A4FF0FF3300F4403103EB52029E
:102D3000B1EB024F06D194F82C1000F07060B0EBAC
:102D4000016F01D00120D1E70020CFE70438024015
:102D500000004742800E4742007000400000FFFF25
:102D600010B5401EB0F1807F01D3012010BD4FF09F
:102D7000E02460610F21601702F06FFC0020A06169
:102D800007202061002010BD7047704770B590F893
:102D90003C20012A32D0012480F83C40022280F8F5
:102DA0003D2003685A689D6822F070060A68324325
:102DB0005A60134B02689A4214D0B2F1804F11D07E
:102DC000104B9A420ED0104B9A420BD00F4B9A42A6
:102DD00008D00F4B9A4205D00E4B9A4202D00E4BB0
:102DE0009A4204D1496825F080031943916080F824
:102DF0003D40002180F83C10084670BD022070BDA7
:102E0000000001400004004000080040000C0040A9
:102E100000040140004001400018004010B50400CB
:102E200003D094F83D0010B107E0012010BD002050
:102E300084F83C00204600F01FF8022084F83D0092
:102E4000211D206802F046F8012084F8460084F82D
:102E50003E0084F83F0084F8400084F8410084F884
:102E6000420084F8430084F8440084F8450084F864
:102E70003D00002010BD000008B500680B498842E5
:102E800012D10B48016841F008010160006800227E
:102E900000F00800009001213220FFF78FFCBDE810
:102EA00008403220FFF77DBC08BD0000000C004048
:102EB0004038024090F83D10012901D001207047B0
:102EC000022180F83D100168CA6842F00102CA6020
:102ED00000681149884214D0B0F1804F11D00F49D9
:102EE00088420ED00E4988420BD00E49884208D045
:102EF0000D49884205D00D49884202D00C498842CC
:102F000004D1816801F00701062903D0016841F06E
:102F100001010160002070470000014000040040F2
:102F200000080040000C0040000401400040014047
:102F30000018004070B5044690F83C0000250128B8
:102F400017D0012684F83C60022084F83D002068F8
:102F5000826822F0770222F47F428260086850285B
:102F600038D00DDC20284FD005DC90B3102811D1CB
:102F70004AE0022070BD302846D040280AD13BE00C
:102F800060282FD070280DD0B0F5805F03D0B0F549
:102F9000005F12D0012584F83D60002084F83C00D9
:102FA000284670BDCB68D1E90121206802F007F8FE
:102FB0002068816841F0770109E0CB68D1E90121FF
:102FC000206801F0FCFF2068816841F48041816045
:102FD000E1E719E0CA684968206802F0C5F85021A5
:102FE000206806E0CA684968206802F0CEF86021CF
:102FF000206801F0EEFFCEE7CA684968206802F059
:10300000B3F840212068F4E7226801461046F0E753
:1030100070472DE9F04104460068C66805694FF025
:103020000007A90713D5B10711D5F91E01610120C9
:103030002077206880698007204602D0FFF7E8FFEC
:1030400004E000F0D3F8204600F082F92777680703
:1030500016D5700714D521686FF0040008610220AE
:1030600020772068806910F4407F204602D0FFF767
:10307000CFFF04E000F0BAF8204600F069F92777A6
:10308000280715D5300713D521686FF008000861AF
:10309000042020772068C0698007204602D0FFF70F
:1030A000B7FF04E000F0A2F8204600F051F92777BE
:1030B000E80616D5F00614D521686FF010000861F7
:1030C000082020772068C06910F4407F204602D095
:1030D000FFF79EFF04E000F089F8204600F038F981
:1030E0002777E80708D0F00706D021686FF00100C5
:1030F0000861204600F092F9280608D5300606D56A
:1031000021686FF0800008612046FFF73DFE6806E9
:1031100008D5700606D521686FF04000086120468A
:1031200000F08EF9A8060AD5B00608D521686FF020
:10313000200008612046BDE8F041FFF726BEBDE84B
:10314000F081000070B586B0044614216846FDF792
:1031500071F82168002420480225B1F1804F17D072
:103160001E4A914212D1016841F0080101600068D5
:10317000694600F0080005904FF4E0400090CDE96A
:1031800001541748CDE90345FEF7E2FD06B070BDD6
:10319000016841F001010160016801F00101059140
:1031A000016841F0020101600068012600F00200A0
:1031B000059003200090CDE90154CDE9034669460E
:1031C0000848FEF7C5FDB0020090CDE90154CDE9F5
:1031D000034669460448D7E73038024000080040FB
:1031E000000C02400000024000040240704770B52D
:1031F000044690F83C0000260D4601280FD001201F
:1032000084F83C006AB1042A1DD0082A2FD00C2A69
:103210003FD00126002084F83C00304670BD0220DB
:1032200070BD206801F0DEFE2068816941F0080170
:1032300081612068816921F00401816120688169D0
:103240002A69114311E0206801F0FCFE20688169C1
:1032500041F4006181612068816921F480618161AC
:10326000206881692A6941EA02218161D2E72068E8
:1032700001F01EFF2068C16941F00801C1612068AA
:10328000C16921F00401C1612068C1692A69114343
:1032900011E0206801F040FF2068C16941F400613D
:1032A000C1612068C16921F48061C1612068C16980
:1032B0002A6941EA0221C161ACE710B5040003D0DC
:1032C00094F83D0010B107E0012010BD002084F803
:1032D0003C00204600F01EF8022084F83D00211D2D
:1032E000206801F0F7FD012084F8460084F83E00D4
:1032F00084F83F0084F8400084F8410084F84200DC
:1033000084F8430084F8440084F8450084F83D00C4
:10331000002010BD08B501680B48B1F1804F0BD0FB
:103320000A4A914207D1016841F004010160006836
:1033300000F00400009008BD016841F00101016047
:10334000006800F00100F5E7403802400008004046
:103350007047000010B50446022249B104290ED07E
:10336000082913D094F84100012816D0012010BD7F
:1033700094F83E000128F9D184F83E200FE094F83B
:103380003F000128F2D184F83F2008E094F8400083
:103390000128EBD184F8402001E084F8412001228B
:1033A000206801F0FFFD16492068164A884201D0C6
:1033B000904203D1436C43F4004343642068884245
:1033C00013D0B0F1804F10D00F4988420DD00F4973
:1033D00088420AD00E49884207D0904205D00D4954
:1033E000884202D00C49884204D1816801F007016B
:1033F000062903D0016841F001010160002010BDE1
:1034000000000140000401400004004000080040AA
:10341000000C00400040014000180040064910B573
:10342000884208D1FDF7E4F9002804D0BDE8104037
:103430000248FDF73DBE10BD90040020980000201A
:10344000704738B5044690F84200202801D0022089
:1034500038BD51B14AB1012020630020606320468D
:1034600002F046F8216B012901D0012038BD216806
:103470000A684968009121680C3151E8002F42F038
:10348000100241E80023002BF5D138BD2DE9F041B1
:103490000D4EB04216D10D4F0D46002404E0385DAC
:1034A00000F06AFF641CA4B2AC42F8D34FF48072FF
:1034B00006490548FFF7C5FFF06B0068016821F079
:1034C00008010160BDE8F081D80400202807002031
:1034D00070470000F8B5016804460868CA684B697F
:1034E00010F00F0F4FF0000559D003F0010602F461
:1034F0009077374365D0C10705D0D10503D5616CFE
:1035000041F001016164410705D5D90703D0616C21
:1035100041F002016164810705D5D90703D0616CD0
:1035200041F004016164010707D502F02001314335
:1035300003D0616C41F008016164616C00293AD0EC
:10354000800604D5900602D5204601F0EAFE2068E8
:103550004069616CC0F38010090700D460B3204655
:1035600001F0AAFE20684069400621D52068143089
:1035700050E8001F21F0400140E80012002AF5D178
:10358000E06BA8B172490165E06BFEF748FA0028CC
:1035900011D0E06B016D01B0BDE8F0400847830633
:1035A0000FD593060DD52046BDE8F84001F0B9BE11
:1035B0002046FFF78DFFF8BD2046FFF789FF6564C1
:1035C000F8BD266B2023012E7ED1C6067CD5D606FB
:1035D0007AD508684868009048694FF002064006AE
:1035E0004DD5E26B106840684FF480770004000C02
:1035F0003AD0A18D814237D9E085D069B8422DD02B
:1036000020680C3050E8001F21F4807140E800125F
:10361000002AF5D12068143050E8001F21F0010184
:1036200040E80012002AF5D12068143050E8001F4D
:1036300021F0400140E80012002AF5D184F8423020
:10364000256320680C3050E8001F21F0100140E88D
:103650000012002AF5D1E06BFEF798F96663A08DA1
:10366000E18D401A81B206E0A18D8142A8D1D069D6
:10367000B842A5D166632046FFF708FFF8BDA08DCC
:10368000E18D401A81B2E08D0028F7D00029F5D0F5
:1036900020680C3050E8002F22F4907240E8002798
:1036A000002FF5D12068143050E8002F22F00102DD
:1036B00040E80027002FF5D184F8423025632068C8
:1036C0000C3050E8002F00E006E022F0100240E845
:1036D0000023002BF3D1CDE705062BD5150629D500
:1036E00094F841002128C9D1A068B0F5805F01D1CC
:1036F0002069B0B1206A411C2162216800784860CD
:10370000E08C401E0004000CE084B7D12068C16842
:1037100021F08001C1602068C16841F04001C160B2
:10372000F8BD206A0088C0F308004860206A801C49
:103730002062E5E74006F3D55006F1D5CA68204679
:1037400022F04002CA6084F8413000F023F9F8BD4D
:10375000BD51000870B5040004D094F84100002564
:1037600010B106E0012070BD84F84050204600F002
:1037700023F8242084F841002068C16821F4005116
:10378000C160204601F02EFE2068016921F49041BD
:1037900001612068416921F02A0141612068C16806
:1037A00041F40051C1606564202084F8410084F830
:1037B00042006563002070BD2DE9F04186B00646E9
:1037C00014216846FCF736FDDFF80CC13168434828
:1037D000022203230827424D0024614552D13F496C
:1037E0001031D1F800C04CF4002CC1F800C00968B9
:1037F00001F400210591016841F0040101600068B5
:10380000694600F00400059098028DE81500CDE9A6
:1038100003372846FEF79CFA334D32484FF4806850
:1038200047052860C5E90174C5E903486C61AC61CE
:10383000EC612C6228466C62FEF7D6F908B1FDF700
:10384000F2FAF563AE63284D264860353030E5E87E
:1038500002074020A5E81101234845F814496030CB
:10386000AC61EC612C626C62FEF7BEF908B1FDF749
:10387000DAFAB563002211463420AE63FEF79EFFEC
:10388000342023E0194EB14222D1144914310E687C
:1038900046F020060E60096801F0200105910168DC
:1038A00041F0040101600068694600F004000590E1
:1038B000C0208DE81500CDE903372846FEF748FA09
:1038C000002205214720FEF779FF4720FEF769FF18
:1038D00006B0BDE8F0810000004C004030380240E6
:1038E00000080240406002406805002000140140CA
:1038F000704770472DE9F843044690F84100984618
:1039000016460D46202802D00220BDE8F88385B176
:103910007EB100206064212084F84100FEF71AFB8C
:10392000A6848146E684A0682027B0F5805F02D097
:1039300003E00120E9E7206910B12E4600250EE0E2
:1039400000260CE08021204601F022FEA8B9C6B175
:1039500016F8010B21684860E08C401EE084E08C82
:103960004B464FF00002CDF800800028EAD14FF01E
:103970004001204601F00CFE40B184F84170032064
:10398000C3E735F8020BC0F30800E3E784F84170A1
:103990000020BAE77047FEE70148FEF7E3BA0000EF
:1039A000580300200148FEF73ABB000058030020EE
:1039B0000148FEF7D7BA0000AC0300200148FEF72B
:1039C0002EBB0000AC03002038B5806B002190F8BE
:1039D0003D202B4B46F2A8141B68B3FBF4F3C3EB5A
:1039E000C30303EB830300933BB15B1E00930368A7
:1039F0001B689B0505D5009BF6E7036C43F020038D
:103A00000364436B03B1D963836B03B1D963036868
:103A10001C6824F480641C604185436B03B1196504
:103A2000836B03B1196503681C6824F001041C60F2
:103A300090F83D402023602C0BD0282434EA020269
:103A40000FD080F83D3080F83E1000BFFEF7FFFB3E
:103A500038BD80F83D3080F83E100164FEF780FAF2
:103A600038BD0268136843F00103136002681368ED
:103A700043F480631360016380F83D40E6E7000093
:103A80002C00002000684169C943090601D40021C7
:103A90000161704770B5044690F83D0094F83E10FF
:103AA000102901D0402906D1222804D121680A68B2
:103AB00022F400620A60282131EA00024FF000057A
:103AC0004FF0200626D021684968090505D46028F2
:103AD00003D084F83D6084F83E5025632068416837
:103AE000090537D5416821F400614160606B90F8A9
:103AF00035203C49012A11D00165606BFDF78FFF2D
:103B000038B32068016821F00101016084F83D604C
:103B1000606B1CE0256384F83D10DFE7A06B016556
:103B2000A06BFDF77CFFA0B120684169C94349063D
:103B300005D40069616A0870606A401C6062206890
:103B4000016821F00101016084F83D60A06B016D06
:103B5000884710E094F83D10602910D04169C943AE
:103B6000490605D40069616A0870606A401C606299
:103B70002046FEF76CFB206CC1071CD115E084F8D1
:103B80003D6025644169C943490605D40069616AFD
:103B90000870606A401C60622068016821F00101C1
:103BA00001602046FEF7DCF9E5E7810703D4410711
:103BB00001D4000704D52068416821F4E061416028
:103BC00094F83D00216C49070BD5282809D10648F7
:103BD000E062256384F83D6084F83E502046FEF79D
:103BE00009FC70BDC93900080000FFFF10B5C26AAA
:103BF000438D0168042B06D0438D032B08D0438DE1
:103C0000022B1DD012E04A6822F480624A600CE068
:103C10004B6823F480634B60042A06D0022A04D048
:103C200001680A6822F480620A6001680969426AD0
:103C30001170416A491C4162418D491E418510BD88
:103C4000012A34D0102A32D0042A34D0022A32D0A9
:103C50000B6843F400730B6001680969436A1970CB
:103C6000416A491C4162438D5B1E438503681B69A1
:103C70000B70416A491C4162418D491E41850168B2
:103C80004B6823F440734B60202180F83D1090F87E
:103C90003E300021402B80F83E1010D0082A02D080
:103CA000202A00D012210163FEF7A5FB10BD0B688E
:103CB00023F48063CFE70B6843F48063CBE70163B1
:103CC000FEF79CFB10BD000038B590F83D1022298E
:103CD00010D1C36A418D03290DD901680969426A6F
:103CE0001170416A491C4162418D491E4185418DD7
:103CF000032906D038BDC26A022A02D0012906D0A3
:103D000029B10068416821F48061416038BD2A4AC8
:103D100046F2A81400211268B2FBF4F202EB820210
:103D2000009202682024009D6D1E009526D0156823
:103D3000AD05F8D4156825F48065156002685568EE
:103D400025F4E065556002681269456A2A70426A86
:103D5000521C4262428D521E428580F83D4090F8CE
:103D60003E2080F83E10402A21D0082B02D0202B84
:103D700000D012210163FEF73EFB38BD036C43F017
:103D800020030364536823F4E063536002681269FC
:103D9000436A1A70426A521C4262428D521E428528
:103DA00080F83D4080F83E10FEF751FA38BD0163BF
:103DB000FEF724FB38BD00002C00002010B5C26ABD
:103DC00090F83D1021290BD1418D51B1416A026813
:103DD00009781161416A491C4162418D491E418542
:103DE00010BD20230021082A13D0202A11D012F55B
:103DF000803F0ED00268546824F4E06454601122BD
:103E0000026380F83E1080F83D3000BFFEF7F4FA00
:103E100010BD0268546824F4E064546002681468B9
:103E200044F400741460016380F83D3090F83E2043
:103E300080F83E10402AE9D1FEF742FB10BD000099
:103E400010B590F83D1090F83E30C26A048DB4B1C0
:103E5000212903D0402B11D122290FD1418DE1B36B
:103E600090F83E10402942D0416A026809781161F9
:103E7000416A491C4162418D491E418510BD21297D
:103E8000E8D120230021082A13D0202A11D012F5CE
:103E9000803F0ED00268546824F4E064546011221C
:103EA000026380F83E1080F83D3000BFFEF7A4FAB0
:103EB00010BD0268546824F4E06454600268146819
:103EC00044F400741460016380F83D3090F83E20A3
:103ED00080F83E10402AE9D100E002E0FEF7F0FA57
:103EE00010BD0068416821F48061416010BDBDE8EB
:103EF000104000F0D3B8000078B590F83E50C26A88
:103F0000036B90F83D6000240168222E7AD1066D83
:103F10000EB9402D76D0056D1DB90569B5F5404F38
:103F200009D0458D05B3468D384D012E0ED0438DF9
:103F3000022B3AD05DE04A698A6900920A6842F42D
:103F400080720A60016D491C016578BDAA4213D1D7
:103F50000A6822F480620A6001684A68120503D583
:103F60000A6822F4806216E04A698A6900920A6847
:103F700042F400720A6039E0082A10D0202A0ED0DC
:103F8000122B0AD0042A03D0022A01D0102AE7D12A
:103F90000A6842F480620A6024E0012AE0D00A68DC
:103FA00022F480620A600168DEE7042A21D0022A36
:103FB0001FD0102A1DD00B6823F480630B600168AA
:103FC0000B6843F400630B6001684B681B0509D55F
:103FD000AA4212D0012A10D0082A0ED0102A0CD0E2
:103FE000202A0AD001684A6989690091046578BD70
:103FF00008E00B6843F48063E5E74A6842F48052C6
:104000004A60EFE7486988690090F0E70000FFFF29
:1040100090F83E10402910D00169B1F5804F19D0B9
:10402000016DA9B3016D012910D1416C5FF0F1025E
:1040300001F4407142EAD11106E0016D0029416CA2
:1040400005D0C9B241F0010100680161704701F07B
:10405000FE01F9E790F83D102129416C09D0C9B261
:1040600041F0010102681161416B29B1C96B49B985
:1040700002E001F0FE01F5E7816B0029E6D0C96B93
:104080000029E3D00068416841F400614160704755
:10409000FFE7416CF02201F44071CBE710B590F8D6
:1040A0003D10026D4AB1026D012A14D0026D022A40
:1040B00016D0BDE81040FFF7E5BCC16C0129816C4A
:1040C00002D0C1F3072108E00268C9B21161016D95
:1040D000891C016510BD816CC9B20268116123E0C1
:1040E00022291CD0428D0AB1212920D0428D002ADC
:1040F000F0D12129EED101684A6822F4E0624A60D9
:1041000001680A6842F400720A60002101632022FB
:1041100080F83D2080F83E10FEF7D2F910BD01680E
:104120000A6842F480720A60016D491CD1E7416A55
:10413000026809781161416A491C4162418D491E3A
:10414000418510BD38B50C4690F83D20002128254A
:10415000954302680B4605D051699169009180F83A
:104160003C3038BD556825F480655560E2435407FE
:1041700000D50121120601D5828900E0028B80F86A
:104180003C3092B2FDF7EDFE38BD00002DE9F04164
:1041900090F83D300446C26A002120261E4F006878
:1041A0006FF48065082A01D0202A01D1282B04D081
:1041B000212B17D04561BDE8F081E762426822F407
:1041C000E0624260206845612068026822F48062F3
:1041D0000260216384F83D6084F83E102046FEF7BB
:1041E00009F9E8E7E7622122226384F83D6084F858
:1041F0003E10416821F4E06141602068456120681B
:10420000016821F4806101602046FFF73BFC2046F5
:10421000FEF75BFACFE700000000FFFFF8B590F86B
:104220003D6004460068416821F4E0614160206817
:10423000002541690091016841F001010160206899
:10424000016821F48061016020684168090520D57A
:10425000474F222E48D02A2E46D0616B0968496804
:104260006185618D19B1216C41F0040121644168BF
:1042700021F400614160606BFDF7E3FB012808D089
:10428000606B0765606BFDF7CAFB10B1606B016D79
:104290008847608D08B320684169C943490708D43D
:1042A0000069616A0870606A401C6062608D401E2F
:1042B000608520684169C943490608D40069616A7C
:1042C0000870606A401C6062608D401E6085608D71
:1042D00018B1206C40F004002064206C00B320462C
:1042E000BDE8F840FFF7D6BBA16B09684968618556
:1042F000618D19B1216C41F004012164416821F400
:1043000000614160A06BFDF79CFB0128C1D0A06B50
:104310000765A06BFDF783FB0028BAD0A06BB6E75A
:104320002A2E06D12563282084F83D002046FEF77A
:10433000CBF994F83D10202028290DD0216B22299B
:1043400001D0222E07D1256384F83D0084F83E5029
:104350002046FEF7B9F9F8BD0649E162256384F805
:104360003D0084F83E502046FEF744F8F8BD0000BA
:10437000C93900080000FFFF2DE9F0474A4D2DED37
:10438000028B2A780AB955287ED148498854521C94
:10439000D0B228700B2877D3002210460B5C401C4B
:1043A0001A44C0B2D2B20A28F8D3887A4FF0000972
:1043B000904273D13D4C4878283C512804D0522873
:1043C00031D053286AD14BE0B1F90200B1F9048031
:1043D000B1F90660B1F90870B3EE000A02F0A0F876
:1043E0009FED338A404620EE080A84ED000AB3EEC2
:1043F000000A02F095F820EE080A304684ED010A22
:10440000B3EE000A02F08CF820EE080ADFED290A6C
:1044100084ED020A00EE107AB8EEC00A80EE201A8F
:1044200084ED091A3AE09FED248AB1F90200B1F94E
:104430000460B1F90670B0EE480A02F071F884ED3C
:10444000030AB0EE480A304602F06AF884ED040A26
:10445000B0EE480A384602F063F884ED050A1DE024
:104460009FED168AB1F90200B1F90460B1F9067046
:10447000B0EE480A02F054F884ED060AB0EE480A9D
:10448000304602F04DF800E00AE084ED070AB0EE95
:10449000480A384602F044F884ED080A85F800908E
:1044A000BDEC028BBDE8F0877800002050080020AA
:1044B0000AE81C410000C8420000FA4400003443EE
:1044C0002DE9F04114311433164607468DB29CB2E3
:1044D000F02800D3EF27F02E00D3EF264FF496718B
:1044E000481E8D4200D305468C4200D304462A2044
:1044F00000F0AEF9380A00F0A9F9F8B200F0A6F918
:10450000300A00F0A3F9F0B200F0A0F92B2000F07F
:104510009FF9280A00F09AF9E8B200F097F9200A0A
:1045200000F094F9E0B200F091F9BDE8F0412C20E0
:1045300000F08EB92DE9F0471E46DDF820801746C1
:104540000D460446F02800D3EF24F02F00D3EF27C8
:104550004FF48C71481E8D4200D305468E4200D325
:104560000646BC4202D920463C460746B54202D91F
:1045700028463546064633463A4629462046FFF742
:104580009FFF4FEA182A08F0FF09A8460CE02546CD
:1045900006E0504600F05AF9484600F057F96D1C05
:1045A000BD42F6D908F10108B045F0D9BDE8F08761
:1045B00030B587B014216846FBF73CFE194800244B
:1045C000016841F004010160016801F004010591F6
:1045D000016841F0080101600068134D00F0080017
:1045E00005900122BB212846FDF7AFFCBB200090BF
:1045F0000120CDE901040320039069462846FDF718
:10460000A7FB012210212846FDF79FFC0122202153
:104610002846FDF79AFC012280212846FDF795FCEB
:1046200007B030BD30380240000C024010B5FFF733
:10463000BFFF854C012210212046FDF786FC012298
:1046400011462046FDF781FC002202212046FDF79D
:104650007CFC002208212046FDF777FC6420FDF752
:1046600065FB012208212046FDF76FFC6420FDF761
:104670005DFB112000F0ECF87820FDF757FB3620A9
:1046800000F0E6F8082000F0F7F83A2000F0E0F833
:10469000052000F0F1F8B62000F0DAF80A2000F06A
:1046A000EBF8822000F0E8F8B22000F0D1F80C20FE
:1046B00000F0E2F80C2000F0DFF8002000F0DCF859
:1046C000332000F0D9F8332000F0D6F8B72000F0FE
:1046D000BFF8352000F0D0F8BB2000F0B9F8282052
:1046E00000F0CAF8C02000F0B3F80C2000F0C4F8C5
:1046F000C22000F0ADF8012000F0BEF8C32000F0A9
:10470000A7F8102000F0B8F8C42000F0A1F820208D
:1047100000F0B2F8C62000F09BF80F2000F0ACF8D3
:10472000D02000F095F8A42000F0A6F8A12000F019
:10473000A3F8E02000F08CF8D02000F09DF80020D5
:1047400000F09AF8022000F097F8072000F094F8A3
:104750000A2000F091F8282000F08EF8322000F0B6
:104760008BF8442000F088F8422000F085F80620FD
:1047700000F082F80E2000F07FF8122000F07CF8A4
:10478000142000F079F8172000F076F8E12000F00E
:104790005FF8D02000F070F8002000F06DF80220E3
:1047A00000F06AF8072000F067F80A2000F064F8CB
:1047B000282000F061F8312000F05EF8542000F06D
:1047C0005BF8472000F058F80E2000F055F81C2048
:1047D00000F052F8172000F04FF81B2000F04CF8C2
:1047E0001E2000F049F82A2000F032F8002000F0E6
:1047F00043F8002000F040F8002000F03DF8EF20E2
:1048000000F03AF82B2000F023F8002000F034F8F4
:10481000142000F031F8012000F02EF82B2000F0D9
:104820002BF8212000F014F8292000F011F82C209A
:1048300000F00EF8012202212046FDF786FBBDE8BC
:1048400010400A20FDF772BA000C024000F014B8C4
:1048500070B5084C0546002201212046FDF775FB86
:10486000284600F009F82046BDE8704001221146B4
:10487000FDF76BBB000C024070B5144E05460022DC
:1048800010213046FDF761FB002400222021304634
:10489000FDF75BFB280601D5012200E00022802104
:1048A0003046FDF752FB012220213046FDF74DFB3B
:1048B0006806641C050EE4B2082CE6D33046BDE859
:1048C000704001221021FDF740BB0000000C0240A7
:1048D0007FB5002415480094019402941249039472
:1048E00001604FF48031C0E901140461047680F85E
:1048F00020400F49C0E90A140125C561C46080F851
:1049000030404561FCF779FE08B1FCF78CFA0420D1
:10491000CDE90005694602940448FCF72DFD002806
:1049200001D0FCF780FA7FBD00200140C0010020CB
:104930000100000F7FB500211C48009101910291F8
:10494000194A0391026001244FF480320461C0E9E6
:104950000121017680F820101203C26202254FF077
:10496000A062C5618262C16080F830404461FCF79A
:1049700044FE08B1FCF757FA0520CDE900040420F5
:10498000029069460948FCF7F7FC08B1FCF74BFABE
:104990000820CDE9000569460448FCF7EDFC002835
:1049A00001D0FCF740FA7FBD002101400802002041
:1049B0007FB500211C48009101910291194A039191
:1049C000026001244FF480320461C0E901210176C4
:1049D00080F820101203C26202254FF01062C561F8
:1049E0008262C16080F830404461FCF706FE08B185
:1049F000FCF719FA0A20CDE9000404200290694668
:104A00000948FCF7B9FC08B1FCF70DFA0D20CDE917
:104A1000000569460448FCF7AFFC002801D0FCF70C
:104A200002FA7FBD0022014050020020194808B55B
:104A3000016841F400110160016801F40011009166
:104A4000016841F4800101600068002200F48000E8
:104A5000009004210D20FDF7B1FE0D20FDF7A1FE11
:104A6000002204210F20FDF7A9FE0F20FDF799FE7B
:104A7000002202213820FDF7A1FE3820FDF791FE2B
:104A8000002202213A20FDF799FEBDE808403A20B5
:104A9000FDF787BE3038024000B587B01421684664
:104AA000FBF7C8FB1A480021026842F0800202604E
:104AB000026802F080020592026842F0040202607D
:104AC000026802F004020592026842F001020260EC
:104AD000026802F001020592026842F002020260DE
:104AE000026802F002020592026842F008020260C7
:104AF0000068029100F0080005904FF44050CDE9A5
:104B0000000169460348FDF723F907B000BD000026
:104B1000303802400004024010B51F20FDF730FE7F
:104B20002020FDF72DFE144812494FF48042016009
:104B30001249416000218160C0E903124161816135
:104B4000C1610162FDF792FB08B1FCF76CF900222C
:104B500011461F20FDF732FE002211462020FDF7EE
:104B60002DFE1F20FDF71DFEBDE810402020FDF7A3
:104B700018BE00000054004058030020801A0600B0
:104B800010B54820FDF7FCFD4920FDF7F9FD14485C
:104B900012494FF480420160124941600021816056
:104BA000C0E9031241618161C1610162FDF75EFBF1
:104BB00008B1FCF738F9002211464820FDF7FEFD48
:104BC000002211464920FDF7F9FD4820FDF7E9FDD7
:104BD000BDE810404920FDF7E4BD0000005C004046
:104BE000AC030020801A060010B58AB00024079498
:104BF0001C2168460894FBF71DFB25484FF08041B7
:104C0000C0E900142021816040F21941C0E9031479
:104C100080218161FEF751FB08B1FCF704F9702097
:104C2000CDE9070407A91A48FEF7B0F808B1FCF768
:104C3000FAF86020009040F20D20CDE90104002236
:104C4000694613480494FEF7D2FA08B1FCF7EBF872
:104C5000042269460E48FEF7CAFA08B1FCF7E3F8E9
:104C6000082269460A48FEF7C2FA08B1FCF7DBF8E9
:104C7000042004900C2269460548FEF7B8FA08B1F2
:104C8000FCF7D1F80248FEF75DFA0AB010BD00004B
:104C90000004002010B58AB0002407941C21684647
:104CA0000894FBF7C7FA25482349C0E900142021DE
:104CB000816040F21941C0E9031480218161FEF74F
:104CC000FCFA08B1FCF7AFF87020CDE9070407A99A
:104CD0001A48FEF75BF808B1FCF7A5F860200090D1
:104CE00040F20D20CDE901040022694613480494E6
:104CF000FEF77DFA08B1FCF796F8042269460F48E2
:104D0000FEF775FA08B1FCF78EF8082269460B48E1
:104D1000FEF76DFA08B1FCF786F8042004900C2227
:104D200069460648FEF763FA08B1FCF77CF80348C9
:104D3000FEF708FA0AB010BD000800404804002041
:104D400010B586B00024174800940194029403948F
:104D500004941349059401605321C0E901143121E1
:104D6000C0E903148461FEF759F808B1FCF75BF859
:104D70004FF48050009069460A48FEF7DBF808B10E
:104D8000FCF751F82020CDE9040404A90548FDF7FB
:104D9000FDFF002801D0FCF746F806B010BD00006A
:104DA000000C0040900400200C4810B50A49016036
:104DB0004FF416514160002181600C22C160C0E9AE
:104DC00004128161C161FEF7C5FC002803D0BDE873
:104DD0001040FCF728B810BD004C0040D80400205B
:104DE0000C4810B50A4901604FF4E13141600021DF
:104DF00081600C22C160C0E904128161C161FEF7CB
:104E0000A9FC002803D0BDE81040FCF70CB810BD89
:104E10000014014020050020FEE7FEE770477047C0
:104E2000FDF754BC30B593B030216846FBF702FA69
:104E300014210CA8FBF7FEF91D480025016841F07C
:104E400080510160006800F080501190194801689D
:104E500041F4804101600068022400F48040119018
:104E600001200090000401908001CDE9064008AACD
:104E70000420A82182E813000B906846FDF7BAFDD4
:104E800008B172B6FEE70CA90F2081E831004FF49B
:104E9000A0500F904FF48050109005210CA8FDF702
:104EA000BFFC002801D072B6FEE713B030BD000091
:104EB00040380240007000400248016841F470012F
:104EC0000160704788ED00E00148FEF7A2B80000DD
:104ED00090040020F0B50268274B284D284E294F3A
:104EE000294C4FF0804C984209D0604507D0A84229
:104EF00005D0B04203D0B84201D0A04204D122F084
:104F0000700E4A6842EA0E0298421BD0604519D0E2
:104F1000A84217D0B04215D0B84213D0A04211D049
:104F20001A4DA8420ED01A4DA8420BD0194DA842D6
:104F300008D0194DA84205D0184DA84202D0184DEE
:104F4000A84203D122F44075CA682A434D6922F071
:104F500080022A438D68C5620D688562984201D03F
:104F6000A04201D109690163016841F004010160B7
:104F7000012141610260F0BD0000014000040040D9
:104F800000080040000C00400004014000400140C7
:104F9000004401400048014000180040001C00404F
:104FA0000020004010B501F01F030121046A994060
:104FB0008C430462016A9A401143016210BD10B52E
:104FC000846842EA032224F47F440A432243826035
:104FD00010BD826822F070020A4342F0070181602E
:104FE00070470000F0B5036A026A22F00102026213
:104FF00042688469124E24F073050C682C4323F038
:1050000002058B682B430D4DA84201D0B04205D15B
:1050100023F00807CB683B4323F00403A84201D0E8
:10502000B04205D14D6922F4407215438A692A4382
:1050300042608461496841630362F0BD0000014041
:1050400000040140F0B5026A036A23F01003036212
:10505000436884690D6824F4E64444EA05248D68B5
:1050600022F0200242EA05120F4D104EA84201D054
:10507000B04206D1CF6822F0800242EA071222F045
:105080004002A84201D0B04207D14D6923F44063E9
:1050900043EA85038D6943EA850343608461496877
:1050A00081630262F0BD0000000001400004014085
:1050B000F0B5026A036A23F4807303624368C4692B
:1050C00022F4007224F073050C68124E2C438D6894
:1050D00042EA05220E4DA84201D0B04206D1CF6867
:1050E00022F4006242EA072222F48062A84201D040
:1050F000B04207D14D6923F4405343EA05138D694B
:1051000043EA05134360C4614968C1630262F0BDAC
:10511000000001400004014030B5046A026A22F434
:10512000805202624268C3690D6823F4E64343EA91
:1051300005238D6824F4005444EA0534084DA84240
:1051400002D0084DA84204D14D6922F4804242EABF
:1051500085124260C36149680164046230BD000089
:10516000000001400004014010B5036A046A24F005
:1051700001040462846924F0F00444EA021423F078
:105180000A020A438461026210BD10B5036A046A10
:1051900024F010040462846923F0A00324F4704412
:1051A00044EA023243EA01118261016210BD00004B
:1051B0000148FEF78FB90000D804002010B5806BBD
:1051C0000021C185FEF784F910BD70B5846B20689D
:1051D000406994F84110C0F3C0100025212904D182
:1051E00018B1E584204600F08EF82068406994F8F4
:1051F0004210C0F38010222904D118B1E585204661
:1052000000F05AF8606C40F0100060642046FEF731
:105210005FF970BD10B50146806B096809684FF0F1
:105220000002C9052ED4C28501680C3151E8003F47
:1052300023F4807341E80034002CF5D10168143167
:1052400051E8003F23F0010341E80034002CF5D180
:105250000168143151E8003F23F0400341E8003475
:10526000002CF5D1202180F84210016B012909D1D1
:1052700001680C3151E8003F23F0100341E800348D
:10528000002CF5D14263016B012902D0FEF730FBFF
:1052900010BD818DFEF7FAF810BD10B5806B0121AD
:1052A0004163016B012902D0FEF723FB10BD818D04
:1052B0004908FEF7EBF810BD01680C3151E8002FEA
:1052C00022F4907241E80023002BF5D101681431DB
:1052D00051E8002F22F0010241E80023002BF5D114
:1052E000016B012909D101680C3151E8002F22F02E
:1052F000100241E80023002BF5D1202180F8421054
:1053000000210163704701680C3151E8002F22F041
:10531000C00241E80023002BF5D1202180F8411084
:10532000704708B590F84210222901D0022008BD2C
:1053300082684FF480539A4201D1016921B1816A98
:105340009A421BD04AB10AE00268816A5268C2F3ED
:1053500008020A80816A891C08E0026972B1026849
:10536000526802F07F020A70816A491C8162C18D15
:10537000491E0904090CC18503D01BE0026852686C
:10538000F1E70168CA6822F02002CA600168CA68B1
:1053900022F48072CA6001684A6922F001024A61FF
:1053A000202180F8421000214163026B012A03D0C2
:1053B000FEF79EFA002008BD016301680C3151E838
:1053C000002F22F0100241E80023002BF5D10168E4
:1053D0000A68D20602D50A6849680091818DFEF7F5
:1053E00055F8E7E770B5044600680169E26821F402
:1053F0004051114301612169A068E2690843616974
:10540000114308432168CA6849F20C639A43024376
:10541000CA6020684169A26921F440711143416169
:1054200031492068884202D03049884202D1FDF7D4
:10543000A1FA01E0FDF78EFAE26900231921642543
:105440003226B2F5004F626828D0A0FB0101930F0D
:105450009200FAF7B7FE0146B0FBF5F06FF01802C4
:10546000504301EB800006EB0010B0FBF5F000F0BC
:10547000F002B1FBF5F002EB0012B1FBF5F06FF0BA
:105480001803584301EB800006EB0010B0FBF5F069
:1054900000F00F0021681044886070BDA0FB01017E
:1054A00092185B41FAF78EFE0146B0FBF5F002015F
:1054B000B1FBF5F06FF01803584301EB800006EBE9
:1054C000C000B0FBF5F000F0F80002EB4002B1FBC9
:1054D000F5F0584301EB800006EBC000B0FBF5F09F
:1054E00000F00700D6E70000001001400014014062
:1054F00038B581620446828500201346606422220A
:1055000084F84220E56B1F4AEA63E56B1E4A2A6471
:10551000E56B1E4AEA64E26B10650A462168E06B9F
:10552000091DFCF7CBFB30B110206064202084F80B
:105530004200012038BD2068016840680090206961
:1055400048B120680C3050E8001F41F4807140E8F9
:105550000012002AF5D12068143050E8001F41F0F5
:10556000010140E80012002AF5D12068143050E80B
:10557000001F41F0400140E80012002AF5D1002050
:1055800038BD0000155200089B520008CB5100089E
:105590002DE9F843984617460D460446089E24E038
:1055A000701C22D0FCF7D6FCA0EB0800B0421AD841
:1055B000CEB12068C168490717D5802D15D0402D80
:1055C00013D00168C94309070FD40168002540685A
:1055D00000902046FFF770FE0820606484F8405079
:1055E0000120BDE8F8830320FBE72068006835EA66
:1055F000000004D00020B842D2D00020F1E7012002
:10560000F9E700000148FDF765BF00002005002014
:10561000FEE700000FB4054B10B503A9044A029839
:1056200000F04EFB10BC5DF814FB0000096500089B
:10563000900000204100080218BF04200A0E18BF85
:1056400040F001004FF07F4232EA010108BF40F014
:105650000200012808BF052070470907090E00282D
:1056600004DB00F1E02080F80014704700F00F0028
:1056700000F1E02080F8141D7047000010EE101AB1
:1056800008B5444A6846B2EB410F28D94FF0E640CE
:10569000B0EB410F94BF00204FF0FF300090009816
:1056A000002861DB60EE000A10F0010F45D010F019
:1056B000020FDFED391A9FED391A00EEE11ADFED26
:1056C000381A40EE811A21EEA01AF0EE400A40EEA0
:1056D000010A08BFF1EE600AB0EE600A08BD314B66
:1056E00021F0004293423CD911F0004FDFED2E0A29
:1056F00020EE201ADFED2D0A19BF31EE601A71EE8F
:10570000200A31EE201A71EE600ABDEEE01A11EEA9
:10571000100A9FED271A00F0030000EEC10A9FED6A
:10572000251A009000EEC10A9FED231A00EEC10A6F
:105730009FED221A00EEC10AB1E79FED211A9FEDFD
:10574000210A10F0020F00EE810A9FED1F1A00EEF1
:10575000801AB7EE000A00EE810A18BFB1EE400AC7
:1057600008BD00F02BF99AE710EE100A4000B0F1E6
:105770007F4F3CBFB7EE000A08BD07D14FF00100D4
:1057800000F0D6F9BDE8084000F008B9BDE80840CF
:1057900000F001B9B61F927E336D4C39DA82083CB5
:1057A000A0AA2ABE490E494683F9223F0000004BB9
:1057B0000000C93F00A0FD390020A2331A61342C3B
:1057C000B93AB2BACA9F2A3DDDFFFFBE00B510EE5E
:1057D000101A2DED028B81B0524A6846B2EB410F90
:1057E0002ED94FF0E640B0EB410F94BF00204FF0B0
:1057F000FF3000900098B0EE408A00286ADB10F07D
:10580000010F4BD068EE080A9FED471A9FED470A3B
:1058100000EE810A9FED461A10F0020F00EE801A8A
:10582000B7EE000A00EE810A02BF01B0BDEC028BA8
:1058300000BD00BF01B0B1EE400ABDEC028B00BD5F
:105840003C4B21F00042934241D911F0004FDFED73
:105850003A0A20EE201ADFED390A19BF31EE601A3C
:1058600071EE200A31EE201A71EE600ABDEEE01AE8
:1058700011EE100A9FED321A00F0030000EEC10A8B
:105880009FED301A009000EEC10A9FED2F1A00EE36
:10589000C10A9FED2E1A00EEC10AABE728EE080AF6
:1058A0009FED2B1ADFED2B0A10F0020F40EE410A9C
:1058B0009FED291A00EE201A61EE000AB0EE480AA8
:1058C00008EE200AB6D101B0BDEC028B00BD00F09D
:1058D00075F88FE718EE100A4000B0F17F4F0DD237
:1058E00018EE100AFFF7A6FE042808BF00F05EF8C5
:1058F000B0EE480A01B0BDEC028B00BD09D1012019
:1059000000F016F901B0BDEC028B5DF804EB00F07D
:1059100045B801B0B0EE480ABDEC028B5DF804EB6F
:1059200000F039B8B61F927EB93AB2BACA9F2A3D82
:10593000DDFFFFBE490E494683F9223F0000004BC0
:105940000000C93F00A0FD390020A2331A61342CA9
:10595000336D4C39DA82083CA0AA2ABE10B52DED71
:10596000028BB1EEC08A18EE100A20F00040C0F1A0
:10597000FF40C00F0AD010EE100A20F00040C0F126
:10598000FF40C00F04BF012000F0D2F8B0EE480A7B
:10599000BDEC028B10BD30EE000A7047DFED020A4D
:1059A00080EEA00A70470000000000009FED020A90
:1059B00020EE000A70470000000000102DE9F00101
:1059C0004FF07F42B2EB410F9FBF4FF0FF310160BC
:1059D000BDE8F00170474FF0004242EA0123C1F3F5
:1059E000C752783A551112F01F0C434CCCF12006E7
:1059F0007C44C1F3C752A2F178024FEA621204EB71
:105A0000820254F8254008BFD2E9015612D05568E9
:105A100004FA0CF425FA06F73C43976805FA0CF5EE
:105A200027FA06F8D26807FA0CFCF24045EA0805A6
:105A30004CEA0206A4FB034CA5FB0352A6FB03633E
:105A40001D449D4234BF012600261319334416B16C
:105A5000934202D903E0934201D2012200E00022E6
:105A6000624402F1200C9206DC0C42EA443200EE61
:105A7000102A5B03DFED210AF8EEC01A00EE103A9F
:105A80004FEA9C1C11F0004FB8EE400AC0F800C06D
:105A900020EE201A00EE105ADFED190AB8EE400A87
:105AA00020EE200A71EE810A70EE800A10EE902A34
:105AB00002F500626FF30B0200EE902A70EEE11A1D
:105AC00031EEC11ADFED101A30EE411A9FED0D0ACA
:105AD00020EE800A01EE210A9FED0C1A00EE810AE9
